:020000040000FA
:0400000014EF00F009
:060008004682BFED0BF083
:100018004680E0CF60F000F060C0E0FF469010003E
:10002800BCEF14F090EC15F025EC15F0EEEC14F0A4
:10003800CDEC14F0000EB2EC11F0000E10EC12F042
:100048009EEC15F097EC15F03FEC15F00BEC15F065
:10005800A9EC15F0BBEC15F0B9EC15F018EC15F09F
:1000680088EC15F0ADEC15F0000E0001C66FC20E5D
:10007800C06F000EC16F000EC76FDEEC14F08CEF7E
:1000880000F06F0E636F7C0E646F58EC13F0C0C005
:1000980063F0C1C064F0040E0001BE6FBEC065F01D
:1000A80056EC14F0690E0001C219D8B45EEF00F0E6
:1000B80060EF00F069EF00F0490EC219D8A467EFAD
:1000C80000F069EF00F08CEF00F06E0EC319D8A4B1
:1000D80070EF00F072EF00F08CEF00F0690EC419B9
:1000E800D8A479EF00F07BEF00F08CEF00F0740EED
:1000F800C519D8A482EF00F084EF00F08CEF00F06F
:10010800010EC76F2E0E636F7F0E646F58EC13F0ED
:100118000001C751D8B493EF00F095EF00F045EF18
:1001280000F00001C705D8A49CEF00F09EEF00F096
:10013800FAEF00F0300EB06F350EB16F300E67EC8D
:1001480010F0300E0001B06F350EB16F300EE5ECD7
:100158000FF0020E0001BD6F040EBC6FBA0EE82E40
:10016800FED7BC2FFCD7BD2FFAD700F055EC15F001
:100178004AEC15F00001D951D8B4C5EF00F0C7EF2B
:1001880000F0BEEF00F0D851D8B4CDEF00F0CFEFBB
:1001980000F0BEEF00F0C30E636F7F0E646F58EC83
:1001A80013F0310E0001B06F350EB16F300E67ECF1
:1001B80010F0310E0001B06F350EB16F300EE5EC66
:1001C8000FF0000E0001D96F000ED86F000ED46F2B
:1001D800000ED36F000ED06F000ECF6F000EC76FEA
:1001E800DD0E636F7E0E646F58EC13F00001D705C7
:1001F800D8A401EF01F003EF01F038EF01F0D95175
:10020800D8B409EF01F00BEF01F003EF01F0D8517A
:10021800D8B411EF01F013EF01F003EF01F05D0E18
:10022800636F7E0E646F58EC13F0310E0001B06FEF
:10023800350EB16F300E67EC10F0310E0001B06F63
:10024800350EB16F300EE5EC0FF0000E0001D96FDE
:10025800000ED86F000ED46F000ED36F000ED06F53
:10026800000ECF6F000ED76FBA0E636F7F0E646FEC
:1002780058EC13F0DEEC14F00001C86F6D0EC819CD
:10028800D8B449EF01F04BEF01F054EF01F04D0EF7
:10029800C819D8A452EF01F054EF01F065EF01F04E
:1002A800A20E636F7E0E646F58EC13F0CC0E000143
:1002B800636F7F0E646F58EC13F093EC0AF095EFC0
:1002C80000F0700EC819D8B46CEF01F06EEF01F0B1
:1002D80077EF01F0500EC819D8A475EF01F077EF49
:1002E80001F099EF01F05A0E636F7D0E646F58ECC0
:1002F80013F0CC0E0001636F7F0E646F58EC13F09F
:10030800F29EE9EC10F0030E0001BD6F8A0EBC6F7F
:10031800550EE82EFED7BC2FFCD7BD2FFAD700D03C
:10032800A5EC15F0F28E95EF00F0730EC819D8B44D
:10033800A0EF01F0A2EF01F0ABEF01F0530EC819E6
:10034800D8A4A9EF01F0ABEF01F0CDEF01F0350E25
:10035800636F7E0E646F58EC13F0CC0E0001636F70
:100368007F0E646F58EC13F0F29EBFEC13F0030E8F
:100378000001BD6F8A0EBC6F550EE82EFED7BC2F4C
:10038800FCD7BD2FFAD700D0A5EC15F0F28E95EF6B
:1003980000F0680EC819D8B4D4EF01F0D6EF01F018
:1003A800DFEF01F0480EC819D8A4DDEF01F0DFEF48
:1003B80001F025EF02F0F90E636F7E0E646F58ECC2
:1003C80013F0CC0E0001636F7F0E646F58EC13F0CE
:1003D80055EC15F04AEC15F00001D951D8B4F7EFF7
:1003E80001F0F9EF01F0F0EF01F0D851D8B4FFEFC8
:1003F80001F001EF02F0F0EF01F0310EB06F350EB1
:10040800B16F300E67EC10F0310E0001B06F350E91
:10041800B16F300EE5EC0FF0000E0001D96F000E41
:10042800D86F000ED46F000ED36F000ED06F000E81
:10043800CF6FD50E636F7F0E646F58EC13F095EF96
:1004480000F0690EC819D8B42CEF02F02EEF02F0B4
:1004580037EF02F0490EC819D8A435EF02F037EF8C
:1004680002F053EF02F0800E636F7E0E646F58EC5B
:1004780013F0CC0E0001636F7F0E646F58EC13F01D
:100488007FEC15F076EC15F0010E0001D76FD50E54
:10049800636F7F0E646F58EC13F095EF00F0630EF6
:1004A800C819D8B45AEF02F05CEF02F065EF02F019
:1004B800430EC819D8A463EF02F065EF02F07DEF90
:1004C80002F0C10E636F7E0E646F58EC13F0CC0E11
:1004D8000001636F7F0E646F58EC13F03DEC09F078
:1004E800D50E0001636F7F0E646F58EC13F095EF23
:1004F80000F0620EC819D8B484EF02F086EF02F05B
:100508008FEF02F0420EC819D8A48DEF02F08FEFDA
:1005180002F0A7EF02F0140E636F7F0E646F58ECC1
:1005280013F0CC0E0001636F7F0E646F58EC13F06C
:1005380058EC0EF0D50E0001636F7F0E646F58EC17
:1005480013F095EF00F0E60E636F7F0E646F58ECC2
:1005580013F095EF00F014EF00F000019051800BBC
:10056800996F905190259B6F8FAFBDEF02F0BFEF51
:1005780002F0C0EF02F09B819B51D8B4C6EF02F0A5
:10058800C8EF02F0DDEF02F09B29D8A4CEEF02F00D
:10059800D0EF02F0D8EF02F0000E8D6F000E8E6FD4
:1005A800000E8F6F000E906F8F8F000E906FE5EF2B
:1005B80002F0000E8D6F000E8E6F000E8F6F000E12
:1005C800906F9451800B9A6F99519A19D8B4EFEFA4
:1005D80002F0F1EF02F0F2EF02F0998D94519425B8
:1005E8009A6F93AFFAEF02F0FCEF02F0FDEF02F022
:1005F8009A819A51D8B403EF03F005EF03F01AEF8C
:1006080003F09A29D8A40BEF03F00DEF03F015EFD0
:1006180003F0000E916F000E926F000E936F000EA4
:10062800946F938F000E946F22EF03F0000E916F7A
:10063800000E926F000E936F000E946F9B519A5D9F
:10064800D8B029EF03F02BEF03F052EF03F099AD88
:1006580030EF03F032EF03F034EF03F0800E991B14
:100668009BC09CF09AC09BF09CC09AF08DC09CF0F7
:1006780091C08DF09CC091F08EC09CF092C08EF01D
:100688009CC092F08FC09CF093C08FF09CC093F0F8
:1006980090C09CF094C090F09CC094F0000E9C6FA9
:1006A8009B519AC095F0966B955F000E965B96BF2E
:1006B80067EF03F0965109E11A0E955DD8A067EF30
:1006C80003F069EF03F0A0EF03F08D518E118F1145
:1006D8009011D8A472EF03F075EF03F0010E76EFD6
:1006E80003F0000E9C6F000E8D6F000E8E6F000ED3
:1006F8008F6F000E906F9AC09BF0A9EF03F09CA13A
:1007080088EF03F08AEF03F090EF03F0D8909C3164
:1007180001099C6F92EF03F0D8909C338DA197EF5D
:1007280003F099EF03F09AEF03F09C8F9035903324
:100738008F338E338D339B2B9A519B5DD8A0A7EFB7
:1007480003F0A9EF03F083EF03F099BDAEEF03F0D8
:10075800B0EF03F0F0EF03F09B51D8A4B6EF03F02D
:10076800B8EF03F0C2EF03F0000E8D6F000E8E6F2E
:10077800000E8F6F000E906F11EF05F091518D27CD
:1007880092518E2393518F239451902390A1CFEFB0
:1007980003F0D1EF03F07DEF04F09CA1D6EF03F056
:1007A800D8EF03F0DEEF03F0D8909C3101099C6F7D
:1007B800E0EF03F0D8909C338DA1E5EF03F0E7EF6D
:1007C80003F0E8EF03F09C8F903590338F338E332E
:1007D8008D339B2B7DEF04F091518D5D92518E5995
:1007E80093518F599051800A956F9451800A955969
:1007F800D8B001EF04F003EF04F02EEF04F08D51B0
:10080800915D956F8E519259966F8F519359976F4D
:1008180090519459986FFF0E95258D6FFF0E962174
:100828008E6FFF0E97218F6FFF0E9821906F800EAD
:10083800991B9C6D9C51D8A424EF04F026EF04F07A
:1008480036EF04F0010E8D27000E8E238F239023A0
:1008580036EF04F091518D5F92518E5B93518F5B0F
:100868009451905B8D518E118F119011D8A43FEF48
:1008780004F041EF04F076EF04F09C51D8A447EF60
:1008880004F049EF04F076EF04F0000E8D6F000ECF
:100898008E6F000E8F6F000E906F11EF05F0D890DD
:1008A8008D378E378F3790379CAF5DEF04F05FEF51
:1008B80004F060EF04F08D819CA165EF04F067EF10
:1008C80004F06BEF04F0D8809C376DEF04F0D890FB
:1008D8009C379B51D8B473EF04F075EF04F076EFB2
:1008E80004F09B078FAF7BEF04F07DEF04F053EF2C
:1008F80004F0000E9A6F9CAF84EF04F086EF04F0CA
:100908009EEF04F09CC095F07F0E9517D8B48FEF3A
:1009180004F091EF04F095EF04F0010E9A6F9EEF4A
:1009280004F08DA19AEF04F09CEF04F09EEF04F020
:1009380091EF04F09A51D8B4A4EF04F0A6EF04F0B4
:10094800D1EF04F0010E8D27000E8E238F23902304
:1009580090A1B1EF04F0B3EF04F0D1EF04F08DC033
:1009680095F08EC096F08FC097F090C098F09835AB
:10097800983397339633953395C08DF096C08EF0A3
:1009880097C08FF098C090F09B29D8B4CEEF04F0B0
:10099800D0EF04F0D1EF04F09B2B9B29D8B4D7EF0C
:1009A80004F0D9EF04F0E1EF04F09B51D8A4DFEF95
:1009B80004F0E1EF04F0F3EF04F0000E8D6F000E89
:1009C8008E6F000E8F6F000E906F9B51D8A4EFEFC3
:1009D80004F0F1EF04F0F3EF04F0000E996F9BA11F
:1009E800F8EF04F0FAEF04F0FDEF04F08F8FFEEF5C
:1009F80004F08F9FD8909B31906F99AF06EF05F068
:100A080008EF05F009EF05F0908F8DC08DF08EC0CE
:100A18008EF08FC08FF090C090F0120000017751D7
:100A2800800B806F77517725866F76AF1EEF05F0C4
:100A380020EF05F021EF05F086818651D8B427EF25
:100A480005F029EF05F03CEF05F08629D8A42FEF33
:100A580005F031EF05F039EF05F0000E746F000E68
:100A6800756F000E766F000E776F768F44EF05F086
:100A7800000E746F000E756F000E766F000E776FA4
:100A88007B51800B801B7B517B25856F7AAF4FEFA5
:100A980005F051EF05F052EF05F085818551D8B486
:100AA80058EF05F05AEF05F06DEF05F08529D8A449
:100AB80060EF05F062EF05F06AEF05F0000E786F61
:100AC800000E796F000E7A6F000E7B6F7A8F75EFCC
:100AD80005F0000E786F000E796F000E7A6F000E29
:100AE8007B6F8551D8B47BEF05F07DEF05F085EF7E
:100AF80005F08651D8A483EF05F085EF05F08FEF58
:100B080005F0000E746F000E756F000E766F000E04
:100B1800776F27EF07F07A517403F3CF8BF0F4CF98
:100B28008CF08B51816F826B836B846B8C51876FD8
:100B3800886B896B8A6B79517503F3CF8BF0F4CF8F
:100B48008CF08B518127000E8223832384238C51C0
:100B58008727000E882389238A2378517603F3CFC9
:100B68008BF0F4CF8CF08B518127000E82238323E6
:100B780084238C518727000E882389238A2383C0E6
:100B880084F082C083F081C082F0816B7851750354
:100B9800F3CF8BF0F4CF8CF08B5181278C518223CB
:100BA800000E8323000E842379517403F3CF8BF056
:100BB800F4CF8CF08B5181278C518223000E832334
:100BC800000E842383C084F082C083F081C082F049
:100BD800816B78517403F3CF8BF0F4CF8CF08B5189
:100BE80081278C518223000E8323000E84237A519F
:100BF8007503F3CF8BF0F4CF8CF08B5187278C5192
:100C08008823000E8923000E8A2379517603F3CFB7
:100C18008BF0F4CF8CF08B5187278C518823000EF2
:100C28008923000E8A237A517603F3CF8BF0F4CF11
:100C38008CF08B517C6F8C517D6F7E6B7F6B7EC08F
:100C48007FF07DC07EF07CC07DF07C6B7C51872777
:100C58007D5188237E5189237F518A2381C07CF06E
:100C680082C07DF083C07EF084C07FF0190E42EF11
:100C780006F0D8907F337E337D337C33E82E3DEF0A
:100C880006F07C5187277D5188237E5189237F5127
:100C98008A2383C084F082C083F081C082F0816B94
:100CA800855186C07CF07D6B7C27000E7D23820EEB
:100CB8007C258B6FFF0E7D218C6F78EF06F0D89026
:100CC8008737883789378A3784AF6DEF06F06FEF3B
:100CD80006F070EF06F08781D89081378237833726
:100CE80084378B07D8A08C0789AF7DEF06F07FEF9C
:100CF80006F063EF06F0000E856F84AF86EF06F00E
:100D080088EF06F0ACEF06F0FF0E81157C6FFF0E42
:100D180082157D6FFF0E83157E6F7F0E84157F6FA2
:100D28007C517D117E117F11D8B49DEF06F09FEFA5
:100D380006F0A3EF06F0010E856FACEF06F087A171
:100D4800A8EF06F0AAEF06F0ACEF06F09FEF06F06A
:100D58008551D8B4B2EF06F0B4EF06F0D8EF06F03C
:100D6800010E8727000E882389238A238AA1BFEFD3
:100D780006F0C1EF06F0D8EF06F087C07CF088C017
:100D88007DF089C07EF08AC07FF07F357F337E3367
:100D98007D337C337CC087F07DC088F07EC089F0CD
:100DA8007FC08AF08B4B8C2B8CBFE3EF06F08C5105
:100DB80008E18B29D8A0E3EF06F0E5EF06F0EFEFA6
:100DC80006F0000E876F000E886F800E896F7F0E09
:100DD8008A6F1DEF07F08CBFFCEF06F08C5106E11F
:100DE8008B05D8B0FAEF06F0FCEF06F008EF07F035
:100DF800000E876F000E886F000E896F000E8A6FD5
:100E0800000E806F1DEF07F08BC086F0FF0E87176E
:100E1800FF0E88177F0E8917000E8A1786A117EF15
:100E280007F019EF07F01AEF07F0898FD89086318D
:100E38008A6F80518A1387C074F088C075F089C0A2
:100E480076F08AC077F012001250800B1B6E125099
:100E58001224216E11AE33EF07F035EF07F036EFAD
:100E680007F021802150D8B43CEF07F03EEF07F09F
:100E780051EF07F02128D8A444EF07F046EF07F018
:100E88004EEF07F0000E0F6E000E106E000E116E82
:100E9800000E126E118E59EF07F0000E0F6E000E45
:100EA800106E000E116E000E126E1650800B1B1A7B
:100EB80016501624206E15AE64EF07F066EF07F0A3
:100EC80067EF07F020802050D8B46DEF07F06FEF80
:100ED80007F082EF07F02028D8A475EF07F077EF26
:100EE80007F07FEF07F0000E136E000E146E000E71
:100EF800156E000E166E158E8AEF07F0000E136E33
:100F0800000E146E000E156E000E166E2050D8B42A
:100F180090EF07F092EF07F09AEF07F02150D8A46E
:100F280098EF07F09AEF07F0A4EF07F0000E0F6EA6
:100F3800000E106E000E116E000E126E3CEF09F0DE
:100F480015500F02F3CF26F0F4CF27F026501C6E71
:100F58001D6A1E6A1F6A2750226E236A246A256A40
:100F680014501002F3CF26F0F4CF27F026501C2699
:100F7800000E1D221E221F2227502226000E232289
:100F88002422252213501102F3CF26F0F4CF27F0A4
:100F980026501C26000E1D221E221F222750222604
:100FA800000E2322242225221EC01FF01DC01EF081
:100FB8001CC01DF01C6A13501002F3CF26F0F4CFAA
:100FC80027F026501C2627501D22000E1E22000E38
:100FD8001F2214500F02F3CF26F0F4CF27F026502B
:100FE8001C2627501D22000E1E22000E1F221EC086
:100FF8001FF01DC01EF01CC01DF01C6A13500F020C
:10100800F3CF26F0F4CF27F026501C2627501D22B8
:10101800000E1E22000E1F2215501002F3CF26F0DC
:10102800F4CF27F02650222627502322000E242210
:10103800000E252214501102F3CF26F0F4CF27F02A
:101048002650222627502322000E2422000E252275
:1010580015501102F3CF26F0F4CF27F02650176E63
:101068002750186E196A1A6A19C01AF018C019F0B0
:1010780017C018F0176A1750222618502322195043
:1010880024221A5025221CC017F01DC018F01EC0BB
:1010980019F01FC01AF0190E57EF08F0D8901A323D
:1010A800193218321732E82E52EF08F0175022265C
:1010B80018502322195024221A5025221EC01FF02E
:1010C8001DC01EF01CC01DF01C6A205021C017F066
:1010D800186A1726000E1822820E1724266EFF0E95
:1010E8001820276E8DEF08F0D89022362336243644
:1010F80025361FAE82EF08F084EF08F085EF08F080
:101108002280D8901C361D361E361F362606D8A0DB
:10111800270624AE92EF08F094EF08F078EF08F075
:10112800000E206E1FAE9BEF08F09DEF08F0C1EF98
:1011380008F0FF0E1C14176EFF0E1D14186EFF0E1C
:101148001E14196E7F0E1F141A6E175018101910DE
:101158001A10D8B4B2EF08F0B4EF08F0B8EF08F0FE
:10116800010E206EC1EF08F022A0BDEF08F0BFEF1E
:1011780008F0C1EF08F0B4EF08F02050D8B4C7EF7A
:1011880008F0C9EF08F0EDEF08F0010E2226000E76
:1011980023222422252225A0D4EF08F0D6EF08F038
:1011A800EDEF08F022C017F023C018F024C019F0A2
:1011B80025C01AF01A341A3219321832173217C0E9
:1011C80022F018C023F019C024F01AC025F0264ACE
:1011D800272A27BEF8EF08F0275008E12628D8A0CC
:1011E800F8EF08F0FAEF08F004EF09F0000E226EAD
:1011F800000E236E800E246E7F0E256E32EF09F0EE
:1012080027BE11EF09F0275006E12604D8B00FEFEA
:1012180009F011EF09F01DEF09F0000E226E000E23
:10122800236E000E246E000E256E000E1B6E32EF2C
:1012380009F026C021F0FF0E2216FF0E23167F0E9E
:101248002416000E251621A02CEF09F02EEF09F028
:101258002FEF09F0248ED8902130256E1B502512CF
:1012680022C00FF023C010F024C011F025C012F0E6
:101278001200FB0E0001636F7F0E646F58EC13F0D1
:10128800000E0001916F000E926F400E936F420E98
:10129800946F0A0E786FD70E796F230E7A6F3C0E13
:1012A8007B6FD3C066F0D4C067F0686B696B000EC3
:1012B800A2EC0CF066C074F067C075F068C076F0F8
:1012C80069C077F012EC05F074C08DF075C08EF02F
:1012D80076C08FF077C090F0B1EC02F08DC09DF031
:1012E8008EC09EF08FC09FF090C0A0F0DEEC0EF094
:1012F80000019D51FDEC14F0000E0001916F000EED
:10130800926F400E936F420E946FCD0E786FCC0E95
:10131800796FCC0E7A6F3D0E7B6F000E646F640E92
:10132800636FD3C061F0D4C062F08CEC13F000019D
:1013380061C066F062C067F0686B696B000EA2EC72
:101348000CF066C074F067C075F068C076F069C0CC
:1013580077F012EC05F074C08DF075C08EF076C091
:101368008FF077C090F0B1EC02F08DC09DF08EC088
:101378009EF08FC09FF090C0A0F0DEEC0EF0000150
:101388009D51FDEC14F0000E0001646F640E636F54
:10139800D3C061F0D4C062F08CEC13F061C0A7F048
:1013A80062C0A8F0A7C061F0A8C062F0000E0001FA
:1013B800646F0A0E636F8CEC13F000016151300FFB
:1013C800FDEC14F0ED0E0001636F7F0E646F58ECB6
:1013D80013F0000E0001916F000E926F400E936F94
:1013E800420E946F0A0E786FD70E796F230E7A6FBC
:1013F8003C0E7B6FCFC066F0D0C067F0686B696B3E
:10140800000EA2EC0CF066C074F067C075F068C0FE
:1014180076F069C077F012EC05F074C08DF075C0F5
:101428008EF076C08FF077C090F0B1EC02F08DC0EE
:101438009DF08EC09EF08FC09FF090C0A0F0DEECB3
:101448000EF000019D51FDEC14F0000E0001916FAB
:10145800000E926F400E936F420E946FCD0E786F10
:10146800CC0E796FCC0E7A6F3D0E7B6F000E646FD9
:10147800640E636FCFC061F0D0C062F08CEC13F0E3
:10148800000161C066F062C067F0686B696B000EAE
:10149800A2EC0CF066C074F067C075F068C076F016
:1014A80069C077F012EC05F074C08DF075C08EF04D
:1014B80076C08FF077C090F0B1EC02F08DC09DF04F
:1014C8008EC09EF08FC09FF090C0A0F0DEEC0EF0B2
:1014D80000019D51FDEC14F0000E0001646F640ED4
:1014E800636FCFC061F0D0C062F08CEC13F061C0C4
:1014F800A7F062C0A8F0A7C061F0A8C062F0000E13
:101508000001646F0A0E636F8CEC13F000016151E7
:10151800300FFDEC14F00A0EFDEC14F01200000E72
:101528000001BB6F000EBA6F000EB96FF30E636F48
:101538007F0E646F58EC13F0DEEC14F00001E46FDA
:10154800DEEC14F00001E36FDEEC14F00001E26F52
:10155800F70E636F7F0E646F58EC13F0DEEC14F037
:101568000001E16FDEEC14F00001E06FDEEC14F036
:101578000001DF6FE451640DF3CFB5F0F4CFB6F09E
:10158800E3510A0DF350B527F450B623E251B527BD
:10159800000EB623300EB525B76FEB0EB621B86F27
:1015A800E151640DF3CFB5F0F4CFB6F0E0510A0D78
:1015B800F350B527F450B623DF51B527000EB623F4
:1015C800300EB525B96FEB0EB621BA6F3A0EE4614D
:1015D800F0EF0AF0F2EF0AF0FAEF0AF0300EE461E9
:1015E800F8EF0AF0FAEF0AF0FCEF0AF0010EBB6F11
:1015F8003A0EE36102EF0BF004EF0BF00CEF0BF087
:10160800300EE3610AEF0BF00CEF0BF00EEF0BF06E
:10161800010EBB6F3A0EE26114EF0BF016EF0BF000
:101628001EEF0BF0300EE2611CEF0BF01EEF0BF01B
:1016380020EF0BF0010EBB6F3A0EE16126EF0BF0C5
:1016480028EF0BF030EF0BF0300EE1612EEF0BF0CE
:1016580030EF0BF032EF0BF0010EBB6F3A0EE0618A
:1016680038EF0BF03AEF0BF042EF0BF0300EE06181
:1016780040EF0BF042EF0BF044EF0BF0010EBB6FA5
:101688003A0EDF614AEF0BF04CEF0BF054EF0BF022
:10169800300EDF6152EF0BF054EF0BF056EF0BF00A
:1016A800010EBB6F2D0EB75D010EB859D8B05FEFB4
:1016B8000BF061EF0BF074EF0BF02D0EB95D010E1E
:1016C800BA59D8B06AEF0BF06CEF0BF074EF0BF06F
:1016D800BB05D8A472EF0BF074EF0BF083EF0BF09F
:1016E800260E636F7D0E646F58EC13F0DE0E00015A
:1016F800636F7F0E646F58EC13F0BEEF0BF0B60EFD
:10170800636F7D0E646F58EC13F00001E451FDEC3B
:1017180014F00001E351FDEC14F00001E251FDEC7E
:1017280014F02C0EFDEC14F00001E151FDEC14F066
:101738000001E051FDEC14F00001DF51FDEC14F064
:101748000A0EFDEC14F0E3C0B0F0E2C0B1F0000105
:10175800E45167EC10F0E0C0B0F0DFC0B1F0000178
:10176800E151E5EC0FF0D50E0001636F7F0E646F59
:1017780058EC13F012000600F3CF3CF0F4CF3DF024
:10178800F6CF3EF0F7CF3FF0F8CF40F0F5CF41F07D
:10179800F2A4D1EF0BF0D3EF0BF0F3EF0BF04250C4
:1017A800D8A4D9EF0BF0DBEF0BF0DEEF0BF0000E57
:1017B8006EEC12F0CBC0CFF0CCC0D0F0F20E036EBE
:1017C8007C0E046E22EC13F0A60E036E7F0E046EE0
:1017D80022EC13F0000E0001DA6F8C80F2949EA0C8
:1017E800F8EF0BF0FAEF0BF01AEF0CF04350D8A417
:1017F80000EF0CF002EF0CF005EF0CF0000EC8EC57
:1018080012F0C9C0D3F0CAC0D4F0BE0E036E7C0E6D
:10181800046E22EC13F09C0E036E7F0E046E22EC15
:1018280013F0000E0001DB6F8C849E90F2A21FEF74
:101838000CF021EF0CF03EEF0CF01A0E3B6EF80E98
:10184800E82EFED73B2EFCD700D081A02EEF0CF05F
:1018580030EF0CF036EF0CF0880E036E7D0E046E40
:1018680022EC13F06BEC15F060EC15F0010E0001A2
:10187800D76FF292F0A243EF0CF045EF0CF069EF4E
:101888000CF01A0E3B6EF80EE82EFED73B2EFCD756
:1018980000D081A452EF0CF054EF0CF05AEF0CF08A
:1018A800E10E036E7D0E046E22EC13F0000EC8EC00
:1018B80012F0000E0001D46F000ED36F000E436EBD
:1018C800010ED96F000EDB6FF092F0A06EEF0CF0F6
:1018D80070EF0CF094EF0CF01A0E3B6EF80EE82E39
:1018E800FED73B2EFCD700D081A27DEF0CF07FEF16
:1018F8000CF085EF0CF00B0E036E7E0E046E22ECDE
:1019080013F0000E6EEC12F0000E0001D06F000E06
:10191800CF6F000E426E010ED86F000EDA6FF09096
:1019280041C0F5FF40C0F8FF3FC0F7FF3EC0F6FFDB
:101938003DC0F4FF3CC0F3FF4692110000016E6FFA
:1019480000016E51D8B4ABEF0CF0ADEF0CF0CFEF57
:101958000CF069BFB4EF0CF0B2EF0CF0CFEF0CF065
:1019680066C06AF067C06BF068C06CF069C06DF063
:101978006A1F6B1F6C1F6D1F6A2B000E6B236C2375
:101988006D236AC070F06BC071F06CC072F06DC0EE
:1019980073F0D7EF0CF066C070F067C071F068C0E4
:1019A80072F069C073F06651671168116911D8A4A3
:1019B800E0EF0CF0E2EF0CF0ECEF0CF0000E666FCD
:1019C800000E676F000E686F000E696F7DEF0DF0F7
:1019D800960E6F6FF6EF0CF06F2BD890733372334F
:1019E80071337033000E70156A6F000E71156B6FCE
:1019F800000E72156C6FFE0E73156D6F6A516B11C8
:101A08006C116D11D8A40BEF0DF00DEF0DF0F0EF88
:101A18000CF01BEF0DF06F2B010E7027000E7123D9
:101A280072237323D8907333723371337033000E7B
:101A380070156A6F000E71156B6F000E72156C6F62
:101A4800FF0E73156D6F6A516B116C116D11D8A46F
:101A580030EF0DF032EF0DF00FEF0DF03AEF0DF023
:101A68006F07D890703771377237733772BF3FEF8F
:101A78000DF041EF0DF049EF0DF0020E6F6147EFE9
:101A88000DF049EF0DF034EF0DF06FB14EEF0DF0A2
:101A980050EF0DF051EF0DF0729FD8906F336FC07B
:101AA8006AF06B6B6C6B6D6B6AC06DF06C6B6B6B1B
:101AB8006A6B6A5170136B5171136C5172136D51CB
:101AC80073136E51D8B46BEF0DF06DEF0DF075EF29
:101AD8000DF069BF74EF0DF072EF0DF075EF0DF0BA
:101AE800738F70C066F071C067F072C068F073C021
:101AF80069F01200096E0950D8B485EF0DF087EF30
:101B08000DF0A9EF0DF004BE8EEF0DF08CEF0DF087
:101B1800A9EF0DF001C005F002C006F003C007F000
:101B280004C008F0051E061E071E081E052A000E22
:101B380006220722082205C00BF006C00CF007C0D9
:101B48000DF008C00EF0B1EF0DF001C00BF002C0AF
:101B58000CF003C00DF004C00EF001500210031089
:101B68000410D8A4BAEF0DF0BCEF0DF0C6EF0DF0DD
:101B7800000E016E000E026E000E036E000E046E63
:101B880057EF0EF0960E0A6ED0EF0DF00A2AD89095
:101B98000E320D320C320B32000E0B14056E000E95
:101BA8000C14066E000E0D14076EFE0E0E14086E51
:101BB8000550061007100810D8A4E5EF0DF0E7EF60
:101BC8000DF0CAEF0DF0F5EF0DF00A2A010E0B2605
:101BD800000E0C220D220E22D8900E320D320C323D
:101BE8000B32000E0B14056E000E0C14066E000E60
:101BF8000D14076EFF0E0E14086E05500610071020
:101C08000810D8A40AEF0EF00CEF0EF0E9EF0DF073
:101C180014EF0EF00A06D8900B360C360D360E3639
:101C28000DBE19EF0EF01BEF0EF023EF0EF0020EB3
:101C38000A6021EF0EF023EF0EF00EEF0EF00AB05F
:101C480028EF0EF02AEF0EF02BEF0EF00D9ED89035
:101C58000A320AC005F0066A076A086A05C008F071
:101C6800076A066A056A05500B1206500C120750DF
:101C78000D1208500E120950D8B445EF0EF047EF78
:101C88000EF04FEF0EF004BE4EEF0EF04CEF0EF0DC
:101C98004FEF0EF00E8E0BC001F00CC002F00DC01D
:101CA80003F00EC004F01200000E0001696F8C886A
:101CB800D4EF0EF080AA63EF0EF065EF0EF082EF1E
:101CC8000EF01A0E0001686FF80EE82EFED7682F86
:101CD800FCD700F080AA73EF0EF075EF0EF082EFDC
:101CE8000EF0910E0001636F7F0E646F58EC13F0D5
:101CF800B6EC15F08C98010E0001696F82A887EF89
:101D08000EF089EF0EF0ABEF0EF01A0E0001686FBF
:101D1800F80EE82EFED7682FFCD700F082A897EFC0
:101D28000EF099EF0EF0ABEF0EF0860E0001636F28
:101D38007F0E646F58EC13F0B0EC15F082B8A7EF83
:101D48000EF0A9EF0EF0A0EF0EF0B6EC15F082AA97
:101D5800B0EF0EF0B2EF0EF0D4EF0EF01A0E000155
:101D6800686FF80EE82EFED7682FFCD700F082AA1D
:101D7800C0EF0EF0C2EF0EF0D4EF0EF0B00E00017F
:101D8800636F7F0E646F58EC13F0B3EC15F082BAF2
:101D9800D0EF0EF0D2EF0EF0C9EF0EF0B6EC15F062
:101DA80000016951D8B4DBEF0EF0DDEF0EF05EEF05
:101DB8000EF0120000019F35A035A66FA651D8A4D9
:101DC800E8EF0EF0EAEF0EF0F4EF0EF0000E9D6F64
:101DD800000E9E6F000E9F6F000EA06F61EF0FF058
:101DE8009DC0A1F09EC0A2F09FC0A3F0A0C0A4F027
:101DF800200E04EF0FF0D890A433A333A233A133FD
:101E0800E82EFFEF0EF0A151A56F9F8FFF0E9D17D3
:101E1800FF0E9E17FF0E9F17000EA017960EA65FC7
:101E2800A6BF1BEF0FF019EF0FF031EF0FF0A6511F
:101E3800800A970FD8B023EF0FF025EF0FF027EFA8
:101E48000FF0EAEF0EF0D890A0339F339E339D3306
:101E5800A63F27EF0FF049EF0FF01F0EA66537EFEB
:101E68000FF039EF0FF041EF0FF0EAEF0EF0D890D6
:101E78009D379E379F37A037A607A651D8A447EFAE
:101E88000FF049EF0FF03BEF0FF0A551D8B44FEF2B
:101E98000FF051EF0FF059EF0FF0A01F9F1F9E1F7B
:101EA8009D6D000E9E239F23A0239DC09DF09EC084
:101EB8009EF09FC09FF0A0C0A0F012002A342B34DF
:101EC800316E3150D8A46BEF0FF06DEF0FF077EF54
:101ED8000FF0000E286E000E296E000E2A6E000EFE
:101EE8002B6EE4EF0FF028C02CF029C02DF02AC08B
:101EF8002EF02BC02FF0200E87EF0FF0D8902F3246
:101F08002E322D322C32E82E82EF0FF02C50306E0C
:101F18002A8EFF0E2816FF0E2916FF0E2A16000E0F
:101F28002B16960E315E31BE9EEF0FF09CEF0FF030
:101F3800B4EF0FF03150800A970FD8B0A6EF0FF02A
:101F4800A8EF0FF0AAEF0FF06DEF0FF0D8902B323B
:101F58002A3229322832313EAAEF0FF0CCEF0FF0A7
:101F68001F0E3164BAEF0FF0BCEF0FF0C4EF0FF0A3
:101F78006DEF0FF0D890283629362A362B363106E1
:101F88003150D8A4CAEF0FF0CCEF0FF0BEEF0FF02E
:101F98003050D8B4D2EF0FF0D4EF0FF0DCEF0FF0E1
:101FA8002B1E2A1E291E286C000E29222A222B22CB
:101FB80028C028F029C029F02AC02AF02BC02BF00D
:101FC80012000001B46F0001DA05D8B4EEEF0FF08B
:101FD800F0EF0FF0E7EF0FF08C90B451640DF3CFF2
:101FE800B2F0F4CFB3F0B0510A0DF350B227F45069
:101FF800B323B151B227000EB323300EB225CB6FF5
:10200800EB0EB321CC6FCF51CB5D616FD051CC5962
:10201800626F35EC14F061C065F062C066F0000EC6
:102028000001686F050E676FA8EC14F065C0D1F069
:1020380066C0D2F00001CB51CF5DCC51D059D8B099
:1020480028EF10F02AEF10F02DEF10F08C8239EF06
:1020580010F0CF51CB5DD051CC59D8B036EF10F03D
:1020680038EF10F039EF10F08C92CF51CB1909E10D
:10207800D051CC19D8B443EF10F045EF10F060EF11
:1020880010F0500E636F7F0E646F58EC13F0000170
:10209800D151FDEC14F00A0EFDEC14F0010E000114
:1020A800DA6FD1C061F0D2C062F072EC14F0320E77
:1020B800B2EC11F066EF10F07B0E636F7F0E646F69
:1020C80058EC13F012000001B46F0001DB05D8B41E
:1020D80070EF10F072EF10F069EF10F08C94B451BB
:1020E800640DF3CFB2F0F4CFB3F0B0510A0DF35052
:1020F800B227F450B323B151B227000EB323300EE8
:10210800B225C96FEB0EB321CA6FD351C95D616F98
:10211800D451CA59626F35EC14F061C065F062C0E1
:1021280066F0000E0001686F050E676FA8EC14F0EA
:1021380065C0D5F066C0D6F00001C951D35DCA515B
:10214800D459D8B0AAEF10F0ACEF10F0AFEF10F000
:102158008C86BBEF10F0D351C95DD451CA59D8B0A1
:10216800B8EF10F0BAEF10F0BBEF10F08C96D35127
:10217800C91909E1D451CA19D8B4C5EF10F0C7EF8D
:1021880010F0E2EF10F0400E636F7F0E646F58ECB2
:1021980013F00001D551FDEC14F00A0EFDEC14F01B
:1021A800010E0001DB6FD5C061F0D6C062F08DEC86
:1021B80014F0320E10EC12F0E8EF10F0700E636FAE
:1021C8007F0E646F58EC13F01200000E0001686F68
:1021D800600E636F7F0E646F58EC13F0DEEC14F042
:1021E8000001DE6FDEEC14F00001DD6FDEEC14F0B0
:1021F8000001DC6F3A0EDE6104EF11F006EF11F01A
:102208000EEF11F0300EDE610CEF11F00EEF11F051
:1022180010EF11F0010E686F3A0EDD6116EF11F044
:1022280018EF11F020EF11F0300EDD611EEF11F004
:1022380020EF11F022EF11F0010E686F3A0EDC6109
:1022480028EF11F02AEF11F032EF11F0300EDC61B7
:1022580030EF11F032EF11F034EF11F0010E686F2A
:102268006805D8A43AEF11F03CEF11F044EF11F0F3
:10227800DE0E636F7F0E646F58EC13F052EF11F0AF
:10228800DDC061F0DCC062F0DE5153EC11F0D50E18
:102298000001636F7F0E646F58EC13F012000001A9
:1022A800656F00016551640DF3CF63F0F4CF64F0FE
:1022B80061510A0DF3506327F45064236251632778
:1022C800000E6423300E6325CD6FEB0E6421CE6FB4
:1022D800CD51CE11D8B473EF11F075EF11F0B1EF05
:1022E80011F0CE5107E1100ECD5DD8B07EEF11F0A0
:1022F80080EF11F0B1EF11F0000E666FA3EF11F04F
:102308008D90060E0001646F130E636FAD0EE82EFC
:10231800FED7632FFCD7642FFAD700D08D80060E26
:102328000001646F130E636FAD0EE82EFED7632FA6
:10233800FCD7642FFAD700D08D900001662B665128
:10234800636F646BCD51635DCE516459D8A0AFEF14
:1023580011F0B1EF11F084EF11F012000001AD6F30
:102368000A0E0001786FD70E796F230E7A6F3C0E34
:102378007B6FAD51666F676B686B696B010EA2EC82
:102388000CF066C074F067C075F068C076F069C07C
:1023980077F012EC05F074C0A9F075C0AAF076C009
:1023A800ABF077C0ACF0000E0001786F000E796FCB
:1023B8007A0E7A6F440E7B6FA9C074F0AAC075F0CC
:1023C800ABC076F0ACC077F012EC05F074C09DF0AD
:1023D80075C09EF076C09FF077C0A0F0DEEC0EF0DE
:1023E8009DC0AEF09EC0AFF0AEC0A7F0030E0001D6
:1023F800A717A73BBA50A719CF0BA719BA6EAEC03B
:10240800A7F0AFC0A8F0D890A833A733D890A833C6
:10241800A733A751BB6E12000001AD6F0A0E000171
:10242800786FD70E796F230E7A6F3C0E7B6FAD51A4
:10243800666F676B686B696B010EA2EC0CF066C087
:1024480074F067C075F068C076F069C077F012EC78
:1024580005F074C0A9F075C0AAF076C0ABF077C0DB
:10246800ACF0000E0001786F000E796F7A0E7A6F6B
:10247800440E7B6FA9C074F0AAC075F0ABC076F0AB
:10248800ACC077F012EC05F074C09DF075C09EF0FA
:1024980076C09FF077C0A0F0DEEC0EF09DC0AEF0E5
:1024A8009EC0AFF0AEC0A7F0030E0001A717A73B70
:1024B800BD50A719CF0BA719BD6EAEC0A7F0AFC00E
:1024C800A8F0D890A833A733D890A833A733A7513A
:1024D800BE6E1200386E0A0E136ED70E146E230EDF
:1024E800156E3C0E166E3850016E026A036A046A55
:1024F800010E7EEC0DF001C00FF002C010F003C019
:1025080011F004C012F028EC07F00FC034F010C02E
:1025180035F011C036F012C037F0000E136E000E01
:10252800146E7A0E156E440E166E34C00FF035C058
:1025380010F036C011F037C012F028EC07F00FC0C9
:1025480028F010C029F011C02AF012C02BF062EC5C
:102558000FF028C039F029C03AF039C032F0030E24
:102568003216323ABA503218CF0B3218BA6E39C016
:1025780032F03AC033F0D89033323232D890333216
:1025880032323250BB6E1200386E0A0E136ED70EFE
:10259800146E230E156E3C0E166E3850016E026ACC
:1025A800036A046A010E7EEC0DF001C00FF002C050
:1025B80010F003C011F004C012F028EC07F00FC0AF
:1025C80034F010C035F011C036F012C037F0000EEC
:1025D800136E000E146E7A0E156E440E166E34C00D
:1025E8000FF035C010F036C011F037C012F028ECEB
:1025F80007F00FC028F010C029F011C02AF012C04F
:102608002BF062EC0FF028C039F029C03AF039C03D
:1026180032F0030E3216323ABD503218CF0B321850
:10262800BD6E39C032F03AC033F0D890333232320E
:10263800D890333232323250BE6E120012EC14F09F
:10264800000E076E0728D8A42CEF13F02EEF13F016
:1026580030EF13F057EF13F007500324056E000E08
:102668000420066E05C0F6FF06C0F7FF0800F55007
:102678000009D8A442EF13F044EF13F046EF13F02B
:1026880057EF13F007500324056E000E0420066E62
:1026980005C0F6FF06C0F7FF0800F55032EC15F04C
:1026A800072A26EF13F01200EFEC13F0000E0001DA
:1026B800676F67516325656F000E6421666F65C09B
:1026C800F6FF66C0F7FF0800F5500009D8A46FEFC1
:1026D80013F071EF13F073EF13F08BEF13F06751F2
:1026E8006325656F000E6421666F65C0F6FF66C0DE
:1026F800F7FF0800F550FDEC14F00001672B67297F
:10270800D8A489EF13F08BEF13F05DEF13F01200EC
:10271800000163516411D8B494EF13F096EF13F0ED
:10272800BAEF13F0010E656F9EEF13F0D890633780
:102738006437652B64AFA3EF13F0A5EF13F09AEF9E
:1027480013F06351615D64516259D8A0AEEF13F084
:10275800B0EF13F0B4EF13F06351615F6451625B43
:10276800D89064336333652FA5EF13F061C061F02F
:1027780062C062F01200DEEC14F00001686F310EE6
:102788006819D8A4CAEF13F0CCEF13F0D5EF13F003
:102798008D80D50E636F7F0E646F58EC13F0EEEFEB
:1027A80013F0300E6819D8A4DCEF13F0DEEF13F045
:1027B800E7EF13F08D90D50E636F7F0E646F58ECC2
:1027C80013F0EEEF13F0DE0E636F7F0E646F58ECBC
:1027D80013F08D801200ABA2F4EF13F0F6EF13F0B4
:1027E80007EF14F0AECF61F0AECF61F0AECF61F07D
:1027F800AECF61F0AB98AB88ABB205EF14F007EF42
:1028080014F0F6EF13F0ABA40CEF14F00EEF14F085
:1028180011EF14F0AE50AC9AAC8A1200ABA217EFCD
:1028280014F019EF14F02AEF14F0AECF01F0AECF88
:1028380001F0AECF01F0AECF01F0AB98AB88ABB2F0
:1028480028EF14F02AEF14F019EF14F0ABA42FEFCF
:1028580014F031EF14F034EF14F0AE50AC9AAC8AA7
:102868001200000162BF43EF14F0625106E16105F6
:10287800D8B041EF14F043EF14F051EF14F061C0F9
:1028880063F062C064F0631F641F634B642B63C012
:1028980061F064C062F055EF14F061C061F062C08D
:1028A80062F01200EFEC13F0000E0001666F68EFA3
:1028B80014F066516325D96E000E6421DA6EDEECE1
:1028C80014F0DF6E0001662B6551665DD8A06FEFCE
:1028D80014F071EF14F05DEF14F012000001615173
:1028E8006211D8B47AEF14F07CEF14F08AEF14F088
:1028F80061510008636F6251D8A0E82A0008646F2C
:102908006451D76E63C0D6FF8CEF14F0D768D668D1
:102918001200000161516211D8B495EF14F097EFDD
:1029280014F0A5EF14F061510108636F6251D8A04B
:10293800E82A0008646F6451CF6E63C0CEFFA7EF2A
:1029480014F0CF68CE681200000165516703F3CF19
:1029580069F0F4CF6AF065516803F3506A2766514D
:102968006703F3506A2769C065F06AC066F0120011
:1029780000EEC9F01C0EEE6AE806FDE1456A446AFD
:10298800436A426A46904692000EF86E000116EFBE
:1029980000F09494BD50F00B0C09BD6EF90ECB6E8F
:1029A800030ECA12CF0EBD16000EBE6E000ECC6E00
:1029B800CA841200EFEC13F09EAAE5EF14F0E7EFDB
:1029C80014F0E0EF14F0AECF62F0000EAE6E00012E
:1029D8006251120094920F0EBA12F90ECB6E030ECA
:1029E800CA12CF0EBA16000EBB6E000ECC6ECA8489
:1029F80012000001626FEFEC13F0ACA206EF15F0C5
:102A080008EF15F001EF15F062C0ADFF1200CD9090
:102A1800CD8ECD96CD8CCD82CD849480000ECF6E98
:102A2800000ECE6ECD801200F292F288F18C938067
:102A3800F090F086F18A9382F092F088F18893847E
:102A48001200948C948E100EAF6EAC84B886AC9C39
:102A5800AC8AAC98AB8EAB9CAB881200026E12ECC1
:102A680014F0ACA23AEF15F03CEF15F035EF15F085
:102A780002C0ADFF1200D59ED59CD58AD598928804
:102A8800000ED76E000ED66ED58E12008C90010EF9
:102A9800426E8C92010E0001DA6F320EB2EC11F028
:102AA80012008C94010E436E8C96010E0001DB6FB0
:102AB800320E10EC12F012008C90010E426E8C92C5
:102AC800010E0001DA6F320E6EEC12F012008C94D7
:102AD800010E436E8C96010E0001DB6F320EC8ECBE
:102AE80012F012008C908C82010E0001DA6F320E07
:102AF800B2EC11F012008C948C86010E0001DB6F91
:102B0800320E10EC12F01200959A959C9598928AC4
:102B18008C988C9A8C9C12000F0EC112700ED36E7A
:102B28006D966F8612009590959294928C808C92F7
:102B38008B9212009594959694948C848C968B9491
:102B48001200F292F092F0901200D09EF28CF28E67
:102B5800120096908D9012008C8A8C9C12008C9A90
:102B68008C8C12008C9A8C9C12009D801200F28A28
:022B7800120049
:107C6E00004573637269626520696E697420706184
:107C7E0072612063616C696272617220656C20535F
:107C8E0050415243207920706F64657220616363A6
:107C9E006564657220616C20726573746F20646513
:107CAE00206C61732066756E63696F6E65730A0072
:107CBE00496E74657272757063696F6E20544D52A1
:107CCE00312C206C6C656761737465206120636F65
:107CDE006F7264656E616461206465736561646171
:107CEE0020580A00496E74657272757063696F6E02
:107CFE0020544D52302C206C6C6567617374652076
:107D0E006120636F6F7264656E6164612064657378
:107D1E006561646120590A004D657469737465204C
:107D2E00756E6120636F6F7264656E616461206948
:107D3E006E76616C6964612C207675656C76652053
:107D4E006120696E74656E7461720A00507265739B
:107D5E00696F6E6172205A2063696572746F206E4E
:107D6E00756D65726F20646520766563657320722C
:107D7E0065636962696461730A004F637572726943
:107D8E006F206C6120696E74657272757063696FB5
:107D9E006E206C696D6974537769746368334573CB
:107DAE007175696E61730A00436F6F7264656E61FF
:107DBE0064612072656369626964612C206C6F2056
:107DCE00717565207265636962696D6F7320667582
:107DDE00653A004F63757272696F206C6120696E2F
:107DEE0074657272757063696F6E206C696D6974FB
:107DFE00537769746368486F6D65580A004F6375F1
:107E0E007272696F206C6120696E74657272757022
:107E1E0063696F6E206C696D6974537769746368FA
:107E2E00486F6D65590A00506973746F6E207061EA
:107E3E007261206465736C697A6172206F2064656B
:107E4E006A617220726574726169646F3F0A0049DB
:107E5E006E74332045737175696E61732C20726573
:107E6E0063616C696272616E646F2053504152435C
:107E7E000A00566173206120697220696E66696E10
:107E8E0069746F2058206520696E66696E69746F1B
:107E9E0020590A005661732061206D6F766572203D
:107EAE00656C20537061726320656E2058207920B6
:107EBE00590A00496D70726D697220636F6F72643A
:107ECE00656E6164612061637475616C200A00598E
:107EDE006120657374612063616C69627261646FA5
:107EEE0020656C2053504152430A00566173206145
:107EFE00206972206120686F6D6558207920686F47
:107F0E006D6520590A00456E747261737465206147
:107F1E00206D6F766572206C6120626173650A0058
:107F2E00496E696369616C697A616E646F2E2E2E7B
:107F3E000A0078546F416476616E63652069733A06
:107F4E00200079546F416476616E63652069733ADF
:107F5E002000546F63617250616E74616C6C613A93
:107F6E000A00452C636F6F724163580A00452C63FB
:107F7E006F6F724163590A004D6F7641727269627A
:107F8E00610A000A53616C69656E646F0A004F6B7B
:107F9E002C636F6F72580A004F6B2C636F6F7259A0
:107FAE000A004D6F764142616A6F0A004F6B2C6377
:107FBE006F6D4E0A00534143414E444F0A004F6BC2
:107FCE002C636F6D560A004F6B2C636F6D460A0063
:107FDE00452C634E6F560A00452C636F6D0A0020C8
:107FEE002C593A2000583A0A00593A0A00583A20B9
:027FFE00000081
:020000040020DA
:08000000FFFFFFFFFFFFFFFF00
:020000040030CA
:0E00000000091F1EFF8381FF0FC00FE00F409D
:00000001FF
