:020000040000FA
:0400000014EF00F009
:06000800468291ED0BF0B1
:100018004680E0CF60F000F060C0E0FF469010003E
:100028008EEF14F050EC15F0F7EC14F0C0EC14F06F
:100038009FEC14F0000E84EC11F0000EE2EC11F0CD
:100048005EEC15F057EC15F011EC15F0DDEC14F042
:1000580069EC15F07BEC15F079EC15F0EAEC14F08E
:1000680048EC15F06DEC15F0000E0001C66FC20EDD
:10007800C06F000EC16F000EC76FB0EC14F08CEFAC
:1000880000F0910E636F7C0E646F2AEC13F0C0C011
:1000980063F0C1C064F0040E0001BE6FBEC065F01D
:1000A80028EC14F0690E0001C219D8B45EEF00F014
:1000B80060EF00F069EF00F0490EC219D8A467EFAD
:1000C80000F069EF00F08CEF00F06E0EC319D8A4B1
:1000D80070EF00F072EF00F08CEF00F0690EC419B9
:1000E800D8A479EF00F07BEF00F08CEF00F0740EED
:1000F800C519D8A482EF00F084EF00F08CEF00F06F
:10010800010EC76F2E0E636F7F0E646F2AEC13F01B
:100118000001C751D8B493EF00F095EF00F045EF18
:1001280000F00001C705D8A49CEF00F09EEF00F096
:10013800FAEF00F0300EB06F350EB16F300E39ECBB
:1001480010F0300E0001B06F350EB16F300EB7EC05
:100158000FF0020E0001BD6F040EBC6FBA0EE82E40
:10016800FED7BC2FFCD7BD2FFAD700F027EC15F02F
:100178001CEC15F00001D951D8B4C5EF00F0C7EF59
:1001880000F0BEEF00F0D851D8B4CDEF00F0CFEFBB
:1001980000F0BEEF00F0C30E636F7F0E646F2AECB1
:1001A80013F0310E0001B06F350EB16F300E39EC1F
:1001B80010F0310E0001B06F350EB16F300EB7EC94
:1001C8000FF0000E0001D96F000ED86F000ED46F2B
:1001D800000ED36F000ED06F000ECF6F000EC76FEA
:1001E800DD0E636F7E0E646F2AEC13F00001D705F5
:1001F800D8A401EF01F003EF01F038EF01F0D95175
:10020800D8B409EF01F00BEF01F003EF01F0D8517A
:10021800D8B411EF01F013EF01F003EF01F07F0EF6
:10022800636F7E0E646F2AEC13F0310E0001B06F1D
:10023800350EB16F300E39EC10F0310E0001B06F91
:10024800350EB16F300EB7EC0FF0000E0001D96F0C
:10025800000ED86F000ED46F000ED36F000ED06F53
:10026800000ECF6F000ED76FBA0E636F7F0E646FEC
:100278002AEC13F0B0EC14F00001C86F6D0EC81929
:10028800D8B449EF01F04BEF01F054EF01F04D0EF7
:10029800C819D8A452EF01F054EF01F065EF01F04E
:1002A800A20E636F7E0E646F2AEC13F0CC0E000171
:1002B800636F7F0E646F2AEC13F065EC0AF095EF1C
:1002C80000F0700EC819D8B46CEF01F06EEF01F0B1
:1002D80077EF01F0500EC819D8A475EF01F077EF49
:1002E80001F099EF01F07C0E636F7D0E646F2AECCC
:1002F80013F0CC0E0001636F7F0E646F2AEC13F0CD
:10030800F29EBBEC10F0030E0001BD6F8A0EBC6FAD
:10031800550EE82EFED7BC2FFCD7BD2FFAD700D03C
:1003280065EC15F0F28E95EF00F0730EC819D8B48D
:10033800A0EF01F0A2EF01F0ABEF01F0530EC819E6
:10034800D8A4A9EF01F0ABEF01F0CDEF01F0570E03
:10035800636F7E0E646F2AEC13F0CC0E0001636F9E
:100368007F0E646F2AEC13F0F29E91EC13F0030EEB
:100378000001BD6F8A0EBC6F550EE82EFED7BC2F4C
:10038800FCD7BD2FFAD700D065EC15F0F28E95EFAB
:1003980000F0680EC819D8B4D4EF01F0D6EF01F018
:1003A800DFEF01F0480EC819D8A4DDEF01F0DFEF48
:1003B80001F025EF02F0F90E636F7E0E646F2AECF0
:1003C80013F0CC0E0001636F7F0E646F2AEC13F0FC
:1003D80027EC15F01CEC15F00001D951D8B4F7EF53
:1003E80001F0F9EF01F0F0EF01F0D851D8B4FFEFC8
:1003F80001F001EF02F0F0EF01F0310EB06F350EB1
:10040800B16F300E39EC10F0310E0001B06F350EBF
:10041800B16F300EB7EC0FF0000E0001D96F000E6F
:10042800D86F000ED46F000ED36F000ED06F000E81
:10043800CF6FD50E636F7F0E646F2AEC13F095EFC4
:1004480000F0630EC819D8B42CEF02F02EEF02F0BA
:1004580037EF02F0430EC819D8A435EF02F037EF92
:1004680002F04FEF02F0C10E636F7E0E646F2AEC4C
:1004780013F0CC0E0001636F7F0E646F2AEC13F04B
:100488000FEC09F0D50E0001636F7F0E646F2AEC44
:1004980013F095EF00F0620EC819D8B456EF02F0C9
:1004A80058EF02F061EF02F0420EC819D8A45FEFCE
:1004B80002F061EF02F079EF02F0140E636F7F0E25
:1004C800646F2AEC13F0CC0E0001636F7F0E646F2B
:1004D8002AEC13F02AEC0EF0D50E0001636F7F0EA4
:1004E800646F2AEC13F095EF00F0E60E636F7F0E51
:1004F800646F2AEC13F095EF00F014EF00F00001A0
:100508009051800B996F905190259B6F8FAF8FEF13
:1005180002F091EF02F092EF02F09B819B51D8B468
:1005280098EF02F09AEF02F0AFEF02F09B29D8A4FF
:10053800A0EF02F0A2EF02F0AAEF02F0000E8D6F1A
:10054800000E8E6F000E8F6F000E906F8F8F000E53
:10055800906FB7EF02F0000E8D6F000E8E6F000ED9
:100568008F6F000E906F9451800B9A6F99519A1962
:10057800D8B4C1EF02F0C3EF02F0C4EF02F0998DD6
:10058800945194259A6F93AFCCEF02F0CEEF02F01E
:10059800CFEF02F09A819A51D8B4D5EF02F0D7EF95
:1005A80002F0ECEF02F09A29D8A4DDEF02F0DFEFB9
:1005B80002F0E7EF02F0000E916F000E926F000E4E
:1005C800936F000E946F938F000E946FF4EF02F008
:1005D800000E916F000E926F000E936F000E946FD5
:1005E8009B519A5DD8B0FBEF02F0FDEF02F024EFCB
:1005F80003F099AD02EF03F004EF03F006EF03F008
:10060800800E991B9BC09CF09AC09BF09CC09AF0EE
:100618008DC09CF091C08DF09CC091F08EC09CF074
:1006280092C08EF09CC092F08FC09CF093C08FF067
:100638009CC093F090C09CF094C090F09CC094F043
:10064800000E9C6F9B519AC095F0966B955F000EBB
:10065800965B96BF39EF03F0965109E11A0E955D46
:10066800D8A039EF03F03BEF03F072EF03F08D51A0
:100678008E118F119011D8A444EF03F047EF03F0C7
:10068800010E48EF03F0000E9C6F000E8D6F000EF8
:100698008E6F000E8F6F000E906F9AC09BF07BEFED
:1006A80003F09CA15AEF03F05CEF03F062EF03F054
:1006B800D8909C3101099C6F64EF03F0D8909C336B
:1006C8008DA169EF03F06BEF03F06CEF03F09C8FE3
:1006D800903590338F338E338D339B2B9A519B5D9E
:1006E800D8A079EF03F07BEF03F055EF03F099BD45
:1006F80080EF03F082EF03F0C2EF03F09B51D8A420
:1007080088EF03F08AEF03F094EF03F0000E8D6F8B
:10071800000E8E6F000E8F6F000E906FE3EF04F0E7
:1007280091518D2792518E2393518F239451902369
:1007380090A1A1EF03F0A3EF03F04FEF04F09CA109
:10074800A8EF03F0AAEF03F0B0EF03F0D8909C31C4
:1007580001099C6FB2EF03F0D8909C338DA1B7EFDD
:1007680003F0B9EF03F0BAEF03F09C8F90359033A4
:100778008F338E338D339B2B4FEF04F091518D5D6A
:1007880092518E5993518F599051800A956F945177
:10079800800A9559D8B0D3EF03F0D5EF03F000EFF6
:1007A80004F08D51915D956F8E519259966F8F51CE
:1007B8009359976F90519459986FFF0E95258D6FA7
:1007C800FF0E96218E6FFF0E97218F6FFF0E9821D7
:1007D800906F800E991B9C6D9C51D8A4F6EF03F086
:1007E800F8EF03F008EF04F0010E8D27000E8E23BA
:1007F8008F23902308EF04F091518D5F92518E5B07
:1008080093518F5B9451905B8D518E118F11901184
:10081800D8A411EF04F013EF04F048EF04F09C5152
:10082800D8A419EF04F01BEF04F048EF04F0000E11
:100838008D6F000E8E6F000E8F6F000E906FE3EFBE
:1008480004F0D8908D378E378F3790379CAF2FEFC5
:1008580004F031EF04F032EF04F08D819CA137EF02
:1008680004F039EF04F03DEF04F0D8809C373FEFF7
:1008780004F0D8909C379B51D8B445EF04F047EF6B
:1008880004F048EF04F09B078FAF4DEF04F04FEFF3
:1008980004F025EF04F0000E9A6F9CAF56EF04F0B9
:1008A80058EF04F070EF04F09CC095F07F0E951798
:1008B800D8B461EF04F063EF04F067EF04F0010EC1
:1008C8009A6F70EF04F08DA16CEF04F06EEF04F0F6
:1008D80070EF04F063EF04F09A51D8B476EF04F0A7
:1008E80078EF04F0A3EF04F0010E8D27000E8E239D
:1008F8008F23902390A183EF04F085EF04F0A3EFFA
:1009080004F08DC095F08EC096F08FC097F090C01F
:1009180098F09835983397339633953395C08DF082
:1009280096C08EF097C08FF098C090F09B29D8B4ED
:10093800A0EF04F0A2EF04F0A3EF04F09B2B9B2997
:10094800D8B4A9EF04F0ABEF04F0B3EF04F09B5177
:10095800D8A4B1EF04F0B3EF04F0C5EF04F0000E33
:100968008D6F000E8E6F000E8F6F000E906F9B5173
:10097800D8A4C1EF04F0C3EF04F0C5EF04F0000EF3
:10098800996F9BA1CAEF04F0CCEF04F0CFEF04F00D
:100998008F8FD0EF04F08F9FD8909B31906F99AFD5
:1009A800D8EF04F0DAEF04F0DBEF04F0908F8DC09D
:1009B8008DF08EC08EF08FC08FF090C090F0120036
:1009C80000017751800B806F77517725866F76AF5E
:1009D800F0EF04F0F2EF04F0F3EF04F086818651B3
:1009E800D8B4F9EF04F0FBEF04F00EEF05F0862918
:1009F800D8A401EF05F003EF05F00BEF05F0000EAA
:100A0800746F000E756F000E766F000E776F768F1D
:100A180016EF05F0000E746F000E756F000E766FFE
:100A2800000E776F7B51800B801B7B517B25856F78
:100A38007AAF21EF05F023EF05F024EF05F085816B
:100A48008551D8B42AEF05F02CEF05F03FEF05F0FB
:100A58008529D8A432EF05F034EF05F03CEF05F016
:100A6800000E786F000E796F000E7A6F000E7B6FA4
:100A78007A8F47EF05F0000E786F000E796F000E41
:100A88007A6F000E7B6F8551D8B44DEF05F04FEFAC
:100A980005F057EF05F08651D8A455EF05F057EF4C
:100AA80005F061EF05F0000E746F000E756F000E13
:100AB800766F000E776FF9EF06F07A517403F3CF73
:100AC8008BF0F4CF8CF08B51816F826B836B846BCE
:100AD8008C51876F886B896B8A6B79517503F3CF5B
:100AE8008BF0F4CF8CF08B518127000E8223832367
:100AF80084238C518727000E882389238A237851E1
:100B08007603F3CF8BF0F4CF8CF08B518127000E56
:100B18008223832384238C518727000E88238923EB
:100B28008A2383C084F082C083F081C082F0816B05
:100B380078517503F3CF8BF0F4CF8CF08B5181276C
:100B48008C518223000E8323000E84237951740371
:100B5800F3CF8BF0F4CF8CF08B5181278C5182230B
:100B6800000E8323000E842383C084F082C083F0A8
:100B780081C082F0816B78517403F3CF8BF0F4CF8E
:100B88008CF08B5181278C518223000E8323000E19
:100B980084237A517503F3CF8BF0F4CF8CF08B510B
:100BA80087278C518823000E8923000E8A237951C8
:100BB8007603F3CF8BF0F4CF8CF08B5187278C51D1
:100BC8008823000E8923000E8A237A517603F3CFF7
:100BD8008BF0F4CF8CF08B517C6F8C517D6F7E6BDA
:100BE8007F6B7EC07FF07DC07EF07CC07DF07C6B2B
:100BF8007C5187277D5188237E5189237F518A2301
:100C080081C07CF082C07DF083C07EF084C07FF01C
:100C1800190E14EF06F0D8907F337E337D337C3382
:100C2800E82E0FEF06F07C5187277D5188237E51EF
:100C380089237F518A2383C084F082C083F081C0D6
:100C480082F0816B855186C07CF07D6B7C27000E1D
:100C58007D23820E7C258B6FFF0E7D218C6F4AEFE2
:100C680006F0D8908737883789378A3784AF3FEFBF
:100C780006F041EF06F042EF06F08781D890813701
:100C88008237833784378B07D8A08C0789AF4FEF1B
:100C980006F051EF06F035EF06F0000E856F84AFD1
:100CA80058EF06F05AEF06F07EEF06F0FF0E8115BA
:100CB8007C6FFF0E82157D6FFF0E83157E6F7F0E92
:100CC80084157F6F7C517D117E117F11D8B46FEF31
:100CD80006F071EF06F075EF06F0010E856F7EEFF6
:100CE80006F087A17AEF06F07CEF06F07EEF06F0BB
:100CF80071EF06F08551D8B484EF06F086EF06F060
:100D0800AAEF06F0010E8727000E882389238A237D
:100D18008AA191EF06F093EF06F0AAEF06F087C0DC
:100D28007CF088C07DF089C07EF08AC07FF07F3576
:100D38007F337E337D337C337CC087F07DC088F081
:100D48007EC089F07FC08AF08B4B8C2B8CBFB5EFAF
:100D580006F08C5108E18B29D8A0B5EF06F0B7EF63
:100D680006F0C1EF06F0000E876F000E886F800E48
:100D7800896F7F0E8A6FEFEF06F08CBFCEEF06F01B
:100D88008C5106E18B05D8B0CCEF06F0CEEF06F01B
:100D9800DAEF06F0000E876F000E886F000E896F7D
:100DA800000E8A6F000E806FEFEF06F08BC086F0A2
:100DB800FF0E8717FF0E88177F0E8917000E8A17F8
:100DC80086A1E9EF06F0EBEF06F0ECEF06F0898F6D
:100DD800D89086318A6F80518A1387C074F088C092
:100DE80075F089C076F08AC077F012001250800B37
:100DF8001B6E12501224216E11AE05EF07F007EF9B
:100E080007F008EF07F021802150D8B40EEF07F063
:100E180010EF07F023EF07F02128D8A416EF07F00A
:100E280018EF07F020EF07F0000E0F6E000E106E9F
:100E3800000E116E000E126E118E2BEF07F0000ED1
:100E48000F6E000E106E000E116E000E126E165010
:100E5800800B1B1A16501624206E15AE36EF07F0BD
:100E680038EF07F039EF07F020802050D8B43FEF73
:100E780007F041EF07F054EF07F02028D8A447EF18
:100E880007F049EF07F051EF07F0000E136E000E60
:100E9800146E000E156E000E166E158E5CEF07F0C0
:100EA800000E136E000E146E000E156E000E166EF8
:100EB8002050D8B462EF07F064EF07F06CEF07F04A
:100EC8002150D8A46AEF07F06CEF07F076EF07F02F
:100ED800000E0F6E000E106E000E116E000E126ED8
:100EE8000EEF09F015500F02F3CF26F0F4CF27F0DC
:100EF80026501C6E1D6A1E6A1F6A2750226E236ABE
:100F0800246A256A14501002F3CF26F0F4CF27F094
:100F180026501C26000E1D221E221F222750222684
:100F2800000E23222422252213501102F3CF26F08B
:100F3800F4CF27F026501C26000E1D221E221F2249
:100F480027502226000E2322242225221EC01FF00D
:100F58001DC01EF01CC01DF01C6A13501002F3CFF8
:100F680026F0F4CF27F026501C2627501D22000E0D
:100F78001E22000E1F2214500F02F3CF26F0F4CFCA
:100F880027F026501C2627501D22000E1E22000E78
:100F98001F221EC01FF01DC01EF01CC01DF01C6AC1
:100FA80013500F02F3CF26F0F4CF27F026501C265B
:100FB80027501D22000E1E22000E1F22155010025F
:100FC800F3CF26F0F4CF27F02650222627502322ED
:100FD800000E2422000E252214501102F3CF26F011
:100FE800F4CF27F02650222627502322000E242251
:100FF800000E252215501102F3CF26F0F4CF27F06A
:101008002650176E2750186E196A1A6A19C01AF0F6
:1010180018C019F017C018F0176A17502226185070
:101028002322195024221A5025221CC017F01DC053
:1010380018F01EC019F01FC01AF0190E29EF08F099
:10104800D8901A32193218321732E82E24EF08F0E5
:101058001750222618502322195024221A502522CC
:101068001EC01FF01DC01EF01CC01DF01C6A2050C1
:1010780021C017F0186A1726000E1822820E1724AE
:10108800266EFF0E1820276E5FEF08F0D8902236E4
:101098002336243625361FAE54EF08F056EF08F0F5
:1010A80057EF08F02280D8901C361D361E361F36A2
:1010B8002606D8A0270624AE64EF08F066EF08F0ED
:1010C8004AEF08F0000E206E1FAE6DEF08F06FEFCC
:1010D80008F093EF08F0FF0E1C14176EFF0E1D1496
:1010E800186EFF0E1E14196E7F0E1F141A6E1750FD
:1010F800181019101A10D8B484EF08F086EF08F009
:101108008AEF08F0010E206E93EF08F022A08FEF0F
:1011180008F091EF08F093EF08F086EF08F0205000
:10112800D8B499EF08F09BEF08F0BFEF08F0010E74
:101138002226000E23222422252225A0A6EF08F02D
:10114800A8EF08F0BFEF08F022C017F023C018F08E
:1011580024C019F025C01AF01A341A32193218327C
:10116800173217C022F018C023F019C024F01AC093
:1011780025F0264A272A27BECAEF08F0275008E19B
:101188002628D8A0CAEF08F0CCEF08F0D6EF08F070
:10119800000E226E000E236E800E246E7F0E256ECA
:1011A80004EF09F027BEE3EF08F0275006E1260414
:1011B800D8B0E1EF08F0E3EF08F0EFEF08F0000E29
:1011C800226E000E236E000E246E000E256E000E99
:1011D8001B6E04EF09F026C021F0FF0E2216FF0E49
:1011E80023167F0E2416000E251621A0FEEF08F008
:1011F80000EF09F001EF09F0248ED8902130256E18
:101208001B50251222C00FF023C010F024C011F08B
:1012180025C012F01200FB0E0001636F7F0E646F91
:101228002AEC13F0000E0001916F000E926F400E31
:10123800936F420E946F0A0E786FD70E796F230E54
:101248007A6F3C0E7B6FD3C066F0D4C067F0686BD2
:10125800696B000E74EC0CF066C074F067C075F032
:1012680068C076F069C077F0E4EC04F074C08DF0E3
:1012780075C08EF076C08FF077C090F083EC02F0E6
:101288008DC09DF08EC09EF08FC09FF090C0A0F0E2
:10129800B0EC0EF000019D51CFEC14F0000E0001EF
:1012A800916F000E926F400E936F420E946FCD0EA9
:1012B800786FCC0E796FCC0E7A6F3D0E7B6F000E77
:1012C800646F640E636FD3C061F0D4C062F05EECEB
:1012D80013F0000161C066F062C067F0686B696B6B
:1012E800000E74EC0CF066C074F067C075F068C04E
:1012F80076F069C077F0E4EC04F074C08DF075C046
:101308008EF076C08FF077C090F083EC02F08DC03D
:101318009DF08EC09EF08FC09FF090C0A0F0B0EC02
:101328000EF000019D51CFEC14F0000E0001646F27
:10133800640E636FD3C061F0D4C062F05EEC13F04A
:1013480061C0A7F062C0A8F0A7C061F0A8C062F0B1
:10135800000E0001646F0A0E636F5EEC13F000016B
:101368006151300FCFEC14F0ED0E0001636F7F0E6A
:10137800646F2AEC13F0000E0001916F000E926F5B
:10138800400E936F420E946F0A0E786FD70E796FE6
:10139800230E7A6F3C0E7B6FCFC066F0D0C067F02B
:1013A800686B696B000E74EC0CF066C074F067C073
:1013B80075F068C076F069C077F0E4EC04F074C0AA
:1013C8008DF075C08EF076C08FF077C090F083EC0A
:1013D80002F08DC09DF08EC09EF08FC09FF090C02F
:1013E800A0F0B0EC0EF000019D51CFEC14F0000E0F
:1013F8000001916F000E926F400E936F420E946F32
:10140800CD0E786FCC0E796FCC0E7A6F3D0E7B6F58
:10141800000E646F640E636FCFC061F0D0C062F0DD
:101428005EEC13F0000161C066F062C067F0686BA3
:10143800696B000E74EC0CF066C074F067C075F050
:1014480068C076F069C077F0E4EC04F074C08DF001
:1014580075C08EF076C08FF077C090F083EC02F004
:101468008DC09DF08EC09EF08FC09FF090C0A0F000
:10147800B0EC0EF000019D51CFEC14F0000E00010D
:10148800646F640E636FCFC061F0D0C062F05EEC31
:1014980013F061C0A7F062C0A8F0A7C061F0A8C0AF
:1014A80062F0000E0001646F0A0E636F5EEC13F0C9
:1014B80000016151300FCFEC14F00A0ECFEC14F09C
:1014C8001200000E0001BB6F000EBA6F000EB96F5C
:1014D800F30E636F7F0E646F2AEC13F0B0EC14F018
:1014E8000001E46FB0EC14F00001E36FB0EC14F00D
:1014F8000001E26FF70E636F7F0E646F2AEC13F042
:10150800B0EC14F00001E16FB0EC14F00001E06FF2
:10151800B0EC14F00001DF6FE451640DF3CFB5F0C7
:10152800F4CFB6F0E3510A0DF350B527F450B623C3
:10153800E251B527000EB623300EB525B76FEB0E76
:10154800B621B86FE151640DF3CFB5F0F4CFB6F022
:10155800E0510A0DF350B527F450B623DF51B527F3
:10156800000EB623300EB525B96FEB0EB621BA6F53
:101578003A0EE461C2EF0AF0C4EF0AF0CCEF0AF0C9
:10158800300EE461CAEF0AF0CCEF0AF0CEEF0AF0B1
:10159800010EBB6F3A0EE361D4EF0AF0D6EF0AF002
:1015A800DEEF0AF0300EE361DCEF0AF0DEEF0AF05E
:1015B800E0EF0AF0010EBB6F3A0EE261E6EF0AF0C7
:1015C800E8EF0AF0F0EF0AF0300EE261EEEF0AF011
:1015D800F0EF0AF0F2EF0AF0010EBB6F3A0EE1618C
:1015E800F8EF0AF0FAEF0AF002EF0BF0300EE161C3
:1015F80000EF0BF002EF0BF004EF0BF0010EBB6FE6
:101608003A0EE0610AEF0BF00CEF0BF014EF0BF061
:10161800300EE06112EF0BF014EF0BF016EF0BF049
:10162800010EBB6F3A0EDF611CEF0BF01EEF0BF0E3
:1016380026EF0BF0300EDF6124EF0BF026EF0BF0F6
:1016480028EF0BF0010EBB6F2D0EB75D010EB859D8
:10165800D8B031EF0BF033EF0BF046EF0BF02D0E57
:10166800B95D010EBA59D8B03CEF0BF03EEF0BF064
:1016780046EF0BF0BB05D8A444EF0BF046EF0BF098
:1016880055EF0BF0480E636F7D0E646F2AEC13F074
:10169800DE0E0001636F7F0E646F2AEC13F090EF8B
:1016A8000BF0D80E636F7D0E646F2AEC13F0000107
:1016B800E451CFEC14F00001E351CFEC14F0000139
:1016C800E251CFEC14F02C0ECFEC14F00001E151F4
:1016D800CFEC14F00001E051CFEC14F00001DF5121
:1016E800CFEC14F00A0ECFEC14F0E3C0B0F0E2C077
:1016F800B1F00001E45139EC10F0E0C0B0F0DFC007
:10170800B1F00001E151B7EC0FF0D50E0001636FA5
:101718007F0E646F2AEC13F012000600F3CF3CF042
:10172800F4CF3DF0F6CF3EF0F7CF3FF0F8CF40F0E2
:10173800F5CF41F0F2A4A3EF0BF0A5EF0BF0C5EF46
:101748000BF04250D8A4ABEF0BF0ADEF0BF0B0EFBD
:101758000BF0000E40EC12F0CBC0CFF0CCC0D0F0B4
:10176800140E036E7D0E046EF4EC12F0A60E036EDA
:101778007F0E046EF4EC12F0000E0001DA6F8C801C
:10178800F2949EA0CAEF0BF0CCEF0BF0ECEF0BF04D
:101798004350D8A4D2EF0BF0D4EF0BF0D7EF0BF0F7
:1017A800000E9AEC12F0C9C0D3F0CAC0D4F0E00E13
:1017B800036E7C0E046EF4EC12F09C0E036E7F0E2A
:1017C800046EF4EC12F0000E0001DB6F8C849E9026
:1017D800F2A2F1EF0BF0F3EF0BF010EF0CF01A0E92
:1017E8003B6EF80EE82EFED73B2EFCD700D081A02A
:1017F80000EF0CF002EF0CF008EF0CF0AA0E036EED
:101808007D0E046EF4EC12F03DEC15F032EC15F0A0
:10181800010E0001D76FF292F0A215EF0CF017EF4E
:101828000CF03BEF0CF01A0E3B6EF80EE82EFED7CC
:101838003B2EFCD700D081A424EF0CF026EF0CF04F
:101848002CEF0CF0030E036E7E0E046EF4EC12F017
:10185800000E9AEC12F0000E0001D46F000ED36F48
:10186800000E436E010ED96F000EDB6FF092F0A0F0
:1018780040EF0CF042EF0CF066EF0CF01A0E3B6EE6
:10188800F80EE82EFED73B2EFCD700D081A24FEFF2
:101898000CF051EF0CF057EF0CF02D0E036E7E0E8E
:1018A800046EF4EC12F0000E40EC12F0000E000191
:1018B800D06F000ECF6F000E426E010ED86F000E73
:1018C800DA6FF09041C0F5FF40C0F8FF3FC0F7FF66
:1018D8003EC0F6FF3DC0F4FF3CC0F3FF4692110046
:1018E80000016E6F00016E51D8B47DEF0CF07FEFF0
:1018F8000CF0A1EF0CF069BF86EF0CF084EF0CF050
:10190800A1EF0CF066C06AF067C06BF068C06CF0BD
:1019180069C06DF06A1F6B1F6C1F6D1F6A2B000E6C
:101928006B236C236D236AC070F06BC071F06CC0C0
:1019380072F06DC073F0A9EF0CF066C070F067C06C
:1019480071F068C072F069C073F066516711681170
:101958006911D8A4B2EF0CF0B4EF0CF0BEEF0CF0A4
:10196800000E666F000E676F000E686F000E696FDD
:101978004FEF0DF0960E6F6FC8EF0CF06F2BD890ED
:101988007333723371337033000E70156A6F000E43
:1019980071156B6F000E72156C6FFE0E73156D6FFF
:1019A8006A516B116C116D11D8A4DDEF0CF0DFEFEB
:1019B8000CF0C2EF0CF0EDEF0CF06F2B010E70275E
:1019C800000E712372237323D890733372337133EB
:1019D8007033000E70156A6F000E71156B6F000E74
:1019E80072156C6FFF0E73156D6F6A516B116C1168
:1019F8006D11D8A402EF0DF004EF0DF0E1EF0CF03B
:101A08000CEF0DF06F07D890703771377237733756
:101A180072BF11EF0DF013EF0DF01BEF0DF0020E7A
:101A28006F6119EF0DF01BEF0DF006EF0DF06FB1C0
:101A380020EF0DF022EF0DF023EF0DF0729FD890FC
:101A48006F336FC06AF06B6B6C6B6D6B6AC06DF057
:101A58006C6B6B6B6A6B6A5170136B5171136C51C1
:101A680072136D5173136E51D8B43DEF0DF03FEF03
:101A78000DF047EF0DF069BF46EF0DF044EF0DF0A4
:101A880047EF0DF0738F70C066F071C067F072C0D9
:101A980068F073C069F01200096E0950D8B457EFA6
:101AA8000DF059EF0DF07BEF0DF004BE60EF0DF077
:101AB8005EEF0DF07BEF0DF001C005F002C006F0FF
:101AC80003C007F004C008F0051E061E071E081E06
:101AD800052A000E06220722082205C00BF006C0C0
:101AE8000CF007C00DF008C00EF083EF0DF001C038
:101AF8000BF002C00CF003C00DF004C00EF0015052
:101B0800021003100410D8A48CEF0DF08EEF0DF026
:101B180098EF0DF0000E016E000E026E000E036EBF
:101B2800000E046E29EF0EF0960E0A6EA2EF0DF06D
:101B38000A2AD8900E320D320C320B32000E0B14DA
:101B4800056E000E0C14066E000E0D14076EFE0EC8
:101B58000E14086E0550061007100810D8A4B7EF29
:101B68000DF0B9EF0DF09CEF0DF0C7EF0DF00A2A5C
:101B7800010E0B26000E0C220D220E22D8900E32DA
:101B88000D320C320B32000E0B14056E000E0C14C5
:101B9800066E000E0D14076EFF0E0E14086E05502B
:101BA800061007100810D8A4DCEF0DF0DEEF0DF0DA
:101BB800BBEF0DF0E6EF0DF00A06D8900B360C36A9
:101BC8000D360E360DBEEBEF0DF0EDEF0DF0F5EF27
:101BD8000DF0020E0A60F3EF0DF0F5EF0DF0E0EFF7
:101BE8000DF00AB0FAEF0DF0FCEF0DF0FDEF0DF07F
:101BF8000D9ED8900A320AC005F0066A076A086A7C
:101C080005C008F0076A066A056A05500B120650F7
:101C18000C1207500D1208500E120950D8B417EFC5
:101C28000EF019EF0EF021EF0EF004BE20EF0EF0CB
:101C38001EEF0EF021EF0EF00E8E0BC001F00CC05F
:101C480002F00DC003F00EC004F01200000E0001F7
:101C5800696F8C88A6EF0EF080AA35EF0EF037EF8B
:101C68000EF054EF0EF01A0E0001686FF80EE82E11
:101C7800FED7682FFCD700F080AA45EF0EF047EF9B
:101C88000EF054EF0EF0910E0001636F7F0E646F3B
:101C98002AEC13F076EC15F08C98010E0001696FB0
:101CA80082A859EF0EF05BEF0EF07DEF0EF01A0EE2
:101CB8000001686FF80EE82EFED7682FFCD700F0F9
:101CC80082A869EF0EF06BEF0EF07DEF0EF0860E36
:101CD8000001636F7F0E646F2AEC13F070EC15F04F
:101CE80082B879EF0EF07BEF0EF072EF0EF076EC23
:101CF80015F082AA82EF0EF084EF0EF0A6EF0EF038
:101D08001A0E0001686FF80EE82EFED7682FFCD770
:101D180000F082AA92EF0EF094EF0EF0A6EF0EF00C
:101D2800B00E0001636F7F0E646F2AEC13F073EC42
:101D380015F082BAA2EF0EF0A4EF0EF09BEF0EF0B2
:101D480076EC15F000016951D8B4ADEF0EF0AFEFA5
:101D58000EF030EF0EF0120000019F35A035A66F8F
:101D6800A651D8A4BAEF0EF0BCEF0EF0C6EF0EF0F5
:101D7800000E9D6F000E9E6F000E9F6F000EA06FED
:101D880033EF0FF09DC0A1F09EC0A2F09FC0A3F05A
:101D9800A0C0A4F0200ED6EF0EF0D890A433A33341
:101DA800A233A133E82ED1EF0EF0A151A56F9F8F7A
:101DB800FF0E9D17FF0E9E17FF0E9F17000EA01710
:101DC800960EA65FA6BFEDEF0EF0EBEF0EF003EF59
:101DD8000FF0A651800A970FD8B0F5EF0EF0F7EF85
:101DE8000EF0F9EF0EF0BCEF0EF0D890A0339F3351
:101DF8009E339D33A63FF9EF0EF01BEF0FF01F0E39
:101E0800A66509EF0FF00BEF0FF013EF0FF0BCEF23
:101E18000EF0D8909D379E379F37A037A607A6515A
:101E2800D8A419EF0FF01BEF0FF00DEF0FF0A5512D
:101E3800D8B421EF0FF023EF0FF02BEF0FF0A01F16
:101E48009F1F9E1F9D6D000E9E239F23A0239DC054
:101E58009DF09EC09EF09FC09FF0A0C0A0F0120011
:101E68002A342B34316E3150D8A43DEF0FF03FEFB8
:101E78000FF049EF0FF0000E286E000E296E000ECD
:101E88002A6E000E2B6EB6EF0FF028C02CF029C07A
:101E98002DF02AC02EF02BC02FF0200E59EF0FF096
:101EA800D8902F322E322D322C32E82E54EF0FF0EC
:101EB8002C50306E2A8EFF0E2816FF0E2916FF0EA4
:101EC8002A16000E2B16960E315E31BE70EF0FF0FB
:101ED8006EEF0FF086EF0FF03150800A970FD8B0F1
:101EE80078EF0FF07AEF0FF07CEF0FF03FEF0FF085
:101EF800D8902B322A3229322832313E7CEF0FF02B
:101F08009EEF0FF01F0E31648CEF0FF08EEF0FF085
:101F180096EF0FF03FEF0FF0D890283629362A3683
:101F28002B3631063150D8A49CEF0FF09EEF0FF0FE
:101F380090EF0FF03050D8B4A4EF0FF0A6EF0FF0E9
:101F4800AEEF0FF02B1E2A1E291E286C000E292228
:101F58002A222B2228C028F029C029F02AC02AF0DA
:101F68002BC02BF012000001B46F0001DA05D8B4C1
:101F7800C0EF0FF0C2EF0FF0B9EF0FF08C90B45133
:101F8800640DF3CFB2F0F4CFB3F0B0510A0DF350B3
:101F9800B227F450B323B151B227000EB323300E49
:101FA800B225CB6FEB0EB321CC6FCF51CB5D616FF8
:101FB800D051CC59626F07EC14F061C065F062C073
:101FC80066F0000E0001686F050E676F7AEC14F07A
:101FD80065C0D1F066C0D2F00001CB51CF5DCC51C5
:101FE800D059D8B0FAEF0FF0FCEF0FF0FFEF0FF079
:101FF8008C820BEF10F0CF51CB5DD051CC59D8B0BB
:1020080008EF10F00AEF10F00BEF10F08C92CF51A0
:10201800CB1909E1D051CC19D8B415EF10F017EF4E
:1020280010F032EF10F0500E636F7F0E646F2AECE1
:1020380013F00001D151CFEC14F00A0ECFEC14F0DC
:10204800010E0001DA6FD1C061F0D2C062F044EC39
:1020580014F0320E84EC11F038EF10F07B0E636F41
:102068007F0E646F2AEC13F012000001B46F0001B8
:10207800DB05D8B442EF10F044EF10F03BEF10F05E
:102088008C94B451640DF3CFB2F0F4CFB3F0B051E7
:102098000A0DF350B227F450B323B151B227000E02
:1020A800B323300EB225C96FEB0EB321CA6FD351DB
:1020B800C95D616FD451CA59626F07EC14F061C0F1
:1020C80065F062C066F0000E0001686F050E676F6C
:1020D8007AEC14F065C0D5F066C0D6F00001C9519D
:1020E800D35DCA51D459D8B07CEF10F07EEF10F010
:1020F80081EF10F08C868DEF10F0D351C95DD4516B
:10210800CA59D8B08AEF10F08CEF10F08DEF10F0AC
:102118008C96D351C91909E1D451CA19D8B497EF8B
:1021280010F099EF10F0B4EF10F0400E636F7F0ECF
:10213800646F2AEC13F00001D551CFEC14F00A0EAD
:10214800CFEC14F0010E0001DB6FD5C061F0D6C0F2
:1021580062F05FEC14F0320EE2EC11F0BAEF10F01E
:10216800700E636F7F0E646F2AEC13F01200000E7E
:102178000001686F600E636F7F0E646F2AEC13F0C6
:10218800B0EC14F00001DE6FB0EC14F00001DD6F6C
:10219800B0EC14F00001DC6F3A0EDE61D6EF10F0FF
:1021A800D8EF10F0E0EF10F0300EDE61DEEF10F047
:1021B800E0EF10F0E2EF10F0010E686F3A0EDD610B
:1021C800E8EF10F0EAEF10F0F2EF10F0300EDD61FA
:1021D800F0EF10F0F2EF10F0F4EF10F0010E686F6E
:1021E8003A0EDC61FAEF10F0FCEF10F004EF11F09A
:1021F800300EDC6102EF11F004EF11F006EF11F080
:10220800010E686F6805D8A40CEF11F00EEF11F0FD
:1022180016EF11F0DE0E636F7F0E646F2AEC13F079
:1022280024EF11F0DDC061F0DCC062F0DE5125EC76
:1022380011F0D50E0001636F7F0E646F2AEC13F066
:1022480012000001656F00016551640DF3CF63F062
:10225800F4CF64F061510A0DF3506327F4506423FE
:1022680062516327000E6423300E6325CD6FEB0E99
:102278006421CE6FCD51CE11D8B445EF11F047EFA0
:1022880011F083EF11F0CE5107E1100ECD5DD8B0FB
:1022980050EF11F052EF11F083EF11F0000E666F5E
:1022A80075EF11F08D90060E0001646F130E636FC9
:1022B800AD0EE82EFED7632FFCD7642FFAD700D0D7
:1022C8008D80060E0001646F130E636FAD0EE82E4D
:1022D800FED7632FFCD7642FFAD700D08D9000016A
:1022E800662B6651636F646BCD51635DCE51645943
:1022F800D8A081EF11F083EF11F056EF11F0120022
:102308000001AD6F0A0E0001786FD70E796F230EAA
:102318007A6F3C0E7B6FAD51666F676B686B696B4C
:10232800010E74EC0CF066C074F067C075F068C0FC
:1023380076F069C077F0E4EC04F074C0A9F075C0D9
:10234800AAF076C0ABF077C0ACF0000E0001786F51
:10235800000E796F7A0E7A6F440E7B6FA9C074F005
:10236800AAC075F0ABC076F0ACC077F0E4EC04F02E
:1023780074C09DF075C09EF076C09FF077C0A0F045
:10238800B0EC0EF09DC0AEF09EC0AFF0AEC0A7F0AE
:10239800030E0001A717A73BBA50A719CF0BA7191F
:1023A800BA6EAEC0A7F0AFC0A8F0D890A833A733D4
:1023B800D890A833A733A751BB6E12000001AD6FA8
:1023C8000A0E0001786FD70E796F230E7A6F3C0ED4
:1023D8007B6FAD51666F676B686B696B010E74EC50
:1023E8000CF066C074F067C075F068C076F069C01C
:1023F80077F0E4EC04F074C0A9F075C0AAF076C0D8
:10240800ABF077C0ACF0000E0001786F000E796F6A
:102418007A0E7A6F440E7B6FA9C074F0AAC075F06B
:10242800ABC076F0ACC077F0E4EC04F074C09DF07B
:1024380075C09EF076C09FF077C0A0F0B0EC0EF0AB
:102448009DC0AEF09EC0AFF0AEC0A7F0030E000175
:10245800A717A73BBD50A719CF0BA719BD6EAEC0D4
:10246800A7F0AFC0A8F0D890A833A733D890A83366
:10247800A733A751BE6E1200386E0A0E136ED70E20
:10248800146E230E156E3C0E166E3850016E026ADD
:10249800036A046A010E50EC0DF001C00FF002C08F
:1024A80010F003C011F004C012F0FAEC06F00FC0EF
:1024B80034F010C035F011C036F012C037F0000EFD
:1024C800136E000E146E7A0E156E440E166E34C01E
:1024D8000FF035C010F036C011F037C012F0FAEC2A
:1024E80006F00FC028F010C029F011C02AF012C061
:1024F8002BF034EC0FF028C039F029C03AF039C07D
:1025080032F0030E3216323ABA503218CF0B321864
:10251800BA6E39C032F03AC033F0D8903332323222
:10252800D890333232323250BB6E1200386E0A0EF7
:10253800136ED70E146E230E156E3C0E166E3850A1
:10254800016E026A036A046A010E50EC0DF001C0C4
:102558000FF002C010F003C011F004C012F0FAEC42
:1025680006F00FC034F010C035F011C036F012C0BC
:1025780037F0000E136E000E146E7A0E156E440EB0
:10258800166E34C00FF035C010F036C011F037C0E9
:1025980012F0FAEC06F00FC028F010C029F011C0B4
:1025A8002AF012C02BF034EC0FF028C039F029C003
:1025B8003AF039C032F0030E3216323ABD503218B2
:1025C800CF0B3218BD6E39C032F03AC033F0D89014
:1025D80033323232D890333232323250BE6E120039
:1025E800E4EC13F0000E076E0728D8A4FEEF12F0F3
:1025F80000EF13F002EF13F029EF13F00750032454
:10260800056E000E0420066E05C0F6FF06C0F7FF33
:102618000800F5500009D8A414EF13F016EF13F0D2
:1026280018EF13F029EF13F007500324056E000E7E
:102638000420066E05C0F6FF06C0F7FF0800F55037
:1026480004EC15F0072AF8EF12F01200C1EC13F0B1
:10265800000E0001676F67516325656F000E6421E6
:10266800666F65C0F6FF66C0F7FF0800F550000901
:10267800D8A441EF13F043EF13F045EF13F05DEFEB
:1026880013F067516325656F000E6421666F65C09E
:10269800F6FF66C0F7FF0800F550CFEC14F0000114
:1026A800672B6729D8A45BEF13F05DEF13F02FEFCA
:1026B80013F01200000163516411D8B466EF13F0EF
:1026C80068EF13F08CEF13F0010E656F70EF13F0E5
:1026D800D89063376437652B64AF75EF13F077EFE5
:1026E80013F06CEF13F06351615D64516259D8A027
:1026F80080EF13F082EF13F086EF13F06351615F00
:102708006451625BD89064336333652F77EF13F0BD
:1027180061C061F062C062F01200B0EC14F0000118
:10272800686F310E6819D8A49CEF13F09EEF13F070
:10273800A7EF13F08D80D50E636F7F0E646F2AECC0
:1027480013F0C0EF13F0300E6819D8A4AEEF13F0F1
:10275800B0EF13F0B9EF13F08D90D50E636F7F0EC5
:10276800646F2AEC13F0C0EF13F0DE0E636F7F0E78
:10277800646F2AEC13F08D801200ABA2C6EF13F041
:10278800C8EF13F0D9EF13F0AECF61F0AECF61F020
:10279800AECF61F0AECF61F0AB98AB88ABB2D7EFFC
:1027A80013F0D9EF13F0C8EF13F0ABA4DEEF13F07A
:1027B800E0EF13F0E3EF13F0AE50AC9AAC8A1200DE
:1027C800ABA2E9EF13F0EBEF13F0FCEF13F0AECF91
:1027D80001F0AECF01F0AECF01F0AECF01F0AB9873
:1027E800AB88ABB2FAEF13F0FCEF13F0EBEF13F09A
:1027F800ABA401EF14F003EF14F006EF14F0AE50A1
:10280800AC9AAC8A1200000162BF15EF14F0625155
:1028180006E16105D8B013EF14F015EF14F023EFBB
:1028280014F061C063F062C064F0631F641F634BFF
:10283800642B63C061F064C062F027EF14F061C0DC
:1028480061F062C062F01200C1EC13F0000E0001EA
:10285800666F3AEF14F066516325D96E000E642155
:10286800DA6EB0EC14F0DF6E0001662B6551665D20
:10287800D8A041EF14F043EF14F02FEF14F012003A
:10288800000161516211D8B44CEF14F04EEF14F00E
:102898005CEF14F061510008636F6251D8A0E82A18
:1028A8000008646F6451D76E63C0D6FF5EEF14F002
:1028B800D768D6681200000161516211D8B467EF79
:1028C80014F069EF14F077EF14F061510108636FA9
:1028D8006251D8A0E82A0008646F6451CF6E63C0C3
:1028E800CEFF79EF14F0CF68CE6812000001655171
:1028F8006703F3CF69F0F4CF6AF065516803F350CA
:102908006A2766516703F3506A2769C065F06AC091
:1029180066F0120000EEC9F01C0EEE6AE806FDE152
:10292800456A446A436A426A46904692000EF86EC7
:10293800000116EF00F09494BD50F00B0C09BD6E29
:10294800F90ECB6E030ECA12CF0EBD16000EBE6E68
:10295800000ECC6ECA841200C1EC13F09EAAB7EF29
:1029680014F0B9EF14F0B2EF14F0AECF62F0000E2D
:10297800AE6E00016251120094920F0EBA12F90E57
:10298800CB6E030ECA12CF0EBA16000EBB6E000E27
:10299800CC6ECA8412000001626FC1EC13F0ACA2C5
:1029A800D8EF14F0DAEF14F0D3EF14F062C0ADFFF3
:1029B8001200CD90CD8ECD96CD8CCD82CD849480D5
:1029C800000ECF6E000ECE6ECD801200F292F2880D
:1029D800F18C9380F090F086F18A9382F092F088DF
:1029E800F18893841200948C948E100EAF6EAC8490
:1029F800B886AC9CAC8AAC98AB8EAB9CAB8812000A
:102A0800026EE4EC13F0ACA20CEF15F00EEF15F02B
:102A180007EF15F002C0ADFF1200D59ED59CD58AF0
:102A2800D5989288000ED76E000ED66ED58E1200FD
:102A38008C90010E426E8C92010E0001DA6F320EFC
:102A480084EC11F012008C94010E436E8C96010EEA
:102A58000001DB6F320EE2EC11F012008C90010ED7
:102A6800426E8C92010E0001DA6F320E40EC12F0C9
:102A780012008C94010E436E8C96010E0001DB6FE0
:102A8800320E9AEC12F01200959A959C9598928ABB
:102A98008C988C9A8C9C12000F0EC112700ED36EFB
:102AA8006D966F8612009590959294928C808C9278
:102AB8008B9212009594959694948C848C968B9412
:102AC8001200F292F092F0901200D09EF28CF28EE8
:102AD800120096908D9012008C8A8C9C12008C9A11
:102AE8008C8C12008C9A8C9C12009D801200F28AA9
:022AF8001200CA
:107C9000004573637269626520696E697420706162
:107CA00072612063616C696272617220656C20533D
:107CB00050415243207920706F6465722061636384
:107CC0006564657220616C20726573746F206465F1
:107CD000206C61732066756E63696F6E65730A0050
:107CE000496E74657272757063696F6E20544D527F
:107CF000312C206C6C656761737465206120636F43
:107D00006F7264656E61646120646573656164614E
:107D100020580A00496E74657272757063696F6EDF
:107D200020544D52302C206C6C6567617374652053
:107D30006120636F6F7264656E6164612064657356
:107D40006561646120590A004D657469737465202A
:107D5000756E6120636F6F7264656E616461206926
:107D60006E76616C6964612C207675656C76652031
:107D70006120696E74656E7461720A005072657379
:107D8000696F6E6172205A2063696572746F206E2C
:107D9000756D65726F20646520766563657320720A
:107DA00065636962696461730A004F637572726921
:107DB0006F206C6120696E74657272757063696F93
:107DC0006E206C696D6974537769746368334573A9
:107DD0007175696E61730A00436F6F7264656E61DD
:107DE00064612072656369626964612C206C6F2034
:107DF000717565207265636962696D6F7320667560
:107E0000653A004F63757272696F206C6120696E0C
:107E100074657272757063696F6E206C696D6974D8
:107E2000537769746368486F6D65580A004F6375CE
:107E30007272696F206C6120696E74657272757000
:107E400063696F6E206C696D6974537769746368D8
:107E5000486F6D65590A00506973746F6E207061C8
:107E60007261206465736C697A6172206F20646549
:107E70006A617220726574726169646F3F0A0049B9
:107E80006E74332045737175696E61732C20726551
:107E900063616C696272616E646F2053504152433A
:107EA0000A005661732061206D6F76657220656CE3
:107EB00020537061726320656E2058207920590A22
:107EC00000496D70726D697220636F6F7264656EC8
:107ED0006164612061637475616C200A00596120DE
:107EE000657374612063616C69627261646F20659F
:107EF0006C2053504152430A00566173206120693F
:107F000072206120686F6D6558207920686F6D65FB
:107F100020590A00456E7472617374652061206D8A
:107F20006F766572206C6120626173650A00496E2C
:107F3000696369616C697A616E646F2E2E2E0A0026
:107F400078546F416476616E63652069733A2000EE
:107F500079546F416476616E63652069733A2000DD
:107F6000546F63617250616E74616C6C613A0A00A7
:107F7000452C636F6F724163580A00452C636F6F25
:107F8000724163590A004D6F764172726962610AEB
:107F9000000A53616C69656E646F0A004F6B2C6355
:107FA0006F6F72580A004F6B2C636F6F72590A0023
:107FB0004D6F764142616A6F0A004F6B2C636F6DA3
:107FC0004E0A00534143414E444F0A004F6B2C630D
:107FD0006F6D560A004F6B2C636F6D460A00452C7F
:107FE000634E6F560A00452C636F6D0A00202C59B2
:107FF0003A2000583A0A00593A0A00583A2000003C
:020000040020DA
:08000000FFFFFFFFFFFFFFFF00
:020000040030CA
:0E00000000091F1EFF8381FF0FC00FE00F409D
:00000001FF
