:020000040000FA
:0400000014EF00F009
:06000800488254ED0BF0EC
:100018004880E0CF60F000F060C0E0FF489010003A
:1000280000EF13F000019051800B996F90519025CB
:100038009B6F8FAF22EF00F024EF00F025EF00F068
:100048009B819B51D8B42BEF00F02DEF00F042EFCD
:1000580000F09B29D8A433EF00F035EF00F03DEF16
:1000680000F0000E8D6F000E8E6F000E8F6F000E69
:10007800906F8F8F000E906F4AEF00F0000E8D6F1B
:10008800000E8E6F000E8F6F000E906F9451800BD4
:100098009A6F99519A19D8B454EF00F056EF00F0BE
:1000A80057EF00F0998D945194259A6F93AF5FEFB5
:1000B80000F061EF00F062EF00F09A819A51D8B435
:1000C80068EF00F06AEF00F07FEF00F09A29D8A4FB
:1000D80070EF00F072EF00F07AEF00F0000E916F11
:1000E800000E926F000E936F000E946F938F000EA8
:1000F800946F87EF00F0000E916F000E926F000E64
:10010800936F000E946F9B519A5DD8B08EEF00F0FC
:1001180090EF00F0B7EF00F099AD95EF00F097EF92
:1001280000F099EF00F0800E991B9BC09CF09AC0DC
:100138009BF09CC09AF08DC09CF091C08DF09CC043
:1001480091F08EC09CF092C08EF09CC092F08FC04F
:100158009CF093C08FF09CC093F090C09CF094C02A
:1001680090F09CC094F0000E9C6F9B519AC095F043
:10017800966B955F000E965B96BFCCEF00F096519C
:1001880009E11A0E955DD8A0CCEF00F0CEEF00F093
:1001980005EF01F08D518E118F119011D8A4D7EF72
:1001A80000F0DAEF00F0010EDBEF00F0000E9C6FBC
:1001B800000E8D6F000E8E6F000E8F6F000E906F09
:1001C8009AC09BF00EEF01F09CA1EDEF00F0EFEF6D
:1001D80000F0F5EF00F0D8909C3101099C6FF7EF23
:1001E80000F0D8909C338DA1FCEF00F0FEEF00F0FA
:1001F800FFEF00F09C8F903590338F338E338D3323
:100208009B2B9A519B5DD8A00CEF01F00EEF01F0EB
:10021800E8EF00F099BD13EF01F015EF01F055EF8D
:1002280001F09B51D8A41BEF01F01DEF01F027EF5F
:1002380001F0000E8D6F000E8E6F000E8F6F000E96
:10024800906F76EF02F091518D2792518E23935142
:100258008F239451902390A134EF01F036EF01F0F1
:10026800E2EF01F09CA13BEF01F03DEF01F043EF1D
:1002780001F0D8909C3101099C6F45EF01F0D890AE
:100288009C338DA14AEF01F04CEF01F04DEF01F0E6
:100298009C8F903590338F338E338D339B2BE2EFC9
:1002A80001F091518D5D92518E5993518F59905112
:1002B800800A956F9451800A9559D8B066EF01F07D
:1002C80068EF01F093EF01F08D51915D956F8E51BC
:1002D8009259966F8F519359976F90519459986F7F
:1002E800FF0E95258D6FFF0E96218E6FFF0E9721BD
:1002F8008F6FFF0E9821906F800E991B9C6D9C51FB
:10030800D8A489EF01F08BEF01F09BEF01F0010E0B
:100318008D27000E8E238F2390239BEF01F09151A0
:100328008D5F92518E5B93518F5B9451905B8D5191
:100338008E118F119011D8A4A4EF01F0A6EF01F04F
:10034800DBEF01F09C51D8A4ACEF01F0AEEF01F067
:10035800DBEF01F0000E8D6F000E8E6F000E8F6FB9
:10036800000E906F76EF02F0D8908D378E378F376A
:1003780090379CAFC2EF01F0C4EF01F0C5EF01F078
:100388008D819CA1CAEF01F0CCEF01F0D0EF01F014
:10039800D8809C37D2EF01F0D8909C379B51D8B4C5
:1003A800D8EF01F0DAEF01F0DBEF01F09B078FAF38
:1003B800E0EF01F0E2EF01F0B8EF01F0000E9A6F04
:1003C8009CAFE9EF01F0EBEF01F003EF02F09CC006
:1003D80095F07F0E9517D8B4F4EF01F0F6EF01F021
:1003E800FAEF01F0010E9A6F03EF02F08DA1FFEF13
:1003F80001F001EF02F003EF02F0F6EF01F09A517D
:10040800D8B409EF02F00BEF02F036EF02F0010E5C
:100418008D27000E8E238F23902390A116EF02F0D4
:1004280018EF02F036EF02F08DC095F08EC096F00E
:100438008FC097F090C098F09835983397339633DB
:10044800953395C08DF096C08EF097C08FF098C008
:1004580090F09B29D8B433EF02F035EF02F036EF75
:1004680002F09B2B9B29D8B43CEF02F03EEF02F040
:1004780046EF02F09B51D8A444EF02F046EF02F099
:1004880058EF02F0000E8D6F000E8E6F000E8F6F0A
:10049800000E906F9B51D8A454EF02F056EF02F073
:1004A80058EF02F0000E996F9BA15DEF02F05FEF2D
:1004B80002F062EF02F08F8F63EF02F08F9FD89007
:1004C8009B31906F99AF6BEF02F06DEF02F06EEF1A
:1004D80002F0908F8DC08DF08EC08EF08FC08FF09F
:1004E80090C090F0120000017751800B806F775117
:1004F8007725866F76AF83EF02F085EF02F086EFFF
:1005080002F086818651D8B48CEF02F08EEF02F0AB
:10051800A1EF02F08629D8A494EF02F096EF02F03A
:100528009EEF02F0000E746F000E756F000E766F6E
:10053800000E776F768FA9EF02F0000E746F000E31
:10054800756F000E766F000E776F7B51800B801BE6
:100558007B517B25856F7AAFB4EF02F0B6EF02F0DE
:10056800B7EF02F085818551D8B4BDEF02F0BFEF37
:1005780002F0D2EF02F08529D8A4C5EF02F0C7EF48
:1005880002F0CFEF02F0000E786F000E796F000EC8
:100598007A6F000E7B6F7A8FDAEF02F0000E786FB9
:1005A800000E796F000E7A6F000E7B6F8551D8B4FC
:1005B800E0EF02F0E2EF02F0EAEF02F08651D8A491
:1005C800E8EF02F0EAEF02F0F4EF02F0000E746FC9
:1005D800000E756F000E766F000E776F8CEF04F0CB
:1005E8007A517403F3CF8BF0F4CF8CF08B51816F79
:1005F800826B836B846B8C51876F886B896B8A6B7A
:1006080079517503F3CF8BF0F4CF8CF08B518127A0
:10061800000E8223832384238C518727000E88238E
:1006280089238A2378517603F3CF8BF0F4CF8CF0AB
:100638008B518127000E8223832384238C518727A3
:10064800000E882389238A2383C084F082C083F024
:1006580081C082F0816B78517503F3CF8BF0F4CFB2
:100668008CF08B5181278C518223000E8323000E3E
:10067800842379517403F3CF8BF0F4CF8CF08B5132
:1006880081278C518223000E8323000E842383C08C
:1006980084F082C083F081C082F0816B785174034A
:1006A800F3CF8BF0F4CF8CF08B5181278C518223C0
:1006B800000E8323000E84237A517503F3CF8BF049
:1006C800F4CF8CF08B5187278C518823000E892317
:1006D800000E8A2379517603F3CF8BF0F4CF8CF098
:1006E8008B5187278C518823000E8923000E8A237B
:1006F8007A517603F3CF8BF0F4CF8CF08B517C6F6B
:100708008C517D6F7E6B7F6B7EC07FF07DC07EF0ED
:100718007CC07DF07C6B7C5187277D5188237E517E
:1007280089237F518A2381C07CF082C07DF083C0F9
:100738007EF084C07FF0190EA7EF03F0D8907F33C6
:100748007E337D337C33E82EA2EF03F07C5187277C
:100758007D5188237E5189237F518A2383C084F069
:1007680082C083F081C082F0816B855186C07CF0A5
:100778007D6B7C27000E7D23820E7C258B6FFF0E00
:100788007D218C6FDDEF03F0D89087378837893764
:100798008A3784AFD2EF03F0D4EF03F0D5EF03F03C
:1007A8008781D89081378237833784378B07D8A0E1
:1007B8008C0789AFE2EF03F0E4EF03F0C8EF03F032
:1007C800000E856F84AFEBEF03F0EDEF03F011EF50
:1007D80004F0FF0E81157C6FFF0E82157D6FFF0EF2
:1007E80083157E6F7F0E84157F6F7C517D117E117E
:1007F8007F11D8B402EF04F004EF04F008EF04F01E
:10080800010E856F11EF04F087A10DEF04F00FEFD3
:1008180004F011EF04F004EF04F08551D8B417EF99
:1008280004F019EF04F03DEF04F0010E8727000EE5
:10083800882389238A238AA124EF04F026EF04F071
:100848003DEF04F087C07CF088C07DF089C07EF061
:100858008AC07FF07F357F337E337D337C337CC025
:1008680087F07DC088F07EC089F07FC08AF08B4B0E
:100878008C2B8CBF48EF04F08C5108E18B29D8A051
:1008880048EF04F04AEF04F054EF04F0000E876FCD
:10089800000E886F800E896F7F0E8A6F82EF04F0DA
:1008A8008CBF61EF04F08C5106E18B05D8B05FEF87
:1008B80004F061EF04F06DEF04F0000E876F000E96
:1008C800886F000E896F000E8A6F000E806F82EFAE
:1008D80004F08BC086F0FF0E8717FF0E88177F0E77
:1008E8008917000E8A1786A17CEF04F07EEF04F0CA
:1008F8007FEF04F0898FD89086318A6F80518A13F0
:1009080087C074F088C075F089C076F08AC077F027
:1009180012001250800B1B6E12501224216E11AE61
:1009280098EF04F09AEF04F09BEF04F02180215037
:10093800D8B4A1EF04F0A3EF04F0B6EF04F0212837
:10094800D8A4A9EF04F0ABEF04F0B3EF04F0000E65
:100958000F6E000E106E000E116E000E126E118ECC
:10096800BEEF04F0000E0F6E000E106E000E116E3A
:10097800000E126E1650800B1B1A16501624206E8D
:1009880015AEC9EF04F0CBEF04F0CCEF04F02080F3
:100998002050D8B4D2EF04F0D4EF04F0E7EF04F01D
:1009A8002028D8A4DAEF04F0DCEF04F0E4EF04F038
:1009B800000E136E000E146E000E156E000E166EED
:1009C800158EEFEF04F0000E136E000E146E000E7D
:1009D800156E000E166E2050D8B4F5EF04F0F7EF40
:1009E80004F0FFEF04F02150D8A4FDEF04F0FFEF6E
:1009F80004F009EF05F0000E0F6E000E106E000EE9
:100A0800116E000E126EA1EF06F015500F02F3CF13
:100A180026F0F4CF27F026501C6E1D6A1E6A1F6A46
:100A28002750226E236A246A256A14501002F3CFD5
:100A380026F0F4CF27F026501C26000E1D221E2279
:100A48001F2227502226000E23222422252213505B
:100A58001102F3CF26F0F4CF27F026501C26000E03
:100A68001D221E221F2227502226000E2322242266
:100A780025221EC01FF01DC01EF01CC01DF01C6AE0
:100A880013501002F3CF26F0F4CF27F026501C267F
:100A980027501D22000E1E22000E1F2214500F0286
:100AA800F3CF26F0F4CF27F026501C2627501D221E
:100AB800000E1E22000E1F221EC01FF01DC01EF0B9
:100AC8001CC01DF01C6A13500F02F3CF26F0F4CFA0
:100AD80027F026501C2627501D22000E1E22000E2D
:100AE8001F2215501002F3CF26F0F4CF27F026501E
:100AF800222627502322000E2422000E25221450DD
:100B08001102F3CF26F0F4CF27F0265022262750E3
:100B18002322000E2422000E252215501102F3CFA5
:100B280026F0F4CF27F02650176E2750186E196A52
:100B38001A6A19C01AF018C019F017C018F0176A05
:100B48001750222618502322195024221A502522E1
:100B58001CC017F01DC018F01EC019F01FC01AF0F5
:100B6800190EBCEF05F0D8901A3219321832173224
:100B7800E82EB7EF05F017502226185023221950F7
:100B880024221A5025221EC01FF01DC01EF01CC0B2
:100B98001DF01C6A205021C017F0186A1726000E95
:100BA8001822820E1724266EFF0E1820276EF2EFE9
:100BB80005F0D89022362336243625361FAEE7EFC7
:100BC80005F0E9EF05F0EAEF05F02280D8901C3631
:100BD8001D361E361F362606D8A0270624AEF7EF88
:100BE80005F0F9EF05F0DDEF05F0000E206E1FAE01
:100BF80000EF06F002EF06F026EF06F0FF0E1C14D9
:100C0800176EFF0E1D14186EFF0E1E14196E7F0E40
:100C18001F141A6E1750181019101A10D8B417EF9D
:100C280006F019EF06F01DEF06F0010E206E26EF14
:100C380006F022A022EF06F024EF06F026EF06F0D9
:100C480019EF06F02050D8B42CEF06F02EEF06F07E
:100C580052EF06F0010E2226000E2322242225221E
:100C680025A039EF06F03BEF06F052EF06F022C060
:100C780017F023C018F024C019F025C01AF01A3450
:100C88001A3219321832173217C022F018C023F05E
:100C980019C024F01AC025F0264A272A27BE5DEF7E
:100CA80006F0275008E12628D8A05DEF06F05FEF90
:100CB80006F069EF06F0000E226E000E236E800E1D
:100CC800246E7F0E256E97EF06F027BE76EF06F0AE
:100CD800275006E12604D8B074EF06F076EF06F048
:100CE80082EF06F0000E226E000E236E000E246EB8
:100CF800000E256E000E1B6E97EF06F026C021F041
:100D0800FF0E2216FF0E23167F0E2416000E251640
:100D180021A091EF06F093EF06F094EF06F0248EF1
:100D2800D8902130256E1B50251222C00FF023C009
:100D380010F024C011F025C012F0120097EC13F047
:100D48005EEC13F034EC13F013EC13F0000E5EECD1
:100D58000FF0000EBCEC0FF0ACEC13F0A5EC13F0A8
:100D680078EC13F051EC13F0B3EC13F0C4EC13F07F
:100D7800C2EC13F09EEC13F0C0EC13F0000E00016F
:100D8800C36FBF0EBD6F000EBE6F000EC46F24ECA4
:100D980013F016EF07F0AF0E636F7C0E646F93ECE1
:100DA80011F0BDC063F0BEC064F0040E0001BB6F5B
:100DB800BBC065F07FEC12F0690E0001BF19D8B412
:100DC800E8EF06F0EAEF06F0F3EF06F0490EBF1978
:100DD800D8A4F1EF06F0F3EF06F016EF07F06E0E69
:100DE800C019D8A4FAEF06F0FCEF06F016EF07F0EA
:100DF800690EC119D8A403EF07F005EF07F016EF45
:100E080007F0740EC219D8A40CEF07F00EEF07F024
:100E180016EF07F0010EC46F7E0E636F7F0E646FCE
:100E280093EC11F00001C451D8B41DEF07F01FEF87
:100E380007F0CFEF06F0CB0E0001636F7F0E646FF3
:100E480093EC11F024EC13F00001C56F6D0EC51979
:100E5800D8B431EF07F033EF07F03CEF07F04D0E51
:100E6800C519D8A43AEF07F03CEF07F054EF07F0A4
:100E7800E00E636F7E0E646F93EC11F0D40E0001E8
:100E8800636F7F0E646F93EC11F026EC0CF0C20ECA
:100E98000001636F7F0E646F93EC11F01FEF07F092
:100EA800700EC519D8B45BEF07F05DEF07F066EF79
:100EB80007F0500EC519D8A464EF07F066EF07F0E5
:100EC8007EEF07F0BB0E636F7D0E646F93EC11F03D
:100ED800D40E0001636F7F0E646F93EC11F0D1ECB8
:100EE80012F0C20E0001636F7F0E646F93EC11F075
:100EF8001FEF07F0730EC519D8B485EF07F087EF19
:100F080007F090EF07F0530EC519D8A48EEF07F03D
:100F180090EF07F0A8EF07F0960E636F7E0E646FF0
:100F280093EC11F0D40E0001636F7F0E646F93ECA5
:100F380011F061EC12F0C20E0001636F7F0E646F56
:100F480093EC11F01FEF07F0680EC519D8B4AFEF96
:100F580007F0B1EF07F0BAEF07F0480EC519D8A4AB
:100F6800B8EF07F0BAEF07F0C9EF07F01B0E636F91
:100F78007F0E646F93EC11F0D40E0001636F7F0E47
:100F8800646F93EC11F01FEF07F0690EC519D8B420
:100F9800D0EF07F0D2EF07F0DBEF07F0490EC519E5
:100FA800D8A4D9EF07F0DBEF07F0EAEF07F0BE0EA1
:100FB800636F7E0E646F93EC11F0D40E0001636FC3
:100FC8007F0E646F93EC11F01FEF07F0630EC519E5
:100FD800D8B4F1EF07F0F3EF07F0FCEF07F0430E9A
:100FE800C519D8A4FAEF07F0FCEF07F014EF08F0E2
:100FF800FF0E636F7E0E646F93EC11F0D40E000148
:10100800636F7F0E646F93EC11F048EC08F0C20E2A
:101018000001636F7F0E646F93EC11F01FEF07F010
:10102800620EC519D8B41BEF08F01DEF08F026EFC3
:1010380008F0420EC519D8A424EF08F026EF08F0EE
:101048003EEF08F0360E636F7F0E646F93EC11F07D
:10105800D40E0001636F7F0E646F93EC11F0DEEC29
:101068000EF0C20E0001636F7F0E646F93EC11F0F7
:101078001FEF07F0E50E636F7F0E646F93EC11F0BE
:101088001FEF07F014EF00F0FA0E0001636F7F0EF8
:10109800646F93EC11F0000E0001916F000E926FD7
:1010A800400E936F420E946F0A0E786FD70E796FC9
:1010B800230E7A6F3C0E7B6FD0C066F0D1C067F00C
:1010C800686B696B000E9EEC09F066C074F067C02F
:1010D80075F068C076F069C077F077EC02F074C0FC
:1010E8008DF075C08EF076C08FF077C090F016EC5A
:1010F80000F08DC09DF08EC09EF08FC09FF090C014
:10110800A0F0D5EC0CF000019D5143EC13F0000E5B
:101118000001916F000E926F400E936F420E946F14
:10112800CD0E786FCC0E796FCC0E7A6F3D0E7B6F3B
:10113800000E646F640E636FD0C061F0D1C062F0BE
:10114800C7EC11F0000161C066F062C067F0686B1F
:10115800696B000E9EEC09F066C074F067C075F00C
:1011680068C076F069C077F077EC02F074C08DF053
:1011780075C08EF076C08FF077C090F016EC00F056
:101188008DC09DF08EC09EF08FC09FF090C0A0F0E3
:10119800D5EC0CF000019D5143EC13F0000E00015A
:1011A800646F640E636FD0C061F0D1C062F0C7ECA9
:1011B80011F061C0A7F062C0A8F0A7C061F0A8C094
:1011C80062F0000E0001646F0A0E636FC7EC11F045
:1011D80000016151300F43EC13F0EC0E0001636F16
:1011E8007F0E646F93EC11F0000E0001916F000EFA
:1011F800926F400E936F420E946F0A0E786FD70E5F
:10120800796F230E7A6F3C0E7B6FCCC066F0CDC031
:1012180067F0686B696B000E9EEC09F066C074F0AD
:1012280067C075F068C076F069C077F077EC02F0B7
:1012380074C08DF075C08EF076C08FF077C090F0D6
:1012480016EC00F08DC09DF08EC09EF08FC09FF010
:1012580090C0A0F0D5EC0CF000019D5143EC13F0C8
:10126800000E0001916F000E926F400E936F420EB8
:10127800946FCD0E786FCC0E796FCC0E7A6F3D0ED1
:101288007B6F000E646F640E636FCCC061F0CDC0DD
:1012980062F0C7EC11F0000161C066F062C067F04F
:1012A800686B696B000E9EEC09F066C074F067C04D
:1012B80075F068C076F069C077F077EC02F074C01A
:1012C8008DF075C08EF076C08FF077C090F016EC78
:1012D80000F08DC09DF08EC09EF08FC09FF090C032
:1012E800A0F0D5EC0CF000019D5143EC13F0000E7A
:1012F8000001646F640E636FCCC061F0CDC062F012
:10130800C7EC11F061C0A7F062C0A8F0A7C061F0F7
:10131800A8C062F0000E0001646F0A0E636FC7EC8C
:1013280011F000016151300F43EC13F00A0E43EC49
:1013380013F0120000016E6F00016E51D8B4A7EFD0
:1013480009F0A9EF09F0CBEF09F069BFB0EF09F098
:10135800AEEF09F0CBEF09F066C06AF067C06BF03A
:1013680068C06CF069C06DF06A1F6B1F6C1F6D1F41
:101378006A2B000E6B236C236D236AC070F06BC060
:1013880071F06CC072F06DC073F0D3EF09F066C0F5
:1013980070F067C071F068C072F069C073F0665190
:1013A800671168116911D8A4DCEF09F0DEEF09F0C4
:1013B800E8EF09F0000E666F000E676F000E686FA9
:1013C800000E696F79EF0AF0960E6F6FF2EF09F071
:1013D8006F2BD8907333723371337033000E7015DE
:1013E8006A6F000E71156B6F000E72156C6FFE0E32
:1013F80073156D6F6A516B116C116D11D8A407EFDD
:101408000AF009EF0AF0ECEF09F017EF0AF06F2B7A
:10141800010E7027000E712372237323D890733343
:10142800723371337033000E70156A6F000E7115C8
:101438006B6F000E72156C6FFF0E73156D6F6A512E
:101448006B116C116D11D8A42CEF0AF02EEF0AF075
:101458000BEF0AF036EF0AF06F07D8907037713744
:101468007237733772BF3BEF0AF03DEF0AF045EF72
:101478000AF0020E6F6143EF0AF045EF0AF030EF11
:101488000AF06FB14AEF0AF04CEF0AF04DEF0AF09C
:10149800729FD8906F336FC06AF06B6B6C6B6D6B1B
:1014A8006AC06DF06C6B6B6B6A6B6A5170136B5131
:1014B80071136C5172136D5173136E51D8B467EF79
:1014C8000AF069EF0AF071EF0AF069BF70EF0AF0ED
:1014D8006EEF0AF071EF0AF0738F70C066F071C09A
:1014E80067F072C068F073C069F01200096E0950A5
:1014F800D8B481EF0AF083EF0AF0A5EF0AF004BE32
:101508008AEF0AF088EF0AF0A5EF0AF001C005F0AB
:1015180002C006F003C007F004C008F0051E061E4E
:10152800071E081E052A000E06220722082205C0EB
:101538000BF006C00CF007C00DF008C00EF0ADEFC0
:101548000AF001C00BF002C00CF003C00DF004C09B
:101558000EF00150021003100410D8A4B6EF0AF0E0
:10156800B8EF0AF0C2EF0AF0000E016E000E026E2C
:10157800000E036E000E046E53EF0BF0960E0A6E0B
:10158800CCEF0AF00A2AD8900E320D320C320B3208
:10159800000E0B14056E000E0C14066E000E0D14D2
:1015A800076EFE0E0E14086E055006100710081080
:1015B800D8A4E1EF0AF0E3EF0AF0C6EF0AF0F1EF82
:1015C8000AF00A2A010E0B26000E0C220D220E220A
:1015D800D8900E320D320C320B32000E0B14056E01
:1015E800000E0C14066E000E0D14076EFF0E0E147E
:1015F800086E0550061007100810D8A406EF0BF067
:1016080008EF0BF0E5EF0AF010EF0BF00A06D890A0
:101618000B360C360D360E360DBE15EF0BF017EFE8
:101628000BF01FEF0BF0020E0A601DEF0BF01FEF1F
:101638000BF00AEF0BF00AB024EF0BF026EF0BF0DB
:1016480027EF0BF00D9ED8900A320AC005F0066A03
:10165800076A086A05C008F0076A066A056A05503D
:101668000B1206500C1207500D1208500E1209509A
:10167800D8B441EF0BF043EF0BF04BEF0BF004BE87
:101688004AEF0BF048EF0BF04BEF0BF00E8E0BC050
:1016980001F00CC002F00DC003F00EC004F01200FF
:1016A8000600F3CF3CF0F4CF3DF0F6CF3EF0F7CF95
:1016B8003FF0F8CF40F0F5CF41F0F2A466EF0BF021
:1016C80068EF0BF081EF0BF04450D8A46EEF0BF0ED
:1016D80070EF0BF073EF0BF0000E1AEC10F0C8C0AF
:1016E800CCF0C9C0CDF0230E036E7D0E046E5DEC08
:1016F80011F0000E0001D46FF2949EA086EF0BF05B
:1017080088EF0BF0A1EF0BF04550D8A48EEF0BF04B
:1017180090EF0BF093EF0BF0000E74EC10F0C6C0D6
:10172800D0F0C7C0D1F0EF0E036E7C0E046E5DECF6
:1017380011F0000E0001D56F9E90F2A2A6EF0BF0FB
:10174800A8EF0BF0C2EF0BF01A0E3B6EF80EE82E66
:10175800FED73B2EFCD700D081A0B5EF0BF0B7EF3A
:101768000BF0BDEF0BF0E90E036E7D0E046E5DEC21
:1017780011F08DEC13F083EC13F0F292F0A0C7EFA8
:101788000BF0C9EF0BF0EDEF0BF01A0E3B6EF80EF5
:10179800E82EFED73B2EFCD700D081A2D6EF0BF067
:1017A800D8EF0BF0DEEF0BF0420E036E7E0E046EE8
:1017B8005DEC11F0000E74EC10F0000E0001D16F1A
:1017C800000ED06F000E456E010E436E000ED56FF1
:1017D800F090F0A2F2EF0BF0F4EF0BF018EF0CF032
:1017E8001A0E3B6EF80EE82EFED73B2EFCD700D023
:1017F80081A401EF0CF003EF0CF009EF0CF06C0E74
:10180800036E7E0E046E5DEC11F0000E1AEC10F003
:10181800000E0001CD6F000ECC6F000E446E010E5D
:10182800426E000ED46FF09241C0F5FF40C0F8FF41
:101838003FC0F7FF3EC0F6FF3DC0F4FF3CC0F3FFDA
:1018480048921100000E0001BA6F000EB96FF20E37
:10185800636F7F0E646F93EC11F021EC11F00001BF
:10186800DE6F21EC11F00001DD6F21EC11F00001B9
:10187800DC6FF60E636F7F0E646F93EC11F021EC52
:1018880011F00001DB6F21EC11F00001DA6F21EC9F
:1018980011F00001D96FDE51640DF3CFB5F0F4CF2C
:1018A800B6F0DD510A0DF350B527F450B623DC51DC
:1018B800B527000EB623300EB525B76FEB0EB6214F
:1018C800B86FDB51640DF3CFB5F0F4CFB6F0DA5151
:1018D8000A0DF350B527F450B623D951B527000E99
:1018E800B623300EB525B96FEB0EB621BA6F2D0EA3
:1018F800B75D010EB859D8B084EF0CF086EF0CF044
:1019080091EF0CF02D0EB95D010EBA59D8A08FEFEA
:101918000CF091EF0CF0A0EF0CF0570E636F7D0EFA
:10192800646F93EC11F0DD0E0001636F7F0E646F3E
:1019380093EC11F0D4EF0CF0170E636F7E0E646F0A
:1019480093EC11F00001DE5143EC13F00001DD517E
:1019580043EC13F00001DC5143EC13F02C0E43EC84
:1019680013F00001DB5143EC13F00001DA5143ECB2
:1019780013F00001D95143EC13F02E0E43EC13F091
:10198800DAC0B0F0D9C0B1F00001DB51DCEC0DF0E9
:10199800DDC0B0F0DCC0B1F00001DE515DEC0EF04E
:1019A800120000019F35A035A66FA651D8A4DFEF1D
:1019B8000CF0E1EF0CF0EBEF0CF0000E9D6F000E59
:1019C8009E6F000E9F6F000EA06F58EF0DF09DC028
:1019D800A1F09EC0A2F09FC0A3F0A0C0A4F0200E6A
:1019E800FBEF0CF0D890A433A333A233A133E82E35
:1019F800F6EF0CF0A151A56F9F8FFF0E9D17FF0EFC
:101A08009E17FF0E9F17000EA017960EA65FA6BF83
:101A180012EF0DF010EF0DF028EF0DF0A651800A2F
:101A2800970FD8B01AEF0DF01CEF0DF01EEF0DF068
:101A3800E1EF0CF0D890A0339F339E339D33A63F3F
:101A48001EEF0DF040EF0DF01F0EA6652EEF0DF006
:101A580030EF0DF038EF0DF0E1EF0CF0D8909D3736
:101A68009E379F37A037A607A651D8A43EEF0DF0A2
:101A780040EF0DF032EF0DF0A551D8B446EF0DF060
:101A880048EF0DF050EF0DF0A01F9F1F9E1F9D6D9A
:101A9800000E9E239F23A0239DC09DF09EC09EF014
:101AA8009FC09FF0A0C0A0F012002A342B34316EE2
:101AB8003150D8A462EF0DF064EF0DF06EEF0DF029
:101AC800000E286E000E296E000E2A6E000E2B6E78
:101AD800DBEF0DF028C02CF029C02DF02AC02EF025
:101AE8002BC02FF0200E7EEF0DF0D8902F322E3223
:101AF8002D322C32E82E79EF0DF02C50306E2A8ED4
:101B0800FF0E2816FF0E2916FF0E2A16000E2B169A
:101B1800960E315E31BE95EF0DF093EF0DF0ABEF01
:101B28000DF03150800A970FD8B09DEF0DF09FEF60
:101B38000DF0A1EF0DF064EF0DF0D8902B322A32A2
:101B480029322832313EA1EF0DF0C3EF0DF01F0E00
:101B58003164B1EF0DF0B3EF0DF0BBEF0DF064EFB2
:101B68000DF0D890283629362A362B3631063150D2
:101B7800D8A4C1EF0DF0C3EF0DF0B5EF0DF0305064
:101B8800D8B4C9EF0DF0CBEF0DF0D3EF0DF02B1E4D
:101B98002A1E291E286C000E29222A222B2228C040
:101BA80028F029C029F02AC02AF02BC02BF01200F7
:101BB8000001B46F0001D405D8B4E5EF0DF0E7EFEC
:101BC8000DF0DEEF0DF0B451640DF3CFB2F0F4CFA9
:101BD800B3F0B0510A0DF350B227F450B323B1510A
:101BE800B227000EB323300EB225C86FEB0EB32117
:101BF800C96FCC51C85D616FCD51C959626F40EC56
:101C080012F061C065F062C066F0000E0001686FF6
:101C1800050E676FECEC12F065C0CEF066C0CFF031
:101C28006F0E0001636F7F0E646F93EC11F000017B
:101C3800CE5143EC13F00A0E43EC13F00001C851E7
:101C4800CC5DC951CD59D8B02CEF0EF02EEF0EF067
:101C580031EF0EF08C923DEF0EF0CC51C85DCD51B6
:101C6800C959D8B03AEF0EF03CEF0EF03DEF0EF048
:101C78008C82CC51C81909E1CD51C919D8B447EFA4
:101C88000EF049EF0EF056EF0EF0010ED46FCEC0F5
:101C980061F0CFC062F09BEC12F0320E5EEC0FF0F8
:101CA8005CEF0EF0970E636F7F0E646F93EC11F08C
:101CB80012000001B46F0001D505D8B466EF0EF02C
:101CC80068EF0EF05FEF0EF0B451640DF3CFB2F091
:101CD800F4CFB3F0B0510A0DF350B227F450B32348
:101CE800B151B227000EB323300EB225C66FEB0EEA
:101CF800B321C76FD051C65D616FD151C759626FAB
:101D080040EC12F061C065F062C066F0000E0001A0
:101D1800686F050E676FECEC12F065C0D2F066C014
:101D2800D3F0600E0001636F7F0E646F93EC11F0C7
:101D38000001D25143EC13F00A0E43EC13F00001FA
:101D4800C651D05DC751D159D8B0ADEF0EF0AFEF45
:101D58000EF0B2EF0EF08C96BEEF0EF0D051C65DCD
:101D6800D151C759D8B0BBEF0EF0BDEF0EF0BEEFA2
:101D78000EF08C86D051C61909E1D151C719D8B4D3
:101D8800C8EF0EF0CAEF0EF0D7EF0EF0010ED56FC8
:101D9800D2C061F0D3C062F0B6EC12F0320EBCECE7
:101DA8000FF0DDEF0EF08C0E636F7F0E646F93EC17
:101DB80011F01200000E0001696F54EF0FF080AAB5
:101DC800E8EF0EF0EAEF0EF006EF0FF01A0E000142
:101DD800686FF80EE82EFED7682FFCD700F080AAAF
:101DE800F8EF0EF0FAEF0EF006EF0FF0AD0E00016F
:101DF800636F7F0E646F93EC11F0BDEC13F0010E6E
:101E08000001696F82A80BEF0FF00DEF0FF02DEFB7
:101E18000FF01A0E0001686FF80EE82EFED7682F33
:101E2800FCD700F082A81BEF0FF01DEF0FF02DEF8D
:101E38000FF0A20E0001636F7F0E646F93EC11F038
:101E4800B7EC13F082B82BEF0FF02DEF0FF024EF63
:101E58000FF082AA32EF0FF034EF0FF054EF0FF0CB
:101E68001A0E0001686FF80EE82EFED7682FFCD70F
:101E780000F082AA42EF0FF044EF0FF054EF0FF09A
:101E8800B80E0001636F7F0E646F93EC11F0BAEC2B
:101E980013F082BA52EF0FF054EF0FF04BEF0FF040
:101EA80000016951D8B45BEF0FF05DEF0FF0E3EF7D
:101EB8000EF012000001AD6F0A0E0001786FD70E08
:101EC800796F230E7A6F3C0E7B6FAD51666F676B2F
:101ED800686B696B010E9EEC09F066C074F067C010
:101EE80075F068C076F069C077F077EC02F074C0DE
:101EF800A9F075C0AAF076C0ABF077C0ACF0000EC0
:101F08000001786F000E796F7A0E7A6F440E7B6F3E
:101F1800A9C074F0AAC075F0ABC076F0ACC077F079
:101F280077EC02F074C09DF075C09EF076C09FF00B
:101F380077C0A0F0D5EC0CF09DC0AEF09EC0AFF01D
:101F4800AEC0A7F0030E0001A717A73BBA50A71908
:101F5800CF0BA719BA6EAEC0A7F0AFC0A8F0D89043
:101F6800A833A733D890A833A733A751BB6E120064
:101F78000001AD6F0A0E0001786FD70E796F230E3E
:101F88007A6F3C0E7B6FAD51666F676B686B696BE0
:101F9800010E9EEC09F066C074F067C075F068C069
:101FA80076F069C077F077EC02F074C0A9F075C0DC
:101FB800AAF076C0ABF077C0ACF0000E0001786FE5
:101FC800000E796F7A0E7A6F440E7B6FA9C074F099
:101FD800AAC075F0ABC076F0ACC077F077EC02F031
:101FE80074C09DF075C09EF076C09FF077C0A0F0D9
:101FF800D5EC0CF09DC0AEF09EC0AFF0AEC0A7F01F
:10200800030E0001A717A73BBD50A719CF0BA719AF
:10201800BD6EAEC0A7F0AFC0A8F0D890A833A73364
:10202800D890A833A733A751BE6E1200386E0A0E97
:10203800136ED70E146E230E156E3C0E166E3850A6
:10204800016E026A036A046A010E7AEC0AF001C0A2
:102058000FF002C010F003C011F004C012F08DECB4
:1020680004F00FC034F010C035F011C036F012C0C3
:1020780037F0000E136E000E146E7A0E156E440EB5
:10208800166E34C00FF035C010F036C011F037C0EE
:1020980012F08DEC04F00FC028F010C029F011C028
:1020A8002AF012C02BF059EC0DF028C039F029C0E5
:1020B8003AF039C032F0030E3216323ABA503218BA
:1020C800CF0B3218BA6E39C032F03AC033F0D8901C
:1020D80033323232D890333232323250BB6E120041
:1020E800386E0A0E136ED70E146E230E156E3C0E44
:1020F800166E3850016E026A036A046A010E7AECA1
:102108000AF001C00FF002C010F003C011F004C0C3
:1021180012F08DEC04F00FC034F010C035F011C08F
:1021280036F012C037F0000E136E000E146E7A0EE1
:10213800156E440E166E34C00FF035C010F036C060
:1021480011F037C012F08DEC04F00FC028F010C069
:1021580029F011C02AF012C02BF059EC0DF028C05C
:1021680039F029C03AF039C032F0030E3216323A4B
:10217800BD503218CF0B3218BD6E39C032F03AC09C
:1021880033F0D89033323232D89033323232325040
:10219800BE6E12000001656F00016551640DF3CF3A
:1021A80063F0F4CF64F061510A0DF3506327F450E3
:1021B800642362516327000E6423300E6325CA6FBF
:1021C800EB0E6421CB6FCA51CB11D8B4EEEF10F0EF
:1021D800F0EF10F020EF11F0000E666F12EF11F023
:1021E8008D80020E0001646F040E636FBA0EE82E34
:1021F800FED7632FFCD7642FFAD700F08D90020E1C
:102208000001646F040E636FBA0EE82EFED7632FC9
:10221800FCD7642FFAD700F00001662B6651636F74
:10222800646BCA51635DCB516459D8A01EEF11F09D
:1022380020EF11F0F4EF10F01200FAEC11F0000E9C
:102248000001686F4AEF11F09EAA2DEF11F02FEFF1
:1022580011F028EF11F0AECF68F0000EAE6E3A0E16
:10226800000168613AEF11F03CEF11F044EF11F012
:10227800300E686142EF11F044EF11F04AEF11F0AF
:102288008B0E636F7D0E646F93EC11F03A0E0001B4
:10229800686151EF11F053EF11F028EF11F02F0E94
:1022A800686559EF11F05BEF11F028EF11F06851F4
:1022B80012001DEC12F0000E076E0728D8A467EF75
:1022C80011F069EF11F06BEF11F092EF11F0075078
:1022D8000324056E000E0420066E05C0F6FF06C036
:1022E800F7FF0800F5500009D8A47DEF11F07FEF43
:1022F80011F081EF11F092EF11F007500324056EF1
:10230800000E0420066E05C0F6FF06C0F7FF0800A1
:10231800F5506BEC13F0072A61EF11F01200FAEC9C
:1023280011F0000E0001676F67516325656F000E9D
:102338006421666F65C0F6FF66C0F7FF0800F550B8
:102348000009D8A4AAEF11F0ACEF11F0AEEF11F02C
:10235800C6EF11F067516325656F000E6421666F43
:1023680065C0F6FF66C0F7FF0800F55043EC13F0B0
:102378000001672B6729D8A4C4EF11F0C6EF11F04C
:1023880098EF11F01200000163516411D8B4CFEF37
:1023980011F0D1EF11F0F5EF11F0010E656FD9EFE3
:1023A80011F0D89063376437652B64AFDEEF11F016
:1023B800E0EF11F0D5EF11F06351615D645162599E
:1023C800D8A0E9EF11F0EBEF11F0EFEF11F0635146
:1023D800615F6451625BD89064336333652FE0EFCB
:1023E80011F061C061F062C062F01200ABA2FFEFB1
:1023F80011F001EF12F012EF12F0AECF61F0AECF94
:1024080061F0AECF61F0AECF61F0AB98AB88ABB204
:1024180010EF12F012EF12F001EF12F0ABA417EF69
:1024280012F019EF12F01CEF12F0AE50AC9AAC8A11
:102438001200ABA222EF12F024EF12F035EF12F0E7
:10244800AECF01F0AECF01F0AECF01F0AECF01F0CC
:10245800AB98AB88ABB233EF12F035EF12F024EF44
:1024680012F0ABA43AEF12F03CEF12F03FEF12F08B
:10247800AE50AC9AAC8A1200000162BF4EEF12F067
:10248800625106E16105D8B04CEF12F04EEF12F040
:102498005CEF12F061C063F062C064F0631F641FF8
:1024A800634B642B63C061F064C062F060EF12F0AC
:1024B80061C061F062C062F0120021EC11F000010D
:1024C800696F310E6919D8A46CEF12F06EEF12F033
:1024D80071EF12F08D807EEF12F0300E6919D8A4DA
:1024E80078EF12F07AEF12F07DEF12F08D907EEF18
:1024F80012F08D901200FAEC11F0000E0001666FD8
:1025080091EF12F066516325D96E000E6421DA6EE0
:1025180024EC13F0DF6E0001662B6551665DD8A0D0
:1025280098EF12F09AEF12F086EF12F01200000105
:1025380061516211D8B4A3EF12F0A5EF12F0B3EF16
:1025480012F061510008636F6251D8A0E82A0008B0
:10255800646F6451D76E63C0D6FFB5EF12F0D768C9
:10256800D6681200000161516211D8B4BEEF12F0B2
:10257800C0EF12F0CEEF12F061510108636F6251A3
:10258800D8A0E82A0008646F6451CF6E63C0CEFFFC
:10259800D0EF12F0CF68CE681200500E0001636FC2
:1025A8007F0E646F93EC11F021EC11F00001D86FED
:1025B80021EC11F00001D76F21EC11F00001D66F6A
:1025C800D7C061F0D6C062F0D851CEEC10F012003E
:1025D800000165516703F3CF69F0F4CF6AF06551E4
:1025E8006803F3506A2766516703F3506A2769C086
:1025F80065F06AC066F0120000EEC6F0190EEE6AC9
:10260800E806FDE1476A466A456A446A436A426ADF
:1026180048904892000EF86E0001A2EF06F09494DC
:10262800BD50F00B0C09BD6EF90ECB6E030ECA122D
:10263800CF0EBD16000EBE6E000ECC6ECA84120000
:10264800FAEC11F09EAA2BEF13F02DEF13F026EF02
:1026580013F0AECF62F0000EAE6E000162511200B0
:1026680094920F0EBA12F90ECB6E030ECA12CF0E49
:10267800BA16000EBB6E000ECC6ECA8412000001A2
:10268800626FFAEC11F0ACA24CEF13F04EEF13F0BE
:1026980047EF13F062C0ADFF1200CD90CD8ECD96FE
:1026A800CD8CCD82CD849480000ECF6E000ECE6E80
:1026B800CD801200948C948E100EAF6EAC84B886C8
:1026C800AC9CAC8AAC98AB8EAB9CAB881200026E0B
:1026D8001DEC12F0ACA273EF13F075EF13F06EEF70
:1026E80013F002C0ADFF1200D59ED59CD58AD598AF
:1026F8009288000ED76E000ED66ED58E1200010E8F
:10270800446E8C92010E0001D46F320E1AEC10F058
:102718001200010E456E8C96010E0001D56F320E27
:1027280074EC10F012000F0EC112700ED36E6D967D
:102738006F861200959A959C928A8C9A8C9A8C9A9C
:1027480012009590959294928C908C928B92120094
:102758009594959694948C948C968B941200D09E14
:10276800F28CF28E12008C8A8C9C12008C9A8C8CC3
:1027780012008C9A8C9C1200969012009D80120078
:04278800F28A1200BF
:107CAE00004573637269626520696E697420706144
:107CBE0072612063616C6962617220656C20535041
:107CCE00415243207920706F64657220656D706536
:107CDE007A617220656C2070726F6772616D610AD5
:107CEE0000496E74657272757063696F6E20544DC3
:107CFE0052312C206C6C6567617374652061206352
:107D0E006F6F7264656E6164612064657365616432
:107D1E006120580A00496E74657272757063696FDE
:107D2E006E20544D52302C206C6C656761737465F7
:107D3E00206120636F6F7264656E6164612064659B
:107D4E00736561646120590A004D657469737465C9
:107D5E0020756E6120636F6F7264656E6164612061
:107D6E00696E76616C6964612C207675656C7665DA
:107D7E00206120696E74656E7461720A00536F6CB7
:107D8E006F2070756564657320696E74726F6475AB
:107D9E00636972206E756D65726F732C20707275CB
:107DAE00656261206465206E7565766F0050726540
:107DBE0073696F6E6172205A2063696572746F20E9
:107DCE006E756D65726F20646520766563657320D0
:107DDE007265636962696461730A004F63757272DA
:107DEE00696F206C6120696E74657272757063695B
:107DFE006F6E206C696D697453776974636833456F
:107E0E00737175696E61730A00436F6F7264656E8C
:107E1E006164612072656369626964612C206C6FB4
:107E2E0020717565207265636962696D6F73206676
:107E3E0075653A004F63757272696F206C612069C7
:107E4E006E74657272757063696F6E206C696D69A0
:107E5E0074537769746368486F6D65580A004F6391
:107E6E00757272696F206C6120696E7465727275BD
:107E7E007063696F6E206C696D6974537769746392
:107E8E0068486F6D65590A00506973746F6E207083
:107E9E00617261206465736C697A6172206F20640F
:107EAE00656A617220726574726169646F3F0A005F
:107EBE00566173206120697220696E66696E6974FD
:107ECE006F2058206520696E66696E69746F20593F
:107EDE000A005661732061206D6F76657220656CA5
:107EEE0020537061726320656E2058207920590AE4
:107EFE0000496D70726D697220636F6F7264656E8A
:107F0E006164612061637475616C200A005661734F
:107F1E002061206972206120686F6D65582079207C
:107F2E00686F6D6520590A00456E747261737465D1
:107F3E002061206D6F766572206C612062617365C1
:107F4E000A00546F63617250616E74616C6C613AB9
:107F5E000A0078546F416476616E63652069733AE6
:107F6E000079546F416476616E63652069733A00DF
:107F7E00496E697469616C697A696E670A00452C8D
:107F8E00636F6F724163580A00452C636F6F7241C5
:107F9E0063590A004D6F764172726962610A000A76
:107FAE0053616C69656E646F0A004D6F7641426174
:107FBE006A6F0A004F6B2C636F6D460A004F6B2C75
:107FCE00636F6D4E0A004F6B2C636F6D560A004542
:107FDE002C634E6F560A00452C636F6D0A00202CE1
:107FEE00593A2000583A0A00593A0A00583A2000E5
:017FFE000082
:020000040020DA
:08000000FFFFFFFFFFFFFFFF00
:020000040030CA
:0E00000000091F1EFF8381FF0FC00FE00F409D
:00000001FF
