:020000040000FA
:0400000014EF00F009
:060008004682C1ED0BF081
:100018004680E0CF60F000F060C0E0FF469010003E
:10002800BEEF14F092EC15F027EC15F0F0EC14F09C
:10003800CFEC14F0000EB4EC11F0000E12EC12F03C
:10004800A0EC15F099EC15F041EC15F00DEC15F05D
:10005800A7EC15F0B9EC15F0B7EC15F01AEC15F0A3
:100068008AEC15F0ABEC15F0000E0001C66FC20E5D
:10007800C06F000EC16F000EC76FE0EC14F08CEF7C
:1000880000F06F0E636F7C0E646F5AEC13F0C0C003
:1000980063F0C1C064F0040E0001BE6FBEC065F01D
:1000A80058EC14F0690E0001C219D8B45EEF00F0E4
:1000B80060EF00F069EF00F0490EC219D8A467EFAD
:1000C80000F069EF00F08CEF00F06E0EC319D8A4B1
:1000D80070EF00F072EF00F08CEF00F0690EC419B9
:1000E800D8A479EF00F07BEF00F08CEF00F0740EED
:1000F800C519D8A482EF00F084EF00F08CEF00F06F
:10010800010EC76F2E0E636F7F0E646F5AEC13F0EB
:100118000001C751D8B493EF00F095EF00F045EF18
:1001280000F00001C705D8A49CEF00F09EEF00F096
:10013800FAEF00F0300EB06F350EB16F300E69EC8B
:1001480010F0300E0001B06F350EB16F300EE7ECD5
:100158000FF0020E0001BD6F040EBC6FBA0EE82E40
:10016800FED7BC2FFCD7BD2FFAD700F057EC15F0FF
:100178004CEC15F00001D951D8B4C5EF00F0C7EF29
:1001880000F0BEEF00F0D851D8B4CDEF00F0CFEFBB
:1001980000F0BEEF00F0C30E636F7F0E646F5AEC81
:1001A80013F0310E0001B06F350EB16F300E69ECEF
:1001B80010F0310E0001B06F350EB16F300EE7EC64
:1001C8000FF0000E0001D96F000ED86F000ED46F2B
:1001D800000ED36F000ED06F000ECF6F000EC76FEA
:1001E800DD0E636F7E0E646F5AEC13F00001D705C5
:1001F800D8A401EF01F003EF01F038EF01F0D95175
:10020800D8B409EF01F00BEF01F003EF01F0D8517A
:10021800D8B411EF01F013EF01F003EF01F05D0E18
:10022800636F7E0E646F5AEC13F0310E0001B06FED
:10023800350EB16F300E69EC10F0310E0001B06F61
:10024800350EB16F300EE7EC0FF0000E0001D96FDC
:10025800000ED86F000ED46F000ED36F000ED06F53
:10026800000ECF6F000ED76FBA0E636F7F0E646FEC
:100278005AEC13F0E0EC14F00001C86F6D0EC819C9
:10028800D8B449EF01F04BEF01F054EF01F04D0EF7
:10029800C819D8A452EF01F054EF01F065EF01F04E
:1002A800A20E636F7E0E646F5AEC13F0CC0E000141
:1002B800636F7F0E646F5AEC13F095EC0AF095EFBC
:1002C80000F0700EC819D8B46CEF01F06EEF01F0B1
:1002D80077EF01F0500EC819D8A475EF01F077EF49
:1002E80001F09AEF01F05A0E636F7D0E646F5AECBD
:1002F80013F0CC0E0001636F7F0E646F5AEC13F09D
:10030800F29EEBEC10F0030E0001BD6F8A0EBC6F7D
:10031800550EE82EFED7BC2FFCD7BD2FFAD700D03C
:10032800F292F092F090F28E95EF00F0730EC819E9
:10033800D8B4A1EF01F0A3EF01F0ACEF01F0530E38
:10034800C819D8A4AAEF01F0ACEF01F0CFEF01F083
:10035800350E636F7E0E646F5AEC13F0CC0E0001FD
:10036800636F7F0E646F5AEC13F0F29EC1EC13F0CA
:10037800030E0001BD6F8A0EBC6F550EE82EFED726
:10038800BC2FFCD7BD2FFAD700D0F292F092F09094
:10039800F28E95EF00F0680EC819D8B4D6EF01F0C8
:1003A800D8EF01F0E1EF01F0480EC819D8A4DFEF4B
:1003B80001F0E1EF01F027EF02F0F90E636F7E0E16
:1003C800646F5AEC13F0CC0E0001636F7F0E646FFC
:1003D8005AEC13F057EC15F04CEC15F00001D9511C
:1003E800D8B4F9EF01F0FBEF01F0F2EF01F0D851CA
:1003F800D8B401EF02F003EF02F0F2EF01F0310E92
:10040800B06F350EB16F300E69EC10F0310E00018F
:10041800B06F350EB16F300EE7EC0FF0000E000133
:10042800D96F000ED86F000ED46F000ED36F000E78
:10043800D06F000ECF6FD50E636F7F0E646F5AECCE
:1004480013F095EF00F0690EC819D8B42EEF02F03A
:1004580030EF02F039EF02F0490EC819D8A437EF8F
:1004680002F039EF02F055EF02F0800E636F7E0E56
:10047800646F5AEC13F0CC0E0001636F7F0E646F4B
:100488005AEC13F081EC15F078EC15F0010E000130
:10049800D76FD50E636F7F0E646F5AEC13F095EF2C
:1004A80000F0630EC819D8B45CEF02F05EEF02F0FA
:1004B80067EF02F0430EC819D8A465EF02F067EFA2
:1004C80002F07FEF02F0C10E636F7E0E646F5AEC8C
:1004D80013F0CC0E0001636F7F0E646F5AEC13F0BB
:1004E8003FEC09F0D50E0001636F7F0E646F5AEC84
:1004F80013F095EF00F0620EC819D8B486EF02F039
:1005080088EF02F091EF02F0420EC819D8A48FEFDD
:1005180002F091EF02F0A9EF02F0140E636F7F0E64
:10052800646F5AEC13F0CC0E0001636F7F0E646F9A
:100538005AEC13F05AEC0EF0D50E0001636F7F0EE3
:10054800646F5AEC13F095EF00F0E60E636F7F0EC0
:10055800646F5AEC13F095EF00F014EF00F000010F
:100568009051800B996F905190259B6F8FAFBFEF83
:1005780002F0C1EF02F0C2EF02F09B819B51D8B4A8
:10058800C8EF02F0CAEF02F0DFEF02F09B29D8A40F
:10059800D0EF02F0D2EF02F0DAEF02F0000E8D6F2A
:1005A800000E8E6F000E8F6F000E906F8F8F000EF3
:1005B800906FE7EF02F0000E8D6F000E8E6F000E49
:1005C8008F6F000E906F9451800B9A6F99519A1902
:1005D800D8B4F1EF02F0F3EF02F0F4EF02F0998DE6
:1005E800945194259A6F93AFFCEF02F0FEEF02F05E
:1005F800FFEF02F09A819A51D8B405EF03F007EFA4
:1006080003F01CEF03F09A29D8A40DEF03F00FEFC5
:1006180003F017EF03F0000E916F000E926F000EBB
:10062800936F000E946F938F000E946F24EF03F076
:10063800000E916F000E926F000E936F000E946F74
:100648009B519A5DD8B02BEF03F02DEF03F054EFD8
:1006580003F099AD32EF03F034EF03F036EF03F017
:10066800800E991B9BC09CF09AC09BF09CC09AF08E
:100678008DC09CF091C08DF09CC091F08EC09CF014
:1006880092C08EF09CC092F08FC09CF093C08FF007
:100698009CC093F090C09CF094C090F09CC094F0E3
:1006A800000E9C6F9B519AC095F0966B955F000E5B
:1006B800965B96BF69EF03F0965109E11A0E955DB6
:1006C800D8A069EF03F06BEF03F0A2EF03F08D51B0
:1006D8008E118F119011D8A474EF03F077EF03F007
:1006E800010E78EF03F0000E9C6F000E8D6F000E68
:1006F8008E6F000E8F6F000E906F9AC09BF0ABEF5D
:1007080003F09CA18AEF03F08CEF03F092EF03F063
:10071800D8909C3101099C6F94EF03F0D8909C33DA
:100728008DA199EF03F09BEF03F09CEF03F09C8FF2
:10073800903590338F338E338D339B2B9A519B5D3D
:10074800D8A0A9EF03F0ABEF03F085EF03F099BD54
:10075800B0EF03F0B2EF03F0F2EF03F09B51D8A42F
:10076800B8EF03F0BAEF03F0C4EF03F0000E8D6F9B
:10077800000E8E6F000E8F6F000E906F13EF05F056
:1007880091518D2792518E2393518F239451902309
:1007980090A1D1EF03F0D3EF03F07FEF04F09CA119
:1007A800D8EF03F0DAEF03F0E0EF03F0D8909C31D4
:1007B80001099C6FE2EF03F0D8909C338DA1E7EF1D
:1007C80003F0E9EF03F0EAEF03F09C8F90359033E4
:1007D8008F338E338D339B2B7FEF04F091518D5DDA
:1007E80092518E5993518F599051800A956F945117
:1007F800800A9559D8B003EF04F005EF04F030EF04
:1008080004F08D51915D956F8E519259966F8F516D
:100818009359976F90519459986FFF0E95258D6F46
:10082800FF0E96218E6FFF0E97218F6FFF0E982176
:10083800906F800E991B9C6D9C51D8A426EF04F0F4
:1008480028EF04F038EF04F0010E8D27000E8E23F8
:100858008F23902338EF04F091518D5F92518E5B76
:1008680093518F5B9451905B8D518E118F11901124
:10087800D8A441EF04F043EF04F078EF04F09C5162
:10088800D8A449EF04F04BEF04F078EF04F0000E21
:100898008D6F000E8E6F000E8F6F000E906F13EF2E
:1008A80005F0D8908D378E378F3790379CAF5FEF34
:1008B80004F061EF04F062EF04F08D819CA167EF12
:1008C80004F069EF04F06DEF04F0D8809C376FEF07
:1008D80004F0D8909C379B51D8B475EF04F077EFAB
:1008E80004F078EF04F09B078FAF7DEF04F07FEF03
:1008F80004F055EF04F0000E9A6F9CAF86EF04F0F9
:1009080088EF04F0A0EF04F09CC095F07F0E9517D7
:10091800D8B491EF04F093EF04F097EF04F0010ED0
:100928009A6FA0EF04F08DA19CEF04F09EEF04F005
:10093800A0EF04F093EF04F09A51D8B4A6EF04F0B6
:10094800A8EF04F0D3EF04F0010E8D27000E8E23DC
:100958008F23902390A1B3EF04F0B5EF04F0D3EF09
:1009680004F08DC095F08EC096F08FC097F090C0BF
:1009780098F09835983397339633953395C08DF022
:1009880096C08EF097C08FF098C090F09B29D8B48D
:10099800D0EF04F0D2EF04F0D3EF04F09B2B9B29A7
:1009A800D8B4D9EF04F0DBEF04F0E3EF04F09B5187
:1009B800D8A4E1EF04F0E3EF04F0F5EF04F0000E43
:1009C8008D6F000E8E6F000E8F6F000E906F9B5113
:1009D800D8A4F1EF04F0F3EF04F0F5EF04F0000E03
:1009E800996F9BA1FAEF04F0FCEF04F0FFEF04F01D
:1009F8008F8F00EF05F08F9FD8909B31906F99AF44
:100A080008EF05F00AEF05F00BEF05F0908F8DC0A9
:100A18008DF08EC08EF08FC08FF090C090F01200D5
:100A280000017751800B806F77517725866F76AFFD
:100A380020EF05F022EF05F023EF05F086818651BF
:100A4800D8B429EF05F02BEF05F03EEF05F0862925
:100A5800D8A431EF05F033EF05F03BEF05F0000EB9
:100A6800746F000E756F000E766F000E776F768FBD
:100A780046EF05F0000E746F000E756F000E766F6E
:100A8800000E776F7B51800B801B7B517B25856F18
:100A98007AAF51EF05F053EF05F054EF05F085817B
:100AA8008551D8B45AEF05F05CEF05F06FEF05F00B
:100AB8008529D8A462EF05F064EF05F06CEF05F026
:100AC800000E786F000E796F000E7A6F000E7B6F44
:100AD8007A8F77EF05F0000E786F000E796F000EB1
:100AE8007A6F000E7B6F8551D8B47DEF05F07FEFEC
:100AF80005F087EF05F08651D8A485EF05F087EF5C
:100B080005F091EF05F0000E746F000E756F000E82
:100B1800766F000E776F29EF07F07A517403F3CFE1
:100B28008BF0F4CF8CF08B51816F826B836B846B6D
:100B38008C51876F886B896B8A6B79517503F3CFFA
:100B48008BF0F4CF8CF08B518127000E8223832306
:100B580084238C518727000E882389238A23785180
:100B68007603F3CF8BF0F4CF8CF08B518127000EF6
:100B78008223832384238C518727000E882389238B
:100B88008A2383C084F082C083F081C082F0816BA5
:100B980078517503F3CF8BF0F4CF8CF08B5181270C
:100BA8008C518223000E8323000E84237951740311
:100BB800F3CF8BF0F4CF8CF08B5181278C518223AB
:100BC800000E8323000E842383C084F082C083F048
:100BD80081C082F0816B78517403F3CF8BF0F4CF2E
:100BE8008CF08B5181278C518223000E8323000EB9
:100BF80084237A517503F3CF8BF0F4CF8CF08B51AB
:100C080087278C518823000E8923000E8A23795167
:100C18007603F3CF8BF0F4CF8CF08B5187278C5170
:100C28008823000E8923000E8A237A517603F3CF96
:100C38008BF0F4CF8CF08B517C6F8C517D6F7E6B79
:100C48007F6B7EC07FF07DC07EF07CC07DF07C6BCA
:100C58007C5187277D5188237E5189237F518A23A0
:100C680081C07CF082C07DF083C07EF084C07FF0BC
:100C7800190E44EF06F0D8907F337E337D337C33F2
:100C8800E82E3FEF06F07C5187277D5188237E515F
:100C980089237F518A2383C084F082C083F081C076
:100CA80082F0816B855186C07CF07D6B7C27000EBD
:100CB8007D23820E7C258B6FFF0E7D218C6F7AEF52
:100CC80006F0D8908737883789378A3784AF6FEF2F
:100CD80006F071EF06F072EF06F08781D890813741
:100CE8008237833784378B07D8A08C0789AF7FEF8B
:100CF80006F081EF06F065EF06F0000E856F84AF11
:100D080088EF06F08AEF06F0AEEF06F0FF0E8115C9
:100D18007C6FFF0E82157D6FFF0E83157E6F7F0E31
:100D280084157F6F7C517D117E117F11D8B49FEFA0
:100D380006F0A1EF06F0A5EF06F0010E856FAEEF05
:100D480006F087A1AAEF06F0ACEF06F0AEEF06F0CA
:100D5800A1EF06F08551D8B4B4EF06F0B6EF06F06F
:100D6800DAEF06F0010E8727000E882389238A23ED
:100D78008AA1C1EF06F0C3EF06F0DAEF06F087C0EC
:100D88007CF088C07DF089C07EF08AC07FF07F3516
:100D98007F337E337D337C337CC087F07DC088F021
:100DA8007EC089F07FC08AF08B4B8C2B8CBFE5EF1F
:100DB80006F08C5108E18B29D8A0E5EF06F0E7EFA3
:100DC80006F0F1EF06F0000E876F000E886F800EB8
:100DD800896F7F0E8A6F1FEF07F08CBFFEEF06F05A
:100DE8008C5106E18B05D8B0FCEF06F0FEEF06F05B
:100DF8000AEF07F0000E876F000E886F000E896FEC
:100E0800000E8A6F000E806F1FEF07F08BC086F010
:100E1800FF0E8717FF0E88177F0E8917000E8A1797
:100E280086A119EF07F01BEF07F01CEF07F0898F79
:100E3800D89086318A6F80518A1387C074F088C031
:100E480075F089C076F08AC077F012001250800BD6
:100E58001B6E12501224216E11AE35EF07F037EFDA
:100E680007F038EF07F021802150D8B43EEF07F0A3
:100E780040EF07F053EF07F02128D8A446EF07F01A
:100E880048EF07F050EF07F0000E0F6E000E106EDF
:100E9800000E116E000E126E118E5BEF07F0000E41
:100EA8000F6E000E106E000E116E000E126E1650B0
:100EB800800B1B1A16501624206E15AE66EF07F02D
:100EC80068EF07F069EF07F020802050D8B46FEF83
:100ED80007F071EF07F084EF07F02028D8A477EF28
:100EE80007F079EF07F081EF07F0000E136E000EA0
:100EF800146E000E156E000E166E158E8CEF07F030
:100F0800000E136E000E146E000E156E000E166E97
:100F18002050D8B492EF07F094EF07F09CEF07F059
:100F28002150D8A49AEF07F09CEF07F0A6EF07F03E
:100F3800000E0F6E000E106E000E116E000E126E77
:100F48003EEF09F015500F02F3CF26F0F4CF27F04B
:100F580026501C6E1D6A1E6A1F6A2750226E236A5D
:100F6800246A256A14501002F3CF26F0F4CF27F034
:100F780026501C26000E1D221E221F222750222624
:100F8800000E23222422252213501102F3CF26F02B
:100F9800F4CF27F026501C26000E1D221E221F22E9
:100FA80027502226000E2322242225221EC01FF0AD
:100FB8001DC01EF01CC01DF01C6A13501002F3CF98
:100FC80026F0F4CF27F026501C2627501D22000EAD
:100FD8001E22000E1F2214500F02F3CF26F0F4CF6A
:100FE80027F026501C2627501D22000E1E22000E18
:100FF8001F221EC01FF01DC01EF01CC01DF01C6A61
:1010080013500F02F3CF26F0F4CF27F026501C26FA
:1010180027501D22000E1E22000E1F2215501002FE
:10102800F3CF26F0F4CF27F026502226275023228C
:10103800000E2422000E252214501102F3CF26F0B0
:10104800F4CF27F02650222627502322000E2422F0
:10105800000E252215501102F3CF26F0F4CF27F009
:101068002650176E2750186E196A1A6A19C01AF096
:1010780018C019F017C018F0176A17502226185010
:101088002322195024221A5025221CC017F01DC0F3
:1010980018F01EC019F01FC01AF0190E59EF08F009
:1010A800D8901A32193218321732E82E54EF08F055
:1010B8001750222618502322195024221A5025226C
:1010C8001EC01FF01DC01EF01CC01DF01C6A205061
:1010D80021C017F0186A1726000E1822820E17244E
:1010E800266EFF0E1820276E8FEF08F0D890223654
:1010F8002336243625361FAE84EF08F086EF08F035
:1011080087EF08F02280D8901C361D361E361F3611
:101118002606D8A0270624AE94EF08F096EF08F02C
:101128007AEF08F0000E206E1FAE9DEF08F09FEFDB
:1011380008F0C3EF08F0FF0E1C14176EFF0E1D1405
:10114800186EFF0E1E14196E7F0E1F141A6E17509C
:10115800181019101A10D8B4B4EF08F0B6EF08F048
:10116800BAEF08F0010E206EC3EF08F022A0BFEF1F
:1011780008F0C1EF08F0C3EF08F0B6EF08F0205010
:10118800D8B4C9EF08F0CBEF08F0EFEF08F0010E84
:101198002226000E23222422252225A0D6EF08F09D
:1011A800D8EF08F0EFEF08F022C017F023C018F0CE
:1011B80024C019F025C01AF01A341A32193218321C
:1011C800173217C022F018C023F019C024F01AC033
:1011D80025F0264A272A27BEFAEF08F0275008E10B
:1011E8002628D8A0FAEF08F0FCEF08F006EF09F07F
:1011F800000E226E000E236E800E246E7F0E256E6A
:1012080034EF09F027BE13EF09F0275006E1260452
:10121800D8B011EF09F013EF09F01FEF09F0000E35
:10122800226E000E236E000E246E000E256E000E38
:101238001B6E34EF09F026C021F0FF0E2216FF0EB8
:1012480023167F0E2416000E251621A02EEF09F076
:1012580030EF09F031EF09F0248ED8902130256E57
:101268001B50251222C00FF023C010F024C011F02B
:1012780025C012F01200FB0E0001636F7F0E646F31
:101288005AEC13F0000E0001916F000E926F400EA1
:10129800936F420E946F0A0E786FD70E796F230EF4
:1012A8007A6F3C0E7B6FD3C066F0D4C067F0686B72
:1012B800696B000EA4EC0CF066C074F067C075F0A2
:1012C80068C076F069C077F014EC05F074C08DF052
:1012D80075C08EF076C08FF077C090F0B3EC02F056
:1012E8008DC09DF08EC09EF08FC09FF090C0A0F082
:1012F800E0EC0EF000019D51FFEC14F0000E00012F
:10130800916F000E926F400E936F420E946FCD0E48
:10131800786FCC0E796FCC0E7A6F3D0E7B6F000E16
:10132800646F640E636FD3C061F0D4C062F08EEC5A
:1013380013F0000161C066F062C067F0686B696B0A
:10134800000EA4EC0CF066C074F067C075F068C0BD
:1013580076F069C077F014EC05F074C08DF075C0B4
:101368008EF076C08FF077C090F0B3EC02F08DC0AD
:101378009DF08EC09EF08FC09FF090C0A0F0E0EC72
:101388000EF000019D51FFEC14F0000E0001646F97
:10139800640E636FD3C061F0D4C062F08EEC13F0BA
:1013A80061C0A7F062C0A8F0A7C061F0A8C062F051
:1013B800000E0001646F0A0E636F8EEC13F00001DB
:1013C8006151300FFFEC14F0ED0E0001636F7F0EDA
:1013D800646F5AEC13F0000E0001916F000E926FCB
:1013E800400E936F420E946F0A0E786FD70E796F86
:1013F800230E7A6F3C0E7B6FCFC066F0D0C067F0CB
:10140800686B696B000EA4EC0CF066C074F067C0E2
:1014180075F068C076F069C077F014EC05F074C018
:101428008DF075C08EF076C08FF077C090F0B3EC79
:1014380002F08DC09DF08EC09EF08FC09FF090C0CE
:10144800A0F0E0EC0EF000019D51FFEC14F0000E4E
:101458000001916F000E926F400E936F420E946FD1
:10146800CD0E786FCC0E796FCC0E7A6F3D0E7B6FF8
:10147800000E646F640E636FCFC061F0D0C062F07D
:101488008EEC13F0000161C066F062C067F0686B13
:10149800696B000EA4EC0CF066C074F067C075F0C0
:1014A80068C076F069C077F014EC05F074C08DF070
:1014B80075C08EF076C08FF077C090F0B3EC02F074
:1014C8008DC09DF08EC09EF08FC09FF090C0A0F0A0
:1014D800E0EC0EF000019D51FFEC14F0000E00014D
:1014E800646F640E636FCFC061F0D0C062F08EECA1
:1014F80013F061C0A7F062C0A8F0A7C061F0A8C04F
:1015080062F0000E0001646F0A0E636F8EEC13F038
:1015180000016151300FFFEC14F00A0EFFEC14F0DB
:101528001200000E0001BB6F000EBA6F000EB96FFB
:10153800F30E636F7F0E646F5AEC13F0E0EC14F057
:101548000001E46FE0EC14F00001E36FE0EC14F04C
:101558000001E26FF70E636F7F0E646F5AEC13F0B1
:10156800E0EC14F00001E16FE0EC14F00001E06F32
:10157800E0EC14F00001DF6FE451640DF3CFB5F037
:10158800F4CFB6F0E3510A0DF350B527F450B62363
:10159800E251B527000EB623300EB525B76FEB0E16
:1015A800B621B86FE151640DF3CFB5F0F4CFB6F0C2
:1015B800E0510A0DF350B527F450B623DF51B52793
:1015C800000EB623300EB525B96FEB0EB621BA6FF3
:1015D8003A0EE461F2EF0AF0F4EF0AF0FCEF0AF0D9
:1015E800300EE461FAEF0AF0FCEF0AF0FEEF0AF0C1
:1015F800010EBB6F3A0EE36104EF0BF006EF0BF040
:101608000EEF0BF0300EE3610CEF0BF00EEF0BF06A
:1016180010EF0BF0010EBB6F3A0EE26116EF0BF004
:1016280018EF0BF020EF0BF0300EE2611EEF0BF01D
:1016380020EF0BF022EF0BF0010EBB6F3A0EE161C9
:1016480028EF0BF02AEF0BF032EF0BF0300EE161D0
:1016580030EF0BF032EF0BF034EF0BF0010EBB6FF5
:101668003A0EE0613AEF0BF03CEF0BF044EF0BF071
:10167800300EE06142EF0BF044EF0BF046EF0BF059
:10168800010EBB6F3A0EDF614CEF0BF04EEF0BF023
:1016980056EF0BF0300EDF6154EF0BF056EF0BF006
:1016A80058EF0BF0010EBB6F2D0EB75D010EB85948
:1016B800D8B061EF0BF063EF0BF076EF0BF02D0E67
:1016C800B95D010EBA59D8B06CEF0BF06EEF0BF0A4
:1016D80076EF0BF0BB05D8A474EF0BF076EF0BF0A8
:1016E80085EF0BF0260E636F7D0E646F5AEC13F0D6
:1016F800DE0E0001636F7F0E646F5AEC13F0C0EFCB
:101708000BF0B60E636F7D0E646F5AEC13F0000198
:10171800E451FFEC14F00001E351FFEC14F0000178
:10172800E251FFEC14F02C0EFFEC14F00001E15133
:10173800FFEC14F00001E051FFEC14F00001DF5160
:10174800FFEC14F00A0EFFEC14F0E3C0B0F0E2C0B6
:10175800B1F00001E45169EC10F0E0C0B0F0DFC076
:10176800B1F00001E151E7EC0FF0D50E0001636F15
:101778007F0E646F5AEC13F012000600F3CF3CF0B2
:10178800F4CF3DF0F6CF3EF0F7CF3FF0F8CF40F082
:10179800F5CF41F0F2A4D3EF0BF0D5EF0BF0F5EF56
:1017A8000BF04250D8A4DBEF0BF0DDEF0BF0E0EFCD
:1017B8000BF0000E70EC12F0CBC0CFF0CCC0D0F024
:1017C800F20E036E7C0E046E24EC13F0A60E036E6C
:1017D8007F0E046E24EC13F0000E0001DA6F8C808B
:1017E800F2949EA0FAEF0BF0FCEF0BF01CEF0CF05C
:1017F8004350D8A402EF0CF004EF0CF007EF0CF004
:10180800000ECAEC12F0C9C0D3F0CAC0D4F0BE0EA4
:10181800036E7C0E046E24EC13F09C0E036E7F0E98
:10182800046E24EC13F0000E0001DB6F8C849E9094
:10183800F2A221EF0CF023EF0CF040EF0CF01A0E9F
:101848003B6EF80EE82EFED73B2EFCD700D081A0C9
:1018580030EF0CF032EF0CF038EF0CF0880E036E1E
:101868007D0E046E24EC13F06DEC15F062EC15F0AF
:10187800010E0001D76FF292F0A245EF0CF047EF8E
:101888000CF06BEF0CF01A0E3B6EF80EE82EFED73C
:101898003B2EFCD700D081A454EF0CF056EF0CF08F
:1018A8005CEF0CF0E10E036E7D0E046E24EC13F079
:1018B800000ECAEC12F0000E0001D46F000ED36FB8
:1018C800000E436E010ED96F000EDB6FF092F0A090
:1018D80070EF0CF072EF0CF096EF0CF01A0E3B6EF6
:1018E800F80EE82EFED73B2EFCD700D081A27FEF62
:1018F8000CF081EF0CF087EF0CF00B0E036E7E0EF0
:10190800046E24EC13F0000E70EC12F0000E0001CF
:10191800D06F000ECF6F000E426E010ED86F000E12
:10192800DA6FF09041C0F5FF40C0F8FF3FC0F7FF05
:101938003EC0F6FF3DC0F4FF3CC0F3FF46921100E5
:1019480000016E6F00016E51D8B4ADEF0CF0AFEF2F
:101958000CF0D1EF0CF069BFB6EF0CF0B4EF0CF05F
:10196800D1EF0CF066C06AF067C06BF068C06CF02D
:1019780069C06DF06A1F6B1F6C1F6D1F6A2B000E0C
:101988006B236C236D236AC070F06BC071F06CC060
:1019980072F06DC073F0D9EF0CF066C070F067C0DC
:1019A80071F068C072F069C073F066516711681110
:1019B8006911D8A4E2EF0CF0E4EF0CF0EEEF0CF0B4
:1019C800000E666F000E676F000E686F000E696F7D
:1019D8007FEF0DF0960E6F6FF8EF0CF06F2BD8902D
:1019E8007333723371337033000E70156A6F000EE3
:1019F80071156B6F000E72156C6FFE0E73156D6F9F
:101A08006A516B116C116D11D8A40DEF0DF00FEF29
:101A18000DF0F2EF0CF01DEF0DF06F2B010E70279B
:101A2800000E712372237323D8907333723371338A
:101A38007033000E70156A6F000E71156B6F000E13
:101A480072156C6FFF0E73156D6F6A516B116C1107
:101A58006D11D8A432EF0DF034EF0DF011EF0DF049
:101A68003CEF0DF06F07D8907037713772377337C6
:101A780072BF41EF0DF043EF0DF04BEF0DF0020E8A
:101A88006F6149EF0DF04BEF0DF036EF0DF06FB1D0
:101A980050EF0DF052EF0DF053EF0DF0729FD8900C
:101AA8006F336FC06AF06B6B6C6B6D6B6AC06DF0F7
:101AB8006C6B6B6B6A6B6A5170136B5171136C5161
:101AC80072136D5173136E51D8B46DEF0DF06FEF43
:101AD8000DF077EF0DF069BF76EF0DF074EF0DF0B4
:101AE80077EF0DF0738F70C066F071C067F072C049
:101AF80068F073C069F01200096E0950D8B487EF16
:101B08000DF089EF0DF0ABEF0DF004BE90EF0DF086
:101B18008EEF0DF0ABEF0DF001C005F002C006F03E
:101B280003C007F004C008F0051E061E071E081EA5
:101B3800052A000E06220722082205C00BF006C05F
:101B48000CF007C00DF008C00EF0B3EF0DF001C0A7
:101B58000BF002C00CF003C00DF004C00EF00150F1
:101B6800021003100410D8A4BCEF0DF0BEEF0DF066
:101B7800C8EF0DF0000E016E000E026E000E036E2F
:101B8800000E046E59EF0EF0960E0A6ED2EF0DF0AD
:101B98000A2AD8900E320D320C320B32000E0B147A
:101BA800056E000E0C14066E000E0D14076EFE0E68
:101BB8000E14086E0550061007100810D8A4E7EF99
:101BC8000DF0E9EF0DF0CCEF0DF0F7EF0DF00A2A6C
:101BD800010E0B26000E0C220D220E22D8900E327A
:101BE8000D320C320B32000E0B14056E000E0C1465
:101BF800066E000E0D14076EFF0E0E14086E0550CB
:101C0800061007100810D8A40CEF0EF00EEF0EF017
:101C1800EBEF0DF016EF0EF00A06D8900B360C36E7
:101C28000D360E360DBE1BEF0EF01DEF0EF025EF34
:101C38000EF0020E0A6023EF0EF025EF0EF010EF03
:101C48000EF00AB02AEF0EF02CEF0EF02DEF0EF08A
:101C58000D9ED8900A320AC005F0066A076A086A1B
:101C680005C008F0076A066A056A05500B12065097
:101C78000C1207500D1208500E120950D8B447EF35
:101C88000EF049EF0EF051EF0EF004BE50EF0EF0DB
:101C98004EEF0EF051EF0EF00E8E0BC001F00CC09F
:101CA80002F00DC003F00EC004F01200000E000197
:101CB800696F8C88D6EF0EF080AA65EF0EF067EF9B
:101CC8000EF084EF0EF01A0E0001686FF80EE82E81
:101CD800FED7682FFCD700F080AA75EF0EF077EFDB
:101CE8000EF084EF0EF0910E0001636F7F0E646FAB
:101CF8005AEC13F0B4EC15F08C98010E0001696FE2
:101D080082A889EF0EF08BEF0EF0ADEF0EF01A0EF1
:101D18000001686FF80EE82EFED7682FFCD700F098
:101D280082A899EF0EF09BEF0EF0ADEF0EF0860E45
:101D38000001636F7F0E646F5AEC13F0AEEC15F080
:101D480082B8A9EF0EF0ABEF0EF0A2EF0EF0B4ECF4
:101D580015F082AAB2EF0EF0B4EF0EF0D6EF0EF047
:101D68001A0E0001686FF80EE82EFED7682FFCD710
:101D780000F082AAC2EF0EF0C4EF0EF0D6EF0EF01C
:101D8800B00E0001636F7F0E646F5AEC13F0B1EC74
:101D980015F082BAD2EF0EF0D4EF0EF0CBEF0EF0C2
:101DA800B4EC15F000016951D8B4DDEF0EF0DFEFA7
:101DB8000EF060EF0EF0120000019F35A035A66FFF
:101DC800A651D8A4EAEF0EF0ECEF0EF0F6EF0EF005
:101DD800000E9D6F000E9E6F000E9F6F000EA06F8D
:101DE80063EF0FF09DC0A1F09EC0A2F09FC0A3F0CA
:101DF800A0C0A4F0200E06EF0FF0D890A433A333B0
:101E0800A233A133E82E01EF0FF0A151A56F9F8FE8
:101E1800FF0E9D17FF0E9E17FF0E9F17000EA017AF
:101E2800960EA65FA6BF1DEF0FF01BEF0FF033EF66
:101E38000FF0A651800A970FD8B025EF0FF027EFC3
:101E48000FF029EF0FF0ECEF0EF0D890A0339F338E
:101E58009E339D33A63F29EF0FF04BEF0FF01F0E77
:101E6800A66539EF0FF03BEF0FF043EF0FF0ECEF03
:101E78000EF0D8909D379E379F37A037A607A651FA
:101E8800D8A449EF0FF04BEF0FF03DEF0FF0A5513D
:101E9800D8B451EF0FF053EF0FF05BEF0FF0A01F26
:101EA8009F1F9E1F9D6D000E9E239F23A0239DC0F4
:101EB8009DF09EC09EF09FC09FF0A0C0A0F01200B1
:101EC8002A342B34316E3150D8A46DEF0FF06FEFF8
:101ED8000FF079EF0FF0000E286E000E296E000E3D
:101EE8002A6E000E2B6EE6EF0FF028C02CF029C0EA
:101EF8002DF02AC02EF02BC02FF0200E89EF0FF006
:101F0800D8902F322E322D322C32E82E84EF0FF05B
:101F18002C50306E2A8EFF0E2816FF0E2916FF0E43
:101F28002A16000E2B16960E315E31BEA0EF0FF06A
:101F38009EEF0FF0B6EF0FF03150800A970FD8B030
:101F4800A8EF0FF0AAEF0FF0ACEF0FF06FEF0FF064
:101F5800D8902B322A3229322832313EACEF0FF09A
:101F6800CEEF0FF01F0E3164BCEF0FF0BEEF0FF095
:101F7800C6EF0FF06FEF0FF0D890283629362A36C3
:101F88002B3631063150D8A4CCEF0FF0CEEF0FF03E
:101F9800C0EF0FF03050D8B4D4EF0FF0D6EF0FF0F9
:101FA800DEEF0FF02B1E2A1E291E286C000E292298
:101FB8002A222B2228C028F029C029F02AC02AF07A
:101FC8002BC02BF012000001B46F0001DA05D8B461
:101FD800F0EF0FF0F2EF0FF0E9EF0FF08C90B45143
:101FE800640DF3CFB2F0F4CFB3F0B0510A0DF35053
:101FF800B227F450B323B151B227000EB323300EE9
:10200800B225CB6FEB0EB321CC6FCF51CB5D616F97
:10201800D051CC59626F37EC14F061C065F062C0E2
:1020280066F0000E0001686F050E676FAAEC14F0E9
:1020380065C0D1F066C0D2F00001CB51CF5DCC5164
:10204800D059D8B02AEF10F02CEF10F02FEF10F085
:102058008C823BEF10F0CF51CB5DD051CC59D8B02A
:1020680038EF10F03AEF10F03BEF10F08C92CF51B0
:10207800CB1909E1D051CC19D8B445EF10F047EF8E
:1020880010F062EF10F0500E636F7F0E646F5AEC21
:1020980013F00001D151FFEC14F00A0EFFEC14F01C
:1020A800010E0001DA6FD1C061F0D2C062F074ECA9
:1020B80014F0320EB4EC11F068EF10F07B0E636F81
:1020C8007F0E646F5AEC13F012000001B46F000128
:1020D800DB05D8B472EF10F074EF10F06BEF10F06E
:1020E8008C94B451640DF3CFB2F0F4CFB3F0B05187
:1020F8000A0DF350B227F450B323B151B227000EA2
:10210800B323300EB225C96FEB0EB321CA6FD3517A
:10211800C95D616FD451CA59626F37EC14F061C060
:1021280065F062C066F0000E0001686F050E676F0B
:10213800AAEC14F065C0D5F066C0D6F00001C9510C
:10214800D35DCA51D459D8B0ACEF10F0AEEF10F04F
:10215800B1EF10F08C86BDEF10F0D351C95DD451AA
:10216800CA59D8B0BAEF10F0BCEF10F0BDEF10F0BC
:102178008C96D351C91909E1D451CA19D8B4C7EFFB
:1021880010F0C9EF10F0E4EF10F0400E636F7F0E0F
:10219800646F5AEC13F00001D551FFEC14F00A0EED
:1021A800FFEC14F0010E0001DB6FD5C061F0D6C062
:1021B80062F08FEC14F0320E12EC12F0EAEF10F02D
:1021C800700E636F7F0E646F5AEC13F01200000EEE
:1021D8000001686F600E636F7F0E646F5AEC13F036
:1021E800E0EC14F00001DE6FE0EC14F00001DD6FAC
:1021F800E0EC14F00001DC6F3A0EDE6106EF11F03E
:1022080008EF11F010EF11F0300EDE610EEF11F053
:1022180010EF11F012EF11F0010E686F3A0EDD6148
:1022280018EF11F01AEF11F022EF11F0300EDD6106
:1022380020EF11F022EF11F024EF11F0010E686F7A
:102248003A0EDC612AEF11F02CEF11F034EF11F0A7
:10225800300EDC6132EF11F034EF11F036EF11F08F
:10226800010E686F6805D8A43CEF11F03EEF11F03D
:1022780046EF11F0DE0E636F7F0E646F5AEC13F0B9
:1022880054EF11F0DDC061F0DCC062F0DE5155ECB6
:1022980011F0D50E0001636F7F0E646F5AEC13F0D6
:1022A80012000001656F00016551640DF3CF63F002
:1022B800F4CF64F061510A0DF3506327F45064239E
:1022C80062516327000E6423300E6325CD6FEB0E39
:1022D8006421CE6FCD51CE11D8B475EF11F077EFE0
:1022E80011F0B3EF11F0CE5107E1100ECD5DD8B06B
:1022F80080EF11F082EF11F0B3EF11F0000E666F6E
:10230800A5EF11F08D90060E0001646F130E636F38
:10231800AD0EE82EFED7632FFCD7642FFAD700D076
:102328008D80060E0001646F130E636FAD0EE82EEC
:10233800FED7632FFCD7642FFAD700D08D90000109
:10234800662B6651636F646BCD51635DCE516459E2
:10235800D8A0B1EF11F0B3EF11F086EF11F0120031
:102368000001AD6F0A0E0001786FD70E796F230E4A
:102378007A6F3C0E7B6FAD51666F676B686B696BEC
:10238800010EA4EC0CF066C074F067C075F068C06C
:1023980076F069C077F014EC05F074C0A9F075C048
:1023A800AAF076C0ABF077C0ACF0000E0001786FF1
:1023B800000E796F7A0E7A6F440E7B6FA9C074F0A5
:1023C800AAC075F0ABC076F0ACC077F014EC05F09D
:1023D80074C09DF075C09EF076C09FF077C0A0F0E5
:1023E800E0EC0EF09DC0AEF09EC0AFF0AEC0A7F01E
:1023F800030E0001A717A73BBA50A719CF0BA719BF
:10240800BA6EAEC0A7F0AFC0A8F0D890A833A73373
:10241800D890A833A733A751BB6E12000001AD6F47
:102428000A0E0001786FD70E796F230E7A6F3C0E73
:102438007B6FAD51666F676B686B696B010EA4ECBF
:102448000CF066C074F067C075F068C076F069C0BB
:1024580077F014EC05F074C0A9F075C0AAF076C046
:10246800ABF077C0ACF0000E0001786F000E796F0A
:102478007A0E7A6F440E7B6FA9C074F0AAC075F00B
:10248800ABC076F0ACC077F014EC05F074C09DF0EA
:1024980075C09EF076C09FF077C0A0F0E0EC0EF01B
:1024A8009DC0AEF09EC0AFF0AEC0A7F0030E000115
:1024B800A717A73BBD50A719CF0BA719BD6EAEC074
:1024C800A7F0AFC0A8F0D890A833A733D890A83306
:1024D800A733A751BE6E1200386E0A0E136ED70EC0
:1024E800146E230E156E3C0E166E3850016E026A7D
:1024F800036A046A010E80EC0DF001C00FF002C0FF
:1025080010F003C011F004C012F02AEC07F00FC05D
:1025180034F010C035F011C036F012C037F0000E9C
:10252800136E000E146E7A0E156E440E166E34C0BD
:102538000FF035C010F036C011F037C012F02AEC99
:1025480007F00FC028F010C029F011C02AF012C0FF
:102558002BF064EC0FF028C039F029C03AF039C0EC
:1025680032F0030E3216323ABA503218CF0B321804
:10257800BA6E39C032F03AC033F0D89033323232C2
:10258800D890333232323250BB6E1200386E0A0E97
:10259800136ED70E146E230E156E3C0E166E385041
:1025A800016E026A036A046A010E80EC0DF001C034
:1025B8000FF002C010F003C011F004C012F02AECB2
:1025C80007F00FC034F010C035F011C036F012C05B
:1025D80037F0000E136E000E146E7A0E156E440E50
:1025E800166E34C00FF035C010F036C011F037C089
:1025F80012F02AEC07F00FC028F010C029F011C023
:102608002AF012C02BF064EC0FF028C039F029C072
:102618003AF039C032F0030E3216323ABD50321851
:10262800CF0B3218BD6E39C032F03AC033F0D890B3
:1026380033323232D890333232323250BE6E1200D8
:1026480014EC14F0000E076E0728D8A42EEF13F030
:1026580030EF13F032EF13F059EF13F00750032463
:10266800056E000E0420066E05C0F6FF06C0F7FFD3
:102678000800F5500009D8A444EF13F046EF13F012
:1026880048EF13F059EF13F007500324056E000EBE
:102698000420066E05C0F6FF06C0F7FF0800F550D7
:1026A80034EC15F0072A28EF13F01200F1EC13F0C0
:1026B800000E0001676F67516325656F000E642186
:1026C800666F65C0F6FF66C0F7FF0800F5500009A1
:1026D800D8A471EF13F073EF13F075EF13F08DEFCB
:1026E80013F067516325656F000E6421666F65C03E
:1026F800F6FF66C0F7FF0800F550FFEC14F0000184
:10270800672B6729D8A48BEF13F08DEF13F05FEFD9
:1027180013F01200000163516411D8B496EF13F05E
:1027280098EF13F0BCEF13F0010E656FA0EF13F0F4
:10273800D89063376437652B64AFA5EF13F0A7EF24
:1027480013F09CEF13F06351615D64516259D8A096
:10275800B0EF13F0B2EF13F0B6EF13F06351615F0F
:102768006451625BD89064336333652FA7EF13F02D
:1027780061C061F062C062F01200E0EC14F0000188
:10278800686F310E6819D8A4CCEF13F0CEEF13F0B0
:10279800D7EF13F08D80D50E636F7F0E646F5AEC00
:1027A80013F0F0EF13F0300E6819D8A4DEEF13F031
:1027B800E0EF13F0E9EF13F08D90D50E636F7F0E05
:1027C800646F5AEC13F0F0EF13F0DE0E636F7F0EB8
:1027D800646F5AEC13F08D801200ABA2F6EF13F081
:1027E800F8EF13F009EF14F0AECF61F0AECF61F05F
:1027F800AECF61F0AECF61F0AB98AB88ABB207EF6C
:1028080014F009EF14F0F8EF13F0ABA40EEF14F086
:1028180010EF14F013EF14F0AE50AC9AAC8A12001B
:10282800ABA219EF14F01BEF14F02CEF14F0AECF9D
:1028380001F0AECF01F0AECF01F0AECF01F0AB9812
:10284800AB88ABB22AEF14F02CEF14F01BEF14F0A6
:10285800ABA431EF14F033EF14F036EF14F0AE50B0
:10286800AC9AAC8A1200000162BF45EF14F06251C5
:1028780006E16105D8B043EF14F045EF14F053EFCB
:1028880014F061C063F062C064F0631F641F634B9F
:10289800642B63C061F064C062F057EF14F061C04C
:1028A80061F062C062F01200F1EC13F0000E00015A
:1028B800666F6AEF14F066516325D96E000E6421C5
:1028C800DA6EE0EC14F0DF6E0001662B6551665D90
:1028D800D8A071EF14F073EF14F05FEF14F012004A
:1028E800000161516211D8B47CEF14F07EEF14F04E
:1028F8008CEF14F061510008636F6251D8A0E82A88
:102908000008646F6451D76E63C0D6FF8EEF14F071
:10291800D768D6681200000161516211D8B497EFE8
:1029280014F099EF14F0A7EF14F061510108636FE8
:102938006251D8A0E82A0008646F6451CF6E63C062
:10294800CEFFA9EF14F0CF68CE68120000016551E0
:102958006703F3CF69F0F4CF6AF065516803F35069
:102968006A2766516703F3506A2769C065F06AC031
:1029780066F0120000EEC9F01C0EEE6AE806FDE1F2
:10298800456A446A436A426A46904692000EF86E67
:10299800000116EF00F09494BD50F00B0C09BD6EC9
:1029A800F90ECB6E030ECA12CF0EBD16000EBE6E08
:1029B800000ECC6ECA841200F1EC13F09EAAE7EF69
:1029C80014F0E9EF14F0E2EF14F0AECF62F0000E6D
:1029D800AE6E00016251120094920F0EBA12F90EF7
:1029E800CB6E030ECA12CF0EBA16000EBB6E000EC7
:1029F800CC6ECA8412000001626FF1EC13F0ACA235
:102A080008EF15F00AEF15F003EF15F062C0ADFFFF
:102A18001200CD90CD8ECD96CD8CCD82CD84948074
:102A2800000ECF6E000ECE6ECD801200F292F288AC
:102A3800F18C9380F090F086F18A9382F092F0887E
:102A4800F18893841200948C948E100EAF6EAC842F
:102A5800B886AC9CAC8AAC98AB8EAB9CAB881200A9
:102A6800026E14EC14F0ACA23CEF15F03EEF15F03A
:102A780037EF15F002C0ADFF1200D59ED59CD58A60
:102A8800D5989288000ED76E000ED66ED58E12009D
:102A98008C90010E426E8C92010E0001DA6F320E9C
:102AA800B4EC11F012008C94010E436E8C96010E5A
:102AB8000001DB6F320E12EC12F012008C90010E46
:102AC800426E8C92010E0001DA6F320E70EC12F039
:102AD80012008C94010E436E8C96010E0001DB6F80
:102AE800320ECAEC12F012008C908C82010E00019A
:102AF800DA6F320EB4EC11F012008C948C86010E51
:102B08000001DB6F320E12EC12F01200959A959CC0
:102B18009598928A8C988C9A8C9C12000F0EC112F0
:102B2800700ED36E6D966F86120095909592949262
:102B38008C808C928B9212009594959694948C84A8
:102B48008C968B941200D09EF28CF28E1200969086
:102B58008D9012008C8A8C9C12008C9A8C8C12009E
:0E2B68008C9A8C9C12009D801200F28A120042
:107C6E00004573637269626520696E697420706184
:107C7E0072612063616C696272617220656C20535F
:107C8E0050415243207920706F64657220616363A6
:107C9E006564657220616C20726573746F20646513
:107CAE00206C61732066756E63696F6E65730A0072
:107CBE00496E74657272757063696F6E20544D52A1
:107CCE00312C206C6C656761737465206120636F65
:107CDE006F7264656E616461206465736561646171
:107CEE0020580A00496E74657272757063696F6E02
:107CFE0020544D52302C206C6C6567617374652076
:107D0E006120636F6F7264656E6164612064657378
:107D1E006561646120590A004D657469737465204C
:107D2E00756E6120636F6F7264656E616461206948
:107D3E006E76616C6964612C207675656C76652053
:107D4E006120696E74656E7461720A00507265739B
:107D5E00696F6E6172205A2063696572746F206E4E
:107D6E00756D65726F20646520766563657320722C
:107D7E0065636962696461730A004F637572726943
:107D8E006F206C6120696E74657272757063696FB5
:107D9E006E206C696D6974537769746368334573CB
:107DAE007175696E61730A00436F6F7264656E61FF
:107DBE0064612072656369626964612C206C6F2056
:107DCE00717565207265636962696D6F7320667582
:107DDE00653A004F63757272696F206C6120696E2F
:107DEE0074657272757063696F6E206C696D6974FB
:107DFE00537769746368486F6D65580A004F6375F1
:107E0E007272696F206C6120696E74657272757022
:107E1E0063696F6E206C696D6974537769746368FA
:107E2E00486F6D65590A00506973746F6E207061EA
:107E3E007261206465736C697A6172206F2064656B
:107E4E006A617220726574726169646F3F0A0049DB
:107E5E006E74332045737175696E61732C20726573
:107E6E0063616C696272616E646F2053504152435C
:107E7E000A00566173206120697220696E66696E10
:107E8E0069746F2058206520696E66696E69746F1B
:107E9E0020590A005661732061206D6F766572203D
:107EAE00656C20537061726320656E2058207920B6
:107EBE00590A00496D70726D697220636F6F72643A
:107ECE00656E6164612061637475616C200A00598E
:107EDE006120657374612063616C69627261646FA5
:107EEE0020656C2053504152430A00566173206145
:107EFE00206972206120686F6D6558207920686F47
:107F0E006D6520590A00456E747261737465206147
:107F1E00206D6F766572206C6120626173650A0058
:107F2E00496E696369616C697A616E646F2E2E2E7B
:107F3E000A0078546F416476616E63652069733A06
:107F4E00200079546F416476616E63652069733ADF
:107F5E002000546F63617250616E74616C6C613A93
:107F6E000A00452C636F6F724163580A00452C63FB
:107F7E006F6F724163590A004D6F7641727269627A
:107F8E00610A000A53616C69656E646F0A004F6B7B
:107F9E002C636F6F72580A004F6B2C636F6F7259A0
:107FAE000A004D6F764142616A6F0A004F6B2C6377
:107FBE006F6D4E0A00534143414E444F0A004F6BC2
:107FCE002C636F6D560A004F6B2C636F6D460A0063
:107FDE00452C634E6F560A00452C636F6D0A0020C8
:107FEE002C593A2000583A0A00593A0A00583A20B9
:027FFE00000081
:020000040020DA
:08000000FFFFFFFFFFFFFFFF00
:020000040030CA
:0E00000000091F1EFF8381FF0FC00FE00F409D
:00000001FF
