:020000040000FA
:0400000014EF00F009
:060008005D8273ED07F0BC
:100018005D80E0CFB4F000F0B4C0E0FF5D90100068
:1000280082EF0BF00001C651800BCF6FC651C62579
:10003800D56FC5AF22EF00F024EF00F025EF00F0F8
:10004800D581D551D8B42BEF00F02DEF00F040EF5B
:1000580000F0D529D8A433EF00F035EF00F03DEFDC
:1000680000F0000EC36F000EC46F000EC56F000EC7
:10007800C66FC58F48EF00F0000EC36F000EC46F47
:10008800000EC56F000EC66FCA51800BCF1BCA5138
:10009800CA25D46FC9AF53EF00F055EF00F056EF03
:1000A80000F0D481D451D8B45CEF00F05EEF00F0DA
:1000B80071EF00F0D429D8A464EF00F066EF00F0E7
:1000C8006EEF00F0000EC76F000EC86F000EC96F0C
:1000D800000ECA6FC98F79EF00F0000EC76F000ECF
:1000E800C86F000EC96F000ECA6FD451D8B47FEF25
:1000F80000F081EF00F089EF00F0D551D8A487EF28
:1001080000F089EF00F093EF00F0000EC36F000ECF
:10011800C46F000EC56F000EC66F2BEF02F0C951F9
:10012800C303F3CFDAF0F4CFDBF0DA51D06FD16B41
:10013800D26BD36BDB51D66FD76BD86BD96BC851E9
:10014800C403F3CFDAF0F4CFDBF0DA51D027000E96
:10015800D123D223D323DB51D627000ED723D8238C
:10016800D923C751C503F3CFDAF0F4CFDBF0DA5166
:10017800D027000ED123D223D323DB51D627000E5C
:10018800D723D823D923D2C0D3F0D1C0D2F0D0C03E
:10019800D1F0D06BC751C403F3CFDAF0F4CFDBF062
:1001A800DA51D027DB51D123000ED223000ED323FE
:1001B800C851C303F3CFDAF0F4CFDBF0DA51D0271C
:1001C800DB51D123000ED223000ED323D2C0D3F0AB
:1001D800D1C0D2F0D0C0D1F0D06BC751C303F3CF98
:1001E800DAF0F4CFDBF0DA51D027DB51D123000E5F
:1001F800D223000ED323C951C403F3CFDAF0F4CFCE
:10020800DBF0DA51D627DB51D723000ED823000EB6
:10021800D923C851C503F3CFDAF0F4CFDBF0DA51B4
:10022800D627DB51D723000ED823000ED923C95176
:10023800C503F3CFDAF0F4CFDBF0DA51CB6FDB5143
:10024800CC6FCD6BCE6BCDC0CEF0CCC0CDF0CBC0DB
:10025800CCF0CB6BCB51D627CC51D723CD51D8235B
:10026800CE51D923D0C0CBF0D1C0CCF0D2C0CDF084
:10027800D3C0CEF0190E46EF01F0D890CE33CD336F
:10028800CC33CB33E82E41EF01F0CB51D627CC51FC
:10029800D723CD51D823CE51D923D2C0D3F0D1C042
:1002A800D2F0D0C0D1F0D06BD451D5C0CBF0CC6B4C
:1002B800CB27000ECC23820ECB25DA6FFF0ECC2184
:1002C800DB6F7CEF01F0D890D637D737D837D937DE
:1002D800D3AF71EF01F073EF01F074EF01F0D68145
:1002E800D890D037D137D237D337DA07D8A0DB0741
:1002F800D8AF81EF01F083EF01F067EF01F0000E56
:10030800D46FD3AF8AEF01F08CEF01F0B0EF01F0BA
:10031800FF0ED015CB6FFF0ED115CC6FFF0ED21587
:10032800CD6F7F0ED315CE6FCB51CC11CD11CE1121
:10033800D8B4A1EF01F0A3EF01F0A7EF01F0010E8F
:10034800D46FB0EF01F0D6A1ACEF01F0AEEF01F041
:10035800B0EF01F0A3EF01F0D451D8B4B6EF01F03B
:10036800B8EF01F0DCEF01F0010ED627000ED7231D
:10037800D823D923D9A1C3EF01F0C5EF01F0DCEFF1
:1003880001F0D6C0CBF0D7C0CCF0D8C0CDF0D9C0E2
:10039800CEF0CE35CE33CD33CC33CB33CBC0D6F045
:1003A800CCC0D7F0CDC0D8F0CEC0D9F0DA4BDB2B1B
:1003B800DBBFE7EF01F0DB5108E1DA29D8A0E7EF6E
:1003C80001F0E9EF01F0F3EF01F0000ED66F000E37
:1003D800D76F800ED86F7F0ED96F21EF02F0DBBF89
:1003E80000EF02F0DB5106E1DA05D8B0FEEF01F0CC
:1003F80000EF02F00CEF02F0000ED66F000ED76F80
:10040800000ED86F000ED96F000ECF6F21EF02F0EB
:10041800DAC0D5F0FF0ED617FF0ED7177F0ED81704
:10042800000ED917D5A11BEF02F01DEF02F01EEF49
:1004380002F0D88FD890D531D96FCF51D913D6C003
:10044800C3F0D7C0C4F0D8C0C5F0D9C0C6F01200F8
:100458001250800B1B6E12501224216E11AE37EF12
:1004680002F039EF02F03AEF02F021802150D8B4BF
:1004780040EF02F042EF02F055EF02F02128D8A435
:1004880048EF02F04AEF02F052EF02F0000E0F6E52
:10049800000E106E000E116E000E126E118E5DEFC2
:1004A80002F0000E0F6E000E106E000E116E000EA0
:1004B800126E1650800B1B1A16501624206E15AE9D
:1004C80068EF02F06AEF02F06BEF02F02080205034
:1004D800D8B471EF02F073EF02F086EF02F0202833
:1004E800D8A479EF02F07BEF02F083EF02F0000E60
:1004F800136E000E146E000E156E000E166E158E1D
:100508008EEF02F0000E136E000E146E000E156EC4
:10051800000E166E2050D8B494EF02F096EF02F059
:100528009EEF02F02150D8A49CEF02F09EEF02F05B
:10053800A8EF02F0000E0F6E000E106E000E116E86
:10054800000E126E40EF04F015500F02F3CF26F0A4
:10055800F4CF27F026501C6E1D6A1E6A1F6A2750AA
:10056800226E236A246A256A14501002F3CF26F0FB
:10057800F4CF27F026501C26000E1D221E221F2213
:1005880027502226000E232224222522135011024E
:10059800F3CF26F0F4CF27F026501C26000E1D229C
:1005A8001E221F2227502226000E23222422252223
:1005B8001EC01FF01DC01EF01CC01DF01C6A135089
:1005C8001002F3CF26F0F4CF27F026501C26275030
:1005D8001D22000E1E22000E1F2214500F02F3CF00
:1005E80026F0F4CF27F026501C2627501D22000E97
:1005F8001E22000E1F221EC01FF01DC01EF01CC0B0
:100608001DF01C6A13500F02F3CF26F0F4CF27F029
:1006180026501C2627501D22000E1E22000E1F22C7
:1006280015501002F3CF26F0F4CF27F026502226DB
:1006380027502322000E2422000E252214501102D6
:10064800F3CF26F0F4CF27F0265022262750232276
:10065800000E2422000E252215501102F3CF26F099
:10066800F4CF27F02650176E2750186E196A1A6AA9
:1006780019C01AF018C019F017C018F0176A1750E7
:10068800222618502322195024221A5025221CC031
:1006980017F01DC018F01EC019F01FC01AF0190E6F
:1006A8005BEF03F0D8901A32193218321732E82E5D
:1006B80056EF03F0175022261850232219502422EF
:1006C8001A5025221EC01FF01DC01EF01CC01DF0B0
:1006D8001C6A205021C017F0186A1726000E18222D
:1006E800820E1724266EFF0E1820276E91EF03F056
:1006F800D89022362336243625361FAE86EF03F0EF
:1007080088EF03F089EF03F02280D8901C361D365D
:100718001E361F362606D8A0270624AE96EF03F00D
:1007280098EF03F07CEF03F0000E206E1FAE9FEFF2
:1007380003F0A1EF03F0C5EF03F0FF0E1C14176ED2
:10074800FF0E1D14186EFF0E1E14196E7F0E1F1457
:100758001A6E1750181019101A10D8B4B6EF03F003
:10076800B8EF03F0BCEF03F0010E206EC5EF03F005
:1007780022A0C1EF03F0C3EF03F0C5EF03F0B8EF19
:1007880003F02050D8B4CBEF03F0CDEF03F0F1EF36
:1007980003F0010E2226000E23222422252225A062
:1007A800D8EF03F0DAEF03F0F1EF03F022C017F00F
:1007B80023C018F024C019F025C01AF01A341A32D0
:1007C80019321832173217C022F018C023F019C096
:1007D80024F01AC025F0264A272A27BEFCEF03F08A
:1007E800275008E12628D8A0FCEF03F0FEEF03F01D
:1007F80008EF04F0000E226E000E236E800E246EA9
:100808007F0E256E36EF04F027BE15EF04F0275053
:1008180006E12604D8B013EF04F015EF04F021EF39
:1008280004F0000E226E000E236E000E246E000EE1
:10083800256E000E1B6E36EF04F026C021F0FF0E69
:100848002216FF0E23167F0E2416000E251621A051
:1008580030EF04F032EF04F033EF04F0248ED89038
:100868002130256E1B50251222C00FF023C010F036
:1008780024C011F025C012F0120029EC0CF0E0ECB5
:100888000BF0B6EC0BF095EC0BF0000E46EC09F013
:10089800000EA4EC09F03EEC0CF037EC0CF0FAEC8E
:1008A8000BF0D3EC0BF045EC0CF04DEC0CF04BECF2
:1008B8000CF030EC0CF049EC0CF0000E0001F76F76
:1008C800F30EF16F000EF26F000EF86FA6EC0BF04E
:1008D800B5EF04F0F90EB76F7A0EB86FECEC0AF0CA
:1008E800F1C0B7F0F2C0B8F0040E0001EF6FEFC02E
:1008F800B9F066EC0BF0690E0001F319D8B487EF74
:1009080004F089EF04F092EF04F0490EF319D8A42B
:1009180090EF04F092EF04F0B5EF04F06E0EF419C6
:10092800D8A499EF04F09BEF04F0B5EF04F0690E3A
:10093800F519D8A4A2EF04F0A4EF04F0B5EF04F081
:10094800740EF619D8A4ABEF04F0ADEF04F0B5EFD0
:1009580004F0010EF86F830EB76F7F0EB86FECECE2
:100968000AF00001F851D8B4BCEF04F0BEEF04F06F
:100978006EEF04F0C0EF04F00001F805D8A4C7EF4B
:1009880004F0C9EF04F0D0EF04F00EEC0CF005EC25
:100998000CF0000E0001F86FA6EC0BF00001F96FE7
:1009A8006D0EF919D8B4DBEF04F0DDEF04F0E6EFD3
:1009B80004F04D0EF919D8A4E4EF04F0E6EF04F0C2
:1009C800F5EF04F0A70EB76F7E0EB86FECEC0AF0E7
:1009D800DB0E0001B76F7F0EB86FECEC0AF0C0EFCA
:1009E80004F0700EF919D8B4FCEF04F0FEEF04F02F
:1009F80007EF05F0500EF919D8A405EF05F007EF39
:100A080005F016EF05F0A60EB76F7C0EB86FECEC8C
:100A18000AF0DB0E0001B76F7F0EB86FECEC0AF03E
:100A2800C0EF04F0730EF919D8B41DEF05F01FEFED
:100A380005F028EF05F0530EF919D8A426EF05F0B4
:100A480028EF05F037EF05F0D80EB76F7D0EB86FB9
:100A5800ECEC0AF0DB0E0001B76F7F0EB86FECEC20
:100A68000AF0C0EF04F0680EF919D8B43EEF05F0AB
:100A780040EF05F049EF05F0480EF919D8A447EF03
:100A880005F049EF05F058EF05F0010EB76F7F0E3E
:100A9800B86FECEC0AF0DB0E0001B76F7F0EB86F91
:100AA800ECEC0AF0C0EF04F0690EF919D8B45FEF66
:100AB80005F061EF05F06AEF05F0490EF919D8A4C1
:100AC80068EF05F06AEF05F079EF05F0230EB76FD0
:100AD8007E0EB86FECEC0AF0DB0E0001B76F7F0EEC
:100AE800B86FECEC0AF0C0EF04F0630EF919D8B453
:100AF80080EF05F082EF05F08BEF05F0430EF91952
:100B0800D8A489EF05F08BEF05F09AEF05F0E50E14
:100B1800B76F7E0EB86FECEC0AF0DB0E0001B76F12
:100B28007F0EB86FECEC0AF0C0EF04F0620EF91912
:100B3800D8B4A1EF05F0A3EF05F0ACEF05F0420E35
:100B4800F919D8A4AAEF05F0ACEF05F0C0EF04F04E
:100B58001C0EB76F7F0EB86FECEC0AF0DB0E0001CD
:100B6800B76F7F0EB86FECEC0AF0C0EF04F014EF2B
:100B780000F00001BD6F0001BD51D8B4C6EF05F00B
:100B8800C8EF05F0EAEF05F0B8BFCFEF05F0CDEFFD
:100B980005F0EAEF05F0B5C0B9F0B6C0BAF0B7C0D5
:100BA800BBF0B8C0BCF0B91FBA1FBB1FBC1FB92B24
:100BB800000EBA23BB23BC23B9C0BFF0BAC0C0F033
:100BC800BBC0C1F0BCC0C2F0F2EF05F0B5C0BFF0C9
:100BD800B6C0C0F0B7C0C1F0B8C0C2F0B551B611C8
:100BE800B711B811D8A4FBEF05F0FDEF05F007EF3A
:100BF80006F0000EB56F000EB66F000EB76F000E50
:100C0800B86F98EF06F0960EBE6F11EF06F0BE2B88
:100C1800D890C233C133C033BF33000EBF15B96F8C
:100C2800000EC015BA6F000EC115BB6FFE0EC215BF
:100C3800BC6FB951BA11BB11BC11D8A426EF06F08C
:100C480028EF06F00BEF06F036EF06F0BE2B010E8C
:100C5800BF27000EC023C123C223D890C233C1339B
:100C6800C033BF33000EBF15B96F000EC015BA6F81
:100C7800000EC115BB6FFF0EC215BC6FB951BA117A
:100C8800BB11BC11D8A44BEF06F04DEF06F02AEFCC
:100C980006F055EF06F0BE07D890BF37C037C1370A
:100CA800C237C1BF5AEF06F05CEF06F064EF06F0FA
:100CB800020EBE6162EF06F064EF06F04FEF06F039
:100CC800BEB169EF06F06BEF06F06CEF06F0C19F5E
:100CD800D890BE33BEC0B9F0BA6BBB6BBC6BB9C0A1
:100CE800BCF0BB6BBA6BB96BB951BF13BA51C01327
:100CF800BB51C113BC51C213BD51D8B486EF06F025
:100D080088EF06F090EF06F0B8BF8FEF06F08DEF92
:100D180006F090EF06F0C28FBFC0B5F0C0C0B6F0C5
:100D2800C1C0B7F0C2C0B8F01200096E0950D8B4FB
:100D3800A0EF06F0A2EF06F0C4EF06F004BEA9EF9C
:100D480006F0A7EF06F0C4EF06F001C005F002C0F8
:100D580006F003C007F004C008F0051E061E071EB3
:100D6800081E052A000E06220722082205C00BF0DD
:100D780006C00CF007C00DF008C00EF0CCEF06F06E
:100D880001C00BF002C00CF003C00DF004C00EF05F
:100D98000150021003100410D8A4D5EF06F0D7EFC5
:100DA80006F0E1EF06F0000E016E000E026E000E76
:100DB800036E000E046E72EF07F0960E0A6EEBEFEC
:100DC80006F00A2AD8900E320D320C320B32000E81
:100DD8000B14056E000E0C14066E000E0D14076E33
:100DE800FE0E0E14086E0550061007100810D8A441
:100DF80000EF07F002EF07F0E5EF06F010EF07F05D
:100E08000A2A010E0B26000E0C220D220E22D89063
:100E18000E320D320C320B32000E0B14056E000E22
:100E28000C14066E000E0D14076EFF0E0E14086EDD
:100E38000550061007100810D8A425EF07F027EF73
:100E480007F004EF07F02FEF07F00A06D8900B36EB
:100E58000C360D360E360DBE34EF07F036EF07F0C0
:100E68003EEF07F0020E0A603CEF07F03EEF07F096
:100E780029EF07F00AB043EF07F045EF07F046EF18
:100E880007F00D9ED8900A320AC005F0066A076A74
:100E9800086A05C008F0076A066A056A05500B1259
:100EA80006500C1207500D1208500E120950D8B4F3
:100EB80060EF07F062EF07F06AEF07F004BE69EF32
:100EC80007F067EF07F06AEF07F00E8E0BC001F02E
:100ED8000CC002F00DC003F00EC004F012000600B2
:100EE800F3CF3CF0F4CF3DF0F6CF3EF0F7CF3FF034
:100EF800F8CF40F0F5CF41F0F2A485EF07F087EF87
:100F080007F09FEF07F05850D8A48DEF07F08FEF48
:100F180007F092EF07F0000E02EC0AF04EC0B0F0B6
:100F28004FC0B1F0E20E036E7B0E046EB6EC0AF011
:100F3800000E5A6EF2949EA0A4EF07F0A6EF07F0F9
:100F4800BEEF07F05950D8A4ACEF07F0AEEF07F0AA
:100F5800B1EF07F0000E5CEC0AF04CC0B2F04DC0E7
:100F6800B3F0AE0E036E7B0E046EB6EC0AF0000E04
:100F78005A6E9E90F2A2C3EF07F0C5EF07F0DFEFBD
:100F880007F01A0E3B6EF80EE82EFED73B2EFCD764
:100F980000D081A0D2EF07F0D4EF07F0DAEF07F026
:100FA800D40E036E7C0E046EB6EC0AF020EC0CF046
:100FB80017EC0CF0F292F0A0E4EF07F0E6EF07F080
:100FC80008EF08F01A0E3B6EF80EE82EFED73B2EFF
:100FD800FCD700D081A2F3EF07F0F5EF07F0FBEFA5
:100FE80007F05B0E036E7D0E046EB6EC0AF0000E81
:100FF8005CEC0AF0000E0001B36F000EB26F000E39
:10100800596E000E5A6EF090F0A20DEF08F00FEF37
:1010180008F031EF08F01A0E3B6EF80EE82EFED7F6
:101028003B2EFCD700D081A41CEF08F01EEF08F07F
:1010380024EF08F0850E036E7D0E046EB6EC0AF000
:10104800000E02EC0AF0000E0001B16F000EB06F46
:10105800000E586E000E5A6EF09241C0F5FF40C067
:10106800F8FF3FC0F7FF3EC0F6FF3DC0F4FF3CC0AD
:10107800F3FF5D9211000001DE35DF35E56FE551C4
:10108800D8A449EF08F04BEF08F055EF08F0000E30
:10109800DC6F000EDD6F000EDE6F000EDF6FC2EF3B
:1010A80008F0DCC0E0F0DDC0E1F0DEC0E2F0DFC057
:1010B800E3F0200E65EF08F0D890E333E233E13334
:1010C800E033E82E60EF08F0E051E46FDE8FFF0EAA
:1010D800DC17FF0EDD17FF0EDE17000EDF17960E6A
:1010E800E55FE5BF7CEF08F07AEF08F092EF08F0D3
:1010F800E551800A970FD8B084EF08F086EF08F022
:1011080088EF08F04BEF08F0D890DF33DE33DD339B
:10111800DC33E53F88EF08F0AAEF08F01F0EE5651D
:1011280098EF08F09AEF08F0A2EF08F04BEF08F0FC
:10113800D890DC37DD37DE37DF37E507E551D8A44F
:10114800A8EF08F0AAEF08F09CEF08F0E451D8B433
:10115800B0EF08F0B2EF08F0BAEF08F0DF1FDE1FBB
:10116800DD1FDC6D000EDD23DE23DF23DCC0DCF0B9
:10117800DDC0DDF0DEC0DEF0DFC0DFF012002A34B3
:101188002B34316E3150D8A4CCEF08F0CEEF08F0F4
:10119800D8EF08F0000E286E000E296E000E2A6E99
:1011A800000E2B6E45EF09F028C02CF029C02DF059
:1011B8002AC02EF02BC02FF0200EE8EF08F0D890B0
:1011C8002F322E322D322C32E82EE3EF08F02C503D
:1011D800306E2A8EFF0E2816FF0E2916FF0E2A16CD
:1011E800000E2B16960E315E31BEFFEF08F0FDEFB4
:1011F80008F015EF09F03150800A970FD8B007EFC3
:1012080009F009EF09F00BEF09F0CEEF08F0D890DC
:101218002B322A3229322832313E0BEF09F02DEFDA
:1012280009F01F0E31641BEF09F01DEF09F025EFDF
:1012380009F0CEEF08F0D890283629362A362B3612
:1012480031063150D8A42BEF09F02DEF09F01FEF2C
:1012580009F03050D8B433EF09F035EF09F03DEF1D
:1012680009F02B1E2A1E291E286C000E29222A226C
:101278002B2228C028F029C029F02AC02AF02BC028
:101288002BF012000001EC6F0A0E0001C76FD70E99
:10129800C86F230EC96F3C0ECA6FEC51B56FB66BA1
:1012A800B76BB86B010EBDEC05F0B5C0C3F0B6C0A6
:1012B800C4F0B7C0C5F0B8C0C6F016EC00F0C3C0A3
:1012C800E8F0C4C0E9F0C5C0EAF0C6C0EBF0000E13
:1012D8000001C76F000EC86F7A0EC96F440ECA6F3F
:1012E800E8C0C3F0E9C0C4F0EAC0C5F0EBC0C6F07E
:1012F80016EC00F0C3C0DCF0C4C0DDF0C5C0DEF001
:10130800C6C0DFF03FEC08F0DCC0EDF0DDC0EEF069
:10131800EDC0E6F0030E0001E617E63BBA50E61909
:10132800CF0BE619BA6EEDC0E6F0EEC0E7F0D89044
:10133800E733E633D890E733E633E651BB6E120065
:101348000001EC6F0A0E0001C76FD70EC86F230E9D
:10135800C96F3C0ECA6FEC51B56FB66BB76BB86B03
:10136800010EBDEC05F0B5C0C3F0B6C0C4F0B7C0FF
:10137800C5F0B8C0C6F016EC00F0C3C0E8F0C4C0B1
:10138800E9F0C5C0EAF0C6C0EBF0000E0001C76F77
:10139800000EC86F7A0EC96F440ECA6FE8C0C3F05A
:1013A800E9C0C4F0EAC0C5F0EBC0C6F016EC00F026
:1013B800C3C0DCF0C4C0DDF0C5C0DEF0C6C0DFF0DD
:1013C8003FEC08F0DCC0EDF0DDC0EEF0EDC0E6F07B
:1013D800030E0001E617E63BBD50E619CF0BE619F0
:1013E800BD6EEDC0E6F0EEC0E7F0D890E733E63327
:1013F800D890E733E633E651BE6E1200386E0A0E17
:10140800136ED70E146E230E156E3C0E166E3850E2
:10141800016E026A036A046A010E99EC06F001C0C3
:101428000FF002C010F003C011F004C012F02CEC51
:1014380002F00FC034F010C035F011C036F012C001
:1014480037F0000E136E000E146E7A0E156E440EF1
:10145800166E34C00FF035C010F036C011F037C02A
:1014680012F02CEC02F00FC028F010C029F011C0C7
:101478002AF012C02BF0C3EC08F028C039F029C0BC
:101488003AF039C032F0030E3216323ABA503218F6
:10149800CF0B3218BA6E39C032F03AC033F0D89058
:1014A80033323232D890333232323250BB6E12007D
:1014B800386E0A0E136ED70E146E230E156E3C0E80
:1014C800166E3850016E026A036A046A010E99ECBE
:1014D80006F001C00FF002C010F003C011F004C004
:1014E80012F02CEC02F00FC034F010C035F011C02F
:1014F80036F012C037F0000E136E000E146E7A0E1E
:10150800156E440E166E34C00FF035C010F036C09C
:1015180011F037C012F02CEC02F00FC028F010C008
:1015280029F011C02AF012C02BF0C3EC08F028C033
:1015380039F029C03AF039C032F0030E3216323A87
:10154800BD503218CF0B3218BD6E39C032F03AC0D8
:1015580033F0D89033323232D8903332323232507C
:10156800BE6E120043EC0BF0000E076E0728D8A4DD
:10157800C0EF0AF0C2EF0AF0C4EF0AF0EBEF0AF08E
:1015880007500324056E000E0420066E05C0F6FF02
:1015980006C0F7FF0800F5500009D8A4D6EF0AF0F6
:1015A800D8EF0AF0DAEF0AF0EBEF0AF0075003245D
:1015B800056E000E0420066E05C0F6FF06C0F7FF94
:1015C8000800F550EDEC0BF0072ABAEF0AF012000C
:1015D80020EC0BF0000E0001BB6FBB51B725B96FB3
:1015E800000EB821BA6FB9C0F6FFBAC0F7FF0800FD
:1015F800F5500009D8A403EF0BF005EF0BF007EF47
:101608000BF01FEF0BF0BB51B725B96F000EB821D7
:10161800BA6FB9C0F6FFBAC0F7FF0800F550C5ECBD
:101628000BF00001BB2BBB29D8A41DEF0BF01FEF5B
:101638000BF0F1EF0AF01200ABA225EF0BF027EF49
:101648000BF038EF0BF0AECFB5F0AECFB5F0AECFB4
:10165800B5F0AECFB5F0AB98AB88ABB236EF0BF0C8
:1016680038EF0BF027EF0BF0ABA43DEF0BF03FEF9B
:101678000BF042EF0BF0AE50AC9AAC8A1200ABA262
:1016880048EF0BF04AEF0BF05BEF0BF0AECF01F039
:10169800AECF01F0AECF01F0AECF01F0AB98AB8882
:1016A800ABB259EF0BF05BEF0BF04AEF0BF0ABA4CA
:1016B80060EF0BF062EF0BF065EF0BF0AE50AC9AF9
:1016C800AC8A120020EC0BF0000E0001BA6F78EF24
:1016D8000BF0BA51B725D96E000EB821DA6EA6EC18
:1016E8000BF0DF6E0001BA2BB951BA5DD8A07FEFBD
:1016F8000BF081EF0BF06DEF0BF0120000EE60F0D5
:10170800540EEE6AE806FDE100EE42F01B0EEE6AAA
:10171800E806FDE15D905D92000EF86E000141EF74
:1017280004F09494BD50F00B0C09BD6EF90ECB6E0D
:10173800030ECA12CF0EBD16000EBE6E000ECC6E82
:10174800CA84120020EC0BF09EAAADEF0BF0AFEFAD
:101758000BF0A8EF0BF0AECFB6F0000EAE6E0001A6
:10176800B651120094920F0EBA12F90ECB6E030EF8
:10177800CA12CF0EBA16000EBB6E000ECC6ECA840B
:1017880012000001B66F20EC0BF0ACA2CEEF0BF00C
:10179800D0EF0BF0C9EF0BF0B6C0ADFF1200CD9043
:1017A800CD8ECD96CD8CCD82CD849480000ECF6E1B
:1017B800000ECE6ECD801200948C948E100EAF6EFB
:1017C800AC84B886AC9CAC8AAC98AB8EAB9CAB882E
:1017D8001200026E43EC0BF0ACA2F5EF0BF0F7EF42
:1017E8000BF0F0EF0BF002C0ADFF1200D59ED59CB8
:1017F800D58AD5989288000ED76E000ED66ED58EF3
:101808001200010E586E8C92010E5A6E320E46EC82
:1018180009F01200010E596E8C96010E5A6E320EA6
:10182800A4EC09F01200010E586E8C92010E5A6E4B
:10183800320E02EC0AF01200010E596E8C96010E5F
:101848005A6E320E5CEC0AF012000F0EC112700EC6
:10185800D36E6D966F861200959A959C928A8C9A93
:101868008C9A8C9A12009590959294928C908C9266
:101878008B9212009594959694948C948C968B9454
:101888001200D09EF28CF28E1200969012009D806B
:061898001200F28A1200AA
:1079FE0000496E74726F6475636520656E20656CE8
:107A0E00207369677569656E7465206F7264656E43
:107A1E00206C6173207661726961626C657320619E
:107A2E00207573617220286E6F2075736573206CDC
:107A3E00617320636F6D6173293A20636F6F726497
:107A4E00582C636F6F7264592C2320646520766501
:107A5E0063657320612070726573696F6E61722049
:107A6E005A004E6F20707565646573206D6F646982
:107A7E00666963617220636F6F7264656E616461C3
:107A8E007320706F72207175652061756E206E6F38
:107A9E002068617320616772656761646F206E692B
:107AAE006E67756E610A004572726F722C20657377
:107ABE00746173207175657269656E646F206D6F88
:107ACE006469666963617220756E6120636F6F729F
:107ADE0064656E616461207175652061756E206EDE
:107AEE006F20616772656761730A0045736372691F
:107AFE00626520696E697420706172612063616CC9
:107B0E006962617220656C20535041524320792086
:107B1E00706F64657220656D70657A617220656C38
:107B2E002070726F6772616D610A004375616C201F
:107B3E00636F6F7264656E616461207175696572E1
:107B4E006573206D6F646966696361722C20656C64
:107B5E006967652076616C6F7265732076616C69FA
:107B6E00646F733F0A00596120657374616E206CF7
:107B7E00617320313020636F6F7264656E61646172
:107B8E0073206C6C656E61732C206E6F2070756542
:107B9E006465732061677265676172206D61730041
:107BAE00496E74657272757063696F6E20544D52B2
:107BBE00312C206C6C656761737465206120636F76
:107BCE006F7264656E616461206465736561646182
:107BDE0020580A00496E74657272757063696F6E13
:107BEE0020544D52302C206C6C6567617374652087
:107BFE006120636F6F7264656E616461206465738A
:107C0E006561646120590A004C617320636F6F7265
:107C1E0064656E616461732061637475616C657314
:107C2E0020736F6E2028582C20592C20546F71759C
:107C3E006573205A29200A004C6973746F2C2074C6
:107C4E006F646173206C617320636F6F7264656E15
:107C5E00616461732068616E207369646F20626F66
:107C6E007272616461730A00536F6C6F2070756578
:107C7E0064657320696E74726F6475636972206EC9
:107C8E00756D65726F732C207072756562612064FC
:107C9E0065206E7565766F0050726573696F6E61E3
:107CAE0072205A2063696572746F206E756D6572ED
:107CBE006F20646520766563657320726563696203
:107CCE00696461730A004F63757272696F206C612B
:107CDE0020696E74657272757063696F6E206C695F
:107CEE006D69745377697463683345737175696E22
:107CFE0061730A004375616C20646520657374615D
:107D0E007320636F6F7264656E6164617320717549
:107D1E006965726573206D6F646966696361723F30
:107D2E000A00436F6F7264656E61646120726563F1
:107D3E0069626964612C206C6F20717565207265B3
:107D4E00636962696D6F73206675653A004F63757E
:107D5E007272696F206C6120696E746572727570D3
:107D6E0063696F6E206C696D6974537769746368AB
:107D7E00486F6D65580A004F63757272696F206C9B
:107D8E006120696E74657272757063696F6E206CB6
:107D9E00696D6974537769746368486F6D65590AC4
:107DAE000048617320616772656761646F20657357
:107DBE007465206E756D65726F20646520636F6FDC
:107DCE007264656E616461733A00506973746F6EAC
:107DDE002070617261206465736C697A6172206FC4
:107DEE002064656A617220726574726169646F3FA6
:107DFE000A004E6F20686173206167726567616467
:107E0E006F206E696E67756E6120636F6F72646549
:107E1E006E61646100566173206120697220696E23
:107E2E0066696E69746F2058206520696E66696E8A
:107E3E0069746F20590A00526563696269202320B4
:107E4E006465207665636573206120707265736961
:107E5E006F6E6172205A0A004D65746973746520E5
:107E6E00756E6120636F6F7264656E616461206907
:107E7E006E76616C6964610A0020636F6F7264656F
:107E8E006E616461732C206C6173206375616C6527
:107E9E007320736F6E3A200A005661732061206D55
:107EAE006F76657220656C20537061726320656E0B
:107EBE002058207920590A005661732061206D6F79
:107ECE0064696669636172206C6120636F6F7264AE
:107EDE00656E6164612000496D70726D6972206318
:107EEE006F6F7264656E6164612061637475616C3D
:107EFE00200A005661732061206972206120686F2C
:107F0E006D6558207920686F6D6520590A00456EA1
:107F1E007472617374652061206D6F766572206C6A
:107F2E006120626173650A0044616D652076656348
:107F3E00657320612070726573696F6E6172205A6D
:107F4E000A0059656E646F206120636F6F726465FD
:107F5E006E6164613A200078546F416476616E639D
:107F6E00652069733A0079546F416476616E63657A
:107F7E002069733A00496E697469616C697A696E39
:107F8E00670A0052656369626920636F6F72645895
:107F9E000052656369626920636F6F7264590041B4
:107FAE0067726567617374653A2000436F6F726420
:107FBE00656E61646120004D6F7641727269626117
:107FCE000A000A53616C69656E646F0A004F6B2C70
:107FDE00636F6D56200A004D6F764142616A6F0ADB
:107FEE000044616D6520580A0044616D6520590A90
:027FFE00000081
:020000040020DA
:08000000FFFFFFFFFFFFFFFF00
:020000040030CA
:0E00000000091F1EFF8381FF0FC00FE00F409D
:00000001FF
