:020000040000FA
:0400000014EF00F009
:06000800468296ED0BF0AC
:100018004680E0CF60F000F060C0E0FF469010003E
:1000280042EF13F000019051800B996F9051902589
:100038009B6F8FAF22EF00F024EF00F025EF00F068
:100048009B819B51D8B42BEF00F02DEF00F042EFCD
:1000580000F09B29D8A433EF00F035EF00F03DEF16
:1000680000F0000E8D6F000E8E6F000E8F6F000E69
:10007800906F8F8F000E906F4AEF00F0000E8D6F1B
:10008800000E8E6F000E8F6F000E906F9451800BD4
:100098009A6F99519A19D8B454EF00F056EF00F0BE
:1000A80057EF00F0998D945194259A6F93AF5FEFB5
:1000B80000F061EF00F062EF00F09A819A51D8B435
:1000C80068EF00F06AEF00F07FEF00F09A29D8A4FB
:1000D80070EF00F072EF00F07AEF00F0000E916F11
:1000E800000E926F000E936F000E946F938F000EA8
:1000F800946F87EF00F0000E916F000E926F000E64
:10010800936F000E946F9B519A5DD8B08EEF00F0FC
:1001180090EF00F0B7EF00F099AD95EF00F097EF92
:1001280000F099EF00F0800E991B9BC09CF09AC0DC
:100138009BF09CC09AF08DC09CF091C08DF09CC043
:1001480091F08EC09CF092C08EF09CC092F08FC04F
:100158009CF093C08FF09CC093F090C09CF094C02A
:1001680090F09CC094F0000E9C6F9B519AC095F043
:10017800966B955F000E965B96BFCCEF00F096519C
:1001880009E11A0E955DD8A0CCEF00F0CEEF00F093
:1001980005EF01F08D518E118F119011D8A4D7EF72
:1001A80000F0DAEF00F0010EDBEF00F0000E9C6FBC
:1001B800000E8D6F000E8E6F000E8F6F000E906F09
:1001C8009AC09BF00EEF01F09CA1EDEF00F0EFEF6D
:1001D80000F0F5EF00F0D8909C3101099C6FF7EF23
:1001E80000F0D8909C338DA1FCEF00F0FEEF00F0FA
:1001F800FFEF00F09C8F903590338F338E338D3323
:100208009B2B9A519B5DD8A00CEF01F00EEF01F0EB
:10021800E8EF00F099BD13EF01F015EF01F055EF8D
:1002280001F09B51D8A41BEF01F01DEF01F027EF5F
:1002380001F0000E8D6F000E8E6F000E8F6F000E96
:10024800906F76EF02F091518D2792518E23935142
:100258008F239451902390A134EF01F036EF01F0F1
:10026800E2EF01F09CA13BEF01F03DEF01F043EF1D
:1002780001F0D8909C3101099C6F45EF01F0D890AE
:100288009C338DA14AEF01F04CEF01F04DEF01F0E6
:100298009C8F903590338F338E338D339B2BE2EFC9
:1002A80001F091518D5D92518E5993518F59905112
:1002B800800A956F9451800A9559D8B066EF01F07D
:1002C80068EF01F093EF01F08D51915D956F8E51BC
:1002D8009259966F8F519359976F90519459986F7F
:1002E800FF0E95258D6FFF0E96218E6FFF0E9721BD
:1002F8008F6FFF0E9821906F800E991B9C6D9C51FB
:10030800D8A489EF01F08BEF01F09BEF01F0010E0B
:100318008D27000E8E238F2390239BEF01F09151A0
:100328008D5F92518E5B93518F5B9451905B8D5191
:100338008E118F119011D8A4A4EF01F0A6EF01F04F
:10034800DBEF01F09C51D8A4ACEF01F0AEEF01F067
:10035800DBEF01F0000E8D6F000E8E6F000E8F6FB9
:10036800000E906F76EF02F0D8908D378E378F376A
:1003780090379CAFC2EF01F0C4EF01F0C5EF01F078
:100388008D819CA1CAEF01F0CCEF01F0D0EF01F014
:10039800D8809C37D2EF01F0D8909C379B51D8B4C5
:1003A800D8EF01F0DAEF01F0DBEF01F09B078FAF38
:1003B800E0EF01F0E2EF01F0B8EF01F0000E9A6F04
:1003C8009CAFE9EF01F0EBEF01F003EF02F09CC006
:1003D80095F07F0E9517D8B4F4EF01F0F6EF01F021
:1003E800FAEF01F0010E9A6F03EF02F08DA1FFEF13
:1003F80001F001EF02F003EF02F0F6EF01F09A517D
:10040800D8B409EF02F00BEF02F036EF02F0010E5C
:100418008D27000E8E238F23902390A116EF02F0D4
:1004280018EF02F036EF02F08DC095F08EC096F00E
:100438008FC097F090C098F09835983397339633DB
:10044800953395C08DF096C08EF097C08FF098C008
:1004580090F09B29D8B433EF02F035EF02F036EF75
:1004680002F09B2B9B29D8B43CEF02F03EEF02F040
:1004780046EF02F09B51D8A444EF02F046EF02F099
:1004880058EF02F0000E8D6F000E8E6F000E8F6F0A
:10049800000E906F9B51D8A454EF02F056EF02F073
:1004A80058EF02F0000E996F9BA15DEF02F05FEF2D
:1004B80002F062EF02F08F8F63EF02F08F9FD89007
:1004C8009B31906F99AF6BEF02F06DEF02F06EEF1A
:1004D80002F0908F8DC08DF08EC08EF08FC08FF09F
:1004E80090C090F0120000017751800B806F775117
:1004F8007725866F76AF83EF02F085EF02F086EFFF
:1005080002F086818651D8B48CEF02F08EEF02F0AB
:10051800A1EF02F08629D8A494EF02F096EF02F03A
:100528009EEF02F0000E746F000E756F000E766F6E
:10053800000E776F768FA9EF02F0000E746F000E31
:10054800756F000E766F000E776F7B51800B801BE6
:100558007B517B25856F7AAFB4EF02F0B6EF02F0DE
:10056800B7EF02F085818551D8B4BDEF02F0BFEF37
:1005780002F0D2EF02F08529D8A4C5EF02F0C7EF48
:1005880002F0CFEF02F0000E786F000E796F000EC8
:100598007A6F000E7B6F7A8FDAEF02F0000E786FB9
:1005A800000E796F000E7A6F000E7B6F8551D8B4FC
:1005B800E0EF02F0E2EF02F0EAEF02F08651D8A491
:1005C800E8EF02F0EAEF02F0F4EF02F0000E746FC9
:1005D800000E756F000E766F000E776F8CEF04F0CB
:1005E8007A517403F3CF8BF0F4CF8CF08B51816F79
:1005F800826B836B846B8C51876F886B896B8A6B7A
:1006080079517503F3CF8BF0F4CF8CF08B518127A0
:10061800000E8223832384238C518727000E88238E
:1006280089238A2378517603F3CF8BF0F4CF8CF0AB
:100638008B518127000E8223832384238C518727A3
:10064800000E882389238A2383C084F082C083F024
:1006580081C082F0816B78517503F3CF8BF0F4CFB2
:100668008CF08B5181278C518223000E8323000E3E
:10067800842379517403F3CF8BF0F4CF8CF08B5132
:1006880081278C518223000E8323000E842383C08C
:1006980084F082C083F081C082F0816B785174034A
:1006A800F3CF8BF0F4CF8CF08B5181278C518223C0
:1006B800000E8323000E84237A517503F3CF8BF049
:1006C800F4CF8CF08B5187278C518823000E892317
:1006D800000E8A2379517603F3CF8BF0F4CF8CF098
:1006E8008B5187278C518823000E8923000E8A237B
:1006F8007A517603F3CF8BF0F4CF8CF08B517C6F6B
:100708008C517D6F7E6B7F6B7EC07FF07DC07EF0ED
:100718007CC07DF07C6B7C5187277D5188237E517E
:1007280089237F518A2381C07CF082C07DF083C0F9
:100738007EF084C07FF0190EA7EF03F0D8907F33C6
:100748007E337D337C33E82EA2EF03F07C5187277C
:100758007D5188237E5189237F518A2383C084F069
:1007680082C083F081C082F0816B855186C07CF0A5
:100778007D6B7C27000E7D23820E7C258B6FFF0E00
:100788007D218C6FDDEF03F0D89087378837893764
:100798008A3784AFD2EF03F0D4EF03F0D5EF03F03C
:1007A8008781D89081378237833784378B07D8A0E1
:1007B8008C0789AFE2EF03F0E4EF03F0C8EF03F032
:1007C800000E856F84AFEBEF03F0EDEF03F011EF50
:1007D80004F0FF0E81157C6FFF0E82157D6FFF0EF2
:1007E80083157E6F7F0E84157F6F7C517D117E117E
:1007F8007F11D8B402EF04F004EF04F008EF04F01E
:10080800010E856F11EF04F087A10DEF04F00FEFD3
:1008180004F011EF04F004EF04F08551D8B417EF99
:1008280004F019EF04F03DEF04F0010E8727000EE5
:10083800882389238A238AA124EF04F026EF04F071
:100848003DEF04F087C07CF088C07DF089C07EF061
:100858008AC07FF07F357F337E337D337C337CC025
:1008680087F07DC088F07EC089F07FC08AF08B4B0E
:100878008C2B8CBF48EF04F08C5108E18B29D8A051
:1008880048EF04F04AEF04F054EF04F0000E876FCD
:10089800000E886F800E896F7F0E8A6F82EF04F0DA
:1008A8008CBF61EF04F08C5106E18B05D8B05FEF87
:1008B80004F061EF04F06DEF04F0000E876F000E96
:1008C800886F000E896F000E8A6F000E806F82EFAE
:1008D80004F08BC086F0FF0E8717FF0E88177F0E77
:1008E8008917000E8A1786A17CEF04F07EEF04F0CA
:1008F8007FEF04F0898FD89086318A6F80518A13F0
:1009080087C074F088C075F089C076F08AC077F027
:1009180012001250800B1B6E12501224216E11AE61
:1009280098EF04F09AEF04F09BEF04F02180215037
:10093800D8B4A1EF04F0A3EF04F0B6EF04F0212837
:10094800D8A4A9EF04F0ABEF04F0B3EF04F0000E65
:100958000F6E000E106E000E116E000E126E118ECC
:10096800BEEF04F0000E0F6E000E106E000E116E3A
:10097800000E126E1650800B1B1A16501624206E8D
:1009880015AEC9EF04F0CBEF04F0CCEF04F02080F3
:100998002050D8B4D2EF04F0D4EF04F0E7EF04F01D
:1009A8002028D8A4DAEF04F0DCEF04F0E4EF04F038
:1009B800000E136E000E146E000E156E000E166EED
:1009C800158EEFEF04F0000E136E000E146E000E7D
:1009D800156E000E166E2050D8B4F5EF04F0F7EF40
:1009E80004F0FFEF04F02150D8A4FDEF04F0FFEF6E
:1009F80004F009EF05F0000E0F6E000E106E000EE9
:100A0800116E000E126EA1EF06F015500F02F3CF13
:100A180026F0F4CF27F026501C6E1D6A1E6A1F6A46
:100A28002750226E236A246A256A14501002F3CFD5
:100A380026F0F4CF27F026501C26000E1D221E2279
:100A48001F2227502226000E23222422252213505B
:100A58001102F3CF26F0F4CF27F026501C26000E03
:100A68001D221E221F2227502226000E2322242266
:100A780025221EC01FF01DC01EF01CC01DF01C6AE0
:100A880013501002F3CF26F0F4CF27F026501C267F
:100A980027501D22000E1E22000E1F2214500F0286
:100AA800F3CF26F0F4CF27F026501C2627501D221E
:100AB800000E1E22000E1F221EC01FF01DC01EF0B9
:100AC8001CC01DF01C6A13500F02F3CF26F0F4CFA0
:100AD80027F026501C2627501D22000E1E22000E2D
:100AE8001F2215501002F3CF26F0F4CF27F026501E
:100AF800222627502322000E2422000E25221450DD
:100B08001102F3CF26F0F4CF27F0265022262750E3
:100B18002322000E2422000E252215501102F3CFA5
:100B280026F0F4CF27F02650176E2750186E196A52
:100B38001A6A19C01AF018C019F017C018F0176A05
:100B48001750222618502322195024221A502522E1
:100B58001CC017F01DC018F01EC019F01FC01AF0F5
:100B6800190EBCEF05F0D8901A3219321832173224
:100B7800E82EB7EF05F017502226185023221950F7
:100B880024221A5025221EC01FF01DC01EF01CC0B2
:100B98001DF01C6A205021C017F0186A1726000E95
:100BA8001822820E1724266EFF0E1820276EF2EFE9
:100BB80005F0D89022362336243625361FAEE7EFC7
:100BC80005F0E9EF05F0EAEF05F02280D8901C3631
:100BD8001D361E361F362606D8A0270624AEF7EF88
:100BE80005F0F9EF05F0DDEF05F0000E206E1FAE01
:100BF80000EF06F002EF06F026EF06F0FF0E1C14D9
:100C0800176EFF0E1D14186EFF0E1E14196E7F0E40
:100C18001F141A6E1750181019101A10D8B417EF9D
:100C280006F019EF06F01DEF06F0010E206E26EF14
:100C380006F022A022EF06F024EF06F026EF06F0D9
:100C480019EF06F02050D8B42CEF06F02EEF06F07E
:100C580052EF06F0010E2226000E2322242225221E
:100C680025A039EF06F03BEF06F052EF06F022C060
:100C780017F023C018F024C019F025C01AF01A3450
:100C88001A3219321832173217C022F018C023F05E
:100C980019C024F01AC025F0264A272A27BE5DEF7E
:100CA80006F0275008E12628D8A05DEF06F05FEF90
:100CB80006F069EF06F0000E226E000E236E800E1D
:100CC800246E7F0E256E97EF06F027BE76EF06F0AE
:100CD800275006E12604D8B074EF06F076EF06F048
:100CE80082EF06F0000E226E000E236E000E246EB8
:100CF800000E256E000E1B6E97EF06F026C021F041
:100D0800FF0E2216FF0E23167F0E2416000E251640
:100D180021A091EF06F093EF06F094EF06F0248EF1
:100D2800D8902130256E1B50251222C00FF023C009
:100D380010F024C011F025C012F01200FBEC13F0E3
:100D48009EEC13F074EC13F053EC13F0000EA0ECCF
:100D58000FF0000EFEEC0FF010EC14F009EC14F09C
:100D6800B8EC13F091EC13F017EC14F028EC14F035
:100D780026EC14F002EC14F024EC14F0000E000140
:100D8800C36FBF0EBD6F000EBE6F000EC46F64EC64
:100D980013F016EF07F0AD0E636F7C0E646FD5ECA1
:100DA80011F0BDC063F0BEC064F0040E0001BB6F5B
:100DB800BBC065F0C1EC12F0690E0001BF19D8B4D0
:100DC800E8EF06F0EAEF06F0F3EF06F0490EBF1978
:100DD800D8A4F1EF06F0F3EF06F016EF07F06E0E69
:100DE800C019D8A4FAEF06F0FCEF06F016EF07F0EA
:100DF800690EC119D8A403EF07F005EF07F016EF45
:100E080007F0740EC219D8A40CEF07F00EEF07F024
:100E180016EF07F0010EC46F7E0E636F7F0E646FCE
:100E2800D5EC11F00001C451D8B41DEF07F01FEF45
:100E380007F0CFEF06F0CB0E0001636F7F0E646FF3
:100E4800D5EC11F064EC13F00001C56F6D0EC519F7
:100E5800D8B431EF07F033EF07F03CEF07F04D0E51
:100E6800C519D8A43AEF07F03CEF07F054EF07F0A4
:100E7800DE0E636F7E0E646FD5EC11F0D40E0001A8
:100E8800636F7F0E646FD5EC11F068EC0CF0C20E46
:100E98000001636F7F0E646FD5EC11F01FEF07F050
:100EA800700EC519D8B45BEF07F05DEF07F066EF79
:100EB80007F0500EC519D8A464EF07F066EF07F0E5
:100EC8007EEF07F0B90E636F7D0E646FD5EC11F0FD
:100ED800D40E0001636F7F0E646FD5EC11F013EC34
:100EE80013F0C20E0001636F7F0E646FD5EC11F032
:100EF8001FEF07F0730EC519D8B485EF07F087EF19
:100F080007F090EF07F0530EC519D8A48EEF07F03D
:100F180090EF07F0A8EF07F0940E636F7E0E646FF2
:100F2800D5EC11F0D40E0001636F7F0E646FD5EC21
:100F380011F0A3EC12F0C20E0001636F7F0E646F14
:100F4800D5EC11F01FEF07F0680EC519D8B4AFEF54
:100F580007F0B1EF07F0BAEF07F0480EC519D8A4AB
:100F6800B8EF07F0BAEF07F000EF08F0190E636F5B
:100F78007F0E646FD5EC11F0D40E0001636F7F0E05
:100F8800646FD5EC11F0CDEC13F0C3EC13F0000155
:100F9800D551D8B4D2EF07F0D4EF07F0CBEF07F074
:100FA800D451D8B4DAEF07F0DCEF07F0CBEF07F055
:100FB800000EB06F050EB16F000E9FEC0EF0000E24
:100FC8000001B06F050EB16F000E1EEC0EF0000EA2
:100FD8000001D56F000ED46F000ED16F000ED06FD8
:100FE800000ECD6F000ECC6FC20E636F7F0E646F64
:100FF800D5EC11F01FEF07F0690EC519D8B407EF4B
:1010080008F009EF08F012EF08F0490EC519D8A446
:1010180010EF08F012EF08F02CEF08F0BC0E636F29
:101028007E0E646FD5EC11F0D40E0001636F7F0E55
:10103800646FD5EC11F0F3EC13F0EBEC13F0C20E87
:101048000001636F7F0E646FD5EC11F01FEF07F09E
:10105800630EC519D8B433EF08F035EF08F03EEF4A
:1010680008F0430EC519D8A43CEF08F03EEF08F08D
:1010780056EF08F0FD0E636F7E0E646FD5EC11F02D
:10108800D40E0001636F7F0E646FD5EC11F08AEC0B
:1010980008F0C20E0001636F7F0E646FD5EC11F08B
:1010A8001FEF07F0620EC519D8B45DEF08F05FEFC7
:1010B80008F068EF08F0420EC519D8A466EF08F0EA
:1010C80068EF08F080EF08F0340E636F7F0E646FEE
:1010D800D5EC11F0D40E0001636F7F0E646FD5EC70
:1010E80011F020EC0FF0C20E0001636F7F0E646FE9
:1010F800D5EC11F01FEF07F0E50E636F7F0E646FFC
:10110800D5EC11F01FEF07F014EF00F0FA0E000114
:10111800636F7F0E646FD5EC11F0000E0001916FC4
:10112800000E926F400E936F420E946F0A0E786F06
:10113800D70E796F230E7A6F3C0E7B6FD0C066F0A6
:10114800D1C067F0686B696B000EE0EC09F066C00F
:1011580074F067C075F068C076F069C077F077EC16
:1011680002F074C08DF075C08EF076C08FF077C035
:1011780090F016EC00F08DC09DF08EC09EF08FC0F0
:101188009FF090C0A0F017EC0DF000019D5183EC8A
:1011980013F0000E0001916F000E926F400E936FD6
:1011A800420E946FCD0E786FCC0E796FCC0E7A6F9D
:1011B8003D0E7B6F000E646F640E636FD0C061F0EC
:1011C800D1C062F009EC12F0000161C066F062C0A3
:1011D80067F0686B696B000EE0EC09F066C074F0AC
:1011E80067C075F068C076F069C077F077EC02F0F8
:1011F80074C08DF075C08EF076C08FF077C090F017
:1012080016EC00F08DC09DF08EC09EF08FC09FF050
:1012180090C0A0F017EC0DF000019D5183EC13F085
:10122800000E0001646F640E636FD0C061F0D1C01E
:1012380062F009EC12F061C0A7F062C0A8F0A7C084
:1012480061F0A8C062F0000E0001646F0A0E636FBF
:1012580009EC12F000016151300F83EC13F0EC0E31
:101268000001636F7F0E646FD5EC11F0000E000172
:10127800916F000E926F400E936F420E946F0A0E9C
:10128800786FD70E796F230E7A6F3C0E7B6FCCC0C8
:1012980066F0CDC067F0686B696B000EE0EC09F092
:1012A80066C074F067C075F068C076F069C077F002
:1012B80077EC02F074C08DF075C08EF076C08FF0B8
:1012C80077C090F016EC00F08DC09DF08EC09EF0B7
:1012D8008FC09FF090C0A0F017EC0DF000019D5159
:1012E80083EC13F0000E0001916F000E926F400E18
:1012F800936F420E946FCD0E786FCC0E796FCC0E33
:101308007A6F3D0E7B6F000E646F640E636FCCC006
:1013180061F0CDC062F009EC12F0000161C066F026
:1013280062C067F0686B696B000EE0EC09F066C09C
:1013380074F067C075F068C076F069C077F077EC34
:1013480002F074C08DF075C08EF076C08FF077C053
:1013580090F016EC00F08DC09DF08EC09EF08FC00E
:101368009FF090C0A0F017EC0DF000019D5183ECA8
:1013780013F0000E0001646F640E636FCCC061F05F
:10138800CDC062F009EC12F061C0A7F062C0A8F00D
:10139800A7C061F0A8C062F0000E0001646F0A0ED9
:1013A800636F09EC12F000016151300F83EC13F008
:1013B8000A0E83EC13F0120000016E6F00016E51EB
:1013C800D8B4E9EF09F0EBEF09F00DEF0AF069BFC7
:1013D800F2EF09F0F0EF09F00DEF0AF066C06AF0DD
:1013E80067C06BF068C06CF069C06DF06A1F6B1F56
:1013F8006C1F6D1F6A2B000E6B236C236D236AC054
:1014080070F06BC071F06CC072F06DC073F015EFC6
:101418000AF066C070F067C071F068C072F069C009
:1014280073F06651671168116911D8A41EEF0AF0AC
:1014380020EF0AF02AEF0AF0000E666F000E676FC1
:10144800000E686F000E696FBBEF0AF0960E6F6FA3
:1014580034EF0AF06F2BD8907333723371337033D3
:10146800000E70156A6F000E71156B6F000E721505
:101478006C6FFE0E73156D6F6A516B116C116D11E7
:10148800D8A449EF0AF04BEF0AF02EEF0AF059EF13
:101498000AF06F2B010E7027000E7123722373233D
:1014A800D8907333723371337033000E70156A6FCE
:1014B800000E71156B6F000E72156C6FFF0E7315B1
:1014C8006D6F6A516B116C116D11D8A46EEF0AF033
:1014D80070EF0AF04DEF0AF078EF0AF06F07D89036
:1014E800703771377237733772BF7DEF0AF07FEF4D
:1014F8000AF087EF0AF0020E6F6185EF0AF087EFB6
:101508000AF072EF0AF06FB18CEF0AF08EEF0AF072
:101518008FEF0AF0729FD8906F336FC06AF06B6BD1
:101528006C6B6D6B6AC06DF06C6B6B6B6A6B6A5140
:1015380070136B5171136C5172136D5173136E519B
:10154800D8B4A9EF0AF0ABEF0AF0B3EF0AF069BF1D
:10155800B2EF0AF0B0EF0AF0B3EF0AF0738F70C081
:1015680066F071C067F072C068F073C069F012006D
:10157800096E0950D8B4C3EF0AF0C5EF0AF0E7EFD7
:101588000AF004BECCEF0AF0CAEF0AF0E7EF0AF05F
:1015980001C005F002C006F003C007F004C008F05F
:1015A800051E061E071E081E052A000E0622072213
:1015B800082205C00BF006C00CF007C00DF008C0EB
:1015C8000EF0EFEF0AF001C00BF002C00CF003C000
:1015D8000DF004C00EF00150021003100410D8A43E
:1015E800F8EF0AF0FAEF0AF004EF0BF0000E016EC4
:1015F800000E026E000E036E000E046E95EF0BF0E7
:10160800960E0A6E0EEF0BF00A2AD8900E320D32A3
:101618000C320B32000E0B14056E000E0C14066E05
:10162800000E0D14076EFE0E0E14086E05500610FF
:1016380007100810D8A423EF0BF025EF0BF008EFE4
:101648000BF033EF0BF00A2A010E0B26000E0C22CA
:101658000D220E22D8900E320D320C320B32000EB3
:101668000B14056E000E0C14066E000E0D14076E9A
:10167800FF0E0E14086E0550061007100810D8A4A7
:1016880048EF0BF04AEF0BF027EF0BF052EF0BF09F
:101698000A06D8900B360C360D360E360DBE57EFAF
:1016A8000BF059EF0BF061EF0BF0020E0A605FEFE1
:1016B8000BF061EF0BF04CEF0BF00AB066EF0BF09C
:1016C80068EF0BF069EF0BF00D9ED8900A320AC054
:1016D80005F0066A076A086A05C008F0076A066A1C
:1016E800056A05500B1206500C1207500D120850CF
:1016F8000E120950D8B483EF0BF085EF0BF08DEF85
:101708000BF004BE8CEF0BF08AEF0BF08DEF0BF0B3
:101718000E8E0BC001F00CC002F00DC003F00EC01D
:1017280004F012000600F3CF3CF0F4CF3DF0F6CF02
:101738003EF0F7CF3FF0F8CF40F0F5CF41F0F2A4FC
:10174800A8EF0BF0AAEF0BF0C3EF0BF04250D8A4B0
:10175800B0EF0BF0B2EF0BF0B5EF0BF0000E5CEC56
:1017680010F0C8C0CCF0C9C0CDF0210E036E7D0EBC
:10177800046E9FEC11F0000E0001D66FF2949EA04B
:10178800C8EF0BF0CAEF0BF0E3EF0BF04350D8A40F
:10179800D0EF0BF0D2EF0BF0D5EF0BF0000EB6EC5C
:1017A80010F0C6C0D0F0C7C0D1F0ED0E036E7C0EAD
:1017B800046E9FEC11F0000E0001D76F9E90F2A20C
:1017C800E8EF0BF0EAEF0BF004EF0CF01A0E3B6EAB
:1017D800F80EE82EFED73B2EFCD700D081A0F7EFFD
:1017E8000BF0F9EF0BF0FFEF0BF0E70E036E7D0E39
:1017F800046E9FEC11F0E1EC13F0D7EC13F0F292C9
:10180800F0A009EF0CF00BEF0CF02FEF0CF01A0E14
:101818003B6EF80EE82EFED73B2EFCD700D081A2F7
:1018280018EF0CF01AEF0CF020EF0CF0400E036EDE
:101838007E0E046E9FEC11F0000EB6EC10F0000E58
:101848000001D16F000ED06F000E436E010ED56FF0
:10185800000ED76FF090F0A234EF0CF036EF0CF0DA
:101868005AEF0CF01A0E3B6EF80EE82EFED73B2E00
:10187800FCD700D081A443EF0CF045EF0CF04BEF00
:101888000CF06A0E036E7E0E046E9FEC11F0000ED3
:101898005CEC10F0000E0001CD6F000ECC6F000E56
:1018A800426E010ED46F000ED66FF09241C0F5FF64
:1018B80040C0F8FF3FC0F7FF3EC0F6FF3DC0F4FF51
:1018C8003CC0F3FF46921100000E0001BA6F000EF3
:1018D800B96FF20E636F7F0E646FD5EC11F063EC95
:1018E80011F00001E06F63EC11F00001DF6F63ECB1
:1018F80011F00001DE6FF60E636F7F0E646FD5EC9A
:1019080011F063EC11F00001DD6F63EC11F00001E0
:10191800DC6F63EC11F00001DB6FE051640DF3CF75
:10192800B5F0F4CFB6F0DF510A0DF350B527F450F7
:10193800B623DE51B527000EB623300EB525B76F96
:10194800EB0EB621B86FDD51640DF3CFB5F0F4CFCF
:10195800B6F0DC510A0DF350B527F450B623DB512D
:10196800B527000EB623300EB525B96FEB0EB6219C
:10197800BA6F2D0EB75D010EB859D8B0C6EF0CF08E
:10198800C8EF0CF0D3EF0CF02D0EB95D010EBA596B
:10199800D8A0D1EF0CF0D3EF0CF0E2EF0CF0550E1D
:1019A800636F7D0E646FD5EC11F0DD0E0001636F7F
:1019B8007F0E646FD5EC11F016EF0DF0150E636F06
:1019C8007E0E646FD5EC11F00001E05183EC13F04A
:1019D8000001DF5183EC13F00001DE5183EC13F0BA
:1019E8002C0E83EC13F00001DD5183EC13F00001A1
:1019F800DC5183EC13F00001DB5183EC13F00A0E89
:101A080083EC13F0DCC0B0F0DBC0B1F00001DD51B5
:101A18001EEC0EF0DFC0B0F0DEC0B1F00001E05106
:101A28009FEC0EF0120000019F35A035A66FA6515D
:101A3800D8A421EF0DF023EF0DF02DEF0DF0000EDF
:101A48009D6F000E9E6F000E9F6F000EA06F9AEFA5
:101A58000DF09DC0A1F09EC0A2F09FC0A3F0A0C051
:101A6800A4F0200E3DEF0DF0D890A433A333A23399
:101A7800A133E82E38EF0DF0A151A56F9F8FFF0E0F
:101A88009D17FF0E9E17FF0E9F17000EA017960EAC
:101A9800A65FA6BF54EF0DF052EF0DF06AEF0DF000
:101AA800A651800A970FD8B05CEF0DF05EEF0DF0ED
:101AB80060EF0DF023EF0DF0D890A0339F339E33E5
:101AC8009D33A63F60EF0DF082EF0DF01F0EA66567
:101AD80070EF0DF072EF0DF07AEF0DF023EF0DF0CF
:101AE800D8909D379E379F37A037A607A651D8A410
:101AF80080EF0DF082EF0DF074EF0DF0A551D8B422
:101B080088EF0DF08AEF0DF092EF0DF0A01F9F1FE8
:101B18009E1F9D6D000E9E239F23A0239DC09DF0B8
:101B28009EC09EF09FC09FF0A0C0A0F012002A3473
:101B38002B34316E3150D8A4A4EF0DF0A6EF0DF080
:101B4800B0EF0DF0000E286E000E296E000E2A6E02
:101B5800000E2B6E1DEF0EF028C02CF029C02DF0C2
:101B68002AC02EF02BC02FF0200EC0EF0DF0D89019
:101B78002F322E322D322C32E82EBBEF0DF02C50A6
:101B8800306E2A8EFF0E2816FF0E2916FF0E2A1613
:101B9800000E2B16960E315E31BED7EF0DF0D5EF45
:101BA8000DF0EDEF0DF03150800A970FD8B0DFEF50
:101BB8000DF0E1EF0DF0E3EF0DF0A6EF0DF0D8908A
:101BC8002B322A3229322832313EE3EF0DF005EF6D
:101BD8000EF01F0E3164F3EF0DF0F5EF0DF0FDEF91
:101BE8000DF0A6EF0DF0D890283629362A362B3678
:101BF80031063150D8A403EF0EF005EF0EF0F7EFE1
:101C08000DF03050D8B40BEF0EF00DEF0EF015EFCD
:101C18000EF02B1E2A1E291E286C000E29222A22AD
:101C28002B2228C028F029C029F02AC02AF02BC06E
:101C38002BF012000001B46F0001D605D8B427EFCD
:101C48000EF029EF0EF020EF0EF0B451640DF3CF33
:101C5800B2F0F4CFB3F0B0510A0DF350B227F450FC
:101C6800B323B151B227000EB323300EB225C86F8B
:101C7800EB0EB321C96FCC51C85D616FCD51C95905
:101C8800626F82EC12F061C065F062C066F0000E0F
:101C98000001686F050E676F2EEC13F065C0CEF07B
:101CA80066C0CFF00001C851CC5DC951CD59D8B03C
:101CB80060EF0EF062EF0EF065EF0EF08C9271EFB0
:101CC8000EF0CC51C85DCD51C959D8B06EEF0EF0A9
:101CD80070EF0EF071EF0EF08C82CC51C81909E14B
:101CE800CD51C919D8B47BEF0EF07DEF0EF098EF07
:101CF8000EF05E0E636F7F0E646FD5EC11F000017D
:101D0800CE5183EC13F00A0E83EC13F0010E0001A0
:101D1800D66FCEC061F0CFC062F0DDEC12F0320EAB
:101D2800A0EC0FF09EEF0EF0970E636F7F0E646FBE
:101D3800D5EC11F012000001B46F0001D705D8B43A
:101D4800A8EF0EF0AAEF0EF0A1EF0EF0B451640D5B
:101D5800F3CFB2F0F4CFB3F0B0510A0DF350B2277D
:101D6800F450B323B151B227000EB323300EB2257D
:101D7800C66FEB0EB321C76FD051C65D616FD151ED
:101D8800C759626F82EC12F061C065F062C066F0FC
:101D9800000E0001686F050E676F2EEC13F065C02A
:101DA800D2F066C0D3F00001C651D05DC751D159F9
:101DB800D8B0E1EF0EF0E3EF0EF0E6EF0EF08C9600
:101DC800F2EF0EF0D051C65DD151C759D8B0EFEF40
:101DD8000EF0F1EF0EF0F2EF0EF08C86D051C6192E
:101DE80009E1D151C719D8B4FCEF0EF0FEEF0EF09F
:101DF80019EF0FF04E0E636F7F0E646FD5EC11F084
:101E08000001D25183EC13F00A0E83EC13F0010E9B
:101E18000001D76FD2C061F0D3C062F0F8EC12F0C5
:101E2800320EFEEC0FF01FEF0FF08C0E636F7F0E7B
:101E3800646FD5EC11F01200000E0001696F96EF87
:101E48000FF080AA2AEF0FF02CEF0FF048EF0FF0F9
:101E58001A0E0001686FF80EE82EFED7682FFCD71F
:101E680000F080AA3AEF0FF03CEF0FF048EF0FF0C8
:101E7800AD0E0001636F7F0E646FD5EC11F021EC9D
:101E880014F0010E0001696F82A84DEF0FF04FEFBB
:101E98000FF06FEF0FF01A0E0001686FF80EE82EC2
:101EA800FED7682FFCD700F082A85DEF0FF05FEF38
:101EB8000FF06FEF0FF0A20E0001636F7F0E646FDB
:101EC800D5EC11F01BEC14F082B86DEF0FF06FEF4A
:101ED8000FF066EF0FF082AA74EF0FF076EF0FF0B5
:101EE80096EF0FF01A0E0001686FF80EE82EFED775
:101EF800682FFCD700F082AA84EF0FF086EF0FF06E
:101F080096EF0FF0B80E0001636F7F0E646FD5EC8B
:101F180011F01EEC14F082BA94EF0FF096EF0FF068
:101F28008DEF0FF000016951D8B49DEF0FF09FEFCE
:101F38000FF025EF0FF012000001AD6F0A0E00013F
:101F4800786FD70E796F230E7A6F3C0E7B6FAD5189
:101F5800666F676B686B696B010EE0EC09F066C031
:101F680074F067C075F068C076F069C077F077ECF8
:101F780002F074C0A9F075C0AAF076C0ABF077C0C3
:101F8800ACF0000E0001786F000E796F7A0E7A6F50
:101F9800440E7B6FA9C074F0AAC075F0ABC076F090
:101FA800ACC077F077EC02F074C09DF075C09EF07D
:101FB80076C09FF077C0A0F017EC0DF09DC0AEF092
:101FC8009EC0AFF0AEC0A7F0030E0001A717A73B55
:101FD800BA50A719CF0BA719BA6EAEC0A7F0AFC0F9
:101FE800A8F0D890A833A733D890A833A733A7511F
:101FF800BB6E12000001AD6F0A0E0001786FD70E9C
:10200800796F230E7A6F3C0E7B6FAD51666F676BED
:10201800686B696B010EE0EC09F066C074F067C08C
:1020280075F068C076F069C077F077EC02F074C09C
:10203800A9F075C0AAF076C0ABF077C0ACF0000E7E
:102048000001786F000E796F7A0E7A6F440E7B6FFD
:10205800A9C074F0AAC075F0ABC076F0ACC077F038
:1020680077EC02F074C09DF075C09EF076C09FF0CA
:1020780077C0A0F017EC0DF09DC0AEF09EC0AFF099
:10208800AEC0A7F0030E0001A717A73BBD50A719C4
:10209800CF0BA719BD6EAEC0A7F0AFC0A8F0D890FF
:1020A800A833A733D890A833A733A751BE6E120020
:1020B800386E0A0E136ED70E146E230E156E3C0E74
:1020C800166E3850016E026A036A046A010EBCEC8F
:1020D8000AF001C00FF002C010F003C011F004C0F4
:1020E80012F08DEC04F00FC034F010C035F011C0C0
:1020F80036F012C037F0000E136E000E146E7A0E12
:10210800156E440E166E34C00FF035C010F036C090
:1021180011F037C012F08DEC04F00FC028F010C099
:1021280029F011C02AF012C02BF09BEC0DF028C04A
:1021380039F029C03AF039C032F0030E3216323A7B
:10214800BA503218CF0B3218BA6E39C032F03AC0D2
:1021580033F0D89033323232D89033323232325070
:10216800BB6E1200386E0A0E136ED70E146E230E55
:10217800156E3C0E166E3850016E026A036A046AC8
:10218800010EBCEC0AF001C00FF002C010F003C051
:1021980011F004C012F08DEC04F00FC034F010C040
:1021A80035F011C036F012C037F0000E136E000E75
:1021B800146E7A0E156E440E166E34C00FF035C0CC
:1021C80010F036C011F037C012F08DEC04F00FC0DB
:1021D80028F010C029F011C02AF012C02BF09BEC97
:1021E8000DF028C039F029C03AF039C032F0030E9A
:1021F8003216323ABD503218CF0B3218BD6E39C084
:1022080032F03AC033F0D89033323232D890333289
:1022180032323250BE6E12000001656F0001655106
:10222800640DF3CF63F0F4CF64F061510A0DF350FD
:102238006327F450642362516327000E6423300E31
:102248006325CA6FEB0E6421CB6FCA51CB11D8B48A
:1022580030EF11F032EF11F062EF11F0000E666FFF
:1022680054EF11F08D80020E0001646F040E636F4D
:10227800BA0EE82EFED7632FFCD7642FFAD700F0EA
:102288008D90020E0001646F040E636FBA0EE82E83
:10229800FED7632FFCD7642FFAD700F00001662B16
:1022A8006651636F646BCA51635DCB516459D8A0A2
:1022B80060EF11F062EF11F036EF11F012003CEC14
:1022C80012F0000E0001686F8CEF11F09EAA6FEFFC
:1022D80011F071EF11F06AEF11F0AECF68F0000E57
:1022E800AE6E3A0E000168617CEF11F07EEF11F0DE
:1022F80086EF11F0300E686184EF11F086EF11F06F
:102308008CEF11F0890E636F7D0E646FD5EC11F0C0
:102318003A0E0001686193EF11F095EF11F06AEF42
:1023280011F02F0E68659BEF11F09DEF11F06AEF29
:1023380011F0685112005FEC12F0000E076E0728CA
:10234800D8A4A9EF11F0ABEF11F0ADEF11F0D4EF75
:1023580011F007500324056E000E0420066E05C018
:10236800F6FF06C0F7FF0800F5500009D8A4BFEF34
:1023780011F0C1EF11F0C3EF11F0D4EF11F00750D5
:102388000324056E000E0420066E05C0F6FF06C085
:10239800F7FF0800F550ABEC13F0072AA3EF11F094
:1023A80012003CEC12F0000E0001676F67516325C4
:1023B800656F000E6421666F65C0F6FF66C0F7FFA3
:1023C8000800F5500009D8A4ECEF11F0EEEF11F079
:1023D800F0EF11F008EF12F067516325656F000EFA
:1023E8006421666F65C0F6FF66C0F7FF0800F55008
:1023F80083EC13F00001672B6729D8A406EF12F0CD
:1024080008EF12F0DAEF11F01200000163516411C5
:10241800D8B411EF12F013EF12F037EF12F0010EEB
:10242800656F1BEF12F0D89063376437652B64AF84
:1024380020EF12F022EF12F017EF12F06351615DF6
:1024480064516259D8A02BEF12F02DEF12F031EF42
:1024580012F06351615F6451625BD89064336333F7
:10246800652F22EF12F061C061F062C062F01200C5
:10247800ABA241EF12F043EF12F054EF12F0AECFDF
:1024880061F0AECF61F0AECF61F0AECF61F0AB9846
:10249800AB88ABB252EF12F054EF12F043EF12F0E8
:1024A800ABA459EF12F05BEF12F05EEF12F0AE50F2
:1024B800AC9AAC8A1200ABA264EF12F066EF12F08D
:1024C80077EF12F0AECF01F0AECF01F0AECF01F052
:1024D800AECF01F0AB98AB88ABB275EF12F077EFE7
:1024E80012F066EF12F0ABA47CEF12F07EEF12F060
:1024F80081EF12F0AE50AC9AAC8A1200000162BFB4
:1025080090EF12F0625106E16105D8B08EEF12F03B
:1025180090EF12F09EEF12F061C063F062C064F0B9
:10252800631F641F634B642B63C061F064C062F077
:10253800A2EF12F061C061F062C062F0120063ECB9
:1025480011F00001696F310E6919D8A4AEEF12F0CD
:10255800B0EF12F0B3EF12F08D80C0EF12F0300E32
:102568006919D8A4BAEF12F0BCEF12F0BFEF12F05D
:102578008D90C0EF12F08D9012003CEC12F0000E1E
:102588000001666FD3EF12F066516325D96E000E15
:102598006421DA6E64EC13F0DF6E0001662B65517E
:1025A800665DD8A0DAEF12F0DCEF12F0C8EF12F097
:1025B8001200000161516211D8B4E5EF12F0E7EFA3
:1025C80012F0F5EF12F061510008636F6251D8A064
:1025D800E82A0008646F6451D76E63C0D6FFF7EF2E
:1025E80012F0D768D6681200000161516211D8B4A0
:1025F80000EF13F002EF13F010EF13F06151010830
:10260800636F6251D8A0E82A0008646F6451CF6EE6
:1026180063C0CEFF12EF13F0CF68CE6812006E0EC3
:102628000001636F7F0E646FD5EC11F063EC11F05D
:102638000001DA6F63EC11F00001D96F63EC11F05F
:102648000001D86FD9C061F0D8C062F0DA5110EC3F
:1026580011F01200000165516703F3CF69F0F4CF60
:102668006AF065516803F3506A2766516703F350AF
:102678006A2769C065F06AC066F0120000EEC6F00D
:102688001B0EEE6AE806FDE1456A446A436A426A3F
:1026980046904692000EF86E0001A2EF06F0949460
:1026A800BD50F00B0C09BD6EF90ECB6E030ECA12AD
:1026B800CF0EBD16000EBE6E000ECC6ECA84120080
:1026C8003CEC12F09EAA6BEF13F06DEF13F066EF7F
:1026D80013F0AECF62F0000EAE6E00016251120030
:1026E80094920F0EBA12F90ECB6E030ECA12CF0EC9
:1026F800BA16000EBB6E000ECC6ECA841200000122
:10270800626F3CEC12F0ACA28CEF13F08EEF13F07A
:1027180087EF13F062C0ADFF1200CD90CD8ECD963D
:10272800CD8CCD82CD849480000ECF6E000ECE6EFF
:10273800CD801200948C948E100EAF6EAC84B88647
:10274800AC9CAC8AAC98AB8EAB9CAB881200026E8A
:102758005FEC12F0ACA2B3EF13F0B5EF13F0AEEFED
:1027680013F002C0ADFF1200D59ED59CD58AD5982E
:102778009288000ED76E000ED66ED58E1200010E0E
:10278800426E8C92010E0001D66F320EA0EC0FF053
:102798001200010E436E8C96010E0001D76F320EA7
:1027A800FEEC0FF01200010E426E8C92010E000139
:1027B800D66F320E5CEC10F01200010E436E8C9650
:1027C800010E0001D76F320EB6EC10F012008C82A9
:1027D800010E0001D66F320EA0EC0FF012008C86AD
:1027E800010E0001D76F320EFEEC0FF012000F0E33
:1027F800C112700ED36E6D966F861200959A959CD5
:10280800928A8C9A8C9A8C9A1200959095929492AE
:102818008C908C928B9212009594959694948C94AB
:102828008C968B941200D09EF28CF28E12008C8AB9
:102838008C9C12008C9A8C8C12008C9A8C9C1200A6
:0C284800969012009D801200F28A12008F
:107CAC00004573637269626520696E697420706146
:107CBC0072612063616C6962617220656C20535043
:107CCC00415243207920706F64657220656D706538
:107CDC007A617220656C2070726F6772616D610AD7
:107CEC0000496E74657272757063696F6E20544DC5
:107CFC0052312C206C6C6567617374652061206354
:107D0C006F6F7264656E6164612064657365616434
:107D1C006120580A00496E74657272757063696FE0
:107D2C006E20544D52302C206C6C656761737465F9
:107D3C00206120636F6F7264656E6164612064659D
:107D4C00736561646120590A004D657469737465CB
:107D5C0020756E6120636F6F7264656E6164612063
:107D6C00696E76616C6964612C207675656C7665DC
:107D7C00206120696E74656E7461720A00536F6CB9
:107D8C006F2070756564657320696E74726F6475AD
:107D9C00636972206E756D65726F732C20707275CD
:107DAC00656261206465206E7565766F0050726542
:107DBC0073696F6E6172205A2063696572746F20EB
:107DCC006E756D65726F20646520766563657320D2
:107DDC007265636962696461730A004F63757272DC
:107DEC00696F206C6120696E74657272757063695D
:107DFC006F6E206C696D6974537769746368334571
:107E0C00737175696E61730A00436F6F7264656E8E
:107E1C006164612072656369626964612C206C6FB6
:107E2C0020717565207265636962696D6F73206678
:107E3C0075653A004F63757272696F206C612069C9
:107E4C006E74657272757063696F6E206C696D69A2
:107E5C0074537769746368486F6D65580A004F6393
:107E6C00757272696F206C6120696E7465727275BF
:107E7C007063696F6E206C696D6974537769746394
:107E8C0068486F6D65590A00506973746F6E207085
:107E9C00617261206465736C697A6172206F206411
:107EAC00656A617220726574726169646F3F0A0061
:107EBC00566173206120697220696E66696E6974FF
:107ECC006F2058206520696E66696E69746F205941
:107EDC000A005661732061206D6F76657220656CA7
:107EEC0020537061726320656E2058207920590AE6
:107EFC0000496D70726D697220636F6F7264656E8C
:107F0C006164612061637475616C200A0056617351
:107F1C002061206972206120686F6D65582079207E
:107F2C00686F6D6520590A00456E747261737465D3
:107F3C002061206D6F766572206C612062617365C3
:107F4C000A0078546F416476616E63652069733AF8
:107F5C00200079546F416476616E63652069733AD1
:107F6C002000546F63617250616E74616C6C613A85
:107F7C000A00496E697469616C697A696E670A00F6
:107F8C00452C636F6F724163580A00452C636F6F09
:107F9C00724163590A004D6F764172726962610ACF
:107FAC00000A53616C69656E646F0A004D6F76410F
:107FBC0042616A6F0A004F6B2C636F6D460A004F6B
:107FCC006B2C636F6D4E0A004F6B2C636F6D560AF2
:107FDC0000452C634E6F560A00452C636F6D0A00EA
:107FEC00202C593A2000583A0A00593A0A00583ABB
:037FFC0020000062
:020000040020DA
:08000000FFFFFFFFFFFFFFFF00
:020000040030CA
:0E00000000091F1EFF8381FF0FC00FE00F409D
:00000001FF
