:020000040000FA
:0400000014EF00F009
:060008005982D5ED0CF059
:100018005980E0CF60F000F060C0E0FF5990100018
:100028003EEF15F000019051800B996F905190258B
:100038009B6F8FAF22EF00F024EF00F025EF00F068
:100048009B819B51D8B42BEF00F02DEF00F042EFCD
:1000580000F09B29D8A433EF00F035EF00F03DEF16
:1000680000F0000E8D6F000E8E6F000E8F6F000E69
:10007800906F8F8F000E906F4AEF00F0000E8D6F1B
:10008800000E8E6F000E8F6F000E906F9451800BD4
:100098009A6F99519A19D8B454EF00F056EF00F0BE
:1000A80057EF00F0998D945194259A6F93AF5FEFB5
:1000B80000F061EF00F062EF00F09A819A51D8B435
:1000C80068EF00F06AEF00F07FEF00F09A29D8A4FB
:1000D80070EF00F072EF00F07AEF00F0000E916F11
:1000E800000E926F000E936F000E946F938F000EA8
:1000F800946F87EF00F0000E916F000E926F000E64
:10010800936F000E946F9B519A5DD8B08EEF00F0FC
:1001180090EF00F0B7EF00F099AD95EF00F097EF92
:1001280000F099EF00F0800E991B9BC09CF09AC0DC
:100138009BF09CC09AF08DC09CF091C08DF09CC043
:1001480091F08EC09CF092C08EF09CC092F08FC04F
:100158009CF093C08FF09CC093F090C09CF094C02A
:1001680090F09CC094F0000E9C6F9B519AC095F043
:10017800966B955F000E965B96BFCCEF00F096519C
:1001880009E11A0E955DD8A0CCEF00F0CEEF00F093
:1001980005EF01F08D518E118F119011D8A4D7EF72
:1001A80000F0DAEF00F0010EDBEF00F0000E9C6FBC
:1001B800000E8D6F000E8E6F000E8F6F000E906F09
:1001C8009AC09BF00EEF01F09CA1EDEF00F0EFEF6D
:1001D80000F0F5EF00F0D8909C3101099C6FF7EF23
:1001E80000F0D8909C338DA1FCEF00F0FEEF00F0FA
:1001F800FFEF00F09C8F903590338F338E338D3323
:100208009B2B9A519B5DD8A00CEF01F00EEF01F0EB
:10021800E8EF00F099BD13EF01F015EF01F055EF8D
:1002280001F09B51D8A41BEF01F01DEF01F027EF5F
:1002380001F0000E8D6F000E8E6F000E8F6F000E96
:10024800906F76EF02F091518D2792518E23935142
:100258008F239451902390A134EF01F036EF01F0F1
:10026800E2EF01F09CA13BEF01F03DEF01F043EF1D
:1002780001F0D8909C3101099C6F45EF01F0D890AE
:100288009C338DA14AEF01F04CEF01F04DEF01F0E6
:100298009C8F903590338F338E338D339B2BE2EFC9
:1002A80001F091518D5D92518E5993518F59905112
:1002B800800A956F9451800A9559D8B066EF01F07D
:1002C80068EF01F093EF01F08D51915D956F8E51BC
:1002D8009259966F8F519359976F90519459986F7F
:1002E800FF0E95258D6FFF0E96218E6FFF0E9721BD
:1002F8008F6FFF0E9821906F800E991B9C6D9C51FB
:10030800D8A489EF01F08BEF01F09BEF01F0010E0B
:100318008D27000E8E238F2390239BEF01F09151A0
:100328008D5F92518E5B93518F5B9451905B8D5191
:100338008E118F119011D8A4A4EF01F0A6EF01F04F
:10034800DBEF01F09C51D8A4ACEF01F0AEEF01F067
:10035800DBEF01F0000E8D6F000E8E6F000E8F6FB9
:10036800000E906F76EF02F0D8908D378E378F376A
:1003780090379CAFC2EF01F0C4EF01F0C5EF01F078
:100388008D819CA1CAEF01F0CCEF01F0D0EF01F014
:10039800D8809C37D2EF01F0D8909C379B51D8B4C5
:1003A800D8EF01F0DAEF01F0DBEF01F09B078FAF38
:1003B800E0EF01F0E2EF01F0B8EF01F0000E9A6F04
:1003C8009CAFE9EF01F0EBEF01F003EF02F09CC006
:1003D80095F07F0E9517D8B4F4EF01F0F6EF01F021
:1003E800FAEF01F0010E9A6F03EF02F08DA1FFEF13
:1003F80001F001EF02F003EF02F0F6EF01F09A517D
:10040800D8B409EF02F00BEF02F036EF02F0010E5C
:100418008D27000E8E238F23902390A116EF02F0D4
:1004280018EF02F036EF02F08DC095F08EC096F00E
:100438008FC097F090C098F09835983397339633DB
:10044800953395C08DF096C08EF097C08FF098C008
:1004580090F09B29D8B433EF02F035EF02F036EF75
:1004680002F09B2B9B29D8B43CEF02F03EEF02F040
:1004780046EF02F09B51D8A444EF02F046EF02F099
:1004880058EF02F0000E8D6F000E8E6F000E8F6F0A
:10049800000E906F9B51D8A454EF02F056EF02F073
:1004A80058EF02F0000E996F9BA15DEF02F05FEF2D
:1004B80002F062EF02F08F8F63EF02F08F9FD89007
:1004C8009B31906F99AF6BEF02F06DEF02F06EEF1A
:1004D80002F0908F8DC08DF08EC08EF08FC08FF09F
:1004E80090C090F0120000017751800B806F775117
:1004F8007725866F76AF83EF02F085EF02F086EFFF
:1005080002F086818651D8B48CEF02F08EEF02F0AB
:10051800A1EF02F08629D8A494EF02F096EF02F03A
:100528009EEF02F0000E746F000E756F000E766F6E
:10053800000E776F768FA9EF02F0000E746F000E31
:10054800756F000E766F000E776F7B51800B801BE6
:100558007B517B25856F7AAFB4EF02F0B6EF02F0DE
:10056800B7EF02F085818551D8B4BDEF02F0BFEF37
:1005780002F0D2EF02F08529D8A4C5EF02F0C7EF48
:1005880002F0CFEF02F0000E786F000E796F000EC8
:100598007A6F000E7B6F7A8FDAEF02F0000E786FB9
:1005A800000E796F000E7A6F000E7B6F8551D8B4FC
:1005B800E0EF02F0E2EF02F0EAEF02F08651D8A491
:1005C800E8EF02F0EAEF02F0F4EF02F0000E746FC9
:1005D800000E756F000E766F000E776F8CEF04F0CB
:1005E8007A517403F3CF8BF0F4CF8CF08B51816F79
:1005F800826B836B846B8C51876F886B896B8A6B7A
:1006080079517503F3CF8BF0F4CF8CF08B518127A0
:10061800000E8223832384238C518727000E88238E
:1006280089238A2378517603F3CF8BF0F4CF8CF0AB
:100638008B518127000E8223832384238C518727A3
:10064800000E882389238A2383C084F082C083F024
:1006580081C082F0816B78517503F3CF8BF0F4CFB2
:100668008CF08B5181278C518223000E8323000E3E
:10067800842379517403F3CF8BF0F4CF8CF08B5132
:1006880081278C518223000E8323000E842383C08C
:1006980084F082C083F081C082F0816B785174034A
:1006A800F3CF8BF0F4CF8CF08B5181278C518223C0
:1006B800000E8323000E84237A517503F3CF8BF049
:1006C800F4CF8CF08B5187278C518823000E892317
:1006D800000E8A2379517603F3CF8BF0F4CF8CF098
:1006E8008B5187278C518823000E8923000E8A237B
:1006F8007A517603F3CF8BF0F4CF8CF08B517C6F6B
:100708008C517D6F7E6B7F6B7EC07FF07DC07EF0ED
:100718007CC07DF07C6B7C5187277D5188237E517E
:1007280089237F518A2381C07CF082C07DF083C0F9
:100738007EF084C07FF0190EA7EF03F0D8907F33C6
:100748007E337D337C33E82EA2EF03F07C5187277C
:100758007D5188237E5189237F518A2383C084F069
:1007680082C083F081C082F0816B855186C07CF0A5
:100778007D6B7C27000E7D23820E7C258B6FFF0E00
:100788007D218C6FDDEF03F0D89087378837893764
:100798008A3784AFD2EF03F0D4EF03F0D5EF03F03C
:1007A8008781D89081378237833784378B07D8A0E1
:1007B8008C0789AFE2EF03F0E4EF03F0C8EF03F032
:1007C800000E856F84AFEBEF03F0EDEF03F011EF50
:1007D80004F0FF0E81157C6FFF0E82157D6FFF0EF2
:1007E80083157E6F7F0E84157F6F7C517D117E117E
:1007F8007F11D8B402EF04F004EF04F008EF04F01E
:10080800010E856F11EF04F087A10DEF04F00FEFD3
:1008180004F011EF04F004EF04F08551D8B417EF99
:1008280004F019EF04F03DEF04F0010E8727000EE5
:10083800882389238A238AA124EF04F026EF04F071
:100848003DEF04F087C07CF088C07DF089C07EF061
:100858008AC07FF07F357F337E337D337C337CC025
:1008680087F07DC088F07EC089F07FC08AF08B4B0E
:100878008C2B8CBF48EF04F08C5108E18B29D8A051
:1008880048EF04F04AEF04F054EF04F0000E876FCD
:10089800000E886F800E896F7F0E8A6F82EF04F0DA
:1008A8008CBF61EF04F08C5106E18B05D8B05FEF87
:1008B80004F061EF04F06DEF04F0000E876F000E96
:1008C800886F000E896F000E8A6F000E806F82EFAE
:1008D80004F08BC086F0FF0E8717FF0E88177F0E77
:1008E8008917000E8A1786A17CEF04F07EEF04F0CA
:1008F8007FEF04F0898FD89086318A6F80518A13F0
:1009080087C074F088C075F089C076F08AC077F027
:1009180012001250800B1B6E12501224216E11AE61
:1009280098EF04F09AEF04F09BEF04F02180215037
:10093800D8B4A1EF04F0A3EF04F0B6EF04F0212837
:10094800D8A4A9EF04F0ABEF04F0B3EF04F0000E65
:100958000F6E000E106E000E116E000E126E118ECC
:10096800BEEF04F0000E0F6E000E106E000E116E3A
:10097800000E126E1650800B1B1A16501624206E8D
:1009880015AEC9EF04F0CBEF04F0CCEF04F02080F3
:100998002050D8B4D2EF04F0D4EF04F0E7EF04F01D
:1009A8002028D8A4DAEF04F0DCEF04F0E4EF04F038
:1009B800000E136E000E146E000E156E000E166EED
:1009C800158EEFEF04F0000E136E000E146E000E7D
:1009D800156E000E166E2050D8B4F5EF04F0F7EF40
:1009E80004F0FFEF04F02150D8A4FDEF04F0FFEF6E
:1009F80004F009EF05F0000E0F6E000E106E000EE9
:100A0800116E000E126EA1EF06F015500F02F3CF13
:100A180026F0F4CF27F026501C6E1D6A1E6A1F6A46
:100A28002750226E236A246A256A14501002F3CFD5
:100A380026F0F4CF27F026501C26000E1D221E2279
:100A48001F2227502226000E23222422252213505B
:100A58001102F3CF26F0F4CF27F026501C26000E03
:100A68001D221E221F2227502226000E2322242266
:100A780025221EC01FF01DC01EF01CC01DF01C6AE0
:100A880013501002F3CF26F0F4CF27F026501C267F
:100A980027501D22000E1E22000E1F2214500F0286
:100AA800F3CF26F0F4CF27F026501C2627501D221E
:100AB800000E1E22000E1F221EC01FF01DC01EF0B9
:100AC8001CC01DF01C6A13500F02F3CF26F0F4CFA0
:100AD80027F026501C2627501D22000E1E22000E2D
:100AE8001F2215501002F3CF26F0F4CF27F026501E
:100AF800222627502322000E2422000E25221450DD
:100B08001102F3CF26F0F4CF27F0265022262750E3
:100B18002322000E2422000E252215501102F3CFA5
:100B280026F0F4CF27F02650176E2750186E196A52
:100B38001A6A19C01AF018C019F017C018F0176A05
:100B48001750222618502322195024221A502522E1
:100B58001CC017F01DC018F01EC019F01FC01AF0F5
:100B6800190EBCEF05F0D8901A3219321832173224
:100B7800E82EB7EF05F017502226185023221950F7
:100B880024221A5025221EC01FF01DC01EF01CC0B2
:100B98001DF01C6A205021C017F0186A1726000E95
:100BA8001822820E1724266EFF0E1820276EF2EFE9
:100BB80005F0D89022362336243625361FAEE7EFC7
:100BC80005F0E9EF05F0EAEF05F02280D8901C3631
:100BD8001D361E361F362606D8A0270624AEF7EF88
:100BE80005F0F9EF05F0DDEF05F0000E206E1FAE01
:100BF80000EF06F002EF06F026EF06F0FF0E1C14D9
:100C0800176EFF0E1D14186EFF0E1E14196E7F0E40
:100C18001F141A6E1750181019101A10D8B417EF9D
:100C280006F019EF06F01DEF06F0010E206E26EF14
:100C380006F022A022EF06F024EF06F026EF06F0D9
:100C480019EF06F02050D8B42CEF06F02EEF06F07E
:100C580052EF06F0010E2226000E2322242225221E
:100C680025A039EF06F03BEF06F052EF06F022C060
:100C780017F023C018F024C019F025C01AF01A3450
:100C88001A3219321832173217C022F018C023F05E
:100C980019C024F01AC025F0264A272A27BE5DEF7E
:100CA80006F0275008E12628D8A05DEF06F05FEF90
:100CB80006F069EF06F0000E226E000E236E800E1D
:100CC800246E7F0E256E97EF06F027BE76EF06F0AE
:100CD800275006E12604D8B074EF06F076EF06F048
:100CE80082EF06F0000E226E000E236E000E246EB8
:100CF800000E256E000E1B6E97EF06F026C021F041
:100D0800FF0E2216FF0E23167F0E2416000E251640
:100D180021A091EF06F093EF06F094EF06F0248EF1
:100D2800D8902130256E1B50251222C00FF023C009
:100D380010F024C011F025C012F0120034EC16F0A7
:100D4800C3EC15F08CEC15F06BEC15F0000E90EC84
:100D580011F0000EEEEC11F02DEC16F026EC16F06A
:100D6800DDEC15F0A9EC15F039EC16F041EC16F0B5
:100D78003FEC16F0B6EC15F03DEC16F0000E000155
:100D8800C66FC20EC06F000EC16F7CEC15F0730EFB
:100D98000001636F7B0E646F1EEC14F00001F9050F
:100DA800D8A4D9EF06F0DBEF06F0ECEF06F05B0E07
:100DB800636F7F0E646F1EEC14F0000E0001B06FBD
:100DC800050EB16F000E41EC10F0000E0001F96F36
:100DD800C0C063F0C1C064F0040EBE6FBEC065F051
:100DE800ECEC14F04D0E0001C219D8B4FEEF06F079
:100DF80000EF07F009EF07F06D0EC219D8A407EF4E
:100E080007F009EF07F036EF08F0650EC319D8A40C
:100E180010EF07F012EF07F036EF08F06E0EC41966
:100E2800D8A419EF07F01BEF07F036EF08F0750E9E
:100E3800C519D8A422EF07F024EF07F036EF08F021
:100E4800B30E636F780E646F1EEC14F07CEC15F033
:100E58000001CA6F38EF07F00D0E636F7E0E646FE6
:100E68001EEC14F02AEF07F03A0ECA613EEF07F0C5
:100E780040EF07F030EF07F02F0ECA6546EF07F096
:100E880048EF07F030EF07F0300ECA19D8A44FEF3B
:100E980007F051EF07F057EF07F0120E636F7F0E60
:100EA800646F1EEC14F0310E0001CA19D8A45FEF6C
:100EB80007F061EF07F063EF07F040EC08F0320E3F
:100EC8000001CA19D8A46BEF07F06DEF07F075EFB2
:100ED80007F0390E636F7D0E646F1EEC14F0A3ECFF
:100EE8000DF0330E0001CA19D8A47DEF07F07FEF8B
:100EF80007F081EF07F0BDEC10F0340E0001CA19BD
:100F0800D8A489EF07F08BEF07F0A8EF07F0FF0EE2
:100F1800636F7A0E646F1EEC14F0ACEC13F00001F2
:100F2800C76F310EC719D8A49CEF07F09EEF07F0E2
:100F3800A2EF07F048EC0FF0A8EF07F06F0E636F11
:100F48007F0E646F1EEC14F0350E0001CA19D8A488
:100F5800B0EF07F0B2EF07F0CFEF07F0AC0E636F1A
:100F68007B0E646F1EEC14F0ACEC13F00001C86F3C
:100F7800310EC819D8A4C3EF07F0C5EF07F0C9EFC1
:100F880007F04CEC12F0CFEF07F06F0E636F7F0E97
:100F9800646F1EEC14F0360E0001CA19D8A4D7EFFE
:100FA80007F0D9EF07F0DBEF07F0CDEC09F0370ECB
:100FB8000001CA19D8A4E3EF07F0E5EF07F0EDEF59
:100FC80007F0D60E636F7E0E646F1EEC14F05DECB6
:100FD80013F0380E0001CA19D8A4F5EF07F0F7EF9F
:100FE80007F024EF08F0BC0E636F7F0E646F1EECF1
:100FF80014F0F40E0001636F7E0E646F1EEC14F0A3
:10100800ACEC13F00001C96F310EC919D8A40FEF69
:1010180008F011EF08F017EF08F0F3EC15F0E8EC22
:1010280015F024EF08F0300EC919D8A41EEF08F007
:1010380020EF08F024EF08F008EC16F0FEEC15F0AD
:10104800390E0001CA19D8A42CEF08F02EEF08F0C9
:10105800D2EF06F0C90E636F7F0E646F1EEC14F0BA
:10106800D2EF06F0F00E636F790E646F1EEC14F089
:10107800D2EF06F014EF00F0000E0001716F000EC1
:10108800706F090EFC654BEF08F04DEF08F055EF57
:1010980008F0FB05D8A453EF08F055EF08F0C6EFA9
:1010A80009F07F0E0001636F790E646F1EEC14F077
:1010B800DF0E0001FC25D96EDA6A000EDA22ACECEC
:1010C80013F0DF6ED50E0001FC25D96EDA6A000E2A
:1010D800DA22ACEC13F0DF6ECB0E0001FC25D96EE2
:1010E800DA6A000EDA22ACEC13F0DF6EA00E000113
:1010F800636F7F0E646F1EEC14F04C0E0001FC252C
:10110800D96EDA6A000EDA22ACEC13F0DF6E420E0A
:101118000001FC25D96EDA6A000EDA22ACEC13F075
:10112800DF6E1E0E0001FC25D96EDA6A010EDA2286
:10113800ACEC13F0DF6EAE0E0001636F7F0E646FD0
:101148001EEC14F0140E0001FC25D96EDA6A010EAB
:10115800DA22ACEC13F0DF6E0A0E0001FC25D96E22
:10116800DA6A010EDA22ACEC13F0DF6E000E000131
:10117800FC25D96EDA6A010EDA22ACEC13F0DF6EC8
:10118800550E0001636F7E0E646F1EEC14F0DF0EC7
:101198000001FC25D96EDA6A000EDA22DF50696F89
:1011A8006951640DF3CF6AF0F4CF6BF0D50EFC25CE
:1011B800D96EDA6A000EDA22DF506C6F6C510A0DB4
:1011C800F3506A27F4506B23CB0EFC25D96EDA6AEC
:1011D800000EDA22DF506D6F6D516A27000E6B2307
:1011E800300E6A256E6FEB0E6B216F6F4C0EFC256F
:1011F800D96EDA6A000EDA22DF50696F6951640D20
:10120800F3CF6AF0F4CF6BF0420EFC25D96EDA6AA0
:10121800000EDA22DF506C6F6C510A0DF3506A270A
:10122800F4506B231E0EFC25D96EDA6A010EDA2201
:10123800DF506D6F6D516A27000E6B23300E6A25E3
:10124800706FEB0E6B21716F2D0E6E5D010E6F5975
:10125800D8B031EF09F033EF09F03EEF09F02D0E69
:10126800705D010E7159D8A03CEF09F03EEF09F00E
:1012780046EF09F0760E636F7E0E646F1EEC14F075
:1012880055EF08F0650E636F7D0E646F1EEC14F069
:10129800DF0E0001FC25D96EDA6A000EDA22DF5073
:1012A8009BEC15F0D50E0001FC25D96EDA6A000E0C
:1012B800DA22DF509BEC15F0CB0E0001FC25D96E2D
:1012C800DA6A000EDA22DF509BEC15F02C0E9BEC4C
:1012D80015F04C0E0001FC25D96EDA6A000EDA22F0
:1012E800DF509BEC15F0420E0001FC25D96EDA6A3E
:1012F800000EDA22DF509BEC15F01E0E0001FC25D3
:10130800D96EDA6A010EDA22DF509BEC15F02C0E4A
:101318009BEC15F0140E0001FC25D96EDA6A010E5B
:10132800DA22DF509BEC15F00A0E0001FC25D96E7D
:10133800DA6A010EDA22DF509BEC15F0000E00018C
:10134800FC25D96EDA6A010EDA22DF509BEC15F023
:101358002E0E9BEC15F00001FB51D8A4B6EF09F056
:10136800B8EF09F0CCEF09F0E40E636F7D0E646FFF
:101378001EEC14F00001FC2BFC51300F9BEC15F017
:10138800CCEF09F0390E636F7B0E646F1EEC14F01E
:1013980012004D0E0001636F7C0E646F1EEC14F09A
:1013A800000E0001916F000E926F400E936F420E77
:1013B800946F0A0E786FD70E796F230E7A6F3C0EF2
:1013C8007B6FF5C066F0F6C067F0686B696B000E5E
:1013D8001FEC0BF066C074F067C075F068C076F05B
:1013E80069C077F077EC02F074C08DF075C08EF0AC
:1013F80076C08FF077C090F016EC00F08DC09DF0AD
:101408008EC09EF08FC09FF090C0A0F041EC0EF00F
:1014180000019D519BEC15F0000E0001916F000E2C
:10142800926F400E936F420E946FCD0E786FCC0E74
:10143800796FCC0E7A6F3D0E7B6F000E646F640E71
:10144800636FF5C061F0F6C062F052EC14F0000171
:1014580061C066F062C067F0686B696B000E1FECD4
:101468000BF066C074F067C075F068C076F069C0AC
:1014780077F077EC02F074C08DF075C08EF076C00E
:101488008FF077C090F016EC00F08DC09DF08EC004
:101498009EF08FC09FF090C0A0F041EC0EF00001CC
:1014A8009D519BEC15F0000E0001646F640E636F94
:1014B800F5C061F0F6C062F052EC14F061C0A7F01C
:1014C80062C0A8F0A7C061F0A8C062F0000E0001D9
:1014D800646F0A0E636F52EC14F000016151300F13
:1014E8009BEC15F02C0E9BEC15F0000E0001916F93
:1014F800000E926F400E936F420E946F0A0E786F33
:10150800D70E796F230E7A6F3C0E7B6FF1C066F0B1
:10151800F2C067F0686B696B000E1FEC0BF066C0D9
:1015280074F067C075F068C076F069C077F077EC42
:1015380002F074C08DF075C08EF076C08FF077C061
:1015480090F016EC00F08DC09DF08EC09EF08FC01C
:101558009FF090C0A0F041EC0EF000019D519BEC73
:1015680015F0000E0001916F000E926F400E936F00
:10157800420E946FCD0E786FCC0E796FCC0E7A6FC9
:101588003D0E7B6F000E646F640E636FF1C061F0F7
:10159800F2C062F052EC14F0000161C066F062C063
:1015A80067F0686B696B000E1FEC0BF066C074F097
:1015B80067C075F068C076F069C077F077EC02F024
:1015C80074C08DF075C08EF076C08FF077C090F043
:1015D80016EC00F08DC09DF08EC09EF08FC09FF07D
:1015E80090C0A0F041EC0EF000019D519BEC15F06D
:1015F800000E0001646F640E636FF1C061F0F2C009
:1016080062F052EC14F061C0A7F062C0A8F0A7C065
:1016180061F0A8C062F0000E0001646F0A0E636FEB
:1016280052EC14F000016151300F9BEC15F02E0EB6
:101638009BEC15F0120000016E6F00016E51D8B4DA
:1016480028EF0BF02AEF0BF04CEF0BF069BF31EFEE
:101658000BF02FEF0BF04CEF0BF066C06AF067C091
:101668006BF068C06CF069C06DF06A1F6B1F6C1F6F
:101678006D1F6A2B000E6B236C236D236AC070F0FC
:101688006BC071F06CC072F06DC073F054EF0BF06A
:1016980066C070F067C071F068C072F069C073F01E
:1016A8006651671168116911D8A45DEF0BF05FEFFF
:1016B8000BF069EF0BF0000E666F000E676F000EFF
:1016C800686F000E696FFAEF0BF0960E6F6F73EF8D
:1016D8000BF06F2BD8907333723371337033000E65
:1016E80070156A6F000E71156B6F000E72156C6FB6
:1016F800FE0E73156D6F6A516B116C116D11D8A4C4
:1017080088EF0BF08AEF0BF06DEF0BF098EF0BF012
:101718006F2B010E7027000E712372237323D8904C
:101728007333723371337033000E70156A6F000EA5
:1017380071156B6F000E72156C6FFF0E73156D6F60
:101748006A516B116C116D11D8A4ADEF0BF0AFEFAE
:101758000BF08CEF0BF0B7EF0BF06F07D8907037EA
:1017680071377237733772BFBCEF0BF0BEEF0BF0F7
:10177800C6EF0BF0020E6F61C4EF0BF0C6EF0BF073
:10178800B1EF0BF06FB1CBEF0BF0CDEF0BF0CEEF6D
:101798000BF0729FD8906F336FC06AF06B6B6C6BF5
:1017A8006D6B6AC06DF06C6B6B6B6A6B6A51701312
:1017B8006B5171136C5172136D5173136E51D8B410
:1017C800E8EF0BF0EAEF0BF0F2EF0BF069BFF1EF87
:1017D8000BF0EFEF0BF0F2EF0BF0738F70C066F0C9
:1017E80071C067F072C068F073C069F01200096ECA
:1017F8000950D8B402EF0CF004EF0CF026EF0CF00F
:1018080004BE0BEF0CF009EF0CF026EF0CF001C052
:1018180005F002C006F003C007F004C008F0051E7A
:10182800061E071E081E052A000E06220722082289
:1018380005C00BF006C00CF007C00DF008C00EF094
:101848002EEF0CF001C00BF002C00CF003C00DF03D
:1018580004C00EF00150021003100410D8A437EF92
:101868000CF039EF0CF043EF0CF0000E016E000E97
:10187800026E000E036E000E046ED4EF0CF0960E8E
:101888000A6E4DEF0CF00A2AD8900E320D320C3247
:101898000B32000E0B14056E000E0C14066E000EB3
:1018A8000D14076EFE0E0E14086E05500610071074
:1018B8000810D8A462EF0CF064EF0CF047EF0CF0BE
:1018C80072EF0CF00A2A010E0B26000E0C220D22D4
:1018D8000E22D8900E320D320C320B32000E0B1441
:1018E800056E000E0C14066E000E0D14076EFF0E2A
:1018F8000E14086E0550061007100810D8A487EFBC
:101908000CF089EF0CF066EF0CF091EF0CF00A0682
:10191800D8900B360C360D360E360DBE96EF0CF001
:1019280098EF0CF0A0EF0CF0020E0A609EEF0CF09E
:10193800A0EF0CF08BEF0CF00AB0A5EF0CF0A7EFBE
:101948000CF0A8EF0CF00D9ED8900A320AC005F0F2
:10195800066A076A086A05C008F0076A066A056A1F
:1019680005500B1206500C1207500D1208500E129B
:101978000950D8B4C2EF0CF0C4EF0CF0CCEF0CF067
:1019880004BECBEF0CF0C9EF0CF0CCEF0CF00E8ED0
:101998000BC001F00CC002F00DC003F00EC004F043
:1019A80012000600F3CF3CF0F4CF3DF0F6CF3EF046
:1019B800F7CF3FF0F8CF40F0F5CF41F0F2A4E7EFD2
:1019C8000CF0E9EF0CF002EF0DF05750D8A4EFEF50
:1019D8000CF0F1EF0CF0F4EF0CF0000EA9EC12F0A3
:1019E800EBC0F1F0ECC0F2F0190E036E7C0E046E41
:1019F800E8EC13F0000E0001FA6FF2949EA007EFD6
:101A08000DF009EF0DF022EF0DF05850D8A40FEFAC
:101A18000DF011EF0DF014EF0DF0000E03EC13F0C4
:101A2800E9C0F5F0EAC0F6F0E50E036E7B0E046E31
:101A3800E8EC13F0000E0001FA6F9E90F2A227EF77
:101A48000DF029EF0DF043EF0DF01A0E3B6EF80E76
:101A5800E82EFED73B2EFCD700D081A036EF0DF044
:101A680038EF0DF03EEF0DF0DD0E036E7C0E046EC8
:101A7800E8EC13F01CEC16F012EC16F0F292F0A061
:101A880048EF0DF04AEF0DF06CEF0DF01A0E3B6EBB
:101A9800F80EE82EFED73B2EFCD700D081A257EFD8
:101AA8000DF059EF0DF05FEF0DF0900E036E7D0E07
:101AB800046EE8EC13F0000E03EC13F0000E0001C6
:101AC800F66F000EF56F000E586E000EFA6FF0906C
:101AD800F0A271EF0DF073EF0DF095EF0DF01A0E07
:101AE8003B6EF80EE82EFED73B2EFCD700D081A423
:101AF80080EF0DF082EF0DF088EF0DF0BA0E036E57
:101B08007D0E046EE8EC13F0000EA9EC12F0000E46
:101B18000001F26F000EF16F000E576E000EFA6FA3
:101B2800F09241C0F5FF40C0F8FF3FC0F7FF3EC04C
:101B3800F6FF3DC0F4FF3CC0F3FF599211000001CD
:101B4800FC51300F686FD60E636F7F0E646F1EEC0A
:101B580014F0000168519BEC15F0970E0001636FBB
:101B68007E0E646F1EEC14F0000E0001696F37EFF3
:101B78000EF0E20E636F7F0E646F1EEC14F000012E
:101B88006951300F9BEC15F0580E0001636F7F0E02
:101B9800646F1EEC14F0DF0E00016925D96EDA6A55
:101BA800000EDA22DF509BEC15F0D50E00016925F6
:101BB800D96EDA6A000EDA22DF509BEC15F0CB0EF4
:101BC80000016925D96EDA6A000EDA22DF509BEC33
:101BD80015F02C0E9BEC15F04C0E00016925D96E02
:101BE800DA6A000EDA22DF509BEC15F0420E000193
:101BF8006925D96EDA6A000EDA22DF509BEC15F0FF
:101C08001E0E00016925D96EDA6A010EDA22DF504C
:101C18009BEC15F02C0E9BEC15F0140E00016925B9
:101C2800D96EDA6A010EDA22DF509BEC15F00A0E43
:101C380000016925D96EDA6A010EDA22DF509BECC1
:101C480015F0000E00016925D96EDA6A010EDA2254
:101C5800DF509BEC15F02E0E9BEC15F00A0E9BEC5A
:101C680015F00001692BFC51695DD8A03EEF0EF01C
:101C780040EF0EF0BDEF0DF0120000019F35A035CA
:101C8800A66FA651D8A44BEF0EF04DEF0EF057EF0C
:101C98000EF0000E9D6F000E9E6F000E9F6F000EDF
:101CA800A06FC4EF0EF09DC0A1F09EC0A2F09FC02F
:101CB800A3F0A0C0A4F0200E67EF0EF0D890A433D4
:101CC800A333A233A133E82E62EF0EF0A151A56F22
:101CD8009F8FFF0E9D17FF0E9E17FF0E9F17000E7A
:101CE800A017960EA65FA6BF7EEF0EF07CEF0EF053
:101CF80094EF0EF0A651800A970FD8B086EF0EF039
:101D080088EF0EF08AEF0EF04DEF0EF0D890A0336A
:101D18009F339E339D33A63F8AEF0EF0ACEF0EF053
:101D28001F0EA6659AEF0EF09CEF0EF0A4EF0EF0D2
:101D38004DEF0EF0D8909D379E379F37A037A607F6
:101D4800A651D8A4AAEF0EF0ACEF0EF09EEF0EF05D
:101D5800A551D8B4B2EF0EF0B4EF0EF0BCEF0EF010
:101D6800A01F9F1F9E1F9D6D000E9E239F23A023D3
:101D78009DC09DF09EC09EF09FC09FF0A0C0A0F0A7
:101D880012002A342B34316E3150D8A4CEEF0EF025
:101D9800D0EF0EF0DAEF0EF0000E286E000E296E6E
:101DA800000E2A6E000E2B6E47EF0FF028C02CF0A5
:101DB80029C02DF02AC02EF02BC02FF0200EEAEFFC
:101DC8000EF0D8902F322E322D322C32E82EE5EF3D
:101DD8000EF02C50306E2A8EFF0E2816FF0E291694
:101DE800FF0E2A16000E2B16960E315E31BE01EF3D
:101DF8000FF0FFEF0EF017EF0FF03150800A970F3A
:101E0800D8B009EF0FF00BEF0FF00DEF0FF0D0EF98
:101E18000EF0D8902B322A3229322832313E0DEF7B
:101E28000FF02FEF0FF01F0E31641DEF0FF01FEFB3
:101E38000FF027EF0FF0D0EF0EF0D89028362936A4
:101E48002A362B3631063150D8A42DEF0FF02FEF5C
:101E58000FF021EF0FF03050D8B435EF0FF037EF17
:101E68000FF03FEF0FF02B1E2A1E291E286C000EC4
:101E780029222A222B2228C028F029C029F02AC08A
:101E88002AF02BC02BF012000001FC51D8B44FEF00
:101E98000FF051EF0FF0BEEF0FF0000EB56FB3EF7C
:101EA8000FF0460E636F7F0E646F1EEC14F0000196
:101EB800B551300F9BEC15F00A0E9BEC15F0D50EC2
:101EC8000001B525D96EDA6A000EDA22DF50B06F4C
:101ED800CB0EB525D96EDA6A000EDA22DF50B16F63
:101EE800DF0EB525D96EDA6A000EDA22DF5041EC32
:101EF80010F0420E0001B525D96EDA6A000EDA221A
:101F0800DF50B06F1E0EB525D96EDA6A010EDA22DF
:101F1800DF50B16F4C0EB525D96EDA6A000EDA22A1
:101F2800DF50C5EC0FF00A0E0001B525D96EDA6A4C
:101F3800010EDA22DF50616F000EB525D96EDA6A1C
:101F4800010EDA22DF50626F140EB525D96EDA6AF7
:101F5800010EDA22DF502AEC11F00001B52BFC51FA
:101F6800B55DD8A0BAEF0FF0BCEF0FF055EF0FF04A
:101F7800C4EF0FF0320E636F7E0E646F1EEC14F028
:101F880012000001B46F0001FA05D8B4CEEF0FF0CB
:101F9800D0EF0FF0C7EF0FF0B451640DF3CFB2F0EC
:101FA800F4CFB3F0B0510A0DF350B227F450B32375
:101FB800B151B227000EB323300EB225EB6FEB0EF2
:101FC800B321EC6FF151EB5D616FF251EC59626F27
:101FD800CBEC14F061C065F062C066F0000E000141
:101FE800686F050E676F57EC15F065C0F3F066C0B3
:101FF800F4F0910E0001636F7F0E646F1EEC14F015
:102008000001F3519BEC15F00A0E9BEC15F0000152
:10201800EB51F15DEC51F259D8B015EF10F017EF14
:1020280010F01AEF10F08C9226EF10F0F151EB5DE2
:10203800F251EC59D8B023EF10F025EF10F026EF4D
:1020480010F08C82F151EB1909E1F251EC19D8B476
:1020580030EF10F032EF10F040EF10F0010EFA6F91
:10206800F3C061F0F4C062F008EC15F0000EEEEC7D
:1020780011F0320E90EC11F012000001B46F000163
:10208800FA05D8B44AEF10F04CEF10F043EF10F017
:10209800B451640DF3CFB2F0F4CFB3F0B0510A0DE0
:1020A800F350B227F450B323B151B227000EB32333
:1020B800300EB225E96FEB0EB321EA6FF551E95DF9
:1020C800616FF651EA59626FCBEC14F061C065F0AC
:1020D80062C066F0000E0001686F050E676F57EC6E
:1020E80015F065C0F7F066C0F8F0820E0001636F66
:1020F8007F0E646F1EEC14F00001F7519BEC15F095
:102108000A0E9BEC15F00001E951F55DEA51F6590C
:10211800D8B091EF10F093EF10F096EF10F08C9686
:10212800A2EF10F0F551E95DF651EA59D8B09FEFEA
:1021380010F0A1EF10F0A2EF10F08C86F551E9191C
:1021480009E1F651EA19D8B4ACEF10F0AEEF10F08F
:10215800BCEF10F0010EFA6FF7C061F0F8C062F042
:1021680023EC15F0000E90EC11F0320EEEEC11F0AD
:1021780012000001FC51D8B4C4EF10F0C6EF10F003
:1021880023EF11F0010EFB6FA3EC0DF00B0E000115
:10219800636F7D0E646F1EEC14F0ACEC13F000015D
:1021A8007A6FE8EF10F0800E636F7A0E646F1EECA2
:1021B80014F0C40E0001636F7A0E646F1EEC14F005
:1021C800ACEC13F000017A6FFC51726F736BD00E98
:1021D800746FFF0E756F7A51766F776B745176272F
:1021E800755177237251765D7751800A786F7351F4
:1021F800800A7859D8B003EF11F005EF11F0D7EF46
:1022080010F0B70E636F7E0E646F1EEC14F00001C1
:102218007A519BEC15F00A0E9BEC15F000017A51EF
:10222800D00F7A6FFCC079F07AC0FCF040EC08F06F
:1022380079C0FCF0000E0001FB6F29EF11F03B0E96
:10224800636F7A0E646F1EEC14F012000001676F62
:10225800300E0001636FEB0E646F6751640DF3CFAE
:1022680065F0F4CF66F061510A0DF3506527F4501C
:10227800662362516527000E662363516527645102
:10228800662365C0EDF066C0EEF0000EEEBFFF0EEF
:10229800EF6FF06FED51EE11EF11F011D8B457EF69
:1022A80011F059EF11F08FEF11F0000E686F7BEF0E
:1022B80011F08D80020E0001646F040E636FBA0E78
:1022C800E82EFED7632FFCD7642FFAD700F08D9045
:1022D800020E0001646F040E636FBA0EE82EFED77B
:1022E800632FFCD7642FFAD700F00001682B68C071
:1022F80063F0646B656B666BED51635DEE51645919
:10230800EF516559F0516659D8A08DEF11F08FEF54
:1023180011F05DEF11F012000001AD6F0A0E00011F
:10232800786FD70E796F230E7A6F3C0E7B6FAD51A5
:10233800666F676B686B696B010E1FEC0BF066C00C
:1023480074F067C075F068C076F069C077F077EC14
:1023580002F074C0A9F075C0AAF076C0ABF077C0DF
:10236800ACF0000E0001786F000E796F7A0E7A6F6C
:10237800440E7B6FA9C074F0AAC075F0ABC076F0AC
:10238800ACC077F077EC02F074C09DF075C09EF099
:1023980076C09FF077C0A0F041EC0EF09DC0AEF083
:1023A8009EC0AFF0AEC0A7F0030E0001A717A73B71
:1023B800BA50A719CF0BA719BA6EAEC0A7F0AFC015
:1023C800A8F0D890A833A733D890A833A733A7513B
:1023D800BB6E12000001AD6F0A0E0001786FD70EB8
:1023E800796F230E7A6F3C0E7B6FAD51666F676B0A
:1023F800686B696B010E1FEC0BF066C074F067C068
:1024080075F068C076F069C077F077EC02F074C0B8
:10241800A9F075C0AAF076C0ABF077C0ACF0000E9A
:102428000001786F000E796F7A0E7A6F440E7B6F19
:10243800A9C074F0AAC075F0ABC076F0ACC077F054
:1024480077EC02F074C09DF075C09EF076C09FF0E6
:1024580077C0A0F041EC0EF09DC0AEF09EC0AFF08A
:10246800AEC0A7F0030E0001A717A73BBD50A719E0
:10247800CF0BA719BD6EAEC0A7F0AFC0A8F0D8901B
:10248800A833A733D890A833A733A751BE6E12003C
:10249800000E0001686FDF0E6825D96EDA6A000E3B
:1024A800DA22000EDF6ED50E6825D96EDA6A000EC4
:1024B800DA22000EDF6ECB0E6825D96EDA6A000EBE
:1024C800DA22000EDF6E4C0E6825D96EDA6A000E2D
:1024D800DA22000EDF6E420E6825D96EDA6A000E27
:1024E800DA22000EDF6E1E0E6825D96EDA6A010E3A
:1024F800DA22000EDF6E140E6825D96EDA6A010E34
:10250800DA22000EDF6E0A0E6825D96EDA6A010E2D
:10251800DA22000EDF6E000E6825D96EDA6A010E27
:10252800DA22000EDF6E682B090E68659EEF12F046
:10253800A0EF12F04FEF12F0000EFC6F7D0E636FEC
:102548007C0E646F1EEC14F01200386E0A0E136EC7
:10255800D70E146E230E156E3C0E166E3850016E93
:10256800026A036A046A010EFBEC0BF001C00FF06B
:1025780002C010F003C011F004C012F08DEC04F09A
:102588000FC034F010C035F011C036F012C037F06B
:10259800000E136E000E146E7A0E156E440E166E33
:1025A80034C00FF035C010F036C011F037C012F04B
:1025B8008DEC04F00FC028F010C029F011C02AF0EB
:1025C80012C02BF0C5EC0EF028C039F029C03AF043
:1025D80039C032F0030E3216323ABA503218CF0BE5
:1025E8003218BA6E39C032F03AC033F0D89033326C
:1025F8003232D890333232323250BB6E1200386EDB
:102608000A0E136ED70E146E230E156E3C0E166E40
:102618003850016E026A036A046A010EFBEC0BF083
:1026280001C00FF002C010F003C011F004C012F096
:102638008DEC04F00FC034F010C035F011C036F046
:1026480012C037F0000E136E000E146E7A0E156E5F
:10265800440E166E34C00FF035C010F036C011F0BD
:1026680037C012F08DEC04F00FC028F010C029F02C
:1026780011C02AF012C02BF0C5EC0EF028C039F0BA
:1026880029C03AF039C032F0030E3216323ABD5042
:102698003218CF0B3218BD6E39C032F03AC033F061
:1026A800D89033323232D890333232323250BE6E12
:1026B8001200EE0E0001636F7F0E646F1EEC14F0C3
:1026C800ACEC13F00001B56FACEC13F00001B66F81
:1026D800ACEC13F00001B76FF60E636F7F0E646FFA
:1026E8001EEC14F0ACEC13F00001B86FACEC13F076
:1026F8000001B96FACEC13F00001BA6F2C0E636FD8
:102708007F0E646F1EEC14F0ACEC13F00001BB6F8D
:10271800ACEC13F00001BC6FACEC13F00001BD6F22
:10272800B6C0B0F0B7C0B1F0B55141EC10F0B9C0C7
:10273800B0F0BAC0B1F00001B851C5EC0FF0BCC0A0
:1027480061F0BDC062F00001BB512AEC11F012002B
:1027580085EC14F0000E0001686FD5EF13F09EAA07
:10276800B8EF13F0BAEF13F0B3EF13F0AECF68F091
:10277800000EAE6E3A0E00016861C5EF13F0C7EFA8
:1027880013F0CFEF13F0300E6861CDEF13F0CFEFF9
:1027980013F0D5EF13F0AD0E636F7C0E646F1EEC73
:1027A80014F03A0E00016861DCEF13F0DEEF13F06D
:1027B800B3EF13F02F0E6865E4EF13F0E6EF13F0B4
:1027C800B3EF13F068511200A8EC14F0000E076E76
:1027D8000728D8A4F2EF13F0F4EF13F0F6EF13F094
:1027E8001DEF14F007500324056E000E0420066E3A
:1027F80005C0F6FF06C0F7FF0800F5500009D8A489
:1028080008EF14F00AEF14F00CEF14F01DEF14F0B9
:1028180007500324056E000E0420066E05C0F6FF5F
:1028280006C0F7FF0800F550D0EC15F0072AECEFCA
:1028380013F0120085EC14F0000E0001676F675169
:102848006325656F000E6421666F65C0F6FF66C07C
:10285800F7FF0800F5500009D8A435EF14F037EF5A
:1028680014F039EF14F051EF14F067516325656FD8
:10287800000E6421666F65C0F6FF66C0F7FF0800AA
:10288800F5509BEC15F00001672B6729D8A44FEF92
:1028980014F051EF14F023EF14F01200000163510B
:1028A8006411D8B45AEF14F05CEF14F080EF14F010
:1028B800010E656F64EF14F0D89063376437652BA9
:1028C80064AF69EF14F06BEF14F060EF14F063512C
:1028D800615D64516259D8A074EF14F076EF14F07A
:1028E8007AEF14F06351615F6451625BD89064338E
:1028F8006333652F6BEF14F061C061F062C062F062
:102908001200ABA28AEF14F08CEF14F09DEF14F0D4
:10291800AECF61F0AECF61F0AECF61F0AECF61F077
:10292800AB98AB88ABB29BEF14F09DEF14F08CEF33
:1029380014F0ABA4A2EF14F0A4EF14F0A7EF14F076
:10294800AE50AC9AAC8A1200ABA2ADEF14F0AFEF68
:1029580014F0C0EF14F0AECF01F0AECF01F0AECF5F
:1029680001F0AECF01F0AB98AB88ABB2BEEF14F07C
:10297800C0EF14F0AFEF14F0ABA4C5EF14F0C7EF3D
:1029880014F0CAEF14F0AE50AC9AAC8A12000001F1
:1029980062BFD9EF14F0625106E16105D8B0D7EFF4
:1029A80014F0D9EF14F0E7EF14F061C063F062C0DF
:1029B80064F0631F641F634B642B63C061F064C0E1
:1029C80062F0EBEF14F061C061F062C062F01200D7
:1029D80085EC14F0000E0001666FFEEF14F06651EE
:1029E8006325D96E000E6421DA6E7CEC15F0DF6E7B
:1029F8000001662B6551665DD8A005EF15F007EF5D
:102A080015F0F3EF14F01200000161516211D8B40F
:102A180010EF15F012EF15F020EF15F061510008D6
:102A2800636F6251D8A0E82A0008646F6451D76EBA
:102A380063C0D6FF22EF15F0D768D66812000001F0
:102A480061516211D8B42BEF15F02DEF15F03BEF63
:102A580015F061510108636F6251D8A0E82A000897
:102A6800646F6451CF6E63C0CEFF3DEF15F0CF6841
:102A7800CE68120001EE00F0280EEE6AE806FDE1CD
:102A880000EECBF0320EEE6AE806FDE100EE42F011
:102A9800170EEE6AE806FDE159905992000EF86E9D
:102AA8000001A2EF06F0000165516703F3CF69F05A
:102AB800F4CF6AF065516803F3506A2766516703DB
:102AC800F3506A2769C065F06AC066F012009494F2
:102AD800BD50F00B0C09BD6EF90ECB6E030ECA1279
:102AE800CF0EBD16000EBE6E000ECC6ECA8412004C
:102AF80085EC14F09EAA83EF15F085EF15F07EEFB4
:102B080015F0AECF62F0000EAE6E000162511200F9
:102B180094920F0EBA12F90ECB6E030ECA12CF0E94
:102B2800BA16000EBB6E000ECC6ECA8412000001ED
:102B3800626F85EC14F0ACA2A4EF15F0A6EF15F0C7
:102B48009FEF15F062C0ADFF1200CD90CD8ECD96EF
:102B5800CD8CCD82CD849480000ECF6E000ECE6ECB
:102B6800CD801200F292F288F18C9380F090F0867A
:102B7800F18A9382F092F088F18893841200948C01
:102B8800948E100EAF6EAC84B886AC9CAC8AAC98B0
:102B9800AB8EAB9CAB881200026EA8EC14F0ACA212
:102BA800D8EF15F0DAEF15F0D3EF15F002C0ADFF4E
:102BB8001200D59ED59CD58AD5989288000ED76EDE
:102BC800000ED66ED58E12008C82010E0001FA6FAF
:102BD800000EEEEC11F0320E90EC11F012008C8623
:102BE800010E0001FA6F000E90EC11F0320EEEECBF
:102BF80011F01200010E586E8C92010E0001FA6F4E
:102C0800320E90EC11F01200010E586E8C96010EE7
:102C18000001FA6F320EEEEC11F01200010E586E40
:102C28008C92010E0001FA6F320EA9EC12F012001C
:102C3800010E586E8C96010E0001FA6F320E03ECED
:102C480013F012009590959294928C908C928B929E
:102C580012009594959694948C948C968B9412006B
:102C68000F0EC112700ED36E1200D09EF28CF28E2F
:0E2C78001200969012009D801200F28A120047
:1078B200000A283029436F6D6F2066756E63696F09
:1078C2006E612020283129416772656761722063E9
:1078D2006F6F7264656E61646120202028322949CD
:1078E2006D7072696D697220636F6F7264656E612B
:1078F2006461730A28332945646974617220636F75
:107902006F7264656E616461202020283429496E9B
:1079120069636961722050726F6772616D612020C4
:107922002020202835295265696E696369617220B9
:10793200746F646173206C617320636F6F7264652E
:107942006E616461730A283629436F6F7264656ED3
:107952006164612061637475616C2020202837297D
:107962004D6F76696D69656E746F4C6962726520E0
:10797200283829486F6D652F496E660A00496E7472
:10798200726F6475636520656E20656C207369672C
:107992007569656E7465206F7264656E206C6173C3
:1079A200207661726961626C657320612075736112
:1079B2007220286E6F2075736573206C617320636B
:1079C2006F6D6173293A20636F6F7264582C636F15
:1079D2006F7264592C232064652076656365732079
:1079E200612070726573696F6E6172205A005475FE
:1079F200766973746520756E206572726F722C20C1
:107A020065736372696265206C612070616C61628A
:107A1200726120274D656E7527206F20276D656E78
:107A220075272070617261206163636564657220ED
:107A3200616C206D656E750A004E6F20707565640D
:107A42006573206D6F6469666963617220636F6F2D
:107A52007264656E6164617320706F722071756506
:107A62002061756E206E6F20686173206167726598
:107A72006761646F206E696E67756E610A00457298
:107A8200726F722C206573746173207175657269EF
:107A9200656E646F206D6F646966696361722075DB
:107AA2006E6120636F6F7264656E616461207175CF
:107AB200652061756E206E6F206167726567617304
:107AC2000A004375616C20636F6F7264656E616456
:107AD200612071756965726573206D6F646966698D
:107AE2006361722C20656C6967652076616C6F72C8
:107AF20065732076616C69646F733F0A0045737425
:107B0200617320706F7220696E6963617220656CA7
:107B12002070726F6772616D612C2065737461737E
:107B22002073656775726F3F2028312920536920C1
:107B3200285829204E6F00596120657374616E20A8
:107B42006C617320313020636F6F7264656E6164A3
:107B52006173206C6C656E61732C206E6F20707582
:107B6200656465732061677265676172206D617318
:107B72000045736372696265206C612070616C619B
:107B820062726120274D656E7527206F20276D6513
:107B92006E7527207061726120616363656465722E
:107BA20020616C206D656E750A005661732061203C
:107BB200626F7272617220746F646173206C6173A0
:107BC20020636F6F7264656E616461732C207365EC
:107BD2006775726F3F202831292053692028582960
:107BE2004E6F00496E74657272757063696F6E20B4
:107BF200544D52312C206C6C656761737465206141
:107C020020636F6F7264656E616461206465736581
:107C120061646120580A00496E74657272757063FE
:107C2200696F6E20544D52302C206C6C6567617305
:107C32007465206120636F6F7264656E6164612098
:107C42006465736561646120590A004C6173206345
:107C52006F6F7264656E61646173206163747561D4
:107C62006C657320736F6E2028582C20592C205479
:107C72006F71756573205A29200A004C6973746FFD
:107C82002C20746F646173206C617320636F6F7258
:107C920064656E616461732068616E207369646FEC
:107CA20020626F7272616461730A00536F6C6F209D
:107CB20070756564657320696E74726F647563694B
:107CC20072206E756D65726F732C207072756562AD
:107CD20061206465206E7565766F004F6375727200
:107CE200696F206C6120696E746572727570636968
:107CF2006F6E206C696D697453776974636833457C
:107D0200737175696E61730A004375616C206465F5
:107D120020657374617320636F6F7264656E616452
:107D220061732071756965726573206D6F64696630
:107D3200696361723F0A00456C6567697374652007
:107D42006C61206F7063696F6E20646520696D706D
:107D520072696D697220636F6F7264656E616461CE
:107D6200730A00436F6F7264656E616461207265AD
:107D72006369626964612C206C6F20717565207281
:107D820065636962696D6F73206675653A004F635A
:107D9200757272696F206C6120696E74657272759A
:107DA2007063696F6E206C696D697453776974636F
:107DB20068486F6D65580A004F63757272696F206B
:107DC2006C6120696E74657272757063696F6E2082
:107DD2006C696D6974537769746368486F6D65592E
:107DE2000A0048617320616772656761646F20658C
:107DF200737465206E756D65726F20646520636FA4
:107E02006F7264656E616461733A00456C656363A9
:107E1200696F6E206E6F2076616C69646120767581
:107E2200656C7661206120696E74656E74617200A2
:107E32004E6F2068617320616772656761646F20AD
:107E42006E696E67756E6120636F6F7264656E61D5
:107E5200646100526563696269202320646520764B
:107E62006563657320612070726573696F6E6172FC
:107E7200205A0A004D65746973746520756E61201D
:107E8200636F6F7264656E61646120696E76616CA6
:107E92006964610A0020636F6F7264656E61646178
:107EA200732C206C6173206375616C657320736F32
:107EB2006E3A200A005661732061206D6F64696614
:107EC20069636172206C6120636F6F7264656E61B9
:107ED2006461200048617320656C656769646F2086
:107EE2006D6F76696D69656E746F206C696272651B
:107EF2000A00456C6967652028312920696E666928
:107F02006E69746F206F20302028686F6D652900BC
:107F120046756E63696F6E616D69656E746F20641C
:107F2200656C2053504152433A0044616D6520769E
:107F32006563657320612070726573696F6E61722B
:107F4200205A0A0059656E646F206120636F6F7258
:107F520064656E6164613A2000536920206C6C652F
:107F6200677565206120686F6D65205800526567EE
:107F7200726573616E646F20616C206D656E750051
:107F820078546F416476616E63652069733A007953
:107F9200546F416476616E63652069733A0052657D
:107FA2006369626920636F6F726458005265636926
:107FB200626920636F6F72645900456E74726173F7
:107FC2006520616C203800456E74726173652061B2
:107FD2006C2039004167726567617374653A2000ED
:107FE200436F6F7264656E616461200044616D6508
:0D7FF20020580A0044616D6520590A000006
:020000040020DA
:08000000FFFFFFFFFFFFFFFF00
:020000040030CA
:0E00000000091F1EFF8381FF0FC00FE00F409D
:00000001FF
