:020000040000FA
:0400000014EF00F009
:060008003E8273ED08F0DA
:100018003E80E0CF01F000F001C0E0FF3E9010000C
:0400280064EF08F089
:1008000000456C2076616C6F722064656C205057D7
:100810004D4475747956616C756520657320646507
:030820003A00009B
:100824001350800B1C6E13501324226E12AE1DEF56
:1008340004F01FEF04F020EF04F022802250D8B41B
:1008440026EF04F028EF04F03BEF04F02228D8A4AC
:100854002EEF04F030EF04F038EF04F0000E106EC9
:10086400000E116E000E126E000E136E128E43EF08
:1008740004F0000E106E000E116E000E126E000ECB
:10088400136E1750800B1C1A17501724216E16AEC6
:100894004EEF04F050EF04F051EF04F021802150AA
:1008A400D8B457EF04F059EF04F06CEF04F02128AA
:1008B400D8A45FEF04F061EF04F069EF04F0000ED8
:1008C400146E000E156E000E166E000E176E168E48
:1008D40074EF04F0000E146E000E156E000E166E0A
:1008E400000E176E2150D8B47AEF04F07CEF04F0B8
:1008F40084EF04F02250D8A482EF04F084EF04F0D3
:100904008EEF04F0000E106E000E116E000E126ECB
:10091400000E136E26EF06F016501002F3CF27F0E8
:10092400F4CF28F027501D6E1E6A1F6A206A2850D3
:10093400236E246A256A266A15501102F3CF27F024
:10094400F4CF28F027501D26000E1E221F2220223D
:1009540028502326000E2422252226221450120277
:10096400F3CF27F0F4CF28F027501D26000E1E22C7
:100974001F22202228502326000E2422252226224C
:100984001FC020F01EC01FF01DC01EF01D6A1450B1
:100994001102F3CF27F0F4CF28F027501D2628505A
:1009A4001E22000E1F22000E202215501002F3CF2B
:1009B40027F0F4CF28F027501D2628501E22000EC1
:1009C4001F22000E20221FC020F01EC01FF01DC0D9
:1009D4001EF01D6A14501002F3CF27F0F4CF28F054
:1009E40027501D2628501E22000E1F22000E2022F2
:1009F40016501102F3CF27F0F4CF28F02750232606
:100A040028502422000E2522000E26221550120200
:100A1400F3CF27F0F4CF28F02750232628502422A0
:100A2400000E2522000E262216501202F3CF27F0C4
:100A3400F4CF28F02750186E2850196E1A6A1B6AD2
:100A44001AC01BF019C01AF018C019F0186A18500F
:100A54002326195024221A5025221B5026221DC059
:100A640018F01EC019F01FC01AF020C01BF0190E98
:100A740041EF05F0D8901B321A3219321832E82EA1
:100A84003CEF05F018502326195024221A50252231
:100A94001B5026221FC020F01EC01FF01DC01EF0D8
:100AA4001D6A215022C018F0196A1826000E192256
:100AB400820E1824276EFF0E1920286E77EF05F09A
:100AC400D890233624362536263620AE6CEF05F032
:100AD4006EEF05F06FEF05F02380D8901D361E36BB
:100AE4001F3620362706D8A0280625AE7CEF05F051
:100AF4007EEF05F062EF05F0000E216E20AE85EF6B
:100B040005F087EF05F0ABEF05F0FF0E1D14186E2E
:100B1400FF0E1E14196EFF0E1F141A6E7F0E201482
:100B24001B6E185019101A101B10D8B49CEF05F046
:100B34009EEF05F0A2EF05F0010E216EABEF05F07C
:100B440023A0A7EF05F0A9EF05F0ABEF05F09EEFAA
:100B540005F02150D8B4B1EF05F0B3EF05F0D7EFAD
:100B640005F0010E2326000E24222522262226A08B
:100B7400BEEF05F0C0EF05F0D7EF05F023C018F085
:100B840024C019F025C01AF026C01BF01B341B32F8
:100B94001A321932183218C023F019C024F01AC0BE
:100BA40025F01BC026F0274A282A28BEE2EF05F0CC
:100BB400285008E12728D8A0E2EF05F0E4EF05F07B
:100BC400EEEF05F0000E236E000E246E800E256EEF
:100BD4007F0E266E1CEF06F028BEFBEF05F02850B2
:100BE40006E12704D8B0F9EF05F0FBEF05F007EFB5
:100BF40006F0000E236E000E246E000E256E000E0D
:100C0400266E000E1C6E1CEF06F027C022F0FF0EAD
:100C14002316FF0E24167F0E2516000E261622A07C
:100C240016EF06F018EF06F019EF06F0258ED890AF
:100C34002230266E1C50261223C010F024C011F05E
:100C440025C012F026C013F012000A6E0A50D8B460
:100C54002EEF06F030EF06F052EF06F005BE37EF48
:100C640006F035EF06F052EF06F002C006F003C0BE
:100C740007F004C008F005C009F0061E071E081E90
:100C8400091E062A000E07220822092206C00CF0BB
:100C940007C00DF008C00EF009C00FF05AEF06F0BF
:100CA40002C00CF003C00DF004C00EF005C00FF03C
:100CB4000250031004100510D8A463EF06F065EF8A
:100CC40006F06FEF06F0000E026E000E036E000ECB
:100CD400046E000E056E00EF07F0960E0B6E79EFB2
:100CE40006F00B2AD8900F320E320D320C32000E61
:100CF4000C14066E000E0D14076E000E0E14086E12
:100D0400FE0E0F14096E0650071008100910D8A41F
:100D14008EEF06F090EF06F073EF06F09EEF06F00C
:100D24000B2A010E0C26000E0D220E220F22D89043
:100D34000F320E320D320C32000E0C14066E000E01
:100D44000D14076E000E0E14086EFF0E0F14096EBC
:100D54000650071008100910D8A4B3EF06F0B5EF39
:100D640006F092EF06F0BDEF06F00B06D8900C36B5
:100D74000D360E360F360EBEC2EF06F0C4EF06F087
:100D8400CCEF06F0020E0B60CAEF06F0CCEF06F0D3
:100D9400B7EF06F00BB0D1EF06F0D3EF06F0D4EFC7
:100DA40006F00E9ED8900B320BC006F0076A086A54
:100DB400096A06C009F0086A076A066A06500C1236
:100DC40007500D1208500E1209500F120A50D8B4D1
:100DD400EEEF06F0F0EF06F0F8EF06F005BEF7EFE1
:100DE40006F0F5EF06F0F8EF06F00F8E0CC002F0F7
:100DF4000DC003F00EC004F00FC005F012002B3438
:100E04002C34326E3250D8A40AEF07F00CEF07F0FE
:100E140016EF07F0000E296E000E2A6E000E2B6EE0
:100E2400000E2C6E83EF07F029C02DF02AC02EF09F
:100E34002BC02FF02CC030F0200E26EF07F0D890F6
:100E440030322F322E322D32E82E21EF07F02D5082
:100E5400316E2B8EFF0E2916FF0E2A16FF0E2B164F
:100E6400000E2C16960E325E32BE3DEF07F03BEFBD
:100E740007F053EF07F03250800A970FD8B045EFD0
:100E840007F047EF07F049EF07F00CEF07F0D890B1
:100E94002C322B322A322932323E49EF07F06BEFE3
:100EA40007F01F0E326459EF07F05BEF07F063EFB2
:100EB40007F00CEF07F0D89029362A362B362C365B
:100EC40032063250D8A469EF07F06BEF07F05DEFFC
:100ED40007F03150D8B471EF07F073EF07F07BEFF0
:100EE40007F02C1E2B1E2A1E296C000E2A222B22F0
:100EF4002C2229C029F02AC02AF02BC02BF02CC0A8
:100F04002CF01200396E0A0E146ED70E156E230ED5
:100F1400166E3C0E176E3950026E036A046A056A37
:100F2400010E27EC06F002C010F003C011F004C05B
:100F340012F005C013F012EC04F010C035F011C02B
:100F440036F012C037F013C038F0000E146E000EE5
:100F5400156EFA0E166E430E176E35C010F036C0BD
:100F640011F037C012F038C013F012EC04F010C0C6
:100F740029F011C02AF012C02BF013C02CF001ECA0
:100F840007F029C03AF02AC03BF03AC033F0030E10
:100F94003316333ABA503318CF0B3318BA6E3AC0FB
:100FA40033F03BC034F0D89034323332D8903432FA
:100FB40033323350BB6E1200000E076E0750032409
:100FC400056E000E0420066E05C0F6FF06C0F7FF8E
:100FD4000800F5500009D8A4F2EF07F0F4EF07F089
:100FE400F6EF07F00DEF08F007500324056E000E2E
:100FF4000420066E05C0F6FF06C0F7FF0800F55092
:101004004EEC08F0072A0728D8A40BEF08F00DEFE0
:1010140008F0E0EF07F012006DEC08F041EC08F086
:1010240059EC08F0949434EC08F03D6E34EC08F07C
:101034003C6E3C5084EC07F0300E3D18D8A425EFEC
:1010440008F027EF08F015EF08F0010E036E080E04
:10105400046EDEEC07F03D504EEC08F015EF08F09E
:1010640014EF00F09EAA39EF08F03BEF08F034EFDC
:1010740008F0AECF02F0000EAE6E02501200948C57
:10108400948E100EAF6EAC84B886AC9CAC8AAC98CF
:10109400AB8EAB9CAB881200026EACA254EF08F08E
:1010A40056EF08F04FEF08F002C0ADFF1200949223
:1010B4000F0EBA127C0ECB6E030ECA12000ECC6E4B
:1010C400CA8412003E903E92000EF86E080EF76E2F
:1010D40000010EEF08F00F0EC112700ED36E939044
:0A10E4001200060000F03E92110019
:020000040020DA
:08000000FFFFFFFFFFFFFFFF00
:020000040030CA
:0E00000000091F1FFF0381FF0FC00FE00F401C
:00000001FF
