:020000040000FA
:0400000014EF00F009
:060008005982CDED0CF061
:100018005980E0CF60F000F060C0E0FF5990100018
:1000280019EF14F000019051800B996F90519025B1
:100038009B6F8FAF22EF00F024EF00F025EF00F068
:100048009B819B51D8B42BEF00F02DEF00F042EFCD
:1000580000F09B29D8A433EF00F035EF00F03DEF16
:1000680000F0000E8D6F000E8E6F000E8F6F000E69
:10007800906F8F8F000E906F4AEF00F0000E8D6F1B
:10008800000E8E6F000E8F6F000E906F9451800BD4
:100098009A6F99519A19D8B454EF00F056EF00F0BE
:1000A80057EF00F0998D945194259A6F93AF5FEFB5
:1000B80000F061EF00F062EF00F09A819A51D8B435
:1000C80068EF00F06AEF00F07FEF00F09A29D8A4FB
:1000D80070EF00F072EF00F07AEF00F0000E916F11
:1000E800000E926F000E936F000E946F938F000EA8
:1000F800946F87EF00F0000E916F000E926F000E64
:10010800936F000E946F9B519A5DD8B08EEF00F0FC
:1001180090EF00F0B7EF00F099AD95EF00F097EF92
:1001280000F099EF00F0800E991B9BC09CF09AC0DC
:100138009BF09CC09AF08DC09CF091C08DF09CC043
:1001480091F08EC09CF092C08EF09CC092F08FC04F
:100158009CF093C08FF09CC093F090C09CF094C02A
:1001680090F09CC094F0000E9C6F9B519AC095F043
:10017800966B955F000E965B96BFCCEF00F096519C
:1001880009E11A0E955DD8A0CCEF00F0CEEF00F093
:1001980005EF01F08D518E118F119011D8A4D7EF72
:1001A80000F0DAEF00F0010EDBEF00F0000E9C6FBC
:1001B800000E8D6F000E8E6F000E8F6F000E906F09
:1001C8009AC09BF00EEF01F09CA1EDEF00F0EFEF6D
:1001D80000F0F5EF00F0D8909C3101099C6FF7EF23
:1001E80000F0D8909C338DA1FCEF00F0FEEF00F0FA
:1001F800FFEF00F09C8F903590338F338E338D3323
:100208009B2B9A519B5DD8A00CEF01F00EEF01F0EB
:10021800E8EF00F099BD13EF01F015EF01F055EF8D
:1002280001F09B51D8A41BEF01F01DEF01F027EF5F
:1002380001F0000E8D6F000E8E6F000E8F6F000E96
:10024800906F76EF02F091518D2792518E23935142
:100258008F239451902390A134EF01F036EF01F0F1
:10026800E2EF01F09CA13BEF01F03DEF01F043EF1D
:1002780001F0D8909C3101099C6F45EF01F0D890AE
:100288009C338DA14AEF01F04CEF01F04DEF01F0E6
:100298009C8F903590338F338E338D339B2BE2EFC9
:1002A80001F091518D5D92518E5993518F59905112
:1002B800800A956F9451800A9559D8B066EF01F07D
:1002C80068EF01F093EF01F08D51915D956F8E51BC
:1002D8009259966F8F519359976F90519459986F7F
:1002E800FF0E95258D6FFF0E96218E6FFF0E9721BD
:1002F8008F6FFF0E9821906F800E991B9C6D9C51FB
:10030800D8A489EF01F08BEF01F09BEF01F0010E0B
:100318008D27000E8E238F2390239BEF01F09151A0
:100328008D5F92518E5B93518F5B9451905B8D5191
:100338008E118F119011D8A4A4EF01F0A6EF01F04F
:10034800DBEF01F09C51D8A4ACEF01F0AEEF01F067
:10035800DBEF01F0000E8D6F000E8E6F000E8F6FB9
:10036800000E906F76EF02F0D8908D378E378F376A
:1003780090379CAFC2EF01F0C4EF01F0C5EF01F078
:100388008D819CA1CAEF01F0CCEF01F0D0EF01F014
:10039800D8809C37D2EF01F0D8909C379B51D8B4C5
:1003A800D8EF01F0DAEF01F0DBEF01F09B078FAF38
:1003B800E0EF01F0E2EF01F0B8EF01F0000E9A6F04
:1003C8009CAFE9EF01F0EBEF01F003EF02F09CC006
:1003D80095F07F0E9517D8B4F4EF01F0F6EF01F021
:1003E800FAEF01F0010E9A6F03EF02F08DA1FFEF13
:1003F80001F001EF02F003EF02F0F6EF01F09A517D
:10040800D8B409EF02F00BEF02F036EF02F0010E5C
:100418008D27000E8E238F23902390A116EF02F0D4
:1004280018EF02F036EF02F08DC095F08EC096F00E
:100438008FC097F090C098F09835983397339633DB
:10044800953395C08DF096C08EF097C08FF098C008
:1004580090F09B29D8B433EF02F035EF02F036EF75
:1004680002F09B2B9B29D8B43CEF02F03EEF02F040
:1004780046EF02F09B51D8A444EF02F046EF02F099
:1004880058EF02F0000E8D6F000E8E6F000E8F6F0A
:10049800000E906F9B51D8A454EF02F056EF02F073
:1004A80058EF02F0000E996F9BA15DEF02F05FEF2D
:1004B80002F062EF02F08F8F63EF02F08F9FD89007
:1004C8009B31906F99AF6BEF02F06DEF02F06EEF1A
:1004D80002F0908F8DC08DF08EC08EF08FC08FF09F
:1004E80090C090F0120000017751800B806F775117
:1004F8007725866F76AF83EF02F085EF02F086EFFF
:1005080002F086818651D8B48CEF02F08EEF02F0AB
:10051800A1EF02F08629D8A494EF02F096EF02F03A
:100528009EEF02F0000E746F000E756F000E766F6E
:10053800000E776F768FA9EF02F0000E746F000E31
:10054800756F000E766F000E776F7B51800B801BE6
:100558007B517B25856F7AAFB4EF02F0B6EF02F0DE
:10056800B7EF02F085818551D8B4BDEF02F0BFEF37
:1005780002F0D2EF02F08529D8A4C5EF02F0C7EF48
:1005880002F0CFEF02F0000E786F000E796F000EC8
:100598007A6F000E7B6F7A8FDAEF02F0000E786FB9
:1005A800000E796F000E7A6F000E7B6F8551D8B4FC
:1005B800E0EF02F0E2EF02F0EAEF02F08651D8A491
:1005C800E8EF02F0EAEF02F0F4EF02F0000E746FC9
:1005D800000E756F000E766F000E776F8CEF04F0CB
:1005E8007A517403F3CF8BF0F4CF8CF08B51816F79
:1005F800826B836B846B8C51876F886B896B8A6B7A
:1006080079517503F3CF8BF0F4CF8CF08B518127A0
:10061800000E8223832384238C518727000E88238E
:1006280089238A2378517603F3CF8BF0F4CF8CF0AB
:100638008B518127000E8223832384238C518727A3
:10064800000E882389238A2383C084F082C083F024
:1006580081C082F0816B78517503F3CF8BF0F4CFB2
:100668008CF08B5181278C518223000E8323000E3E
:10067800842379517403F3CF8BF0F4CF8CF08B5132
:1006880081278C518223000E8323000E842383C08C
:1006980084F082C083F081C082F0816B785174034A
:1006A800F3CF8BF0F4CF8CF08B5181278C518223C0
:1006B800000E8323000E84237A517503F3CF8BF049
:1006C800F4CF8CF08B5187278C518823000E892317
:1006D800000E8A2379517603F3CF8BF0F4CF8CF098
:1006E8008B5187278C518823000E8923000E8A237B
:1006F8007A517603F3CF8BF0F4CF8CF08B517C6F6B
:100708008C517D6F7E6B7F6B7EC07FF07DC07EF0ED
:100718007CC07DF07C6B7C5187277D5188237E517E
:1007280089237F518A2381C07CF082C07DF083C0F9
:100738007EF084C07FF0190EA7EF03F0D8907F33C6
:100748007E337D337C33E82EA2EF03F07C5187277C
:100758007D5188237E5189237F518A2383C084F069
:1007680082C083F081C082F0816B855186C07CF0A5
:100778007D6B7C27000E7D23820E7C258B6FFF0E00
:100788007D218C6FDDEF03F0D89087378837893764
:100798008A3784AFD2EF03F0D4EF03F0D5EF03F03C
:1007A8008781D89081378237833784378B07D8A0E1
:1007B8008C0789AFE2EF03F0E4EF03F0C8EF03F032
:1007C800000E856F84AFEBEF03F0EDEF03F011EF50
:1007D80004F0FF0E81157C6FFF0E82157D6FFF0EF2
:1007E80083157E6F7F0E84157F6F7C517D117E117E
:1007F8007F11D8B402EF04F004EF04F008EF04F01E
:10080800010E856F11EF04F087A10DEF04F00FEFD3
:1008180004F011EF04F004EF04F08551D8B417EF99
:1008280004F019EF04F03DEF04F0010E8727000EE5
:10083800882389238A238AA124EF04F026EF04F071
:100848003DEF04F087C07CF088C07DF089C07EF061
:100858008AC07FF07F357F337E337D337C337CC025
:1008680087F07DC088F07EC089F07FC08AF08B4B0E
:100878008C2B8CBF48EF04F08C5108E18B29D8A051
:1008880048EF04F04AEF04F054EF04F0000E876FCD
:10089800000E886F800E896F7F0E8A6F82EF04F0DA
:1008A8008CBF61EF04F08C5106E18B05D8B05FEF87
:1008B80004F061EF04F06DEF04F0000E876F000E96
:1008C800886F000E896F000E8A6F000E806F82EFAE
:1008D80004F08BC086F0FF0E8717FF0E88177F0E77
:1008E8008917000E8A1786A17CEF04F07EEF04F0CA
:1008F8007FEF04F0898FD89086318A6F80518A13F0
:1009080087C074F088C075F089C076F08AC077F027
:1009180012001250800B1B6E12501224216E11AE61
:1009280098EF04F09AEF04F09BEF04F02180215037
:10093800D8B4A1EF04F0A3EF04F0B6EF04F0212837
:10094800D8A4A9EF04F0ABEF04F0B3EF04F0000E65
:100958000F6E000E106E000E116E000E126E118ECC
:10096800BEEF04F0000E0F6E000E106E000E116E3A
:10097800000E126E1650800B1B1A16501624206E8D
:1009880015AEC9EF04F0CBEF04F0CCEF04F02080F3
:100998002050D8B4D2EF04F0D4EF04F0E7EF04F01D
:1009A8002028D8A4DAEF04F0DCEF04F0E4EF04F038
:1009B800000E136E000E146E000E156E000E166EED
:1009C800158EEFEF04F0000E136E000E146E000E7D
:1009D800156E000E166E2050D8B4F5EF04F0F7EF40
:1009E80004F0FFEF04F02150D8A4FDEF04F0FFEF6E
:1009F80004F009EF05F0000E0F6E000E106E000EE9
:100A0800116E000E126EA1EF06F015500F02F3CF13
:100A180026F0F4CF27F026501C6E1D6A1E6A1F6A46
:100A28002750226E236A246A256A14501002F3CFD5
:100A380026F0F4CF27F026501C26000E1D221E2279
:100A48001F2227502226000E23222422252213505B
:100A58001102F3CF26F0F4CF27F026501C26000E03
:100A68001D221E221F2227502226000E2322242266
:100A780025221EC01FF01DC01EF01CC01DF01C6AE0
:100A880013501002F3CF26F0F4CF27F026501C267F
:100A980027501D22000E1E22000E1F2214500F0286
:100AA800F3CF26F0F4CF27F026501C2627501D221E
:100AB800000E1E22000E1F221EC01FF01DC01EF0B9
:100AC8001CC01DF01C6A13500F02F3CF26F0F4CFA0
:100AD80027F026501C2627501D22000E1E22000E2D
:100AE8001F2215501002F3CF26F0F4CF27F026501E
:100AF800222627502322000E2422000E25221450DD
:100B08001102F3CF26F0F4CF27F0265022262750E3
:100B18002322000E2422000E252215501102F3CFA5
:100B280026F0F4CF27F02650176E2750186E196A52
:100B38001A6A19C01AF018C019F017C018F0176A05
:100B48001750222618502322195024221A502522E1
:100B58001CC017F01DC018F01EC019F01FC01AF0F5
:100B6800190EBCEF05F0D8901A3219321832173224
:100B7800E82EB7EF05F017502226185023221950F7
:100B880024221A5025221EC01FF01DC01EF01CC0B2
:100B98001DF01C6A205021C017F0186A1726000E95
:100BA8001822820E1724266EFF0E1820276EF2EFE9
:100BB80005F0D89022362336243625361FAEE7EFC7
:100BC80005F0E9EF05F0EAEF05F02280D8901C3631
:100BD8001D361E361F362606D8A0270624AEF7EF88
:100BE80005F0F9EF05F0DDEF05F0000E206E1FAE01
:100BF80000EF06F002EF06F026EF06F0FF0E1C14D9
:100C0800176EFF0E1D14186EFF0E1E14196E7F0E40
:100C18001F141A6E1750181019101A10D8B417EF9D
:100C280006F019EF06F01DEF06F0010E206E26EF14
:100C380006F022A022EF06F024EF06F026EF06F0D9
:100C480019EF06F02050D8B42CEF06F02EEF06F07E
:100C580052EF06F0010E2226000E2322242225221E
:100C680025A039EF06F03BEF06F052EF06F022C060
:100C780017F023C018F024C019F025C01AF01A3450
:100C88001A3219321832173217C022F018C023F05E
:100C980019C024F01AC025F0264A272A27BE5DEF7E
:100CA80006F0275008E12628D8A05DEF06F05FEF90
:100CB80006F069EF06F0000E226E000E236E800E1D
:100CC800246E7F0E256E97EF06F027BE76EF06F0AE
:100CD800275006E12604D8B074EF06F076EF06F048
:100CE80082EF06F0000E226E000E236E000E246EB8
:100CF800000E256E000E1B6E97EF06F026C021F041
:100D0800FF0E2216FF0E23167F0E2416000E251640
:100D180021A091EF06F093EF06F094EF06F0248EF1
:100D2800D8902130256E1B50251222C00FF023C009
:100D380010F024C011F025C012F01200F4EC14F0E9
:100D48008EEC14F057EC14F046EC14F0000E08EC9E
:100D580011F0000E66EC11F0EDEC14F0E6EC14F076
:100D6800A7EC14F074EC14F0F9EC14F0FFEC14F0A8
:100D7800FDEC14F081EC14F0000E0001BE6FBA0E09
:100D8800B86F000EB96F66EC14F0860E0001626F42
:100D98007B0E636F76EC13F00001FB05D8A4D7EF48
:100DA80006F0D9EF06F0EAEF06F0250E626F7F0E27
:100DB800636F76EC13F0000E0001B06F050EB16F93
:100DC800000EBCEC0FF0000E0001FB6FB8C062F023
:100DD800B9C063F0040EB66FB6C064F0FFEC13F050
:100DE8004D0E0001BA19D8B4FCEF06F0FEEF06F07C
:100DF80007EF07F06D0EBA19D8A405EF07F007EF53
:100E080007F02EEF08F0650EBB19D8A40EEF07F017
:100E180010EF07F02EEF08F06E0EBC19D8A417EFEC
:100E280007F019EF07F02EEF08F0750EBD19D8A4DA
:100E380020EF07F022EF07F02EEF08F06D0E626F3B
:100E4800780E636F76EC13F066EC14F00001C26F55
:100E580036EF07F0200E626F7E0E636F76EC13F0AC
:100E680028EF07F03A0EC2613CEF07F03EEF07F0BB
:100E78002EEF07F02F0EC26544EF07F046EF07F09C
:100E88002EEF07F0300EC219D8A44DEF07F04FEF40
:100E980007F055EF07F0410E626F7F0E636F76EC37
:100EA80013F0310E0001C219D8A45DEF07F05FEF0F
:100EB80007F061EF07F038EC08F0320E0001C219B4
:100EC800D8A469EF07F06BEF07F073EF07F04C0E4B
:100ED800626F7D0E636F76EC13F09BEC0DF0330EB2
:100EE8000001C219D8A47BEF07F07DEF07F07FEF70
:100EF80007F038EC10F0340E0001C219D8A487EFBF
:100F080007F089EF07F0A6EF07F0120E626F7B0E6D
:100F1800636F76EC13F0D5EC12F00001BF6F310E61
:100F2800BF19D8A49AEF07F09CEF07F0A0EF07F0DD
:100F3800A5EC10F0A6EF07F0700E626F7F0E636FDE
:100F480076EC13F0350E0001C219D8A4AEEF07F005
:100F5800B0EF07F0CDEF07F0BF0E626F7B0E636F47
:100F680076EC13F0D5EC12F00001C06F310EC01909
:100F7800D8A4C1EF07F0C3EF07F0C7EF07F0C4EC40
:100F880011F0CDEF07F0700E626F7F0E636F76EC95
:100F980013F0360E0001C219D8A4D5EF07F0D7EF29
:100FA80007F0D9EF07F0C5EC09F0370E0001C219B8
:100FB800D8A4E1EF07F0E3EF07F0E9EF07F0E90E57
:100FC800626F7E0E636F76EC13F0380E0001C21963
:100FD800D8A4F1EF07F0F3EF07F01CEF08F0BD0E0F
:100FE800626F7F0E636F76EC13F0070E0001626F7D
:100FF8007F0E636F76EC13F0D5EC12F00001C16F31
:10100800310EC119D8A40BEF08F00DEF08F011EF5D
:1010180008F0B2EC14F01CEF08F0300EC119D8A497
:1010280018EF08F01AEF08F01CEF08F0C8EC14F0FD
:10103800390E0001C219D8A424EF08F026EF08F0F1
:10104800D0EF06F0CA0E626F7F0E636F76EC13F076
:10105800D0EF06F0030E626F7A0E636F76EC13F032
:10106800D0EF06F014EF00F0000E0001706F000ED4
:101078006F6F090EFE6543EF08F045EF08F04DEF7E
:1010880008F0FD05D8A44BEF08F04DEF08F0BEEFCF
:1010980009F0920E0001626F790E636F76EC13F01F
:1010A800E10E0001FE25D96EDA6A000EDA22D5ECCF
:1010B80012F0DF6ED70E0001FE25D96EDA6A000E37
:1010C800DA22D5EC12F0DF6ECD0E0001FE25D96EC6
:1010D800DA6A000EDA22D5EC12F0DF6EA10E0001FA
:1010E800626F7F0E636F76EC13F0C30E0001FE256E
:1010F800D96EDA6A000EDA22D5EC12F0DF6E4C0EE9
:101108000001FE25D96EDA6A000EDA22D5EC12F05B
:10111800DF6E420E0001FE25D96EDA6A000EDA2271
:10112800D5EC12F0DF6EAF0E0001626F7F0E636FB9
:1011380076EC13F0140E0001FE25D96EDA6A010E62
:10114800DA22D5EC12F0DF6E0A0E0001FE25D96E08
:10115800DA6A010EDA22D5EC12F0DF6E000E000119
:10116800FE25D96EDA6A010EDA22D5EC12F0DF6EAE
:10117800680E0001626F7E0E636F76EC13F0E10E6D
:101188000001FE25D96EDA6A000EDA22DF50686F98
:101198006851640DF3CF69F0F4CF6AF0D70EFE25DD
:1011A800D96EDA6A000EDA22DF506B6F6B510A0DC6
:1011B800F3506927F4506A23CD0EFE25D96EDA6AFA
:1011C800000EDA22DF506C6F6C516927000E6A231B
:1011D800300E69256D6FEB0E6A216E6FC30EFE250A
:1011E800D96EDA6A000EDA22DF50686F6851640D32
:1011F800F3CF69F0F4CF6AF04C0EFE25D96EDA6AA7
:10120800000EDA22DF506B6F6B510A0DF35069271D
:10121800F4506A23420EFE25D96EDA6A000EDA22ED
:10122800DF506C6F6C516927000E6A23300E6925F8
:101238006F6FEB0E6A21706F2D0E6D5D010E6E598A
:10124800D8B029EF09F02BEF09F036EF09F02D0E91
:101258006F5D010E7059D8A034EF09F036EF09F030
:101268003EEF09F0890E626F7E0E636F76EC13F025
:101278004DEF08F0780E626F7D0E636F76EC13F019
:10128800E10E0001FE25D96EDA6A000EDA22DF507F
:101298009BEC14F0D70E0001FE25D96EDA6A000E19
:1012A800DA22DF509BEC14F0CD0E0001FE25D96E3A
:1012B800DA6A000EDA22DF509BEC14F02C0E9BEC5D
:1012C80014F0C30E0001FE25D96EDA6A000EDA2288
:1012D800DF509BEC14F04C0E0001FE25D96EDA6A43
:1012E800000EDA22DF509BEC14F0420E0001FE25BE
:1012F800D96EDA6A000EDA22DF509BEC14F02C0E5D
:101308009BEC14F0140E0001FE25D96EDA6A010E6A
:10131800DA22DF509BEC14F00A0E0001FE25D96E8C
:10132800DA6A010EDA22DF509BEC14F0000E00019D
:10133800FE25D96EDA6A010EDA22DF509BEC14F032
:101348002E0E9BEC14F00001FD51D8A4AEEF09F06D
:10135800B0EF09F0C4EF09F0F70E626F7D0E636F0E
:1013680076EC13F00001FE2BFE51300F9BEC14F0CD
:10137800C4EF09F04C0E626F7B0E636F76EC13F0CE
:101388001200600E0001626F7C0E636F76EC13F042
:10139800000E0001916F000E926F400E936F420E87
:1013A800946F0A0E786FD70E796F230E7A6F3C0E02
:1013B8007B6FF7C066F0F8C067F0686B696B000E6A
:1013C80017EC0BF066C074F067C075F068C076F073
:1013D80069C077F077EC02F074C08DF075C08EF0BC
:1013E80076C08FF077C090F016EC00F08DC09DF0BD
:1013F8008EC09EF08FC09FF090C0A0F039EC0EF028
:1014080000019D519BEC14F0000E0001916F000E3D
:10141800926F400E936F420E946FCD0E786FCC0E84
:10142800796FCC0E7A6F3D0E7B6F000E646F640E81
:10143800636FF7C061F0F8C062F043EC13F000018D
:1014480061C066F062C067F0686B696B000E17ECEC
:101458000BF066C074F067C075F068C076F069C0BC
:1014680077F077EC02F074C08DF075C08EF076C01E
:101478008FF077C090F016EC00F08DC09DF08EC014
:101488009EF08FC09FF090C0A0F039EC0EF00001E4
:101498009D519BEC14F0000E0001646F640E636FA5
:1014A800F7C061F0F8C062F043EC13F061C0A7F038
:1014B80062C0A8F0A7C061F0A8C062F0000E0001E9
:1014C800646F0A0E636F43EC13F000016151300F33
:1014D8009BEC14F02C0E9BEC14F0000E0001916FA5
:1014E800000E926F400E936F420E946F0A0E786F43
:1014F800D70E796F230E7A6F3C0E7B6FF3C066F0C0
:10150800F4C067F0686B696B000E17EC0BF066C0EF
:1015180074F067C075F068C076F069C077F077EC52
:1015280002F074C08DF075C08EF076C08FF077C071
:1015380090F016EC00F08DC09DF08EC09EF08FC02C
:101548009FF090C0A0F039EC0EF000019D519BEC8B
:1015580014F0000E0001916F000E926F400E936F11
:10156800420E946FCD0E786FCC0E796FCC0E7A6FD9
:101578003D0E7B6F000E646F640E636FF3C061F005
:10158800F4C062F043EC13F0000161C066F062C081
:1015980067F0686B696B000E17EC0BF066C074F0AF
:1015A80067C075F068C076F069C077F077EC02F034
:1015B80074C08DF075C08EF076C08FF077C090F053
:1015C80016EC00F08DC09DF08EC09EF08FC09FF08D
:1015D80090C0A0F039EC0EF000019D519BEC14F086
:1015E800000E0001646F640E636FF3C061F0F4C015
:1015F80062F043EC13F061C0A7F062C0A8F0A7C086
:1016080061F0A8C062F0000E0001646F0A0E636FFB
:1016180043EC13F000016151300F9BEC14F02E0ED7
:101628009BEC14F0120000016E6F00016E51D8B4EB
:1016380020EF0BF022EF0BF044EF0BF069BF29EF1E
:101648000BF027EF0BF044EF0BF066C06AF067C0B1
:101658006BF068C06CF069C06DF06A1F6B1F6C1F7F
:101668006D1F6A2B000E6B236C236D236AC070F00C
:101678006BC071F06CC072F06DC073F04CEF0BF082
:1016880066C070F067C071F068C072F069C073F02E
:101698006651671168116911D8A455EF0BF057EF1F
:1016A8000BF061EF0BF0000E666F000E676F000E17
:1016B800686F000E696FF2EF0BF0960E6F6F6BEFAD
:1016C8000BF06F2BD8907333723371337033000E75
:1016D80070156A6F000E71156B6F000E72156C6FC6
:1016E800FE0E73156D6F6A516B116C116D11D8A4D4
:1016F80080EF0BF082EF0BF065EF0BF090EF0BF043
:101708006F2B010E7027000E712372237323D8905C
:101718007333723371337033000E70156A6F000EB5
:1017280071156B6F000E72156C6FFF0E73156D6F70
:101738006A516B116C116D11D8A4A5EF0BF0A7EFCE
:101748000BF084EF0BF0AFEF0BF06F07D89070370A
:1017580071377237733772BFB4EF0BF0B6EF0BF017
:10176800BEEF0BF0020E6F61BCEF0BF0BEEF0BF09B
:10177800A9EF0BF06FB1C3EF0BF0C5EF0BF0C6EF9D
:101788000BF0729FD8906F336FC06AF06B6B6C6B05
:101798006D6B6AC06DF06C6B6B6B6A6B6A51701322
:1017A8006B5171136C5172136D5173136E51D8B420
:1017B800E0EF0BF0E2EF0BF0EAEF0BF069BFE9EFB7
:1017C8000BF0E7EF0BF0EAEF0BF0738F70C066F0E9
:1017D80071C067F072C068F073C069F01200096EDA
:1017E8000950D8B4FAEF0BF0FCEF0BF01EEF0CF039
:1017F80004BE03EF0CF001EF0CF01EEF0CF001C07B
:1018080005F002C006F003C007F004C008F0051E8A
:10181800061E071E081E052A000E06220722082299
:1018280005C00BF006C00CF007C00DF008C00EF0A4
:1018380026EF0CF001C00BF002C00CF003C00DF055
:1018480004C00EF00150021003100410D8A42FEFAA
:101858000CF031EF0CF03BEF0CF0000E016E000EB7
:10186800026E000E036E000E046ECCEF0CF0960EA6
:101878000A6E45EF0CF00A2AD8900E320D320C325F
:101888000B32000E0B14056E000E0C14066E000EC3
:101898000D14076EFE0E0E14086E05500610071084
:1018A8000810D8A45AEF0CF05CEF0CF03FEF0CF0E6
:1018B8006AEF0CF00A2A010E0B26000E0C220D22EC
:1018C8000E22D8900E320D320C320B32000E0B1451
:1018D800056E000E0C14066E000E0D14076EFF0E3A
:1018E8000E14086E0550061007100810D8A47FEFD4
:1018F8000CF081EF0CF05EEF0CF089EF0CF00A06AB
:10190800D8900B360C360D360E360DBE8EEF0CF019
:1019180090EF0CF098EF0CF0020E0A6096EF0CF0C6
:1019280098EF0CF083EF0CF00AB09DEF0CF09FEFEE
:101938000CF0A0EF0CF00D9ED8900A320AC005F00A
:10194800066A076A086A05C008F0076A066A056A2F
:1019580005500B1206500C1207500D1208500E12AB
:101968000950D8B4BAEF0CF0BCEF0CF0C4EF0CF08F
:1019780004BEC3EF0CF0C1EF0CF0C4EF0CF00E8EF8
:101988000BC001F00CC002F00DC003F00EC004F053
:1019980012000600F3CF3CF0F4CF3DF0F6CF3EF056
:1019A800F7CF3FF0F8CF40F0F5CF41F0F2A4DFEFEA
:1019B8000CF0E1EF0CF0FAEF0CF05750D8A4E7EF79
:1019C8000CF0E9EF0CF0ECEF0CF0000E7BEC12F0F1
:1019D800EDC0F3F0EEC0F4F02C0E026E7C0E036E38
:1019E8000FEC13F0000E0001FC6FF2949EA0FFEFC5
:1019F8000CF001EF0DF01AEF0DF05850D8A407EFD6
:101A08000DF009EF0DF00CEF0DF0000E21EC12F0C7
:101A1800EBC0F7F0ECC0F8F0F80E026E7B0E036E28
:101A28000FEC13F0000E0001FC6F9E90F2A21FEF66
:101A38000DF021EF0DF03BEF0DF01A0E3B6EF80E96
:101A4800E82EFED73B2EFCD700D081A02EEF0DF05C
:101A580030EF0DF036EF0DF0F00E026E7C0E036ED7
:101A68000FEC13F0D2EC14F0DCEC14F0F292F0A0CE
:101A780040EF0DF042EF0DF064EF0DF01A0E3B6EE3
:101A8800F80EE82EFED73B2EFCD700D081A24FEFF0
:101A98000DF051EF0DF057EF0DF0A30E026E7D0E15
:101AA800036E0FEC13F0000E21EC12F0000E000193
:101AB800F86F000EF76F000E586E000EFC6FF09076
:101AC800F0A269EF0DF06BEF0DF08DEF0DF01A0E2F
:101AD8003B6EF80EE82EFED73B2EFCD700D081A433
:101AE80078EF0DF07AEF0DF080EF0DF0CD0E026E6D
:101AF8007D0E036E0FEC13F0000E7BEC12F0000E5F
:101B08000001F46F000EF36F000E576E000EFC6FAD
:101B1800F09241C0F5FF40C0F8FF3FC0F7FF3EC05C
:101B2800F6FF3DC0F4FF3CC0F3FF599211000001DD
:101B3800FE51300F676FD70E626F7F0E636F76ECC2
:101B480013F0000167519BEC14F0AA0E0001626FBC
:101B58007E0E636F76EC13F0000E0001686F2FEFB6
:101B68000EF0E30E626F7F0E636F76EC13F00001E8
:101B78006851300F9BEC14F06D0E0001626F7F0E00
:101B8800636F76EC13F0E10E00016825D96EDA6A0E
:101B9800000EDA22DF509BEC14F0D70E0001682506
:101BA800D96EDA6A000EDA22DF509BEC14F0CD0E03
:101BB80000016825D96EDA6A000EDA22DF509BEC44
:101BC80014F02C0E9BEC14F0C30E00016825D96E9E
:101BD800DA6A000EDA22DF509BEC14F04C0E00019A
:101BE8006825D96EDA6A000EDA22DF509BEC14F011
:101BF800420E00016825D96EDA6A000EDA22DF503B
:101C08009BEC14F02C0E9BEC14F0140E00016825CC
:101C1800D96EDA6A010EDA22DF509BEC14F00A0E54
:101C280000016825D96EDA6A010EDA22DF509BECD2
:101C380014F0000E00016825D96EDA6A010EDA2266
:101C4800DF509BEC14F02E0E9BEC14F00A0E9BEC6C
:101C580014F00001682BFE51685DD8A036EF0EF035
:101C680038EF0EF0B5EF0DF0120000019F35A035EA
:101C7800A66FA651D8A443EF0EF045EF0EF04FEF34
:101C88000EF0000E9D6F000E9E6F000E9F6F000EEF
:101C9800A06FBCEF0EF09DC0A1F09EC0A2F09FC047
:101CA800A3F0A0C0A4F0200E5FEF0EF0D890A433EC
:101CB800A333A233A133E82E5AEF0EF0A151A56F3A
:101CC8009F8FFF0E9D17FF0E9E17FF0E9F17000E8A
:101CD800A017960EA65FA6BF76EF0EF074EF0EF073
:101CE8008CEF0EF0A651800A970FD8B07EEF0EF059
:101CF80080EF0EF082EF0EF045EF0EF0D890A03393
:101D08009F339E339D33A63F82EF0EF0A4EF0EF073
:101D18001F0EA66592EF0EF094EF0EF09CEF0EF0FA
:101D280045EF0EF0D8909D379E379F37A037A6070E
:101D3800A651D8A4A2EF0EF0A4EF0EF096EF0EF085
:101D4800A551D8B4AAEF0EF0ACEF0EF0B4EF0EF038
:101D5800A01F9F1F9E1F9D6D000E9E239F23A023E3
:101D68009DC09DF09EC09EF09FC09FF0A0C0A0F0B7
:101D780012002A342B34316E3150D8A4C6EF0EF03D
:101D8800C8EF0EF0D2EF0EF0000E286E000E296E8E
:101D9800000E2A6E000E2B6E3FEF0FF028C02CF0BD
:101DA80029C02DF02AC02EF02BC02FF0200EE2EF14
:101DB8000EF0D8902F322E322D322C32E82EDDEF55
:101DC8000EF02C50306E2A8EFF0E2816FF0E2916A4
:101DD800FF0E2A16000E2B16960E315E31BEF9EF55
:101DE8000EF0F7EF0EF00FEF0FF03150800A970F5B
:101DF800D8B001EF0FF003EF0FF005EF0FF0C8EFC9
:101E08000EF0D8902B322A3229322832313E05EF93
:101E18000FF027EF0FF01F0E316415EF0FF017EFDB
:101E28000FF01FEF0FF0C8EF0EF0D89028362936C4
:101E38002A362B3631063150D8A425EF0FF027EF7C
:101E48000FF019EF0FF03050D8B42DEF0FF02FEF3F
:101E58000FF037EF0FF02B1E2A1E291E286C000EDC
:101E680029222A222B2228C028F029C029F02AC09A
:101E78002AF02BC02BF012000001B46F0001FC0502
:101E8800D8B449EF0FF04BEF0FF042EF0FF0B45119
:101E9800640DF3CFB2F0F4CFB3F0B0510A0DF350A4
:101EA800B227F450B323B151B227000EB323300E3A
:101EB800B225ED6FEB0EB321EE6FF351ED5D616F5F
:101EC800F451EE59626FA8EC13F061C065F062C07E
:101ED80066F0000E0001686F050E676F32EC14F0B3
:101EE80065C0F5F066C0F6F0920E0001626F7F0ED5
:101EF800636F76EC13F00001F5519BEC14F00A0EB9
:101F08009BEC14F00001ED51F35DEE51F459D8B09B
:101F180090EF0FF092EF0FF095EF0FF08C82A1EF9A
:101F28000FF0F351ED5DF451EE59D8B09EEF0FF07C
:101F3800A0EF0FF0A1EF0FF08C92F351ED1909E12A
:101F4800F451EE19D8B4ABEF0FF0ADEF0FF0BBEFD3
:101F58000FF0010EFC6FF5C061F0F6C062F0C9EC3D
:101F680013F0000E66EC11F0320E08EC11F01200BE
:101F78000001B46F0001FC05D8B4C5EF0FF0C7EF3E
:101F88000FF0BEEF0FF0B451640DF3CFB2F0F4CF01
:101F9800B3F0B0510A0DF350B227F450B323B15146
:101FA800B227000EB323300EB225EB6FEB0EB32130
:101FB800EC6FF751EB5D616FF851EC59626FA8EC6B
:101FC80013F061C065F062C066F0000E0001686F32
:101FD800050E676F32EC14F065C0F9F066C0FAF0D0
:101FE800830E0001626F7F0E636F76EC13F00001C1
:101FF800F9519BEC14F00A0E9BEC14F00001EB5124
:10200800F75DEC51F859D8B00CEF10F00EEF10F066
:1020180011EF10F08C861DEF10F0F751EB5DF851C1
:10202800EC59D8B01AEF10F01CEF10F01DEF10F0BB
:102038008C96F751EB1909E1F851EC19D8B427EF50
:1020480010F029EF10F037EF10F0010EFC6FF9C017
:1020580061F0FAC062F0E4EC13F0000E08EC11F045
:10206800320E66EC11F012000001FE51D8B43FEFB9
:1020780010F041EF10F09EEF10F0010EFD6F9BEC99
:102088000DF01E0E0001626F7D0E636F76EC13F08B
:10209800D5EC12F00001796F63EF10F0930E626FC8
:1020A8007A0E636F76EC13F0D70E0001626F7A0E2A
:1020B800636F76EC13F0D5EC12F00001796FFE51E6
:1020C800716F726BD00E736FFF0E746F7951756FED
:1020D800766B73517527745176237151755D7651FE
:1020E800800A776F7251800A7759D8B07EEF10F066
:1020F80080EF10F052EF10F0CA0E626F7E0E636F21
:1021080076EC13F0000179519BEC14F00A0E9BEC6D
:1021180014F000017951D00F796FFEC078F079C0C2
:10212800FEF038EC08F078C0FEF0000E0001FD6FFC
:10213800A4EF10F04E0E626F7A0E636F76EC13F018
:1021480012000001FE51D8B4ACEF10F0AEEF10F061
:1021580001EF11F0000EB56FF6EF10F05B0E626F35
:102168007F0E636F76EC13F00001B551300F9BECD6
:1021780014F00A0E9BEC14F0D70E0001B525D96EA9
:10218800DA6A000EDA22DF50B06FCD0EB525D96EAF
:10219800DA6A000EDA22DF50B16FE10EB525D96E8A
:1021A800DA6A000EDA22DF50BCEC0FF04C0E0001A8
:1021B800B525D96EDA6A000EDA22DF50B06F420E0A
:1021C800B525D96EDA6A000EDA22DF50B16FC30E78
:1021D800B525D96EDA6A000EDA22DF5040EC0FF02E
:1021E8000001B52BFE51B55DD8A0FDEF10F0FFEF53
:1021F80010F0B2EF10F007EF11F0450E626F7E0E8F
:10220800636F76EC13F012000001AD6F0A0E000147
:10221800786FD70E796F230E7A6F3C0E7B6FAD51B6
:10222800666F676B686B696B010E17EC0BF066C025
:1022380074F067C075F068C076F069C077F077EC25
:1022480002F074C0A9F075C0AAF076C0ABF077C0F0
:10225800ACF0000E0001786F000E796F7A0E7A6F7D
:10226800440E7B6FA9C074F0AAC075F0ABC076F0BD
:10227800ACC077F077EC02F074C09DF075C09EF0AA
:1022880076C09FF077C0A0F039EC0EF09DC0AEF09C
:102298009EC0AFF0AEC0A7F0030E0001A717A73B82
:1022A800BA50A719CF0BA719BA6EAEC0A7F0AFC026
:1022B800A8F0D890A833A733D890A833A733A7514C
:1022C800BB6E12000001AD6F0A0E0001786FD70EC9
:1022D800796F230E7A6F3C0E7B6FAD51666F676B1B
:1022E800686B696B010E17EC0BF066C074F067C081
:1022F80075F068C076F069C077F077EC02F074C0CA
:10230800A9F075C0AAF076C0ABF077C0ACF0000EAB
:102318000001786F000E796F7A0E7A6F440E7B6F2A
:10232800A9C074F0AAC075F0ABC076F0ACC077F065
:1023380077EC02F074C09DF075C09EF076C09FF0F7
:1023480077C0A0F039EC0EF09DC0AEF09EC0AFF0A3
:10235800AEC0A7F0030E0001A717A73BBD50A719F1
:10236800CF0BA719BD6EAEC0A7F0AFC0A8F0D8902C
:10237800A833A733D890A833A733A751BE6E12004D
:10238800000E0001676FE10E6725D96EDA6A000E4C
:10239800DA22000EDF6ED70E6725D96EDA6A000ED4
:1023A800DA22000EDF6ECD0E6725D96EDA6A000ECE
:1023B800DA22000EDF6EC30E6725D96EDA6A000EC8
:1023C800DA22000EDF6E4C0E6725D96EDA6A000E2F
:1023D800DA22000EDF6E420E6725D96EDA6A000E29
:1023E800DA22000EDF6E140E6725D96EDA6A010E46
:1023F800DA22000EDF6E0A0E6725D96EDA6A010E40
:10240800DA22000EDF6E000E6725D96EDA6A010E39
:10241800DA22000EDF6E672B090E676516EF12F0E1
:1024280018EF12F0C7EF11F0000EFE6F900E626FFA
:102438007C0E636F76EC13F01200386E0A0E136E82
:10244800D70E146E230E156E3C0E166E3850016EA4
:10245800026A036A046A010EF3EC0BF001C00FF084
:1024680002C010F003C011F004C012F08DEC04F0AB
:102478000FC034F010C035F011C036F012C037F07C
:10248800000E136E000E146E7A0E156E440E166E44
:1024980034C00FF035C010F036C011F037C012F05C
:1024A8008DEC04F00FC028F010C029F011C02AF0FC
:1024B80012C02BF0BDEC0EF028C039F029C03AF05C
:1024C80039C032F0030E3216323ABD503218CF0BF3
:1024D8003218BD6E39C032F03AC033F0D89033327A
:1024E8003232D890333232323250BE6E1200386EE9
:1024F8000A0E136ED70E146E230E156E3C0E166E52
:102508003850016E026A036A046A010EF3EC0BF09C
:1025180001C00FF002C010F003C011F004C012F0A7
:102528008DEC04F00FC034F010C035F011C036F057
:1025380012C037F0000E136E000E146E7A0E156E70
:10254800440E166E34C00FF035C010F036C011F0CE
:1025580037C012F08DEC04F00FC028F010C029F03D
:1025680011C02AF012C02BF0BDEC0EF028C039F0D3
:1025780029C03AF039C032F0030E3216323ABA5056
:102588003218CF0B3218BA6E39C032F03AC033F075
:10259800D89033323232D890333232323250BB6E26
:1025A8001200000E0001676FFCEF12F09EAADFEF29
:1025B80012F0E1EF12F0DAEF12F0AECF67F0000E92
:1025C800AE6E3A0E00016761ECEF12F0EEEF12F01A
:1025D800F6EF12F0300E6761F4EF12F0F6EF12F03A
:1025E800FCEF12F0C00E626F7C0E636F76EC13F096
:1025F8003A0E0001676103EF13F005EF13F0DAEF0D
:1026080012F02F0E67650BEF13F00DEF13F0DAEFF2
:1026180012F067511200000E066E0628D8A417EFB4
:1026280013F019EF13F01BEF13F042EF13F00650FD
:102638000224046E000E0320056E04C0F6FF05C0D8
:10264800F7FF0800F5500009D8A42DEF13F02FEF7D
:1026580013F031EF13F042EF13F006500224046E2A
:10266800000E0320056E04C0F6FF05C0F7FF080042
:10267800F550BDEC14F0062A11EF13F0120000011A
:1026880063516411D8B44BEF13F04DEF13F071EFB1
:1026980013F0010E656F55EF13F0D8906337643768
:1026A800652B64AF5AEF13F05CEF13F051EF13F0A2
:1026B8006351615D64516259D8A065EF13F067EF0B
:1026C80013F06BEF13F06351615F6451625BD89054
:1026D80064336333652F5CEF13F061C061F062C04F
:1026E80062F01200000E0001666F66516225646F89
:1026F800000E6321656F64C0F6FF65C0F7FF080030
:10270800F5500009D8A48BEF13F08DEF13F08FEF7D
:1027180013F0A7EF13F066516225646F000E632172
:10272800656F64C0F6FF65C0F7FF0800F5509BECC5
:1027380014F00001662B6629D8A4A5EF13F0A7EFC3
:1027480013F079EF13F01200000162BFB6EF13F037
:10275800625106E16105D8B0B4EF13F0B6EF13F09B
:10276800C4EF13F061C063F062C064F0631F641FBC
:10277800634B642B63C061F064C062F0C8EF13F070
:1027880061C061F062C062F0120000016151621123
:10279800D8B4D1EF13F0D3EF13F0E1EF13F0615198
:1027A8000008636F6251D8A0E82A0008646F64517A
:1027B800D76E63C0D6FFE3EF13F0D768D668120070
:1027C800000161516211D8B4ECEF13F0EEEF13F091
:1027D800FCEF13F061510108636F6251D8A0E82A39
:1027E8000008646F6451CF6E63C0CEFFFEEF13F034
:1027F800CF68CE681200000E0001656F0FEF14F06D
:1028080065516225D96E000E6321DA6E66EC14F00C
:10281800DF6E0001652B6451655DD8A016EF14F0DA
:1028280018EF14F004EF14F0120001EE00F01E0E81
:10283800EE6AE806FDE100EEC3F03C0EEE6AE8063B
:10284800FDE100EE42F0170EEE6AE806FDE1599050
:102858005992000EF86E0001A2EF06F000016551D2
:102868006703F3CF69F0F4CF6AF065516803F3505A
:102878006A2766516703F3506A2769C065F06AC022
:1028880066F012009494BD50F00B0C09BD6EF90E61
:10289800CB6E030ECA12CF0EBD16000EBE6E000E12
:1028A800CC6ECA84120094920F0EBA12F90ECB6E37
:1028B800030ECA12CF0EBA16000EBB6E000ECC6EF7
:1028C800CA8412009EAA6BEF14F06DEF14F066EF45
:1028D80014F0AECF61F0000EAE6E0001615112002F
:1028E800CD90CD8ECD96CD8CCD82CD849480000EAA
:1028F800CF6E000ECE6ECD801200F292F288F18C6F
:102908009380F090F086F18A9382F092F088F188B3
:1029180093841200948C948E100EAF6EAC84B8869B
:10292800AC9CAC8AAC98AB8EAB9CAB881200000117
:10293800616FACA2A2EF14F0A4EF14F09DEF14F0B5
:1029480061C0ADFF1200D59ED59CD58AD5989288D6
:10295800000ED76E000ED66ED58E12008C86010E34
:102968000001FC6F000E08EC11F0320E66EC11F05D
:102978001200016EACA2C3EF14F0C5EF14F0BEEF65
:1029880014F001C0ADFF1200010E586E8C96010EB6
:102998000001FC6F320E66EC11F01200010E586E49
:1029A8008C96010E0001FC6F320E21EC12F0120021
:1029B800010E586E8C92010E0001FC6F320E7BECFA
:1029C80012F012009590959294928C908C928B9222
:1029D80012009594959694948C948C968B941200EE
:1029E8000F0EC112700ED36E1200D09EF28CF28EB2
:0A29F80012009D801200F28A120006
:10786C00000A283029417975646120736F62726552
:10787C0020636F6D6F2066756E63696F6E61206536
:10788C006C2070726F6772616D6120202020202047
:10789C00283129496E74726F647563697220636F45
:1078AC006F7264656E616461206E7565766120200F
:1078BC00283229496D7072696D6972206C61732070
:1078CC00636F6F7264656E61646173207265636966
:1078DC0062696461730A2833294D6F646966696350
:1078EC00617220636F6F7264656E61646120202029
:1078FC002020202020283429496E69636961722078
:10790C0050726F6772616D6120202020202835290C
:10791C005265696E696369617220746F646173206A
:10792C006C617320636F6F7264656E616461730A5E
:10793C00283629496D7072696D697220636F6F7298
:10794C0064656E61642061637475616C2020202015
:10795C002020202837294D6F76696D69656E746F0C
:10796C004C696272652020202020202838294D6126
:10797C006E64617220696E66696E69746F206F2027
:10798C00686F6D650A00496E74726F64756365206B
:10799C00656E20656C207369677569656E7465200A
:1079AC006F7264656E206C617320766172696162BE
:1079BC006C65732061207573617220286E6F207561
:1079CC00736573206C617320636F6D6173293A204A
:1079DC00636F6F7264582C636F6F7264592C232021
:1079EC0064652076656365732061207072657369C8
:1079FC006F6E6172205A00547576697374652075C8
:107A0C006E206572726F722C206573637269626589
:107A1C00206C612070616C6162726120274D656E13
:107A2C007527206F20276D656E7527207061726138
:107A3C00206163636564657220616C206D656E7591
:107A4C000A004E6F20707565646573206D6F6469F4
:107A5C00666963617220636F6F7264656E616461E5
:107A6C007320706F72207175652061756E206E6F5A
:107A7C002068617320616772656761646F206E694D
:107A8C006E67756E610A004572726F722C20657399
:107A9C00746173207175657269656E646F206D6FAA
:107AAC006469666963617220756E6120636F6F72C1
:107ABC0064656E616461207175652061756E206E00
:107ACC006F20616772656761730A004375616C2092
:107ADC00636F6F7264656E61646120717569657244
:107AEC006573206D6F646966696361722C20656CC7
:107AFC006967652076616C6F7265732076616C695D
:107B0C00646F733F0A00457374617320706F722049
:107B1C00696E6963617220656C2070726F67726147
:107B2C006D612C2065737461732073656775726F5A
:107B3C003F2028312920536920285829204E6F00D6
:107B4C00596120657374616E206C61732031302033
:107B5C00636F6F7264656E61646173206C6C656ECB
:107B6C0061732C206E6F207075656465732061677E
:107B7C007265676172206D6173004573637269622F
:107B8C0065206C612070616C6162726120274D65AB
:107B9C006E7527206F20276D656E752720706172BA
:107BAC0061206163636564657220616C206D656E34
:107BBC00750A00566173206120626F7272617220C7
:107BCC00746F646173206C617320636F6F72646592
:107BDC006E616461732C2073656775726F3F20282A
:107BEC003129205369202858294E6F00496E74653D
:107BFC007272757063696F6E20544D52312C206C0B
:107C0C006C656761737465206120636F6F72646566
:107C1C006E616461206465736561646120580A005B
:107C2C00496E74657272757063696F6E20544D5233
:107C3C00302C206C6C656761737465206120636FF8
:107C4C006F7264656E616461206465736561646103
:107C5C0020590A004C617320636F6F7264656E610A
:107C6C006461732061637475616C657320736F6EEE
:107C7C002028582C20592C20546F71756573205A6C
:107C8C0029200A004C6973746F2C20746F64617323
:107C9C00206C617320636F6F7264656E61646173D5
:107CAC002068616E207369646F20626F7272616408
:107CBC0061730A00536F6C6F207075656465732077
:107CCC00696E74726F6475636972206E756D65721E
:107CDC006F732C20707275656261206465206E75FF
:107CEC0065766F004F63757272696F206C612069E5
:107CFC006E74657272757063696F6E206C696D69F4
:107D0C00745377697463683345737175696E617305
:107D1C000A004375616C206465206573746173207F
:107D2C00636F6F7264656E616461732071756965F0
:107D3C00726573206D6F646966696361723F0A00D6
:107D4C00456C656769737465206C61206F7063693D
:107D5C006F6E20646520696D7072696D6972206345
:107D6C006F6F7264656E616461730A00436F6F724A
:107D7C0064656E6164612072656369626964612C1B
:107D8C00206C6F20717565207265636962696D6F17
:107D9C0073206675653A004F63757272696F206C5B
:107DAC006120696E74657272757063696F6E206C98
:107DBC00696D6974537769746368486F6D65580AA7
:107DCC00004F63757272696F206C6120696E746507
:107DDC007272757063696F6E206C696D697453771C
:107DEC0069746368486F6D65590A00486173206156
:107DFC006772656761646F2065737465206E756D5D
:107E0C0065726F20646520636F6F7264656E616468
:107E1C0061733A00456C656363696F6E206E6F2009
:107E2C0076616C696461207675656C766120612081
:107E3C00696E74656E746172004E6F206861732098
:107E4C00616772656761646F206E696E67756E61DC
:107E5C0020636F6F7264656E616461005265636963
:107E6C006269202320646520766563657320612038
:107E7C0070726573696F6E6172205A0A004D657479
:107E8C006973746520756E6120636F6F7264656EC3
:107E9C0061646120696E76616C6964610A002063BB
:107EAC006F6F7264656E616461732C206C617320FA
:107EBC006375616C657320736F6E3A200A005661AE
:107ECC00732061206D6F64696669636172206C61F7
:107EDC0020636F6F7264656E61646120004861732A
:107EEC0020656C656769646F206D6F76696D696577
:107EFC006E746F206C696272650A00456C69676507
:107F0C002028312920696E66696E69746F206F2094
:107F1C00302028686F6D65290053696D6F6E207372
:107F2C0069206C6C656775652061206573746520CC
:107F3C007065646F0046756E63696F6E616D69651F
:107F4C006E746F2064656C2053504152433A005953
:107F5C00656E646F206120636F6F7264656E61641F
:107F6C00613A2000526567726573616E646F2061BF
:107F7C006C206D656E750078546F416476616E632C
:107F8C00652069733A0079546F416476616E63655C
:107F9C002069733A0052656369626920636F6F727E
:107FAC0064580052656369626920636F6F7264592B
:107FBC0000456E747261736520616C203800456EEB
:107FCC00747261736520616C20390041677265675A
:107FDC00617374653A2000436F6F7264656E6164FF
:107FEC0061200044616D6520580A0044616D652074
:047FFC00590A00001E
:020000040020DA
:08000000FFFFFFFFFFFFFFFF00
:020000040030CA
:0E00000000091F1EFF0381FF0FC00FE00F401D
:00000001FF
