:020000040000FA
:0400000014EF00F009
:060008005082A1ED0DF095
:100018005080E0CF60F000F060C0E0FF509010002A
:040028000BEF0EF0DC
:10080000000A596120657374617320656E206C6104
:1008100020636F6F7264656E6164612064657365E7
:100820006164612C2070727565626120636F6E2057
:100830006F74726120636F6F7264656E6164610AC8
:1008400000496E74657272757063696F6E20544DE5
:1008500052312C206C6C6567617374652061206374
:100860006F6F7264656E6164612064657365616455
:10087000610A00456D7069657A61206E7565766103
:1008800020696E737472756363696F6E2C20646186
:100890006D6520747520636F6F7264656E6164614D
:1008A00020590A004C6120636F6F7264656E616449
:1008B000612071756520686520726563696269648D
:1008C0006F2065733A200079546F416476616E63DE
:0708D000652069733A000086
:1008D80000017251800B7B6F72517225816F71AF6D
:1008E80078EF04F07AEF04F07BEF04F08181815116
:1008F800D8B481EF04F083EF04F096EF04F0812977
:10090800D8A489EF04F08BEF04F093EF04F0000E05
:100918006F6F000E706F000E716F000E726F718F27
:100928009EEF04F0000E6F6F000E706F000E716F77
:10093800000E726F7651800B7B1B76517625806F87
:1009480075AFA9EF04F0ABEF04F0ACEF04F08081D1
:100958008051D8B4B2EF04F0B4EF04F0C7EF04F05C
:100968008029D8A4BAEF04F0BCEF04F0C4EF04F077
:10097800000E736F000E746F000E756F000E766FA9
:10098800758FCFEF04F0000E736F000E746F000EBA
:10099800756F000E766F8051D8B4D5EF04F0D7EF9D
:1009A80004F0DFEF04F08151D8A4DDEF04F0DFEFAD
:1009B80004F0E9EF04F0000E6F6F000E706F000E88
:1009C800716F000E726F81EF06F075516F03F3CFF0
:1009D80086F0F4CF87F086517C6F7D6B7E6B7F6BE2
:1009E8008751826F836B846B856B74517003F3CF6F
:1009F80086F0F4CF87F086517C27000E7D237E2376
:100A08007F2387518227000E8323842385237351F4
:100A18007103F3CF86F0F4CF87F086517C27000E60
:100A28007D237E237F2387518227000E83238423FF
:100A380085237EC07FF07DC07EF07CC07DF07C6B1E
:100A480073517003F3CF86F0F4CF87F086517C277B
:100A580087517D23000E7E23000E7F2374516F0380
:100A6800F3CF86F0F4CF87F086517C2787517D231A
:100A7800000E7E23000E7F237EC07FF07DC07EF0B7
:100A88007CC07DF07C6B73516F03F3CF86F0F4CF9D
:100A980087F086517C2787517D23000E7E23000E28
:100AA8007F2375517003F3CF86F0F4CF87F086511A
:100AB800822787518323000E8423000E85237451D7
:100AC8007103F3CF86F0F4CF87F0865182278751E0
:100AD8008323000E8423000E852375517103F3CF01
:100AE80086F0F4CF87F08651776F8751786F796BEE
:100AF8007A6B79C07AF078C079F077C078F0776B44
:100B08007751822778518323795184237A51852319
:100B18007CC077F07DC078F07EC079F07FC07AF035
:100B2800190E9CEF05F0D8907A3379337833773300
:100B3800E82E97EF05F07751822778518323795172
:100B480084237A5185237EC07FF07DC07EF07CC0EF
:100B58007DF07C6B805181C077F0786B7727000E31
:100B68007823820E7725866FFF0E7821876FD2EF64
:100B780005F0D89082378337843785377FAFC7EF42
:100B880005F0C9EF05F0CAEF05F08281D8907C37EF
:100B98007D377E377F378607D8A0870784AFD7EFA2
:100BA80005F0D9EF05F0BDEF05F0000E806F7FAFBF
:100BB800E0EF05F0E2EF05F006EF06F0FF0E7C151A
:100BC800776FFF0E7D15786FFF0E7E15796F7F0E9C
:100BD8007F157A6F7751781179117A11D8B4F7EFB8
:100BE80005F0F9EF05F0FDEF05F0010E806F06EF57
:100BF80006F082A102EF06F004EF06F006EF06F019
:100C0800F9EF05F08051D8B40CEF06F00EEF06F0BE
:100C180032EF06F0010E8227000E832384238523FA
:100C280085A119EF06F01BEF06F032EF06F082C03F
:100C380077F083C078F084C079F085C07AF07A358F
:100C48007A3379337833773377C082F078C083F09A
:100C580079C084F07AC085F0864B872B87BF3DEF3B
:100C680006F0875108E18629D8A03DEF06F03FEF4E
:100C780006F049EF06F0000E826F000E836F800EBB
:100C8800846F7F0E856F77EF06F087BF56EF06F00B
:100C9800875106E18605D8B054EF06F056EF06F006
:100CA80062EF06F0000E826F000E836F000E846FF5
:100CB800000E856F000E7B6F77EF06F086C081F01F
:100CC800FF0E8217FF0E83177F0E8417000E8517FD
:100CD80081A171EF06F073EF06F074EF06F0848FD0
:100CE800D8908131856F7B51851382C06FF083C0A6
:100CF80070F084C071F085C072F012001250800B41
:100D08001B6E12501224216E11AE8DEF06F08FEF7C
:100D180006F090EF06F021802150D8B496EF06F047
:100D280098EF06F0ABEF06F02128D8A49EEF06F066
:100D3800A0EF06F0A8EF06F0000E0F6E000E106E82
:100D4800000E116E000E126E118EB3EF06F0000E3B
:100D58000F6E000E106E000E116E000E126E165001
:100D6800800B1B1A16501624206E15AEBEEF06F027
:100D7800C0EF06F0C1EF06F020802050D8B4C7EFCE
:100D880006F0C9EF06F0DCEF06F02028D8A4CFEF74
:100D980006F0D1EF06F0D9EF06F0000E136E000E44
:100DA800146E000E156E000E166E158EE4EF06F02A
:100DB800000E136E000E146E000E156E000E166EE9
:100DC8002050D8B4EAEF06F0ECEF06F0F4EF06F0A6
:100DD8002150D8A4F2EF06F0F4EF06F0FEEF06F08B
:100DE800000E0F6E000E106E000E116E000E126EC9
:100DF80096EF08F015500F02F3CF26F0F4CF27F046
:100E080026501C6E1D6A1E6A1F6A2750226E236AAE
:100E1800246A256A14501002F3CF26F0F4CF27F085
:100E280026501C26000E1D221E221F222750222675
:100E3800000E23222422252213501102F3CF26F07C
:100E4800F4CF27F026501C26000E1D221E221F223A
:100E580027502226000E2322242225221EC01FF0FE
:100E68001DC01EF01CC01DF01C6A13501002F3CFE9
:100E780026F0F4CF27F026501C2627501D22000EFE
:100E88001E22000E1F2214500F02F3CF26F0F4CFBB
:100E980027F026501C2627501D22000E1E22000E69
:100EA8001F221EC01FF01DC01EF01CC01DF01C6AB2
:100EB80013500F02F3CF26F0F4CF27F026501C264C
:100EC80027501D22000E1E22000E1F221550100250
:100ED800F3CF26F0F4CF27F02650222627502322DE
:100EE800000E2422000E252214501102F3CF26F002
:100EF800F4CF27F02650222627502322000E242242
:100F0800000E252215501102F3CF26F0F4CF27F05A
:100F18002650176E2750186E196A1A6A19C01AF0E7
:100F280018C019F017C018F0176A17502226185061
:100F38002322195024221A5025221CC017F01DC044
:100F480018F01EC019F01FC01AF0190EB1EF07F003
:100F5800D8901A32193218321732E82EACEF07F04F
:100F68001750222618502322195024221A502522BD
:100F78001EC01FF01DC01EF01CC01DF01C6A2050B2
:100F880021C017F0186A1726000E1822820E17249F
:100F9800266EFF0E1820276EE7EF07F0D89022364E
:100FA8002336243625361FAEDCEF07F0DEEF07F0D8
:100FB800DFEF07F02280D8901C361D361E361F360C
:100FC8002606D8A0270624AEECEF07F0EEEF07F0D0
:100FD800D2EF07F0000E206E1FAEF5EF07F0F7EF27
:100FE80007F01BEF08F0FF0E1C14176EFF0E1D1400
:100FF800186EFF0E1E14196E7F0E1F141A6E1750EE
:10100800181019101A10D8B40CEF08F00EEF08F0E9
:1010180012EF08F0010E206E1BEF08F022A017EF68
:1010280008F019EF08F01BEF08F00EEF08F0205059
:10103800D8B421EF08F023EF08F047EF08F0010ECD
:101048002226000E23222422252225A02EEF08F096
:1010580030EF08F047EF08F022C017F023C018F06F
:1010680024C019F025C01AF01A341A32193218326D
:10107800173217C022F018C023F019C024F01AC084
:1010880025F0264A272A27BE52EF08F0275008E104
:101098002628D8A052EF08F054EF08F05EEF08F0C9
:1010A800000E226E000E236E800E246E7F0E256EBB
:1010B8008CEF08F027BE6BEF08F0275006E12604F6
:1010C800D8B069EF08F06BEF08F077EF08F0000E82
:1010D800226E000E236E000E246E000E256E000E8A
:1010E8001B6E8CEF08F026C021F0FF0E2216FF0EB3
:1010F80023167F0E2416000E251621A086EF08F071
:1011080088EF08F089EF08F0248ED8902130256EFA
:101118001B50251222C00FF023C010F024C011F07C
:1011280025C012F012000001696F00016951D8B49E
:10113800A0EF08F0A2EF08F0C4EF08F064BFA9EF31
:1011480008F0A7EF08F0C4EF08F061C065F062C0CE
:1011580066F063C067F064C068F0651F661F671FAC
:10116800681F652B000E66236723682365C06BF034
:1011780066C06CF067C06DF068C06EF0CCEF08F028
:1011880061C06BF062C06CF063C06DF064C06EF05B
:101198006151621163116411D8A4D5EF08F0D7EF3B
:1011A80008F0E1EF08F0000E616F000E626F000EAC
:1011B800636F000E646F72EF09F0960E6A6FEBEFC3
:1011C80008F06A2BD8906E336D336C336B33000E96
:1011D8006B15656F000E6C15666F000E6D15676FE9
:1011E800FE0E6E15686F6551661167116811D8A4F7
:1011F80000EF09F002EF09F0E5EF08F010EF09F051
:101208006A2B010E6B27000E6C236D236E23D8907A
:101218006E336D336C336B33000E6B15656F000ED8
:101228006C15666F000E6D15676FFF0E6E15686F93
:101238006551661167116811D8A425EF09F027EFE9
:1012480009F004EF09F02FEF09F06A07D8906B371F
:101258006C376D376E376DBF34EF09F036EF09F034
:101268003EEF09F0020E6A613CEF09F03EEF09F02B
:1012780029EF09F06AB143EF09F045EF09F046EFAD
:1012880009F06D9FD8906A336AC065F0666B676B2A
:10129800686B65C068F0676B666B656B65516B134F
:1012A80066516C1367516D1368516E136951D8B448
:1012B80060EF09F062EF09F06AEF09F064BF69EFC7
:1012C80009F067EF09F06AEF09F06E8F6BC061F003
:1012D8006CC062F06DC063F06EC064F01200096EFD
:1012E8000950D8B47AEF09F07CEF09F09EEF09F0C5
:1012F80004BE83EF09F081EF09F09EEF09F001C009
:1013080005F002C006F003C007F004C008F0051E8F
:10131800061E071E081E052A000E0622072208229E
:1013280005C00BF006C00CF007C00DF008C00EF0A9
:10133800A6EF09F001C00BF002C00CF003C00DF0DD
:1013480004C00EF00150021003100410D8A4AFEF2F
:1013580009F0B1EF09F0BBEF09F0000E016E000EC5
:10136800026E000E036E000E046E4CEF0AF0960E2D
:101378000A6EC5EF09F00A2AD8900E320D320C32E7
:101388000B32000E0B14056E000E0C14066E000EC8
:101398000D14076EFE0E0E14086E05500610071089
:1013A8000810D8A4DAEF09F0DCEF09F0BFEF09F074
:1013B800EAEF09F00A2A010E0B26000E0C220D2274
:1013C8000E22D8900E320D320C320B32000E0B1456
:1013D800056E000E0C14066E000E0D14076EFF0E3F
:1013E8000E14086E0550061007100810D8A4FFEF59
:1013F80009F001EF0AF0DEEF09F009EF0AF00A063A
:10140800D8900B360C360D360E360DBE0EEF0AF0A0
:1014180010EF0AF018EF0AF0020E0A6016EF0AF051
:1014280018EF0AF003EF0AF00AB01DEF0AF01FEFF9
:101438000AF020EF0AF00D9ED8900A320AC005F093
:10144800066A076A086A05C008F0076A066A056A34
:1014580005500B1206500C1207500D1208500E12B0
:101468000950D8B43AEF0AF03CEF0AF044EF0AF01A
:1014780004BE43EF0AF041EF0AF044EF0AF00E8E83
:101488000BC001F00CC002F00DC003F00EC004F058
:10149800120096EC0EF060EC0EF034EC0EF0000E3C
:1014A80083EC0CF0000E25EC0CF09CEC0EF08FECAD
:1014B8000EF079EC0EF053EC0EF09D800001A45173
:1014C800D8A469EF0AF06BEF0AF062EF0AF045EC76
:1014D8000EF0730E0001626F080E636F6FEC0DF073
:1014E80045EC0EF000019D6F45EC0EF000019E6F7B
:1014F80045EC0EF000019F6FA40E626F080E636F3B
:101508006FEC0DF000019D516DEC0EF000019E5145
:101518006DEC0EF000019F516DEC0EF00D0E6DECB0
:101528000EF000019D51640DF3CF9BF0F4CF9CF0B9
:101538009E510A0DF3509B27F4509C239F519B27E3
:10154800000E9C23300E9B25436EEB0E9C21446EAF
:10155800A051435C616FA1514458626FCFEC0DF00C
:1015680061C065F062C066F0000E0001686F050E8C
:10157800676F20EC0EF065C0A2F066C0A3F0C70E3E
:101588000001626F080E636F6FEC0DF00001A2514D
:101598006DEC0EF00A0E6DEC0EF043500001A05DEC
:1015A8004450A159D8B0DBEF0AF0DDEF0AF0E0EFC4
:1015B8000AF08C86ECEF0AF0A051435CA151445824
:1015C800D8B0E9EF0AF0EBEF0AF0ECEF0AF08C96EE
:1015D800A051431809E1A1514418D8B4F6EF0AF014
:1015E800F8EF0AF006EF0BF0010EA46F8984A2C091
:1015F80061F0A3C062F0F0EC0DF0320E83EC0CF059
:1016080062EF0AF0A051431807E1A1514418D8A489
:1016180010EF0BF012EF0BF01AEF0BF0010E626FE8
:10162800080E636F6FEC0DF062EF0AF062EF0AF0DC
:1016380014EF00F000018A358B35916F9151D8A4D1
:1016480028EF0BF02AEF0BF034EF0BF0000E886F49
:10165800000E896F000E8A6F000E8B6FA1EF0BF0E2
:1016680088C08CF089C08DF08AC08EF08BC08FF056
:10167800200E44EF0BF0D8908F338E338D338C339C
:10168800E82E3FEF0BF08C51906F8A8FFF0E881772
:10169800FF0E8917FF0E8A17000E8B17960E915FA3
:1016A80091BF5BEF0BF059EF0BF071EF0BF091511D
:1016B800800A970FD8B063EF0BF065EF0BF067EF78
:1016C8000BF02AEF0BF0D8908B338A3389338833A9
:1016D800913F67EF0BF089EF0BF01F0E916577EFE5
:1016E8000BF079EF0BF081EF0BF02AEF0BF0D890AD
:1016F800883789378A378B3791079151D8A487EF74
:101708000BF089EF0BF07BEF0BF09051D8B48FEF13
:101718000BF091EF0BF099EF0BF08B1F8A1F891FCD
:10172800886D000E89238A238B2388C088F089C09E
:1017380089F08AC08AF08BC08BF012002A342B34CF
:10174800316E3150D8A4ABEF0BF0ADEF0BF0B7EF23
:101758000BF0000E286E000E296E000E2A6E000E89
:101768002B6E24EF0CF028C02CF029C02DF02AC0D5
:101778002EF02BC02FF0200EC7EF0BF0D8902F3291
:101788002E322D322C32E82EC2EF0BF02C50306E58
:101798002A8EFF0E2816FF0E2916FF0E2A16000E97
:1017A8002B16960E315E31BEDEEF0BF0DCEF0BF040
:1017B800F4EF0BF03150800A970FD8B0E6EF0BF03A
:1017C800E8EF0BF0EAEF0BF0ADEF0BF0D8902B320F
:1017D8002A3229322832313EEAEF0BF00CEF0CF0B6
:1017E8001F0E3164FAEF0BF0FCEF0BF004EF0CF076
:1017F800ADEF0BF0D890283629362A362B3631062D
:101808003150D8A40AEF0CF00CEF0CF0FEEF0BF0FF
:101818003050D8B412EF0CF014EF0CF01CEF0CF0B1
:101828002B1E2A1E291E286C000E29222A222B2252
:1018380028C028F029C029F02AC02AF02BC02BF094
:1018480012000001986F0A0E0001736FD70E746FB3
:10185800230E756F3C0E766F9851616F626B636BE8
:10186800646B010E97EC08F061C06FF062C070F015
:1018780063C071F064C072F06CEC04F06FC094F057
:1018880070C095F071C096F072C097F0000E00011C
:10189800736F000E746F7A0E756F440E766F94C076
:1018A8006FF095C070F096C071F097C072F06CEC54
:1018B80004F06FC088F070C089F071C08AF072C0FF
:1018C8008BF01EEC0BF088C099F089C09AF099C093
:1018D80092F0030E00019217923BBA509219CF0B67
:1018E8009219BA6E99C092F09AC093F0D890933337
:1018F8009233D890933392339251BB6E1200000109
:10190800986F0A0E0001736FD70E746F230E756FF0
:101918003C0E766F9851616F626B636B646B010E5E
:1019280097EC08F061C06FF062C070F063C071F0AE
:1019380064C072F06CEC04F06FC094F070C095F065
:1019480071C096F072C097F0000E0001736F000E20
:10195800746F7A0E756F440E766F94C06FF095C0F1
:1019680070F096C071F097C072F06CEC04F06FC024
:1019780088F070C089F071C08AF072C08BF01EECDC
:101988000BF088C099F089C09AF099C092F0030EC4
:1019980000019217923BBD509219CF0B9219BD6E60
:1019A80099C092F09AC093F0D89093339233D8901C
:1019B800933392339251BE6E1200386E0A0E136E34
:1019C800D70E146E230E156E3C0E166E3850016E2F
:1019D800026A036A046A010E73EC09F001C00FF091
:1019E80002C010F003C011F004C012F082EC06F03F
:1019F8000FC034F010C035F011C036F012C037F007
:101A0800000E136E000E146E7A0E156E440E166ECE
:101A180034C00FF035C010F036C011F037C012F0E6
:101A280082EC06F00FC028F010C029F011C02AF08F
:101A380012C02BF0A2EC0BF028C039F029C03AF004
:101A480039C032F0030E3216323ABD503218CF0B7D
:101A58003218BD6E39C032F03AC033F0D890333204
:101A68003232D890333232323250BE6E1200000E0B
:101A7800066E0628D8A443EF0DF045EF0DF047EFAA
:101A88000DF06EEF0DF006500224046E000E0320D8
:101A9800056E04C0F6FF05C0F7FF0800F550000901
:101AA800D8A459EF0DF05BEF0DF05DEF0DF06EEF80
:101AB8000DF006500224046E000E0320056E04C0CB
:101AC800F6FF05C0F7FF0800F55084EC0EF0062A73
:101AD8003DEF0DF01200000E0001666F66516225A1
:101AE800646F000E6321656F64C0F6FF65C0F7FF81
:101AF8000800F5500009D8A484EF0DF086EF0DF02A
:101B080088EF0DF0A0EF0DF066516225646F000EAE
:101B18006321656F64C0F6FF65C0F7FF0800F550E4
:101B28006DEC0EF00001662B6629D8A49EEF0DF02F
:101B3800A0EF0DF072EF0DF012000600F3CF3BF0AE
:101B4800F4CF3CF0F6CF3DF0F7CF3EF0F8CF3FF0C2
:101B5800F5CF40F09E80000EE1EC0CF0899443C074
:101B6800A0F044C0A1F0410E026E080E036E3BECDB
:101B78000DF0000E0001A46F9E9040C0F5FF3FC01D
:101B8800F8FF3EC0F7FF3DC0F6FF3CC0F4FF3BC086
:101B9800F3FF50921100000162BFDDEF0DF06251BA
:101BA80006E16105D8B0DBEF0DF0DDEF0DF0EBEFEE
:101BB8000DF061C063F062C064F0631F641F634B83
:101BC800642B63C061F064C062F0EFEF0DF061C098
:101BD80061F062C062F01200000161516211D8B474
:101BE800F8EF0DF0FAEF0DF008EF0EF06151010873
:101BF800636F6251D8A0E82A0008646F6451CF6E01
:101C080063C0CEFF0AEF0EF0CF68CE68120000EE78
:101C18009DF0080EEE6AE806FDE100EE41F00F0EB9
:101C2800EE6AE806FDE150905092000EF86E080E3C
:101C3800F76E00014DEF0AF0000165516703F3CF1D
:101C480069F0F4CF6AF065516803F3506A2766516A
:101C58006703F3506A2769C065F06AC066F012002E
:101C68009494BD50F00B0C09BD6EF90ECB6E030EAB
:101C7800CA12CF0EBD16000EBE6E000ECC6ECA8400
:101C880012009EAA4AEF0EF04CEF0EF045EF0EF050
:101C9800AECF61F0000EAE6E000161511200CD9022
:101CA800CD8ECD96CD8CCD82CD849480000ECF6E16
:101CB800000ECE6ECD801200948C948E100EAF6EF6
:101CC800AC84B886AC9CAC8AAC98AB8EAB9CAB8829
:101CD80012000001616FACA274EF0EF076EF0EF007
:101CE8006FEF0EF061C0ADFF120092949296899446
:101CF80089969590959294928C908C928B921200E2
:101D0800016EACA28AEF0EF08CEF0EF085EF0EF0AC
:101D180001C0ADFF12009594959694948C948C967E
:101D28008B9412000F0EC112700ED36E9390120096
:081D3800D09EF28CF28E120025
:020000040020DA
:08000000FFFFFFFFFFFFFFFF00
:020000040030CA
:0E00000000091F1FFF0381FF0FC00FE00F401C
:00000001FF
