:020000040000FA
:0400000014EF00F009
:0600080057826DED0DF0C2
:100018005780E0CF60F000F060C0E0FF579010001C
:10002800F1EF0DF000017251800B7B6F7251722558
:10003800816F71AF22EF00F024EF00F025EF00F0A0
:1000480081818151D8B42BEF00F02DEF00F040EF03
:1000580000F08129D8A433EF00F035EF00F03DEF30
:1000680000F0000E6F6F000E706F000E716F000EC3
:10007800726F718F48EF00F0000E6F6F000E706F97
:10008800000E716F000E726F7651800B7B1B7651DC
:100098007625806F75AF53EF00F055EF00F056EFFF
:1000A80000F080818051D8B45CEF00F05EEF00F082
:1000B80071EF00F08029D8A464EF00F066EF00F03B
:1000C8006EEF00F0000E736F000E746F000E756F08
:1000D800000E766F758F79EF00F0000E736F000ECB
:1000E800746F000E756F000E766F8051D8B47FEF75
:1000F80000F081EF00F089EF00F08151D8A487EF7C
:1001080000F089EF00F093EF00F0000E6F6F000E23
:10011800706F000E716F000E726F2BEF02F0755149
:100128006F03F3CF86F0F4CF87F086517C6F7D6B39
:100138007E6B7F6B8751826F836B846B856B745189
:100148007003F3CF86F0F4CF87F086517C27000E3A
:100158007D237E237F2387518227000E83238423D8
:10016800852373517103F3CF86F0F4CF87F086515E
:100178007C27000E7D237E237F2387518227000E54
:100188008323842385237EC07FF07DC07EF07CC0DE
:100198007DF07C6B73517003F3CF86F0F4CF87F05A
:1001A80086517C2787517D23000E7E23000E7F23F6
:1001B80074516F03F3CF86F0F4CF87F086517C2714
:1001C80087517D23000E7E23000E7F237EC07FF0A3
:1001D8007DC07EF07CC07DF07C6B73516F03F3CFE4
:1001E80086F0F4CF87F086517C2787517D23000E57
:1001F8007E23000E7F2375517003F3CF86F0F4CF72
:1002080087F08651822787518323000E8423000EAE
:10021800852374517103F3CF86F0F4CF87F08651AC
:10022800822787518323000E8423000E852375516E
:100238007103F3CF86F0F4CF87F08651776F87513B
:10024800786F796B7A6B79C07AF078C079F077C07B
:1002580078F0776B775182277851832379518423FB
:100268007A5185237CC077F07DC078F07EC079F024
:100278007FC07AF0190E46EF01F0D8907A337933BF
:1002880078337733E82E41EF01F0775182277851A0
:100298008323795184237A5185237EC07FF07DC0E2
:1002A8007EF07CC07DF07C6B805181C077F0786BEC
:1002B8007727000E7823820E7725866FFF0E782128
:1002C800876F7CEF01F0D890823783378437853782
:1002D8007FAF71EF01F073EF01F074EF01F08281ED
:1002E800D8907C377D377E377F378607D8A0870739
:1002F80084AF81EF01F083EF01F067EF01F0000EAA
:10030800806F7FAF8AEF01F08CEF01F0B0EF01F062
:10031800FF0E7C15776FFF0E7D15786FFF0E7E152B
:10032800796F7F0E7F157A6F7751781179117A116D
:10033800D8B4A1EF01F0A3EF01F0A7EF01F0010E8F
:10034800806FB0EF01F082A1ACEF01F0AEEF01F0E9
:10035800B0EF01F0A3EF01F08051D8B4B6EF01F08F
:10036800B8EF01F0DCEF01F0010E8227000E8323C5
:100378008423852385A1C3EF01F0C5EF01F0DCEFED
:1003880001F082C077F083C078F084C079F085C02E
:100398007AF07A357A3379337833773377C082F0E5
:1003A80078C083F079C084F07AC085F0864B872BBB
:1003B80087BFE7EF01F0875108E18629D8A0E7EF6A
:1003C80001F0E9EF01F0F3EF01F0000E826F000E8B
:1003D800836F800E846F7F0E856F21EF02F087BFD9
:1003E80000EF02F0875106E18605D8B0FEEF01F074
:1003F80000EF02F00CEF02F0000E826F000E836F28
:10040800000E846F000E856F000E7B6F21EF02F0E7
:1004180086C081F0FF0E8217FF0E83177F0E8417A8
:10042800000E851781A11BEF02F01DEF02F01EEFF1
:1004380002F0848FD8908131856F7B51851382C0FB
:100448006FF083C070F084C071F085C072F0120044
:100458001250800B1B6E12501224216E11AE37EF12
:1004680002F039EF02F03AEF02F021802150D8B4BF
:1004780040EF02F042EF02F055EF02F02128D8A435
:1004880048EF02F04AEF02F052EF02F0000E0F6E52
:10049800000E106E000E116E000E126E118E5DEFC2
:1004A80002F0000E0F6E000E106E000E116E000EA0
:1004B800126E1650800B1B1A16501624206E15AE9D
:1004C80068EF02F06AEF02F06BEF02F02080205034
:1004D800D8B471EF02F073EF02F086EF02F0202833
:1004E800D8A479EF02F07BEF02F083EF02F0000E60
:1004F800136E000E146E000E156E000E166E158E1D
:100508008EEF02F0000E136E000E146E000E156EC4
:10051800000E166E2050D8B494EF02F096EF02F059
:100528009EEF02F02150D8A49CEF02F09EEF02F05B
:10053800A8EF02F0000E0F6E000E106E000E116E86
:10054800000E126E40EF04F015500F02F3CF26F0A4
:10055800F4CF27F026501C6E1D6A1E6A1F6A2750AA
:10056800226E236A246A256A14501002F3CF26F0FB
:10057800F4CF27F026501C26000E1D221E221F2213
:1005880027502226000E232224222522135011024E
:10059800F3CF26F0F4CF27F026501C26000E1D229C
:1005A8001E221F2227502226000E23222422252223
:1005B8001EC01FF01DC01EF01CC01DF01C6A135089
:1005C8001002F3CF26F0F4CF27F026501C26275030
:1005D8001D22000E1E22000E1F2214500F02F3CF00
:1005E80026F0F4CF27F026501C2627501D22000E97
:1005F8001E22000E1F221EC01FF01DC01EF01CC0B0
:100608001DF01C6A13500F02F3CF26F0F4CF27F029
:1006180026501C2627501D22000E1E22000E1F22C7
:1006280015501002F3CF26F0F4CF27F026502226DB
:1006380027502322000E2422000E252214501102D6
:10064800F3CF26F0F4CF27F0265022262750232276
:10065800000E2422000E252215501102F3CF26F099
:10066800F4CF27F02650176E2750186E196A1A6AA9
:1006780019C01AF018C019F017C018F0176A1750E7
:10068800222618502322195024221A5025221CC031
:1006980017F01DC018F01EC019F01FC01AF0190E6F
:1006A8005BEF03F0D8901A32193218321732E82E5D
:1006B80056EF03F0175022261850232219502422EF
:1006C8001A5025221EC01FF01DC01EF01CC01DF0B0
:1006D8001C6A205021C017F0186A1726000E18222D
:1006E800820E1724266EFF0E1820276E91EF03F056
:1006F800D89022362336243625361FAE86EF03F0EF
:1007080088EF03F089EF03F02280D8901C361D365D
:100718001E361F362606D8A0270624AE96EF03F00D
:1007280098EF03F07CEF03F0000E206E1FAE9FEFF2
:1007380003F0A1EF03F0C5EF03F0FF0E1C14176ED2
:10074800FF0E1D14186EFF0E1E14196E7F0E1F1457
:100758001A6E1750181019101A10D8B4B6EF03F003
:10076800B8EF03F0BCEF03F0010E206EC5EF03F005
:1007780022A0C1EF03F0C3EF03F0C5EF03F0B8EF19
:1007880003F02050D8B4CBEF03F0CDEF03F0F1EF36
:1007980003F0010E2226000E23222422252225A062
:1007A800D8EF03F0DAEF03F0F1EF03F022C017F00F
:1007B80023C018F024C019F025C01AF01A341A32D0
:1007C80019321832173217C022F018C023F019C096
:1007D80024F01AC025F0264A272A27BEFCEF03F08A
:1007E800275008E12628D8A0FCEF03F0FEEF03F01D
:1007F80008EF04F0000E226E000E236E800E246EA9
:100808007F0E256E36EF04F027BE15EF04F0275053
:1008180006E12604D8B013EF04F015EF04F021EF39
:1008280004F0000E226E000E236E000E246E000EE1
:10083800256E000E1B6E36EF04F026C021F0FF0E69
:100848002216FF0E23167F0E2416000E251621A051
:1008580030EF04F032EF04F033EF04F0248ED89038
:100868002130256E1B50251222C00FF023C010F036
:1008780024C011F025C012F01200000E0001706FA4
:10088800000E6F6F090EFA654CEF04F04EEF04F09E
:1008980056EF04F0F905D8A454EF04F056EF04F02D
:1008A800C7EF05F0770E0001626F7B0E636F3BECBC
:1008B8000DF0EA0E0001FA25D96EDA6A000EDA2286
:1008C800CDEC0CF0DF6EE00E0001FA25D96EDA6A85
:1008D800000EDA22CDEC0CF0DF6ED60E0001FA2500
:1008E800D96EDA6A000EDA22CDEC0CF0DF6E970EC4
:1008F8000001626F7F0E636F3BEC0DF0CC0E0001C0
:10090800FA25D96EDA6A000EDA22CDEC0CF0DF6E29
:10091800C20E0001FA25D96EDA6A000EDA22CDEC91
:100928000CF0DF6EB80E0001FA25D96EDA6A000EF7
:10093800DA22CDEC0CF0DF6EA50E0001626F7F0E9F
:10094800636F3BEC0DF0AE0E0001FA25D96EDA6A42
:10095800000EDA22CDEC0CF0DF6E410E0001FA2514
:10096800D96EDA6A000EDA22CDEC0CF0DF6E000EDA
:100978000001FA25D96EDA6A010EDA22CDEC0CF004
:10098800DF6EC30E0001626F7E0E636F3BEC0DF0ED
:10099800EA0E0001FA25D96EDA6A000EDA22DF5073
:1009A800686F6851640DF3CF69F0F4CF6AF0E00E18
:1009B800FA25D96EDA6A000EDA22DF506B6F6B51B6
:1009C8000A0DF3506927F4506A23D60EFA25D96E1A
:1009D800DA6A000EDA22DF506C6F6C516927000E5C
:1009E8006A23300E69256D6FEB0E6A216E6FCC0E8F
:1009F800FA25D96EDA6A000EDA22DF50686F68517C
:100A0800640DF3CF69F0F4CF6AF0C20EFA25D96EFF
:100A1800DA6A000EDA22DF506B6F6B510A0DF35061
:100A28006927F4506A23B80EFA25D96EDA6A000EDF
:100A3800DA22DF506C6F6C516927000E6A23300E82
:100A480069256F6FEB0E6A21706F2D0E6D5D010EBB
:100A58006E59D8B032EF05F034EF05F03FEF05F0EE
:100A68002D0E6F5D010E7059D8A03DEF05F03FEFD8
:100A780005F047EF05F0E40E626F7E0E636F3BEC06
:100A88000DF056EF04F04A0E626F7E0E636F3BEC7A
:100A98000DF0EA0E0001FA25D96EDA6A000EDA22A4
:100AA800DF5066EC0EF0E00E0001FA25D96EDA6A26
:100AB800000EDA22DF5066EC0EF0D60E0001FA25A1
:100AC800D96EDA6A000EDA22DF5066EC0EF02C0ED0
:100AD80066EC0EF0CC0E0001FA25D96EDA6A000E2B
:100AE800DA22DF5066EC0EF0C20E0001FA25D96E4C
:100AF800DA6A000EDA22DF5066EC0EF0B80E00015A
:100B0800FA25D96EDA6A000EDA22DF5066EC0EF0AA
:100B18002C0E66EC0EF0AE0E0001FA25D96EDA6ADC
:100B2800000EDA22DF5066EC0EF0410E0001FA25C5
:100B3800D96EDA6A000EDA22DF5066EC0EF0000E8B
:100B48000001FA25D96EDA6A010EDA22DF5066EC66
:100B58000EF02E0E66EC0EF00001F951D8A4B7EF96
:100B680005F0B9EF05F0CDEF05F0750E626F7E0E5A
:100B7800636F3BEC0DF00001FA2BFA51300F66EC75
:100B88000EF0CDEF05F0B20E626F7C0E636F3BEC9A
:100B98000DF0120096EC0EF059EC0EF02FEC0EF062
:100BA8001EEC0EF0000E5AEC0BF0000EB8EC0BF039
:100BB8008FEC0EF088EC0EF072EC0EF04CEC0EF0B0
:100BC8009BEC0EF0A1EC0EF09FEC0EF0000E000175
:100BD800A86FA40EA26F000EA36F3EEC0EF0EC0EF1
:100BE8000001626F7C0E636F3BEC0DF0A2C062F0F7
:100BF800A3C063F0040E0001A06FA0C064F0D7EC9E
:100C08000DF04D0E0001A419D8B40DEF06F00FEF4A
:100C180006F018EF06F06D0EA419D8A416EF06F02A
:100C280018EF06F01CEF07F0650EA519D8A41FEF02
:100C380006F021EF06F01CEF07F06E0EA619D8A4F7
:100C480028EF06F02AEF06F01CEF07F0750EA7193B
:100C5800D8A431EF06F033EF06F01CEF07F0A30E2F
:100C6800626F7A0E636F3BEC0DF03EEC0EF0000104
:100C7800AD6F47EF06F09E0E626F7E0E636F3BEC22
:100C88000DF039EF06F03A0EAD614DEF06F04FEF7B
:100C980006F03FEF06F02F0EAD6555EF06F057EF63
:100CA80006F03FEF06F0300EAD19D8A45EEF06F05F
:100CB80060EF06F066EF06F0440E626F7F0E636F1A
:100CC8003BEC0DF0310E0001AD19D8A46EEF06F023
:100CD80070EF06F072EF06F041EC04F0320E0001FE
:100CE800AD19D8A47AEF06F07CEF06F084EF06F091
:100CF8001E0E626F7E0E636F3BEC0DF0DCEC08F0AD
:100D0800330E0001AD19D8A48CEF06F08EEF06F073
:100D1800A7EF06F05E0E626F7F0E636F3BEC0DF07F
:100D2800CDEC0CF00001A96FCDEC0CF00001AA6F1E
:100D3800CDEC0CF00001AB6FAAC09BF0ABC09CF0EF
:100D4800A95181EC0AF0340E0001AD19D8A4AFEF17
:100D580006F0B1EF06F0B3EF06F0FBEC0AF0350E43
:100D68000001AD19D8A4BBEF06F0BDEF06F0C3EF44
:100D780006F0B30E626F7F0E636F3BEC0DF0360E1C
:100D88000001AD19D8A4CBEF06F0CDEF06F0EAEFDD
:100D980006F0250E626F7D0E636F3BEC0DF0CDEC17
:100DA8000CF00001AC6F310EAC19D8A4DEEF06F0E0
:100DB800E0EF06F0E4EF06F016EC0CF0EAEF06F0D0
:100DC800750E626F7F0E636F3BEC0DF0370E0001FE
:100DD800AD19D8A4F2EF06F0F4EF06F0FAEF06F03A
:100DE800C00E626F7F0E636F3BEC0DF0380E000192
:100DF800AD19D8A402EF07F004EF07F00AEF07F0E7
:100E0800CD0E626F7F0E636F3BEC0DF0390E000163
:100E1800AD19D8A412EF07F014EF07F0FAEF05F0B8
:100E2800DA0E626F7F0E636F3BEC0DF0FAEF05F0A0
:100E3800E80E626F7B0E636F3BEC0DF0FAEF05F086
:100E480014EF00F00001696F00016951D8B42FEF69
:100E580007F031EF07F053EF07F064BF38EF07F002
:100E680036EF07F053EF07F061C065F062C066F037
:100E780063C067F064C068F0651F661F671F681F5E
:100E8800652B000E66236723682365C06BF066C078
:100E98006CF067C06DF068C06EF05BEF07F061C082
:100EA8006BF062C06CF063C06DF064C06EF06151AD
:100EB800621163116411D8A464EF07F066EF07F0BC
:100EC80070EF07F0000E616F000E626F000E636F27
:100ED800000E646F01EF08F0960E6A6F7AEF07F064
:100EE8006A2BD8906E336D336C336B33000E6B15F1
:100EF800656F000E6C15666F000E6D15676FFE0E40
:100F08006E15686F6551661167116811D8A48FEF67
:100F180007F091EF07F074EF07F09FEF07F06A2BE7
:100F2800010E6B27000E6C236D236E23D8906E3351
:100F38006D336C336B33000E6B15656F000E6C15DB
:100F4800666F000E6D15676FFF0E6E15686F655141
:100F5800661167116811D8A4B4EF07F0B6EF07F06F
:100F680093EF07F0BEEF07F06A07D8906B376C373E
:100F78006D376E376DBFC3EF07F0C5EF07F0CDEFE4
:100F880007F0020E6A61CBEF07F0CDEF07F0B8EF7C
:100F980007F06AB1D2EF07F0D4EF07F0D5EF07F00A
:100FA8006D9FD8906A336AC065F0666B676B686B33
:100FB80065C068F0676B666B656B65516B1366514E
:100FC8006C1367516D1368516E136951D8B4EFEF04
:100FD80007F0F1EF07F0F9EF07F064BFF8EF07F05B
:100FE800F6EF07F0F9EF07F06E8F6BC061F06CC099
:100FF80062F06DC063F06EC064F01200096E0950B3
:10100800D8B409EF08F00BEF08F02DEF08F004BE94
:1010180012EF08F010EF08F02DEF08F001C005F00E
:1010280002C006F003C007F004C008F0051E061E43
:10103800071E081E052A000E06220722082205C0E0
:101048000BF006C00CF007C00DF008C00EF035EF2D
:1010580008F001C00BF002C00CF003C00DF004C092
:101068000EF00150021003100410D8A43EEF08F04F
:1010780040EF08F04AEF08F0000E016E000E026E15
:10108800000E036E000E046EDBEF08F0960E0A6E7B
:1010980054EF08F00A2AD8900E320D320C320B3277
:1010A800000E0B14056E000E0C14066E000E0D14C7
:1010B800076EFE0E0E14086E055006100710081075
:1010C800D8A469EF08F06BEF08F04EEF08F079EF5D
:1010D80008F00A2A010E0B26000E0C220D220E2201
:1010E800D8900E320D320C320B32000E0B14056EF6
:1010F800000E0C14066E000E0D14076EFF0E0E1473
:10110800086E0550061007100810D8A48EEF08F0D6
:1011180090EF08F06DEF08F098EF08F00A06D89005
:101128000B360C360D360E360DBE9DEF08F09FEFD0
:1011380008F0A7EF08F0020E0A60A5EF08F0A7EF85
:1011480008F092EF08F00AB0ACEF08F0AEEF08F044
:10115800AFEF08F00D9ED8900A320AC005F0066A73
:10116800076A086A05C008F0076A066A056A055032
:101178000B1206500C1207500D1208500E1209508F
:10118800D8B4C9EF08F0CBEF08F0D3EF08F004BEED
:10119800D2EF08F0D0EF08F0D3EF08F00E8E0BC0B6
:1011A80001F00CC002F00DC003F00EC004F01200F4
:1011B8000001FA51300F676FE70E626F7F0E636FA1
:1011C8003BEC0DF00001675166EC0EF0050E0001D6
:1011D800626F7F0E636F3BEC0DF0000E0001686FCD
:1011E80070EF09F0F30E626F7F0E636F3BEC0DF04A
:1011F80000016851300F66EC0EF0F00E0001626FCE
:101208007F0E636F3BEC0DF0EA0E00016825D96E86
:10121800DA6A000EDA22DF5066EC0EF0E00E00010A
:101228006825D96EDA6A000EDA22DF5066EC0EF015
:10123800D60E00016825D96EDA6A000EDA22DF5070
:1012480066EC0EF02C0E66EC0EF0CC0E0001682554
:10125800D96EDA6A000EDA22DF5066EC0EF0C20EA2
:1012680000016825D96EDA6A000EDA22DF5066ECD2
:101278000EF0B80E00016825D96EDA6A000EDA227F
:10128800DF5066EC0EF02C0E66EC0EF0AE0E000190
:101298006825D96EDA6A000EDA22DF5066EC0EF0A5
:1012A800410E00016825D96EDA6A000EDA22DF5095
:1012B80066EC0EF0000E00016825D96EDA6A010EA0
:1012C800DA22DF5066EC0EF02E0E66EC0EF00A0EF7
:1012D80066EC0EF00001682BFA51685DD8A077EF34
:1012E80009F079EF09F0F6EF08F0120000018A35ED
:1012F8008B35916F9151D8A484EF09F086EF09F0EE
:1013080090EF09F0000E886F000E896F000E8A6F4B
:10131800000E8B6FFDEF09F088C08CF089C08DF04E
:101328008AC08EF08BC08FF0200EA0EF09F0D89005
:101338008F338E338D338C33E82E9BEF09F08C512D
:10134800906F8A8FFF0E8817FF0E8917FF0E8A1776
:10135800000E8B17960E915F91BFB7EF09F0B5EFAE
:1013680009F0CDEF09F09151800A970FD8B0BFEF7F
:1013780009F0C1EF09F0C3EF09F086EF09F0D89042
:101388008B338A3389338833913FC3EF09F0E5EF14
:1013980009F01F0E9165D3EF09F0D5EF09F0DDEFE5
:1013A80009F086EF09F0D890883789378A378B3764
:1013B80091079151D8A4E3EF09F0E5EF09F0D7EFD1
:1013C80009F09051D8B4EBEF09F0EDEF09F0F5EF23
:1013D80009F08B1F8A1F891F886D000E89238A23B5
:1013E8008B2388C088F089C089F08AC08AF08BC0B6
:1013F8008BF012002A342B34316E3150D8A407EF09
:101408000AF009EF0AF013EF0AF0000E286E000E3A
:10141800296E000E2A6E000E2B6E80EF0AF028C08F
:101428002CF029C02DF02AC02EF02BC02FF0200E52
:1014380023EF0AF0D8902F322E322D322C32E82E9C
:101448001EEF0AF02C50306E2A8EFF0E2816FF0E63
:101458002916FF0E2A16000E2B16960E315E31BE87
:101468003AEF0AF038EF0AF050EF0AF03150800AEC
:10147800970FD8B042EF0AF044EF0AF046EF0AF0AF
:1014880009EF0AF0D8902B322A3229322832313E1D
:1014980046EF0AF068EF0AF01F0E316456EF0AF0C3
:1014A80058EF0AF060EF0AF009EF0AF0D8902836F2
:1014B80029362A362B3631063150D8A466EF0AF081
:1014C80068EF0AF05AEF0AF03050D8B46EEF0AF01D
:1014D80070EF0AF078EF0AF02B1E2A1E291E286CDE
:1014E800000E29222A222B2228C028F029C029F000
:1014F8002AC02AF02BC02BF0120000019F6F0001B8
:10150800F805D8B48AEF0AF08CEF0AF083EF0AF0F6
:101518009F51640DF3CF9DF0F4CF9EF09B510A0DBF
:10152800F3509D27F4509E239C519D27000E9E2327
:10153800300E9D254D6EEB0E9E214E6EF4514D5C86
:10154800616FF5514E58626F9BEC0DF061C065F00C
:1015580062C066F0000E0001686F050E676F0AEC46
:101568000EF065C0F6F066C0F7F0880E0001626FF5
:101578007F0E636F3BEC0DF00001F65166EC0EF048
:101588000A0E66EC0EF04D500001F45D4E50F55910
:10159800D8B0D1EF0AF0D3EF0AF0D6EF0AF08C8278
:1015A800E2EF0AF0F4514D5CF5514E58D8B0DFEF38
:1015B8000AF0E1EF0AF0E2EF0AF08C92F4514D18CC
:1015C80009E1F5514E18D8B4ECEF0AF0EEEF0AF045
:1015D800FAEF0AF0010EF86F8984F6C061F0F7C0DF
:1015E80062F0BCEC0DF0320E5AEC0BF01200010E5A
:1015F8000001F96F010EF96FDCEC08F0F00E000144
:10160800626F7D0E636F3BEC0DF0CDEC0CF00001CA
:10161800796F20EF0BF0330E626F7C0E636F3BEC3B
:101628000DF0770E0001626F7C0E636F3BEC0DF0DE
:10163800CDEC0CF00001796FFA51716F726BD00E1E
:10164800736FFF0E746F7951756F766B73517527D1
:10165800745176237151755D7651800A776F725196
:10166800800A7759D8B03BEF0BF03DEF0BF00FEF46
:101678000BF0250E626F7F0E636F3BEC0DF00001DF
:10168800795166EC0EF00A0E66EC0EF00001795105
:10169800D00F796FFAC078F079C0FAF041EC04F015
:1016A80078C0FAF0000E0001F96F12000001986F7F
:1016B8000A0E0001736FD70E746F230E756F3C0E00
:1016C800766F9851616F626B636B646B010E26ECE9
:1016D80007F061C06FF062C070F063C071F064C061
:1016E80072F016EC00F06FC094F070C095F071C005
:1016F80096F072C097F0000E0001736F000E746FC1
:101708007A0E756F440E766F94C06FF095C070F0C6
:1017180096C071F097C072F016EC00F06FC088F0B8
:1017280070C089F071C08AF072C08BF07AEC09F051
:1017380088C099F089C09AF099C092F0030E000110
:101748009217923BBA509219CF0B9219BA6E99C060
:1017580092F09AC093F0D89093339233D890933301
:1017680092339251BB6E12000001986F0A0E00016D
:10177800736FD70E746F230E756F3C0E766F98518A
:10178800616F626B636B646B010E26EC07F061C0DE
:101798006FF062C070F063C071F064C072F016EC54
:1017A80000F06FC094F070C095F071C096F072C0F0
:1017B80097F0000E0001736F000E746F7A0E756F4C
:1017C800440E766F94C06FF095C070F096C071F0BB
:1017D80097C072F016EC00F06FC088F070C089F006
:1017E80071C08AF072C08BF07AEC09F088C099F069
:1017F80089C09AF099C092F0030E00019217923BAB
:10180800BD509219CF0B9219BD6E99C092F09AC033
:1018180093F0D89093339233D89093339233925174
:10182800BE6E1200000E0001676FEA0E6725D96EC2
:10183800DA6A000EDA22000EDF6EE00E6725D96E36
:10184800DA6A000EDA22000EDF6ED60E6725D96E30
:10185800DA6A000EDA22000EDF6ECC0E6725D96E2A
:10186800DA6A000EDA22000EDF6EC20E6725D96E24
:10187800DA6A000EDA22000EDF6EB80E6725D96E1E
:10188800DA6A000EDA22000EDF6EAE0E6725D96E18
:10189800DA6A000EDA22000EDF6E410E6725D96E75
:1018A800DA6A000EDA22000EDF6E000E6725D96EA6
:1018B800DA6A010EDA22000EDF6E672B090E676501
:1018C80068EF0CF06AEF0CF019EF0CF0000EFA6FED
:1018D800900E626F7D0E636F3BEC0DF01200386E58
:1018E8000A0E136ED70E146E230E156E3C0E166E6E
:1018F8003850016E026A036A046A010E02EC08F0AD
:1019080001C00FF002C010F003C011F004C012F0C3
:101918002CEC02F00FC034F010C035F011C036F0D6
:1019280012C037F0000E136E000E146E7A0E156E8C
:10193800440E166E34C00FF035C010F036C011F0EA
:1019480037C012F02CEC02F00FC028F010C029F0BC
:1019580011C02AF012C02BF0FEEC09F028C039F0B3
:1019680029C03AF039C032F0030E3216323ABA5072
:101978003218CF0B3218BA6E39C032F03AC033F091
:10198800D89033323232D890333232323250BB6E42
:101998001200000E0001676FF4EF0CF09EAAD7EF5B
:1019A8000CF0D9EF0CF0D2EF0CF0AECF67F0000ED0
:1019B800AE6E3A0E00016761E4EF0CF0E6EF0CF052
:1019C800EEEF0CF0300E6761ECEF0CF0EEEF0CF080
:1019D800F4EF0CF0C00E626F7D0E636F3BEC0DF000
:1019E8003A0E00016761FBEF0CF0FDEF0CF0D2EF4F
:1019F8000CF02F0E676503EF0DF005EF0DF0D2EF39
:101A08000CF067511200000E066E0628D8A40FEFDE
:101A18000DF011EF0DF013EF0DF03AEF0DF0065049
:101A28000224046E000E0320056E04C0F6FF05C0F4
:101A3800F7FF0800F5500009D8A425EF0DF027EFAF
:101A48000DF029EF0DF03AEF0DF006500224046E68
:101A5800000E0320056E04C0F6FF05C0F7FF08005E
:101A6800F5507DEC0EF0062A09EF0DF01200000E7D
:101A78000001666F66516225646F000E6321656F11
:101A880064C0F6FF65C0F7FF0800F5500009D8A448
:101A980050EF0DF052EF0DF054EF0DF06CEF0DF02C
:101AA80066516225646F000E6321656F64C0F6FF9E
:101AB80065C0F7FF0800F55066EC0EF00001662BD4
:101AC8006629D8A46AEF0DF06CEF0DF03EEF0DF02B
:101AD80012000600F3CF3BF0F4CF3CF0F6CF3DF018
:101AE800F7CF3EF0F8CF3FF0F5CF40F0F284000E8C
:101AF80073EC0CF089944DC0F4F04EC0F5F05E0E16
:101B0800026E7D0E036E07EC0DF0000E0001F86FFB
:101B1800F29440C0F5FF3FC0F8FF3EC0F7FF3DC05C
:101B2800F6FF3CC0F4FF3BC0F3FF579211000001E1
:101B380062BFA9EF0DF0625106E16105D8B0A7EFC9
:101B48000DF0A9EF0DF0B7EF0DF061C063F062C0C2
:101B580064F0631F641F634B642B63C061F064C04F
:101B680062F0BBEF0DF061C061F062C062F012007C
:101B7800000161516211D8B4C4EF0DF0C6EF0DF049
:101B8800D4EF0DF061510008636F6251D8A0E82AC4
:101B98000008646F6451D76E63C0D6FFD6EF0DF0AE
:101BA800D768D6681200000E0001656FE7EF0DF0E8
:101BB80065516225D96E000E6321DA6E3EEC0EF097
:101BC800DF6E0001652B6451655DD8A0EEEF0DF066
:101BD800F0EF0DF0DCEF0DF0120001EE00F00A0E50
:101BE800EE6AE806FDE100EEAEF04D0EEE6AE8069C
:101BF800FDE100EE41F0160EEE6AE806FDE15790B1
:101C08005792000EF86E0001CEEF05F00001655105
:101C18006703F3CF69F0F4CF6AF065516803F350B6
:101C28006A2766516703F3506A2769C065F06AC07E
:101C380066F012009494BD50F00B0C09BD6EF90EBD
:101C4800CB6E030ECA12CF0EBD16000EBE6E000E6E
:101C5800CC6ECA84120094920F0EBA12F90ECB6E93
:101C6800030ECA12CF0EBA16000EBB6E000ECC6E53
:101C7800CA8412009EAA43EF0EF045EF0EF03EEF25
:101C88000EF0AECF61F0000EAE6E00016151120091
:101C9800CD90CD8ECD96CD8CCD82CD849480000E06
:101CA800CF6E000ECE6ECD801200948C948E100EE6
:101CB800AF6EAC84B886AC9CAC8AAC98AB8EAB9C4F
:101CC800AB8812000001616FACA26DEF0EF06FEFF0
:101CD8000EF068EF0EF061C0ADFF1200D59ED59CE6
:101CE800D58AD5989288000ED76E000ED66ED58EFE
:101CF8001200016EACA283EF0EF085EF0EF07EEFBE
:101D08000EF001C0ADFF12009590959294928C90C0
:101D18008C928B9212009594959694948C948C96B0
:101D28008B9412000F0EC112700ED36E1200D09E4B
:0E1D3800F28CF28E12009D801200F28A1200D0
:107AA20000283029417975646120736F6272652004
:107AB200636F6D6F2066756E63696F6E6120656CB2
:107AC2002070726F6772616D6120283129496E746E
:107AD200726F647563697220636F6F7264656E6141
:107AE2006461206E7565766120283229496D707255
:107AF200696D6972206C617320636F6F7264656E69
:107B020061646173207265636962696461732028CC
:107B120033294972206120686F6D650A2834294D26
:107B22006F6469666963617220636F6F7264656E08
:107B320061646120283529496E6963696172205048
:107B4200726F6772616D6120283629426F727261AD
:107B52007220656C2076616C6F7220646520746F90
:107B6200646173206C617320636F6F7264656E6110
:107B72006461730A00496E74726F6475636520658F
:107B82006E20656C207369677569656E7465206F18
:107B92007264656E206C6173207661726961626CD9
:107BA20065732061207573617220286E6F20757372
:107BB2006573206C617320636F6D6173293A206372
:107BC2006F6F7264582C636F6F7264592C23206438
:107BD2006520766563657320612070726573696FD5
:107BE2006E6172205A005475766973746520756EE1
:107BF200206572726F722C206573637269626520F0
:107C02006C612070616C6162726120274D656E75D6
:107C120027206F20276D656E7527207061726120A5
:107C22006163636564657220616C206D656E750ABF
:107C3200004572726F722C206573746173207175C6
:107C4200657269656E646F206D6F646966696361F0
:107C52007220756E6120636F6F7264656E6164611C
:107C6200207175652061756E206E6F206167726587
:107C72006761730A004375616C20636F6F7264659C
:107C82006E6164612071756965726573206D6F64E0
:107C92006966696361722C20656C6967652076612B
:107CA2006C6F7265732076616C69646F733F0A0052
:107CB200596120657374616E206C617320313020CC
:107CC200636F6F7264656E61646173206C6C656E64
:107CD20061732C206E6F2070756564657320616717
:107CE2007265676172206D617300457363726962C8
:107CF20065206C612070616C6162726120274D6544
:107D02006E7527206F20276D656E75272070617252
:107D120061206163636564657220616C206D656ECC
:107D2200750A00566173206120626F72726172205F
:107D3200746F646173206C617320636F6F7264652A
:107D42006E616461732C2073656775726F3F2028C2
:107D52003129205369202830294E6F00496E7465FD
:107D62007272757063696F6E20544D52302C206CA4
:107D72006C656761737465206120636F6F726465FF
:107D82006E61646120646573656164610A004C69B7
:107D920073746F2C20746F646173206C6173206341
:107DA2006F6F7264656E616461732068616E2073C7
:107DB20069646F20626F7272616461730A00536F4B
:107DC2006C6F2070756564657320696E74726F6480
:107DD20075636972206E756D65726F732C20707297
:107DE20075656261206465206E7565766F00437506
:107DF200616C20646520657374617320636F6F72B8
:107E020064656E6164617320717569657265732062
:107E12006D6F646966696361723F0A00456C6567EC
:107E220069737465206C61206F7063696F6E206482
:107E32006520696D7072696D697220636F6F72641B
:107E4200656E616461730A00436F6F7264656E618F
:107E520064612072656369626964612C206C6F20C1
:107E6200717565207265636962696D6F73206675ED
:107E7200653A0048617320616772656761646F20CB
:107E820065737465206E756D65726F20646520631D
:107E92006F6F7264656E616461733A00456C65630D
:107EA20063696F6E206E6F2076616C696461207603
:107EB20075656C7661206120696E74656E7461729D
:107EC20000526563696269202320646520766563D8
:107ED200657320612070726573696F6E6172205ADA
:107EE2000A004D65746973746520756E6120636F55
:107EF2006F7264656E61646120696E76616C69643B
:107F0200610A0020636F6F7264656E616461732C35
:107F1200206C6173206375616C657320736F6E3AB8
:107F2200200A005661732061206D6F64696669637F
:107F32006172206C6120636F6F7264656E6164614F
:107F4200200046756E63696F6E616D69656E746F50
:107F52002064656C2053504152433A0048617320BB
:107F6200656C656769646F206972206120686F6D56
:107F7200650A00526567726573616E646F20616C99
:107F8200206D656E750079546F416476616E63652C
:107F92002069733A0052656369626920636F6F7288
:107FA20064580052656369626920636F6F72645935
:107FB20000456E747261736520616C203500456EF8
:107FC200747261736520616C203700456E74726152
:107FD200736520616C203800456E74726173652090
:107FE200616C2039004167726567617374653A207C
:0E7FF20000436F6F7264656E61646120000071
:020000040020DA
:08000000FFFFFFFFFFFFFFFF00
:020000040030CA
:0E00000000091F1EFF0381FF0FC00FE00F401D
:00000001FF
