:020000040000FA
:0400000014EF00F009
:060008000B82EEED04F096
:100018000B80E0CF01F000F001C0E0FF0B90100072
:04002800DFEF04F012
:1008000000456C2076616C6F722064656C20544DDD
:1008100052302065732064653A00526573657465D3
:10082000652065737465207065646F2073616C75F5
:0308300032000093
:10083400E8EC04F0BCEC04F095928C9294928B82D8
:10084400A2EC04F0C9EC04F0AFEC04F00A6E300E34
:100854000A18D8A430EF04F032EF04F05BEF04F090
:10086400010E036E080E046E72EC04F0000E096EA5
:100874008C82030E086E980EE82EFED7082EFCD745
:100884008C92030E086E980EE82EFED7082EFCD725
:10089400092A090E096451EF04F053EF04F03AEF0A
:1008A40004F0D650D4EC04F00A0ED4EC04F0000E9C
:1008B4000A6E310E0A18D8A462EF04F064EF04F053
:1008C40026EF04F0000ED76E000ED66E1A0E036EDD
:1008D400080E046E72EC04F026EF04F014EF00F03E
:1008E400000E076E07500324056E000E0420066EEA
:1008F40005C0F6FF06C0F7FF0800F5500009D8A4AC
:1009040086EF04F088EF04F08AEF04F0A1EF04F01E
:1009140007500324056E000E0420066E05C0F6FF82
:1009240006C0F7FF0800F550D4EC04F0072A0728A6
:10093400D8A49FEF04F0A1EF04F074EF04F01200C8
:10094400CD90CD8ECD96CD8CCD82CD849480000E6D
:10095400CF6E000ECE6ECD8012009EAAB4EF04F0CE
:10096400B6EF04F0AFEF04F0AECF02F0000EAE6EBF
:1009740002501200948C948E100EAF6EAC84B88624
:10098400AC9CAC8AAC98AB8EAB9CAB881200D59E69
:10099400D59CD58AD5989288000ED76E000ED66E57
:1009A400D58E1200026EACA2DAEF04F0DCEF04F094
:1009B400D5EF04F002C0ADFF12000B900B92000EB5
:1009C400F86E080EF76E00011AEF04F00F0EC11254
:1009D400700ED36E93901200060000F00B9211007B
:020000040020DA
:08000000FFFFFFFFFFFFFFFF00
:020000040030CA
:0E00000000091F1FFF0381FF0FC00FE00F401C
:00000001FF
