:020000040000FA
:0400000014EF00F009
:060008005C8230ED09F0FE
:100018005C80E0CF01F000F001C0E0FF5C901000D0
:10002800A9EF08F01350800B1C6E13501324226E96
:1000380012AE21EF00F023EF00F024EF00F0228051
:100048002250D8B42AEF00F02CEF00F03FEF00F078
:100058002228D8A432EF00F034EF00F03CEF00F093
:10006800000E106E000E116E000E126E000E136E52
:10007800128E47EF00F0000E106E000E116E000E8B
:10008800126E000E136E1750800B1C1A175017248F
:10009800216E16AE52EF00F054EF00F055EF00F06D
:1000A80021802150D8B45BEF00F05DEF00F070EFD5
:1000B80000F02128D8A463EF00F065EF00F06DEFA1
:1000C80000F0000E146E000E156E000E166E000E77
:1000D800176E168E78EF00F0000E146E000E156E77
:1000E800000E166E000E176E2150D8B47EEF00F089
:1000F80080EF00F088EF00F02250D8A486EF00F0DF
:1001080088EF00F092EF00F0000E106E000E116EF6
:10011800000E126E000E136E2AEF02F01650100237
:10012800F3CF27F0F4CF28F027501D6E1E6A1F6A00
:10013800206A2850236E246A256A266A15501102FF
:10014800F3CF27F0F4CF28F027501D26000E1E22EB
:100158001F22202228502326000E24222522262270
:1001680014501202F3CF27F0F4CF28F027501D26A1
:10017800000E1E221F22202228502326000E242291
:10018800252226221FC020F01EC01FF01DC01EF011
:100198001D6A14501102F3CF27F0F4CF28F027502E
:1001A8001D2628501E22000E1F22000E2022155048
:1001B8001002F3CF27F0F4CF28F027501D2628503F
:1001C8001E22000E1F22000E20221FC020F01EC07B
:1001D8001FF01DC01EF01D6A14501002F3CF27F047
:1001E800F4CF28F027501D2628501E22000E1F226B
:1001F800000E202216501102F3CF27F0F4CF28F07A
:100208002750232628502422000E2522000E2622BD
:1002180015501202F3CF27F0F4CF28F027502326E9
:1002280028502422000E2522000E262216501202E3
:10023800F3CF27F0F4CF28F02750186E2850196E06
:100248001A6A1B6A1AC01BF019C01AF018C019F0F4
:10025800186A18502326195024221A5025221B5098
:1002680026221DC018F01EC019F01FC01AF020C0A9
:100278001BF0190E45EF01F0D8901B321A321932D3
:100288001832E82E40EF01F0185023261950242286
:100298001A5025221B5026221FC020F01EC01FF016
:1002A8001DC01EF01D6A215022C018F0196A1826B8
:1002B800000E1922820E1824276EFF0E1920286EB0
:1002C8007BEF01F0D890233624362536263620AE2B
:1002D80070EF01F072EF01F073EF01F02380D89016
:1002E8001D361E361F3620362706D8A0280625AE0E
:1002F80080EF01F082EF01F066EF01F0000E216E51
:1003080020AE89EF01F08BEF01F0AFEF01F0FF0EA7
:100318001D14186EFF0E1E14196EFF0E1F141A6E90
:100328007F0E20141B6E185019101A101B10D8B409
:10033800A0EF01F0A2EF01F0A6EF01F0010E216E8F
:10034800AFEF01F023A0ABEF01F0ADEF01F0AFEF9D
:1003580001F0A2EF01F02150D8B4B5EF01F0B7EFEA
:1003680001F0DBEF01F0010E2326000E24222522E6
:10037800262226A0C2EF01F0C4EF01F0DBEF01F066
:1003880023C018F024C019F025C01AF026C01BF0AD
:100398001B341B321A321932183218C023F019C014
:1003A80024F01AC025F01BC026F0274A282A28BEA8
:1003B800E6EF01F0285008E12728D8A0E6EF01F081
:1003C800E8EF01F0F2EF01F0000E236E000E246E4C
:1003D800800E256E7F0E266E20EF02F028BEFFEFFE
:1003E80001F0285006E12704D8B0FDEF01F0FFEF37
:1003F80001F00BEF02F0000E236E000E246E000ECB
:10040800256E000E266E000E1C6E20EF02F027C02F
:1004180022F0FF0E2316FF0E24167F0E2516000E5F
:10042800261622A01AEF02F01CEF02F01DEF02F0D0
:10043800258ED8902230266E1C50261223C010F02C
:1004480024C011F025C012F026C013F01200000ECF
:10045800116E000E106E090E5B6435EF02F037EF77
:1004680002F03FEF02F05A04D8A43DEF02F03FEF4C
:1004780002F097EF03F09F0E036E7B0E046E61ECA3
:1004880008F0470E5B24D96EDA6A000EDA222AECED
:1004980008F0DF6EA60E5B24D96EDA6A000EDA2247
:1004A8002AEC08F0DF6E9C0E5B24D96EDA6A000E27
:1004B800DA222AEC08F0DF6E970E036E7F0E046EC8
:1004C80061EC08F0920E5B24D96EDA6A000EDA222B
:1004D8002AEC08F0DF6E880E5B24D96EDA6A000E0B
:1004E800DA222AEC08F0DF6E7E0E5B24D96EDA6A17
:1004F800000EDA222AEC08F0DF6EA50E036E7F0EDE
:10050800046E61EC08F0740E5B24D96EDA6A000E92
:10051800DA222AEC08F0DF6E6A0E5B24D96EDA6AFA
:10052800000EDA222AEC08F0DF6E600E5B24D96E2A
:10053800DA6A000EDA222AEC08F0DF6EE70E036EA4
:100548007E0E046E61EC08F0470E5B24D96EDA6A01
:10055800000EDA22DF50096E0950640DF3CF0AF05D
:10056800F4CF0BF0A60E5B24D96EDA6A000EDA22FD
:10057800DF500C6E0C500A0DF3500A26F4500B2273
:100588009C0E5B24D96EDA6A000EDA22DF500D6EFB
:100598000D500A26000E0B22300E0A240E6EEB0EAA
:1005A8000B200F6E920E5B24D96EDA6A000EDA22E7
:1005B800DF50096E0950640DF3CF0AF0F4CF0BF049
:1005C800880E5B24D96EDA6A000EDA22DF500C6ED0
:1005D8000C500A0DF3500A26F4500B227E0E5B24B1
:1005E800D96EDA6A000EDA22DF500D6E0D500A2637
:1005F800000E0B22300E0A24106EEB0E0B20116E2B
:100608002D0E0E5C010E0F58D8B00DEF03F00FEF52
:1006180003F01AEF03F02D0E105C010E1158D8A04C
:1006280018EF03F01AEF03F022EF03F0080E036E41
:100638007F0E046E61EC08F03FEF02F06E0E036E61
:100648007E0E046E61EC08F0470E5B24D96EDA6A00
:10065800000EDA22DF5019EC09F0A60E5B24D96EE1
:10066800DA6A000EDA22DF5019EC09F09C0E5B24DE
:10067800D96EDA6A000EDA22DF5019EC09F02C0E76
:1006880019EC09F0920E5B24D96EDA6A000EDA22B0
:10069800DF5019EC09F0880E5B24D96EDA6A000E77
:1006A800DA22DF5019EC09F07E0E5B24D96EDA6A83
:1006B800000EDA22DF5019EC09F02C0E19EC09F0C3
:1006C800740E5B24D96EDA6A000EDA22DF5019EC58
:1006D80009F06A0E5B24D96EDA6A000EDA22DF505E
:1006E80019EC09F0600E5B24D96EDA6A000EDA2282
:1006F800DF5019EC09F02E0E19EC09F05A50D8A465
:1007080088EF03F08AEF03F09DEF03F0990E036E74
:100718007E0E046E61EC08F05B2A5B50300F19EC1A
:1007280009F09DEF03F0DA0E036E7C0E046E61ECA7
:1007380008F012002BEC09F0F6EC08F0CDEC08F00C
:10074800BCEC08F0000E1FEC07F0000E79EC07F087
:100758000EEC09F024EC09F003EC09F0DCEC08F0ED
:1007680036EC09F034EC09F0000E446E400E3E6E93
:10077800000E3F6EE9EC08F0140E036E7D0E046E59
:1007880061EC08F03EC003F03FC004F0040E3C6E7C
:100798003CC005F091EC08F04D0E4018D8B4D7EFE6
:1007A80003F0D9EF03F0E2EF03F06D0E4018D8A480
:1007B800E0EF03F0E2EF03F0CEEF04F0650E41182E
:1007C800D8A4E9EF03F0EBEF03F0CEEF04F06E0EE0
:1007D8004218D8A4F2EF03F0F4EF03F0CEEF04F0E0
:1007E800750E4318D8A4FBEF03F0FDEF03F0CEEF2E
:1007F80004F0CB0E036E7A0E046E61EC08F0E9EC9F
:1008080008F0466E10EF04F0C20E036E7E0E046E02
:1008180061EC08F003EF04F03A0E466016EF04F0BE
:1008280018EF04F008EF04F02F0E46641EEF04F0F2
:1008380020EF04F008EF04F0300E4618D8A427EF94
:1008480004F029EF04F02FEF04F07B0E036E7F0E07
:10085800046E61EC08F0310E4618D8A436EF04F0A7
:1008680038EF04F03AEF04F02BEC02F0320E4618A1
:10087800D8A441EF04F043EF04F04BEF04F0420E2C
:10088800036E7E0E046E61EC08F0B2EC05F0330ED8
:100898004618D8A452EF04F054EF04F060EF04F0C7
:1008A800E60E036E7D0E046E61EC08F0890E036E91
:1008B8007F0E046E61EC08F0340E4618D8A467EF7A
:1008C80004F069EF04F06BEF04F0D3EC07F0350E99
:1008D8004618D8A472EF04F074EF04F07AEF04F02D
:1008E800B30E036E7F0E046E61EC08F0360E4618E8
:1008F800D8A481EF04F083EF04F09FEF04F04D0ECD
:10090800036E7D0E046E61EC08F02AEC08F0456E6B
:10091800310E4518D8A493EF04F095EF04F099EF41
:1009280004F0C3EC06F09FEF04F0680E036E7F0E30
:10093800046E61EC08F0370E4618D8A4A6EF04F050
:10094800A8EF04F0AEEF04F0C00E036E7F0E046E45
:1009580061EC08F0380E4618D8A4B5EF04F0B7EFEC
:1009680004F0BDEF04F0CD0E036E7F0E046E61EC53
:1009780008F0390E4618D8A4C4EF04F0C6EF04F006
:10098800C6EF03F0DA0E036E7F0E046E61EC08F01A
:10099800C6EF03F0100E036E7C0E046E61EC08F0D7
:1009A800C6EF03F014EF00F00A6E0A50D8B4DFEF78
:1009B80004F0E1EF04F003EF05F005BEE8EF04F002
:1009C800E6EF04F003EF05F002C006F003C007F0FD
:1009D80004C008F005C009F0061E071E081E091EFF
:1009E800062A000E07220822092206C00CF007C0BA
:1009F8000DF008C00EF009C00FF00BEF05F002C0B3
:100A08000CF003C00DF004C00EF005C00FF002504A
:100A1800031004100510D8A414EF05F016EF05F024
:100A280020EF05F0000E026E000E036E000E046E3D
:100A3800000E056EB1EF05F0960E0B6E2AEF05F06D
:100A48000B2AD8900F320E320D320C32000E0C14D5
:100A5800066E000E0D14076E000E0E14086EFE0EC4
:100A68000F14096E0650071008100910D8A43FEF9C
:100A780005F041EF05F024EF05F04FEF05F00B2AE4
:100A8800010E0C26000E0D220E220F22D8900F32D6
:100A98000E320D320C32000E0C14066E000E0D14C0
:100AA800076E000E0E14086EFF0E0F14096E065026
:100AB800071008100910D8A464EF05F066EF05F0D8
:100AC80043EF05F06EEF05F00B06D8900C360D36A7
:100AD8000E360F360EBE73EF05F075EF05F07DEF9D
:100AE80005F0020E0B607BEF05F07DEF05F068EF77
:100AF80005F00BB082EF05F084EF05F085EF05F007
:100B08000E9ED8900B320BC006F0076A086A096A75
:100B180006C009F0086A076A066A06500C120750F0
:100B28000D1208500E1209500F120A50D8B49FEF38
:100B380005F0A1EF05F0A9EF05F005BEA8EF05F057
:100B4800A6EF05F0A9EF05F00F8E0CC002F00DC05E
:100B580003F00EC004F00FC005F012005B50300F18
:100B6800086EE70E036E7F0E046E61EC08F0085005
:100B780019EC09F0290E036E7F0E046E61EC08F083
:100B8800000E096E36EF06F0F30E036E7F0E046E4C
:100B980061EC08F00950300F19EC09F0F00E036E03
:100BA8007F0E046E61EC08F0470E0924D96EDA6AEC
:100BB800000EDA22DF5019EC09F0A60E0924D96ECE
:100BC800DA6A000EDA22DF5019EC09F09C0E0924CB
:100BD800D96EDA6A000EDA22DF5019EC09F02C0E11
:100BE80019EC09F0920E0924D96EDA6A000EDA229D
:100BF800DF5019EC09F0880E0924D96EDA6A000E64
:100C0800DA22DF5019EC09F07E0E0924D96EDA6A6F
:100C1800000EDA22DF5019EC09F02C0E19EC09F05D
:100C2800740E0924D96EDA6A000EDA22DF5019EC44
:100C380009F06A0E0924D96EDA6A000EDA22DF504A
:100C480019EC09F0600E0924D96EDA6A000EDA226E
:100C5800DF5019EC09F02E0E19EC09F00A0E19EC08
:100C680009F0092A5B50095CD8A03DEF06F03FEF78
:100C780006F0C8EF05F012002B342C34326E3250D7
:100C8800D8A449EF06F04BEF06F055EF06F0000E3A
:100C9800296E000E2A6E000E2B6E000E2C6EC2EF0F
:100CA80006F029C02DF02AC02EF02BC02FF02CC042
:100CB80030F0200E65EF06F0D89030322F322E3209
:100CC8002D32E82E60EF06F02D50316E2B8EFF0E80
:100CD8002916FF0E2A16FF0E2B16000E2C16960E3E
:100CE800325E32BE7CEF06F07AEF06F092EF06F045
:100CF8003250800A970FD8B084EF06F086EF06F0DE
:100D080088EF06F04BEF06F0D8902C322B322A32BF
:100D18002932323E88EF06F0AAEF06F01F0E326441
:100D280098EF06F09AEF06F0A2EF06F04BEF06F008
:100D3800D89029362A362B362C3632063250D8A48B
:100D4800A8EF06F0AAEF06F09CEF06F03150D8B4F1
:100D5800B0EF06F0B2EF06F0BAEF06F02C1E2B1E2D
:100D68002A1E296C000E2A222B222C2229C029F0A7
:100D78002AC02AF02BC02BF02CC02CF01200000E39
:100D8800086E470E0824D96EDA6A000EDA22000EC1
:100D9800DF6EA60E0824D96EDA6A000EDA22000E7B
:100DA800DF6E9C0E0824D96EDA6A000EDA22000E75
:100DB800DF6E920E0824D96EDA6A000EDA22000E6F
:100DC800DF6E880E0824D96EDA6A000EDA22000E69
:100DD800DF6E7E0E0824D96EDA6A000EDA22000E63
:100DE800DF6E740E0824D96EDA6A000EDA22000E5D
:100DF800DF6E6A0E0824D96EDA6A000EDA22000E57
:100E0800DF6E600E0824D96EDA6A000EDA22000E50
:100E1800DF6E082A090E086414EF07F016EF07F0D2
:100E2800C5EF06F0000E5B6E860E036E7D0E046E37
:100E380061EC08F01200396E0A0E146ED70E156EAA
:100E4800230E166E3C0E176E3950026E036A046A42
:100E5800056A010ED8EC04F002C010F003C011F0CE
:100E680004C012F005C013F016EC00F010C035F005
:100E780011C036F012C037F013C038F0000E146EEF
:100E8800000E156E7A0E166E440E176E35C010F0F1
:100E980036C011F037C012F038C013F016EC00F06D
:100EA80010C029F011C02AF012C02BF013C02CF08A
:100EB80040EC06F029C03AF02AC03BF03AC033F0C3
:100EC800030E3316333ABA503318CF0B3318BA6EB1
:100ED8003AC033F03BC034F0D89034323332D89033
:100EE800343233323350BB6E1200396E0A0E146E30
:100EF800D70E156E230E166E3C0E176E3950026E05
:100F0800036A046A056A010ED8EC04F002C010F006
:100F180003C011F004C012F005C013F016EC00F085
:100F280010C035F011C036F012C037F013C038F0D9
:100F3800000E146E000E156E7A0E166E440E176EA5
:100F480035C010F036C011F037C012F038C013F0B9
:100F580016EC00F010C029F011C02AF012C02BF0D6
:100F680013C02CF040EC06F029C03AF02AC03BF040
:100F78003AC033F0030E3316333ABD503318CF0B53
:100F88003318BD6E3AC033F03BC034F0D8903432D9
:100F98003332D890343233323350BE6E1200010EE1
:100FA8005A6E010E5A6EB2EC05F0140E036E7E0EE8
:100FB800046E61EC08F02AEC08F01A6EF3EF07F003
:100FC8005B0E036E7C0E046E61EC08F09F0E036EE0
:100FD8007C0E046E61EC08F02AEC08F01A6E5B5087
:100FE800126E136AD00E146EFF0E156E1A50166E1E
:100FF800176A14501626155017221250165C1750EF
:10100800800A186E1350800A1858D8B00EEF08F0EE
:1010180010EF08F0E4EF07F0490E036E7F0E046E40
:1010280061EC08F01A5019EC09F00A0E19EC09F0F5
:101038001A50D00F1A6E5BC019F01AC05BF02BEC77
:1010480002F019C05BF0000E5A6E1200000E086E16
:101058004FEF08F09EAA33EF08F035EF08F02EEFB7
:1010680008F0AECF08F0000EAE6E3A0E08603FEF03
:1010780008F041EF08F049EF08F0300E086047EF3C
:1010880008F049EF08F04FEF08F0B60E036E7D0E3A
:10109800046E61EC08F03A0E086055EF08F057EF5F
:1010A80008F02EEF08F02F0E08645DEF08F05FEFF0
:1010B80008F02EEF08F008501200000E076E0750D7
:1010C8000324056E000E0420066E05C0F6FF06C058
:1010D800F7FF0800F5500009D8A475EF08F077EF7E
:1010E80008F079EF08F090EF08F007500324056E38
:1010F800000E0420066E05C0F6FF06C0F7FF0800C4
:10110800F55019EC09F0072A0728D8A48EEF08F043
:1011180090EF08F063EF08F01200000E066E9FEFE4
:1011280008F006500324D96E000E0420DA6EE9ECAC
:1011380008F0DF6E062A0550065CD8A0A6EF08F076
:10114800A8EF08F095EF08F0120000EE60F0580ED6
:10115800EE6AE806FDE100EE47F0150EEE6AE806D5
:10116800FDE15C905C92000EF86E00019EEF03F0CA
:101178009494BD50F00B0C09BD6EF90ECB6E030EA6
:10118800CA12CF0EBD16000EBE6E000ECC6ECA84FB
:10119800120094920F0EBA12F90ECB6E030ECA12F9
:1011A800CF0EBA16000EBB6E000ECC6ECA841200AB
:1011B800CD90CD8ECD96CD8CCD82CD849480000EF1
:1011C800CF6E000ECE6ECD8012009EAAEEEF08F014
:1011D800F0EF08F0E9EF08F0AECF02F0000EAE6EC7
:1011E80002501200948C948E100EAF6EAC84B886A8
:1011F800AC9CAC8AAC98AB8EAB9CAB881200D59EED
:10120800D59CD58AD5989288000ED76E000ED66EDA
:10121800D58E12009294929689948996959095927B
:1012280094928C908C928B921200026EACA21FEF5B
:1012380009F021EF09F01AEF09F002C0ADFF120022
:101248009594959694948C948C968B9412000F0E8A
:10125800C112700ED36E1200060000F05C921100ED
:081268009D801200F28A1200C1
:107ACA0000283029417975646120736F62726520DC
:107ADA00636F6D6F2066756E63696F6E6120656C8A
:107AEA002070726F6772616D6120283129496E7446
:107AFA00726F647563697220636F6F7264656E6119
:107B0A006461206E7565766120283229496D70722C
:107B1A00696D6972206C617320636F6F7264656E40
:107B2A0061646173207265636962696461732028A4
:107B3A0033294972206120686F6D650A2834294DFE
:107B4A006F6469666963617220636F6F7264656EE0
:107B5A0061646120283529496E6963696172205020
:107B6A00726F6772616D6120283629426F72726185
:107B7A007220656C2076616C6F7220646520746F68
:107B8A00646173206C617320636F6F7264656E61E8
:107B9A006461730A00496E74726F64756365206567
:107BAA006E20656C207369677569656E7465206FF0
:107BBA007264656E206C6173207661726961626CB1
:107BCA0065732061207573617220286E6F2075734A
:107BDA006573206C617320636F6D6173293A20634A
:107BEA006F6F7264582C636F6F7264592C23206410
:107BFA006520766563657320612070726573696FAD
:107C0A006E6172205A005475766973746520756EB8
:107C1A00206572726F722C206573637269626520C7
:107C2A006C612070616C6162726120274D656E75AE
:107C3A0027206F20276D656E75272070617261207D
:107C4A006163636564657220616C206D656E750A97
:107C5A00004572726F722C2065737461732071759E
:107C6A00657269656E646F206D6F646966696361C8
:107C7A007220756E6120636F6F7264656E616461F4
:107C8A00207175652061756E206E6F20616772655F
:107C9A006761730A004375616C20636F6F72646574
:107CAA006E6164612071756965726573206D6F64B8
:107CBA006966696361722C20656C69676520766103
:107CCA006C6F7265732076616C69646F733F0A002A
:107CDA00596120657374616E206C617320313020A4
:107CEA00636F6F7264656E61646173206C6C656E3C
:107CFA0061732C206E6F20707565646573206167EF
:107D0A007265676172206D6173004573637269629F
:107D1A0065206C612070616C6162726120274D651B
:107D2A006E7527206F20276D656E7527207061722A
:107D3A0061206163636564657220616C206D656EA4
:107D4A00750A00566173206120626F727261722037
:107D5A00746F646173206C617320636F6F72646502
:107D6A006E616461732C2073656775726F3F20289A
:107D7A003129205369202830294E6F004C697374C9
:107D8A006F2C20746F646173206C617320636F6F52
:107D9A007264656E616461732068616E20736964E0
:107DAA006F20626F7272616461730A00536F6C6F45
:107DBA002070756564657320696E74726F6475638B
:107DCA006972206E756D65726F732C20707275659D
:107DDA006261206465206E7565766F00456E747207
:107DEA00617374652061206C61206F7063696F6EC6
:107DFA00206465206D6F6469666963617220636FD0
:107E0A006F7264656E6164610A004375616C206417
:107E1A006520657374617320636F6F7264656E6148
:107E2A006461732071756965726573206D6F646929
:107E3A0066696361723F0A00456C656769737465B8
:107E4A00206C61206F7063696F6E20646520696DB4
:107E5A007072696D697220636F6F7264656E6164B6
:107E6A0061730A00436F6F7264656E6164612072A8
:107E7A00656369626964612C206C6F207175652085
:107E8A007265636962696D6F73206675653A004849
:107E9A00617320616772656761646F2065737465D9
:107EAA00206E756D65726F20646520636F6F7264F2
:107EBA00656E616461733A00456C656363696F6EF0
:107ECA00206E6F2076616C696461207675656C76C8
:107EDA0061206120696E74656E7461720052656317
:107EEA006962692023206465207665636573206171
:107EFA002070726573696F6E6172205A0A004D654F
:107F0A00746973746520756E6120636F6F7264653E
:107F1A006E61646120696E76616C6964610A002031
:107F2A00636F6F7264656E616461732C206C617338
:107F3A00206375616C657320736F6E3A200A005670
:107F4A0061732061206D6F64696669636172206C78
:107F5A006120636F6F7264656E61646120005265AF
:107F6A0067726573616E646F20616C206D656E75F2
:107F7A0000456E74726173746520616C203000452F
:107F8A006E74726173746520616C2033005265638C
:107F9A0069626920636F6F7264580052656369622F
:107FAA006920636F6F72645900456E7472617365FC
:107FBA0020616C203500456E747261736520616CB6
:107FCA00203700456E747261736520616C20380039
:107FDA00456E747261736520616C20390041677265
:107FEA006567617374653A2000436F6F7264656EEA
:067FFA006164612000003B
:020000040020DA
:08000000FFFFFFFFFFFFFFFF00
:020000040030CA
:0E00000000091F1EFF0381FF0FC00FE00F401D
:00000001FF
