:020000040000FA
:0400000014EF00F009
:060008005A82F8ED08F039
:100018005A80E0CF60F000F060C0E0FF5A90100016
:10002800F1EF0EF000017251800B7B6F7251722557
:10003800816F71AF22EF00F024EF00F025EF00F0A0
:1000480081818151D8B42BEF00F02DEF00F040EF03
:1000580000F08129D8A433EF00F035EF00F03DEF30
:1000680000F0000E6F6F000E706F000E716F000EC3
:10007800726F718F48EF00F0000E6F6F000E706F97
:10008800000E716F000E726F7651800B7B1B7651DC
:100098007625806F75AF53EF00F055EF00F056EFFF
:1000A80000F080818051D8B45CEF00F05EEF00F082
:1000B80071EF00F08029D8A464EF00F066EF00F03B
:1000C8006EEF00F0000E736F000E746F000E756F08
:1000D800000E766F758F79EF00F0000E736F000ECB
:1000E800746F000E756F000E766F8051D8B47FEF75
:1000F80000F081EF00F089EF00F08151D8A487EF7C
:1001080000F089EF00F093EF00F0000E6F6F000E23
:10011800706F000E716F000E726F2BEF02F0755149
:100128006F03F3CF86F0F4CF87F086517C6F7D6B39
:100138007E6B7F6B8751826F836B846B856B745189
:100148007003F3CF86F0F4CF87F086517C27000E3A
:100158007D237E237F2387518227000E83238423D8
:10016800852373517103F3CF86F0F4CF87F086515E
:100178007C27000E7D237E237F2387518227000E54
:100188008323842385237EC07FF07DC07EF07CC0DE
:100198007DF07C6B73517003F3CF86F0F4CF87F05A
:1001A80086517C2787517D23000E7E23000E7F23F6
:1001B80074516F03F3CF86F0F4CF87F086517C2714
:1001C80087517D23000E7E23000E7F237EC07FF0A3
:1001D8007DC07EF07CC07DF07C6B73516F03F3CFE4
:1001E80086F0F4CF87F086517C2787517D23000E57
:1001F8007E23000E7F2375517003F3CF86F0F4CF72
:1002080087F08651822787518323000E8423000EAE
:10021800852374517103F3CF86F0F4CF87F08651AC
:10022800822787518323000E8423000E852375516E
:100238007103F3CF86F0F4CF87F08651776F87513B
:10024800786F796B7A6B79C07AF078C079F077C07B
:1002580078F0776B775182277851832379518423FB
:100268007A5185237CC077F07DC078F07EC079F024
:100278007FC07AF0190E46EF01F0D8907A337933BF
:1002880078337733E82E41EF01F0775182277851A0
:100298008323795184237A5185237EC07FF07DC0E2
:1002A8007EF07CC07DF07C6B805181C077F0786BEC
:1002B8007727000E7823820E7725866FFF0E782128
:1002C800876F7CEF01F0D890823783378437853782
:1002D8007FAF71EF01F073EF01F074EF01F08281ED
:1002E800D8907C377D377E377F378607D8A0870739
:1002F80084AF81EF01F083EF01F067EF01F0000EAA
:10030800806F7FAF8AEF01F08CEF01F0B0EF01F062
:10031800FF0E7C15776FFF0E7D15786FFF0E7E152B
:10032800796F7F0E7F157A6F7751781179117A116D
:10033800D8B4A1EF01F0A3EF01F0A7EF01F0010E8F
:10034800806FB0EF01F082A1ACEF01F0AEEF01F0E9
:10035800B0EF01F0A3EF01F08051D8B4B6EF01F08F
:10036800B8EF01F0DCEF01F0010E8227000E8323C5
:100378008423852385A1C3EF01F0C5EF01F0DCEFED
:1003880001F082C077F083C078F084C079F085C02E
:100398007AF07A357A3379337833773377C082F0E5
:1003A80078C083F079C084F07AC085F0864B872BBB
:1003B80087BFE7EF01F0875108E18629D8A0E7EF6A
:1003C80001F0E9EF01F0F3EF01F0000E826F000E8B
:1003D800836F800E846F7F0E856F21EF02F087BFD9
:1003E80000EF02F0875106E18605D8B0FEEF01F074
:1003F80000EF02F00CEF02F0000E826F000E836F28
:10040800000E846F000E856F000E7B6F21EF02F0E7
:1004180086C081F0FF0E8217FF0E83177F0E8417A8
:10042800000E851781A11BEF02F01DEF02F01EEFF1
:1004380002F0848FD8908131856F7B51851382C0FB
:100448006FF083C070F084C071F085C072F0120044
:100458001250800B1B6E12501224216E11AE37EF12
:1004680002F039EF02F03AEF02F021802150D8B4BF
:1004780040EF02F042EF02F055EF02F02128D8A435
:1004880048EF02F04AEF02F052EF02F0000E0F6E52
:10049800000E106E000E116E000E126E118E5DEFC2
:1004A80002F0000E0F6E000E106E000E116E000EA0
:1004B800126E1650800B1B1A16501624206E15AE9D
:1004C80068EF02F06AEF02F06BEF02F02080205034
:1004D800D8B471EF02F073EF02F086EF02F0202833
:1004E800D8A479EF02F07BEF02F083EF02F0000E60
:1004F800136E000E146E000E156E000E166E158E1D
:100508008EEF02F0000E136E000E146E000E156EC4
:10051800000E166E2050D8B494EF02F096EF02F059
:100528009EEF02F02150D8A49CEF02F09EEF02F05B
:10053800A8EF02F0000E0F6E000E106E000E116E86
:10054800000E126E40EF04F015500F02F3CF26F0A4
:10055800F4CF27F026501C6E1D6A1E6A1F6A2750AA
:10056800226E236A246A256A14501002F3CF26F0FB
:10057800F4CF27F026501C26000E1D221E221F2213
:1005880027502226000E232224222522135011024E
:10059800F3CF26F0F4CF27F026501C26000E1D229C
:1005A8001E221F2227502226000E23222422252223
:1005B8001EC01FF01DC01EF01CC01DF01C6A135089
:1005C8001002F3CF26F0F4CF27F026501C26275030
:1005D8001D22000E1E22000E1F2214500F02F3CF00
:1005E80026F0F4CF27F026501C2627501D22000E97
:1005F8001E22000E1F221EC01FF01DC01EF01CC0B0
:100608001DF01C6A13500F02F3CF26F0F4CF27F029
:1006180026501C2627501D22000E1E22000E1F22C7
:1006280015501002F3CF26F0F4CF27F026502226DB
:1006380027502322000E2422000E252214501102D6
:10064800F3CF26F0F4CF27F0265022262750232276
:10065800000E2422000E252215501102F3CF26F099
:10066800F4CF27F02650176E2750186E196A1A6AA9
:1006780019C01AF018C019F017C018F0176A1750E7
:10068800222618502322195024221A5025221CC031
:1006980017F01DC018F01EC019F01FC01AF0190E6F
:1006A8005BEF03F0D8901A32193218321732E82E5D
:1006B80056EF03F0175022261850232219502422EF
:1006C8001A5025221EC01FF01DC01EF01CC01DF0B0
:1006D8001C6A205021C017F0186A1726000E18222D
:1006E800820E1724266EFF0E1820276E91EF03F056
:1006F800D89022362336243625361FAE86EF03F0EF
:1007080088EF03F089EF03F02280D8901C361D365D
:100718001E361F362606D8A0270624AE96EF03F00D
:1007280098EF03F07CEF03F0000E206E1FAE9FEFF2
:1007380003F0A1EF03F0C5EF03F0FF0E1C14176ED2
:10074800FF0E1D14186EFF0E1E14196E7F0E1F1457
:100758001A6E1750181019101A10D8B4B6EF03F003
:10076800B8EF03F0BCEF03F0010E206EC5EF03F005
:1007780022A0C1EF03F0C3EF03F0C5EF03F0B8EF19
:1007880003F02050D8B4CBEF03F0CDEF03F0F1EF36
:1007980003F0010E2226000E23222422252225A062
:1007A800D8EF03F0DAEF03F0F1EF03F022C017F00F
:1007B80023C018F024C019F025C01AF01A341A32D0
:1007C80019321832173217C022F018C023F019C096
:1007D80024F01AC025F0264A272A27BEFCEF03F08A
:1007E800275008E12628D8A0FCEF03F0FEEF03F01D
:1007F80008EF04F0000E226E000E236E800E246EA9
:100808007F0E256E36EF04F027BE15EF04F0275053
:1008180006E12604D8B013EF04F015EF04F021EF39
:1008280004F0000E226E000E236E000E246E000EE1
:10083800256E000E1B6E36EF04F026C021F0FF0E69
:100848002216FF0E23167F0E2416000E251621A051
:1008580030EF04F032EF04F033EF04F0248ED89038
:100868002130256E1B50251222C00FF023C010F036
:1008780024C011F025C012F01200000E0001706FA4
:10088800000E6F6F090EF9654CEF04F04EEF04F09F
:1008980056EF04F0F805D8A454EF04F056EF04F02E
:1008A800C7EF05F0910E0001626F7A0E636F69EC75
:1008B8000EF0E10E0001F925D96EDA6A000EDA228F
:1008C800FBEC0DF0DF6ED70E0001F925D96EDA6A60
:1008D800000EDA22FBEC0DF0DF6ECD0E0001F925DB
:1008E800D96EDA6A000EDA22FBEC0DF0DF6E960E96
:1008F8000001626F7F0E636F69EC0EF0C30E00019A
:10090800F925D96EDA6A000EDA22FBEC0DF0DF6EFB
:10091800B90E0001F925D96EDA6A000EDA22FBEC6D
:100928000DF0DF6EAF0E0001F925D96EDA6A000E00
:10093800DA22FBEC0DF0DF6EA40E0001626F7F0E71
:10094800636F69EC0EF04C0E0001F925D96EDA6A76
:10095800000EDA22FBEC0DF0DF6E420E0001F925E5
:10096800D96EDA6A000EDA22FBEC0DF0DF6E000EAB
:100978000001F925D96EDA6A010EDA22FBEC0DF0D6
:10098800DF6E950E0001626F7E0E636F69EC0EF0EC
:10099800E10E0001F925D96EDA6A000EDA22DF507D
:1009A800686F6851640DF3CF69F0F4CF6AF0D70E21
:1009B800F925D96EDA6A000EDA22DF506B6F6B51B7
:1009C8000A0DF3506927F4506A23CD0EF925D96E24
:1009D800DA6A000EDA22DF506C6F6C516927000E5C
:1009E8006A23300E69256D6FEB0E6A216E6FC30E98
:1009F800F925D96EDA6A000EDA22DF50686F68517D
:100A0800640DF3CF69F0F4CF6AF0B90EF925D96E09
:100A1800DA6A000EDA22DF506B6F6B510A0DF35061
:100A28006927F4506A23AF0EF925D96EDA6A000EE9
:100A3800DA22DF506C6F6C516927000E6A23300E82
:100A480069256F6FEB0E6A21706F2D0E6D5D010EBB
:100A58006E59D8B032EF05F034EF05F03FEF05F0EE
:100A68002D0E6F5D010E7059D8A03DEF05F03FEFD8
:100A780005F047EF05F0B60E626F7E0E636F69EC06
:100A88000EF056EF04F0C80E626F7D0E636F69ECCE
:100A98000EF0E10E0001F925D96EDA6A000EDA22AD
:100AA800DF5073EC0FF0D70E0001F925D96EDA6A22
:100AB800000EDA22DF5073EC0FF0CD0E0001F9259D
:100AC800D96EDA6A000EDA22DF5073EC0FF02C0EC2
:100AD80073EC0FF0C30E0001F925D96EDA6A000E27
:100AE800DA22DF5073EC0FF0B90E0001F925D96E48
:100AF800DA6A000EDA22DF5073EC0FF0AF0E000155
:100B0800F925D96EDA6A000EDA22DF5073EC0FF09D
:100B18002C0E73EC0FF04C0E0001F925D96EDA6A31
:100B2800000EDA22DF5073EC0FF0420E0001F925B7
:100B3800D96EDA6A000EDA22DF5073EC0FF0000E7D
:100B48000001F925D96EDA6A010EDA22DF5073EC5A
:100B58000FF02E0E73EC0FF00001F851D8A4B7EF88
:100B680005F0B9EF05F0CDEF05F0470E626F7E0E88
:100B7800636F69EC0EF00001F92BF951300F73EC3B
:100B88000FF0CDEF05F0CC0E626F7B0E636F69EC52
:100B98000EF01200BEEC0FF066EC0FF02FEC0FF029
:100BA8001EEC0FF0000E2EEC0CF0000E8CEC0CF08E
:100BB800B7EC0FF0B0EC0FF07FEC0FF04CEC0FF04F
:100BC800C3EC0FF0C9EC0FF0C7EC0FF059EC0FF0C5
:100BD800000E0001A86FA40EA26F000EA36F3EECDA
:100BE8000FF0060E0001626F7C0E636F69EC0EF069
:100BF800A2C062F0A3C063F0040E0001A06FA0C001
:100C080064F0D7EC0EF04D0E0001A419D8B40FEF24
:100C180006F011EF06F01AEF06F06D0EA419D8A42D
:100C280018EF06F01AEF06F038EF07F0650EA51971
:100C3800D8A421EF06F023EF06F038EF07F06E0E88
:100C4800A619D8A42AEF06F02CEF06F038EF07F023
:100C5800750EA719D8A433EF06F035EF06F038EF74
:100C680007F0A30E626F790E636F69EC0EF03EEC2D
:100C78000FF00001AE6F49EF06F0700E626F7E0E46
:100C8800636F69EC0EF03BEF06F03A0EAE614FEF82
:100C980006F051EF06F041EF06F02F0EAE6557EF64
:100CA80006F059EF06F041EF06F0300EAE19D8A461
:100CB80060EF06F062EF06F068EF06F0340E626F40
:100CC8007F0E636F69EC0EF0310E0001AE19D8A4E7
:100CD80070EF06F072EF06F074EF06F041EC04F0E6
:100CE800320E0001AE19D8A47CEF06F07EEF06F0B4
:100CF80086EF06F09C0E626F7D0E636F69EC0EF056
:100D0800AEEC09F0330E0001AE19D8A48EEF06F050
:100D180090EF06F0A9EF06F04E0E626F7F0E636F3C
:100D280069EC0EF0FBEC0DF00001A96FFBEC0DF087
:100D38000001AA6FFBEC0DF00001AB6FAAC09BF09D
:100D4800ABC09CF0A95153EC0BF0340E0001AE1966
:100D5800D8A4B1EF06F0B3EF06F0B5EF06F0CFEC8C
:100D68000BF0350E0001AE19D8A4BDEF06F0BFEFA9
:100D780006F0C5EF06F0B20E626F7F0E636F69EC86
:100D88000EF0360E0001AE19D8A4CDEF06F0CFEF65
:100D980006F0ECEF06F03F0E626F7C0E636F69ECB5
:100DA8000EF0FBEC0DF00001AC6F310EAC19D8A4BD
:100DB800E0EF06F0E2EF06F0E6EF06F0EAEC0CF002
:100DC800ECEF06F0650E626F7F0E636F69EC0EF054
:100DD800370E0001AE19D8A4F4EF06F0F6EF06F0CE
:100DE80016EF07F0BF0E626F7F0E636F69EC0EF0AF
:100DF800160E0001626F7F0E636F69EC0EF0FBEC5C
:100E08000DF00001AD6F310EAD19D8A40EEF07F04B
:100E180010EF07F014EF07F08AEC0FF016EF07F069
:100E2800A0EC0FF0380E0001AE19D8A41EEF07F0A1
:100E380020EF07F026EF07F0CC0E626F7F0E636F8E
:100E480069EC0EF0390E0001AE19D8A42EEF07F0A8
:100E580030EF07F0FCEF05F0D90E626F7F0E636F7D
:100E680069EC0EF0FCEF05F0020E626F7B0E636F0B
:100E780069EC0EF0FCEF05F014EF00F00001696F6B
:100E880000016951D8B44BEF07F04DEF07F06FEF51
:100E980007F064BF54EF07F052EF07F06FEF07F069
:100EA80061C065F062C066F063C067F064C068F056
:100EB800651F661F671F681F652B000E6623672363
:100EC800682365C06BF066C06CF067C06DF068C0E1
:100ED8006EF077EF07F061C06BF062C06CF063C032
:100EE8006DF064C06EF06151621163116411D8A491
:100EF80080EF07F082EF07F08CEF07F0000E616FCC
:100F0800000E626F000E636F000E646F1DEF08F035
:100F1800960E6A6F96EF07F06A2BD8906E336D3392
:100F28006C336B33000E6B15656F000E6C15666FB6
:100F3800000E6D15676FFE0E6E15686F65516611B0
:100F480067116811D8A4ABEF07F0ADEF07F090EF89
:100F580007F0BBEF07F06A2B010E6B27000E6C231E
:100F68006D236E23D8906E336D336C336B33000E64
:100F78006B15656F000E6C15666F000E6D15676F4B
:100F8800FF0E6E15686F6551661167116811D8A458
:100F9800D0EF07F0D2EF07F0AFEF07F0DAEF07F086
:100FA8006A07D8906B376C376D376E376DBFDFEFD8
:100FB80007F0E1EF07F0E9EF07F0020E6A61E7EFEB
:100FC80007F0E9EF07F0D4EF07F06AB1EEEF07F0AA
:100FD800F0EF07F0F1EF07F06D9FD8906A336AC021
:100FE80065F0666B676B686B65C068F0676B666B0E
:100FF800656B65516B1366516C1367516D136851BE
:101008006E136951D8B40BEF08F00DEF08F015EF27
:1010180008F064BF14EF08F012EF08F015EF08F0BD
:101028006E8F6BC061F06CC062F06DC063F06EC013
:1010380064F01200096E0950D8B425EF08F027EFC4
:1010480008F049EF08F004BE2EEF08F02CEF08F086
:1010580049EF08F001C005F002C006F003C007F030
:1010680004C008F0051E061E071E081E052A000EED
:1010780006220722082205C00BF006C00CF007C0A4
:101088000DF008C00EF051EF08F001C00BF002C0DF
:101098000CF003C00DF004C00EF001500210031054
:1010A8000410D8A45AEF08F05CEF08F066EF08F0D7
:1010B800000E016E000E026E000E036E000E046E2E
:1010C800F7EF08F0960E0A6E70EF08F00A2AD8902B
:1010D8000E320D320C320B32000E0B14056E000E60
:1010E8000C14066E000E0D14076EFE0E0E14086E1C
:1010F8000550061007100810D8A485EF08F087EFF0
:1011080008F06AEF08F095EF08F00A2A010E0B269E
:10111800000E0C220D220E22D8900E320D320C3207
:101128000B32000E0B14056E000E0C14066E000E2A
:101138000D14076EFF0E0E14086E055006100710EA
:101148000810D8A4AAEF08F0ACEF08F089EF08F06F
:10115800B4EF08F00A06D8900B360C360D360E366A
:101168000DBEB9EF08F0BBEF08F0C3EF08F0020EB0
:101178000A60C1EF08F0C3EF08F0AEEF08F00AB05C
:10118800C8EF08F0CAEF08F0CBEF08F00D9ED89032
:101198000A320AC005F0066A076A086A05C008F03C
:1011A800076A066A056A05500B1206500C120750AA
:1011B8000D1208500E120950D8B4E5EF08F0E7EF09
:1011C80008F0EFEF08F004BEEEEF08F0ECEF08F0DF
:1011D800EFEF08F00E8E0BC001F00CC002F00DC04E
:1011E80003F00EC004F012000600F3CF3CF0F4CF79
:1011F8003DF0F6CF3EF0F7CF3FF0F8CF40F0F5CF17
:1012080041F0F2A40AEF09F00CEF09F01DEF09F024
:10121800000EA1EC0DF0EDC056F0EEC057F0AC0E8C
:10122800026E7C0E036E35EC0EF0000E0001F76FB7
:10123800F2949EA022EF09F024EF09F035EF09F0AF
:10124800000E47EC0DF0EBC0F3F0ECC0F4F0780EB4
:10125800026E7C0E036E35EC0EF0000E0001F76F87
:101268009E90F2A23AEF09F03CEF09F054EF09F032
:101278001A0E3B6EF80EE82EFED73B2EFCD700D098
:1012880081A049EF09F04BEF09F051EF09F0400E4A
:10129800026E7D0E036E35EC0EF0A8EC0FF0F292A4
:1012A800F0A059EF09F05BEF09F07AEF09F01A0E98
:1012B8003B6EF80EE82EFED73B2EFCD700D081A25D
:1012C80068EF09F06AEF09F070EF09F0F30E026EAB
:1012D8007D0E036E35EC0EF0000EA1EC0DF0000E45
:1012E80047EC0DF0000E0001F76FF090F0A27FEFD1
:1012F80009F081EF09F0A0EF09F01A0E3B6EF80E25
:10130800E82EFED73B2EFCD700D081A48EEF09F043
:1013180090EF09F096EF09F01D0E026E7E0E036E37
:1013280035EC0EF0000EA1EC0DF0000E47EC0DF0C0
:10133800000E0001F76FF09241C0F5FF40C0F8FFC2
:101348003FC0F7FF3EC0F6FF3DC0F4FF3CC0F3FFCF
:101358005A9211000001F951300F676FE60E626F63
:101368007F0E636F69EC0EF00001675173EC0FF0AC
:10137800D70E0001626F7E0E636F69EC0EF0000EEF
:101388000001686F42EF0AF0F20E626F7F0E636F22
:1013980069EC0EF000016851300F73EC0FF0EF0E9E
:1013A8000001626F7F0E636F69EC0EF0E10E0001C1
:1013B8006825D96EDA6A000EDA22DF5073EC0FF076
:1013C800D70E00016825D96EDA6A000EDA22DF50DE
:1013D80073EC0FF0CD0E00016825D96EDA6A000EA5
:1013E800DA22DF5073EC0FF02C0E73EC0FF0C30E03
:1013F80000016825D96EDA6A000EDA22DF5073EC34
:101408000FF0B90E00016825D96EDA6A000EDA22EB
:10141800DF5073EC0FF0AF0E00016825D96EDA6A61
:10142800000EDA22DF5073EC0FF02C0E73EC0FF085
:101438004C0E00016825D96EDA6A000EDA22DF50F8
:1014480073EC0FF0420E00016825D96EDA6A000EBF
:10145800DA22DF5073EC0FF0000E00016825D96E18
:10146800DA6A010EDA22DF5073EC0FF02E0E73ECFD
:101478000FF00A0E73EC0FF00001682BF951685D4C
:10148800D8A049EF0AF04BEF0AF0C8EF09F01200B4
:1014980000018A358B35916F9151D8A456EF0AF027
:1014A80058EF0AF062EF0AF0000E886F000E896F9D
:1014B800000E8A6F000E8B6FCFEF0AF088C08CF099
:1014C80089C08DF08AC08EF08BC08FF0200E72EF2D
:1014D8000AF0D8908F338E338D338C33E82E6DEF2E
:1014E8000AF08C51906F8A8FFF0E8817FF0E8917AC
:1014F800FF0E8A17000E8B17960E915F91BF89EF2A
:101508000AF087EF0AF09FEF0AF09151800A970FCF
:10151800D8B091EF0AF093EF0AF095EF0AF058EF80
:101528000AF0D8908B338A3389338833913F95EF0B
:101538000AF0B7EF0AF01F0E9165A5EF0AF0A7EFC2
:101548000AF0AFEF0AF058EF0AF0D89088378937D9
:101558008A378B3791079151D8A4B5EF0AF0B7EFC6
:101568000AF0A9EF0AF09051D8B4BDEF0AF0BFEF26
:101578000AF0C7EF0AF08B1F8A1F891F886D000EBB
:1015880089238A238B2388C088F089C089F08AC080
:101598008AF08BC08BF012002A342B34316E315014
:1015A800D8A4D9EF0AF0DBEF0AF0E5EF0AF0000E55
:1015B800286E000E296E000E2A6E000E2B6E52EF5A
:1015C8000BF028C02CF029C02DF02AC02EF02BC01B
:1015D8002FF0200EF5EF0AF0D8902F322E322D3250
:1015E8002C32E82EF0EF0AF02C50306E2A8EFF0EC7
:1015F8002816FF0E2916FF0E2A16000E2B16960E19
:10160800315E31BE0CEF0BF00AEF0BF022EF0BF05E
:101618003150800A970FD8B014EF0BF016EF0BF08B
:1016280018EF0BF0DBEF0AF0D8902B322A32293270
:101638002832313E18EF0BF03AEF0BF01F0E3164F1
:1016480028EF0BF02AEF0BF032EF0BF0DBEF0AF08C
:10165800D890283629362A362B3631063150D8A468
:1016680038EF0BF03AEF0BF02CEF0BF03050D8B40A
:1016780040EF0BF042EF0BF04AEF0BF02B1E2A1E47
:10168800291E286C000E29222A222B2228C028F085
:1016980029C029F02AC02AF02BC02BF01200000123
:1016A8009F6F0001F705D8B45CEF0BF05EEF0BF00D
:1016B80055EF0BF09F51640DF3CF9DF0F4CF9EF0E2
:1016C8009B510A0DF3509D27F4509E239C519D2752
:1016D800000E9E23300E9D25EB6FEB0E9E21EC6FC6
:1016E800F351EB5D616FF451EC59626F9BEC0EF0B6
:1016F80061C065F062C066F0000E0001686F050EFB
:10170800676F0AEC0FF065C0F5F066C0F6F0780E6A
:101718000001626F7F0E636F69EC0EF00001F551F6
:1017280073EC0FF00A0E73EC0FF00001EB51F35D50
:10173800EC51F459D8B0A3EF0BF0A5EF0BF0A8EFDC
:101748000BF08C86B4EF0BF0F351EB5DF451EC59D0
:10175800D8B0B1EF0BF0B3EF0BF0B4EF0BF08C9601
:10176800F351EB1909E1F451EC19D8B4BEEF0BF0C1
:10177800C0EF0BF0CEEF0BF0010EF76FF5C061F084
:10178800F6C062F0BCEC0EF0000E2EEC0CF0320E3F
:101798008CEC0CF01200010E0001F86F010EF86FCE
:1017A800AEEC09F06E0E0001626F7D0E636F69EC9E
:1017B8000EF0FBEC0DF00001796FF4EF0BF04D0E1D
:1017C800626F7B0E636F69EC0EF0910E0001626F21
:1017D8007B0E636F69EC0EF0FBEC0DF00001796F86
:1017E800F951716F726BD00E736FFF0E746F795170
:1017F800756F766B73517527745176237151755DCA
:101808007651800A776F7251800A7759D8B00FEFF6
:101818000CF011EF0CF0E3EF0BF0F70E626F7E0E99
:10182800636F69EC0EF00001795173EC0FF00A0E4A
:1018380073EC0FF000017951D00F796FF9C078F08F
:1018480079C0F9F041EC04F078C0F9F0000E00011D
:10185800F86F12000001986F0A0E0001736FD70E1F
:10186800746F230E756F3C0E766F9851616F626BC3
:10187800636B646B010E42EC07F061C06FF062C0ED
:1018880070F063C071F064C072F016EC00F06FC0C5
:1018980094F070C095F071C096F072C097F0000E89
:1018A8000001736F000E746F7A0E756F440E766FB9
:1018B80094C06FF095C070F096C071F097C072F048
:1018C80016EC00F06FC088F070C089F071C08AF023
:1018D80072C08BF04CEC0AF088C099F089C09AF07D
:1018E80099C092F0030E00019217923BBA509219D8
:1018F800CF0B9219BA6E99C092F09AC093F0D89013
:1019080093339233D890933392339251BB6E120033
:101918000001986F0A0E0001736FD70E746F230EC3
:10192800756F3C0E766F9851616F626B636B646B79
:10193800010E42EC07F061C06FF062C070F063C046
:1019480071F064C072F016EC00F06FC094F070C0D3
:1019580095F071C096F072C097F0000E0001736F99
:10196800000E746F7A0E756F440E766F94C06FF028
:1019780095C070F096C071F097C072F016EC00F048
:101988006FC088F070C089F071C08AF072C08BF0A7
:101998004CEC0AF088C099F089C09AF099C092F08E
:1019A800030E00019217923BBD509219CF0B92196A
:1019B800BD6E99C092F09AC093F0D8909333923349
:1019C800D890933392339251BE6E1200000E0001EC
:1019D800676FE10E6725D96EDA6A000EDA22000E0B
:1019E800DF6ED70E6725D96EDA6A000EDA22000E8E
:1019F800DF6ECD0E6725D96EDA6A000EDA22000E88
:101A0800DF6EC30E6725D96EDA6A000EDA22000E81
:101A1800DF6EB90E6725D96EDA6A000EDA22000E7B
:101A2800DF6EAF0E6725D96EDA6A000EDA22000E75
:101A3800DF6E4C0E6725D96EDA6A000EDA22000EC8
:101A4800DF6E420E6725D96EDA6A000EDA22000EC2
:101A5800DF6E000E6725D96EDA6A010EDA22000EF3
:101A6800DF6E672B090E67653CEF0DF03EEF0DF05A
:101A7800EDEF0CF0000EF96FE00E626F7C0E636FF5
:101A880069EC0EF01200386E0A0E136ED70E146E43
:101A9800230E156E3C0E166E3850016E026A036AEC
:101AA800046A010E1EEC08F001C00FF002C010F02D
:101AB80003C011F004C012F02CEC02F00FC034F097
:101AC80010C035F011C036F012C037F0000E136E9A
:101AD800000E146E7A0E156E440E166E34C00FF09A
:101AE80035C010F036C011F037C012F02CEC02F0FF
:101AF8000FC028F010C029F011C02AF012C02BF036
:101B0800D0EC0AF028C039F029C03AF039C032F0D8
:101B1800030E3216323ABD503218CF0B3218BD6E52
:101B280039C032F03AC033F0D89033323232D890DC
:101B3800333232323250BE6E1200386E0A0E136ED5
:101B4800D70E146E230E156E3C0E166E3850016EAD
:101B5800026A036A046A010E1EEC08F001C00FF065
:101B680002C010F003C011F004C012F02CEC02F017
:101B78000FC034F010C035F011C036F012C037F085
:101B8800000E136E000E146E7A0E156E440E166E4D
:101B980034C00FF035C010F036C011F037C012F065
:101BA8002CEC02F00FC028F010C029F011C02AF068
:101BB80012C02BF0D0EC0AF028C039F029C03AF056
:101BC80039C032F0030E3216323ABA503218CF0BFF
:101BD8003218BA6E39C032F03AC033F0D890333286
:101BE8003232D890333232323250BB6E1200000E8D
:101BF8000001676F22EF0EF09EAA05EF0EF007EFC7
:101C08000EF000EF0EF0AECF67F0000EAE6E3A0E9B
:101C18000001676112EF0EF014EF0EF01CEF0EF0EA
:101C2800300E67611AEF0EF01CEF0EF022EF0EF087
:101C3800100E626F7D0E636F69EC0EF03A0E0001B4
:101C4800676129EF0EF02BEF0EF000EF0EF02F0E6C
:101C5800676531EF0EF033EF0EF000EF0EF06751CD
:101C68001200000E066E0628D8A43DEF0EF03FEFD6
:101C78000EF041EF0EF068EF0EF006500224046EED
:101C8800000E0320056E04C0F6FF05C0F7FF08002C
:101C9800F5500009D8A453EF0EF055EF0EF057EFAA
:101CA8000EF068EF0EF006500224046E000E0320BA
:101CB800056E04C0F6FF05C0F7FF0800F55095EC67
:101CC8000FF0062A37EF0EF01200000E0001666FC3
:101CD80066516225646F000E6321656F64C0F6FF6C
:101CE80065C0F7FF0800F5500009D8A47EEF0EF094
:101CF80080EF0EF082EF0EF09AEF0EF0665162253B
:101D0800646F000E6321656F64C0F6FF65C0F7FF5E
:101D18000800F55073EC0FF00001662B6629D8A473
:101D280098EF0EF09AEF0EF06CEF0EF01200000133
:101D380062BFA9EF0EF0625106E16105D8B0A7EFC6
:101D48000EF0A9EF0EF0B7EF0EF061C063F062C0BD
:101D580064F0631F641F634B642B63C061F064C04D
:101D680062F0BBEF0EF061C061F062C062F0120079
:101D7800000161516211D8B4C4EF0EF0C6EF0EF045
:101D8800D4EF0EF061510108636F6251D8A0E82AC0
:101D98000008646F6451CF6E63C0CEFFD6EF0EF0BB
:101DA800CF68CE681200000E0001656FE7EF0EF0F5
:101DB80065516225D96E000E6321DA6E3EEC0FF094
:101DC800DF6E0001652B6451655DD8A0EEEF0EF063
:101DD800F0EF0EF0DCEF0EF0120001EE00F00A0E4C
:101DE800EE6AE806FDE100EEAFF04B0EEE6AE8069B
:101DF800FDE100EE42F0180EEE6AE806FDE15A90A9
:101E08005A92000EF86E0001CEEF05F00001655100
:101E18006703F3CF69F0F4CF6AF065516803F350B4
:101E28006A2766516703F3506A2769C065F06AC07C
:101E380066F012009494BD50F00B0C09BD6EF90EBB
:101E4800CB6E030ECA12CF0EBD16000EBE6E000E6C
:101E5800CC6ECA84120094920F0EBA12F90ECB6E91
:101E6800030ECA12CF0EBA16000EBB6E000ECC6E51
:101E7800CA8412009EAA43EF0FF045EF0FF03EEF21
:101E88000FF0AECF61F0000EAE6E0001615112008E
:101E9800CD90CD8ECD96CD8CCD82CD849480000E04
:101EA800CF6E000ECE6ECD801200F292F288F18CC9
:101EB8009380F090F086F18A9382F092F088F1880E
:101EC80093841200948C948E100EAF6EAC84B886F6
:101ED800AC9CAC8AAC98AB8EAB9CAB881200000172
:101EE800616FACA27AEF0FF07CEF0FF075EF0FF097
:101EF80061C0ADFF1200D59ED59CD58AD598928831
:101F0800000ED76E000ED66ED58E12008C86010E8E
:101F18000001F76F000E2EEC0CF0320E8CEC0CF07A
:101F28001200016EACA29BEF0FF09DEF0FF096EF41
:101F38000FF001C0ADFF12008C96010E0001F76F83
:101F4800320E8CEC0CF012008C96010E0001F76F2B
:101F5800320E47EC0DF012009590959294928C9069
:101F68008C928B9212009594959694948C948C965E
:101F78008B9412000F0EC112700ED36E1200D09EF9
:0E1F8800F28CF28E12009D801200F28A12007E
:1079A20000283029417975646120736F6272652005
:1079B200636F6D6F2066756E63696F6E6120656CB3
:1079C2002070726F6772616D6120283129496E746F
:1079D200726F647563697220636F6F7264656E6142
:1079E2006461206E7565766120283229496D707256
:1079F200696D6972206C617320636F6F7264656E6A
:107A020061646173207265636962696461732028CD
:107A120033294972206120686F6D650A2834294D27
:107A22006F6469666963617220636F6F7264656E09
:107A320061646120283529496E6963696172205049
:107A4200726F6772616D6120283629426F727261AE
:107A52007220656C2076616C6F7220646520746F91
:107A6200646173206C617320636F6F7264656E6111
:107A7200646173202837294D616E64617220696EDA
:107A820066696E69746F206F20686F6D650A0049C0
:107A92006E74726F6475636520656E20656C207309
:107AA20069677569656E7465206F7264656E206CB6
:107AB2006173207661726961626C65732061207501
:107AC20073617220286E6F2075736573206C617309
:107AD20020636F6D6173293A20636F6F7264582C53
:107AE200636F6F7264592C23206465207665636529
:107AF2007320612070726573696F6E6172205A0023
:107B02005475766973746520756E206572726F7232
:107B12002C2065736372696265206C612070616CF0
:107B22006162726120274D656E7527206F20276D77
:107B3200656E75272070617261206163636564659B
:107B42007220616C206D656E750A004572726F72EB
:107B52002C206573746173207175657269656E643A
:107B62006F206D6F6469666963617220756E612052
:107B7200636F6F7264656E61646120717565206107
:107B8200756E206E6F20616772656761730A0043CC
:107B920075616C20636F6F7264656E6164612071E0
:107BA200756965726573206D6F6469666963617278
:107BB2002C20656C6967652076616C6F7265732035
:107BC20076616C69646F733F0A0059612065737452
:107BD200616E206C617320313020636F6F72646557
:107BE2006E61646173206C6C656E61732C206E6FC4
:107BF20020707565646573206167726567617220C4
:107C02006D61730045736372696265206C612070F7
:107C1200616C6162726120274D656E7527206F204D
:107C2200276D656E752720706172612061636365DF
:107C320064657220616C206D656E750A0056617311
:107C4200206120626F7272617220746F64617320AE
:107C52006C617320636F6F7264656E616461732C13
:107C62002073656775726F3F202831292053692080
:107C72002830294E6F00496E74657272757063699F
:107C82006F6E20544D52312C206C6C656761737499
:107C920065206120636F6F7264656E616461206448
:107CA20065736561646120580A00496E7465727279
:107CB200757063696F6E20544D52302C206C6C6568
:107CC2006761737465206120636F6F7264656E61B2
:107CD2006461206465736561646120590A004C69BE
:107CE20073746F2C20746F646173206C61732063F2
:107CF2006F6F7264656E616461732068616E207378
:107D020069646F20626F7272616461730A00536FFB
:107D12006C6F2070756564657320696E74726F6430
:107D220075636972206E756D65726F732C20707247
:107D320075656261206465206E7565766F004F63BC
:107D4200757272696F206C6120696E7465727275EA
:107D52007063696F6E206C696D69745377697463BF
:107D6200683345737175696E61730A004375616C9E
:107D720020646520657374617320636F6F7264653C
:107D82006E616461732071756965726573206D6FD0
:107D9200646966696361723F0A00456C656769736D
:107DA2007465206C61206F7063696F6E206465205A
:107DB200696D7072696D697220636F6F7264656E4E
:107DC200616461730A00436F6F7264656E6164611E
:107DD2002072656369626964612C206C6F20717521
:107DE20065207265636962696D6F73206675653AB5
:107DF200004F63757272696F206C6120696E7465E1
:107E02007272757063696F6E206C696D69745377F5
:107E120069746368486F6D65580A004F63757272C2
:107E2200696F206C6120696E746572727570636926
:107E32006F6E206C696D6974537769746368486FFB
:107E42006D65590A004861732061677265676164F4
:107E52006F2065737465206E756D65726F20646541
:107E620020636F6F7264656E616461733A00456C82
:107E7200656363696F6E206E6F2076616C69646101
:107E8200207675656C7661206120696E74656E740A
:107E920061720052656369626920232064652076FD
:107EA2006563657320612070726573696F6E6172BC
:107EB200205A0A004D65746973746520756E6120DD
:107EC200636F6F7264656E61646120696E76616C66
:107ED2006964610A0020636F6F7264656E61646138
:107EE200732C206C6173206375616C657320736FF2
:107EF2006E3A200A005661732061206D6F646966D4
:107F020069636172206C6120636F6F7264656E6178
:107F120064612000456C6967652028312920696EFB
:107F220066696E69746F206F20302028686F6D65F6
:107F3200290046756E63696F6E616D69656E746F57
:107F42002064656C2053504152433A0048617320CB
:107F5200656C656769646F206972206120686F6D66
:107F6200650A00526567726573616E646F20616CA9
:107F7200206D656E750078546F416476616E63653D
:107F82002069733A0079546F416476616E636520AB
:107F920069733A0052656369626920636F6F726444
:107FA200580052656369626920636F6F7264590099
:107FB200456E747261736520616C203500456E7484
:107FC2007261736520616C203700456E7472617353
:107FD2006520616C203800456E74726173652061A2
:107FE2006C2039004167726567617374653A2000DD
:0D7FF200436F6F7264656E61646120000072
:020000040020DA
:08000000FFFFFFFFFFFFFFFF00
:020000040030CA
:0E00000000091F1EFF0381FF0FC00FE00F401D
:00000001FF
