:020000040000FA
:0400000014EF00F009
:06000800238294ED05F0D7
:100018002380E0CF17F000F017C0E0FF2390100016
:0400280048EF05F0A8
:1008000000456D7069657A61206E75657661206955
:100810006E737472756363696F6E2064616D6520B9
:10082000747520636F6F7264656E61646120590A2C
:1008300000456D7069657A61206E75657661206925
:100840006E737472756363696F6E2064616D652089
:10085000747520636F6F7264656E61646120780ADD
:100860000079546F416476616E63652069733A0064
:010870000087
:100872008EEC05F064EC05F07CEC05F087EC05F0FD
:1008820057EC05F0310E196E080E1A6EE5EC04F005
:100892000D0E71EC05F0010E196E080E1A6EE5ECE4
:1008A20004F057EC05F0096E57EC05F00A6E57ECB0
:1008B20005F00B6E0D0E71EC05F00950640DF3CFCF
:1008C2001EF0F4CF1FF00A500A0DF3501E26F4500A
:1008D2001F220B501E26000E1F22300E1E24036EF6
:1008E200EB0E1F20046E0F50035C116E1050045863
:1008F200126E11C018F012C019F0000E1B6E050E18
:100902001A6E35EC05F018C011F019C012F0610E24
:10091200196E080E1A6EE5EC04F0115071EC05F038
:1009220012BE9CEF04F0125008E11104D8A09CEF13
:1009320004F09EEF04F0A1EF04F08C86A9EF04F01E
:1009420012BEA8EF04F0A6EF04F0A9EF04F08C9613
:1009520011C018F012C019F015EC05F0185071EC26
:1009620005F0000E226E000E216ECBEF04F089849A
:100972008B840D0E1E6EFC0EE82EFED71E2EFCD7AB
:100982008B940D0E1E6EFC0EE82EFED71E2EFCD78B
:10099200214A222A11C018F012C019F015EC05F0F4
:1009A2001850215C19502258D8A0DAEF04F0DCEF7D
:1009B20004F0B8EF04F0899403C00FF004C010F003
:1009C20041EF04F014EF00F0000E1D6E1D501924CB
:1009D2001B6E000E1A201C6E1BC0F6FF1CC0F7FF18
:1009E2000800F5500009D8A4F9EF04F0FBEF04F079
:1009F200FDEF04F014EF05F01D5019241B6E000EDC
:100A02001A201C6E1BC0F6FF1CC0F7FF0800F55031
:100A120071EC05F01D2A1D28D8A412EF05F014EF81
:100A220005F0E7EF04F0120019BE22EF05F01950AD
:100A320006E11804D8B020EF05F022EF05F030EF00
:100A420005F018C01AF019C01BF01A1E1B1E1A4A14
:100A52001B2A1AC018F01BC019F034EF05F018C099
:100A620018F019C019F0120018501A02F3CF1CF036
:100A7200F4CF1DF018501B02F3501D2619501A0214
:100A8200F3501D261CC018F01DC019F0120000EE14
:100A920001F0160EEE6AE806FDE123902392000EA5
:100AA200F86E080EF76E000139EF04F09EAA5CEFB3
:100AB20005F05EEF05F057EF05F0AECF18F0000E2F
:100AC200AE6E18501200948C948E100EAF6EAC84E1
:100AD200B886AC9CAC8AAC98AB8EAB9CAB8812004F
:100AE200186EACA277EF05F079EF05F072EF05F022
:100AF20018C0ADFF120092949296899489969590AF
:100B0200959294928C908C928B92120095949596D9
:100B120094948C948C968B9412000F0EC112700ECA
:0E0B2200D36E93901200060000F02392110093
:020000040020DA
:08000000FFFFFFFFFFFFFFFF00
:020000040030CA
:0E00000000091F1FFF0381FF0FC00FE00F401C
:00000001FF
