:020000040000FA
:0400000014EF00F009
:060008005982D7ED0CF057
:100018005980E0CF60F000F060C0E0FF5990100018
:10002800ADEF15F000019051800B996F905190251C
:100038009B6F8FAF22EF00F024EF00F025EF00F068
:100048009B819B51D8B42BEF00F02DEF00F042EFCD
:1000580000F09B29D8A433EF00F035EF00F03DEF16
:1000680000F0000E8D6F000E8E6F000E8F6F000E69
:10007800906F8F8F000E906F4AEF00F0000E8D6F1B
:10008800000E8E6F000E8F6F000E906F9451800BD4
:100098009A6F99519A19D8B454EF00F056EF00F0BE
:1000A80057EF00F0998D945194259A6F93AF5FEFB5
:1000B80000F061EF00F062EF00F09A819A51D8B435
:1000C80068EF00F06AEF00F07FEF00F09A29D8A4FB
:1000D80070EF00F072EF00F07AEF00F0000E916F11
:1000E800000E926F000E936F000E946F938F000EA8
:1000F800946F87EF00F0000E916F000E926F000E64
:10010800936F000E946F9B519A5DD8B08EEF00F0FC
:1001180090EF00F0B7EF00F099AD95EF00F097EF92
:1001280000F099EF00F0800E991B9BC09CF09AC0DC
:100138009BF09CC09AF08DC09CF091C08DF09CC043
:1001480091F08EC09CF092C08EF09CC092F08FC04F
:100158009CF093C08FF09CC093F090C09CF094C02A
:1001680090F09CC094F0000E9C6F9B519AC095F043
:10017800966B955F000E965B96BFCCEF00F096519C
:1001880009E11A0E955DD8A0CCEF00F0CEEF00F093
:1001980005EF01F08D518E118F119011D8A4D7EF72
:1001A80000F0DAEF00F0010EDBEF00F0000E9C6FBC
:1001B800000E8D6F000E8E6F000E8F6F000E906F09
:1001C8009AC09BF00EEF01F09CA1EDEF00F0EFEF6D
:1001D80000F0F5EF00F0D8909C3101099C6FF7EF23
:1001E80000F0D8909C338DA1FCEF00F0FEEF00F0FA
:1001F800FFEF00F09C8F903590338F338E338D3323
:100208009B2B9A519B5DD8A00CEF01F00EEF01F0EB
:10021800E8EF00F099BD13EF01F015EF01F055EF8D
:1002280001F09B51D8A41BEF01F01DEF01F027EF5F
:1002380001F0000E8D6F000E8E6F000E8F6F000E96
:10024800906F76EF02F091518D2792518E23935142
:100258008F239451902390A134EF01F036EF01F0F1
:10026800E2EF01F09CA13BEF01F03DEF01F043EF1D
:1002780001F0D8909C3101099C6F45EF01F0D890AE
:100288009C338DA14AEF01F04CEF01F04DEF01F0E6
:100298009C8F903590338F338E338D339B2BE2EFC9
:1002A80001F091518D5D92518E5993518F59905112
:1002B800800A956F9451800A9559D8B066EF01F07D
:1002C80068EF01F093EF01F08D51915D956F8E51BC
:1002D8009259966F8F519359976F90519459986F7F
:1002E800FF0E95258D6FFF0E96218E6FFF0E9721BD
:1002F8008F6FFF0E9821906F800E991B9C6D9C51FB
:10030800D8A489EF01F08BEF01F09BEF01F0010E0B
:100318008D27000E8E238F2390239BEF01F09151A0
:100328008D5F92518E5B93518F5B9451905B8D5191
:100338008E118F119011D8A4A4EF01F0A6EF01F04F
:10034800DBEF01F09C51D8A4ACEF01F0AEEF01F067
:10035800DBEF01F0000E8D6F000E8E6F000E8F6FB9
:10036800000E906F76EF02F0D8908D378E378F376A
:1003780090379CAFC2EF01F0C4EF01F0C5EF01F078
:100388008D819CA1CAEF01F0CCEF01F0D0EF01F014
:10039800D8809C37D2EF01F0D8909C379B51D8B4C5
:1003A800D8EF01F0DAEF01F0DBEF01F09B078FAF38
:1003B800E0EF01F0E2EF01F0B8EF01F0000E9A6F04
:1003C8009CAFE9EF01F0EBEF01F003EF02F09CC006
:1003D80095F07F0E9517D8B4F4EF01F0F6EF01F021
:1003E800FAEF01F0010E9A6F03EF02F08DA1FFEF13
:1003F80001F001EF02F003EF02F0F6EF01F09A517D
:10040800D8B409EF02F00BEF02F036EF02F0010E5C
:100418008D27000E8E238F23902390A116EF02F0D4
:1004280018EF02F036EF02F08DC095F08EC096F00E
:100438008FC097F090C098F09835983397339633DB
:10044800953395C08DF096C08EF097C08FF098C008
:1004580090F09B29D8B433EF02F035EF02F036EF75
:1004680002F09B2B9B29D8B43CEF02F03EEF02F040
:1004780046EF02F09B51D8A444EF02F046EF02F099
:1004880058EF02F0000E8D6F000E8E6F000E8F6F0A
:10049800000E906F9B51D8A454EF02F056EF02F073
:1004A80058EF02F0000E996F9BA15DEF02F05FEF2D
:1004B80002F062EF02F08F8F63EF02F08F9FD89007
:1004C8009B31906F99AF6BEF02F06DEF02F06EEF1A
:1004D80002F0908F8DC08DF08EC08EF08FC08FF09F
:1004E80090C090F0120000017751800B806F775117
:1004F8007725866F76AF83EF02F085EF02F086EFFF
:1005080002F086818651D8B48CEF02F08EEF02F0AB
:10051800A1EF02F08629D8A494EF02F096EF02F03A
:100528009EEF02F0000E746F000E756F000E766F6E
:10053800000E776F768FA9EF02F0000E746F000E31
:10054800756F000E766F000E776F7B51800B801BE6
:100558007B517B25856F7AAFB4EF02F0B6EF02F0DE
:10056800B7EF02F085818551D8B4BDEF02F0BFEF37
:1005780002F0D2EF02F08529D8A4C5EF02F0C7EF48
:1005880002F0CFEF02F0000E786F000E796F000EC8
:100598007A6F000E7B6F7A8FDAEF02F0000E786FB9
:1005A800000E796F000E7A6F000E7B6F8551D8B4FC
:1005B800E0EF02F0E2EF02F0EAEF02F08651D8A491
:1005C800E8EF02F0EAEF02F0F4EF02F0000E746FC9
:1005D800000E756F000E766F000E776F8CEF04F0CB
:1005E8007A517403F3CF8BF0F4CF8CF08B51816F79
:1005F800826B836B846B8C51876F886B896B8A6B7A
:1006080079517503F3CF8BF0F4CF8CF08B518127A0
:10061800000E8223832384238C518727000E88238E
:1006280089238A2378517603F3CF8BF0F4CF8CF0AB
:100638008B518127000E8223832384238C518727A3
:10064800000E882389238A2383C084F082C083F024
:1006580081C082F0816B78517503F3CF8BF0F4CFB2
:100668008CF08B5181278C518223000E8323000E3E
:10067800842379517403F3CF8BF0F4CF8CF08B5132
:1006880081278C518223000E8323000E842383C08C
:1006980084F082C083F081C082F0816B785174034A
:1006A800F3CF8BF0F4CF8CF08B5181278C518223C0
:1006B800000E8323000E84237A517503F3CF8BF049
:1006C800F4CF8CF08B5187278C518823000E892317
:1006D800000E8A2379517603F3CF8BF0F4CF8CF098
:1006E8008B5187278C518823000E8923000E8A237B
:1006F8007A517603F3CF8BF0F4CF8CF08B517C6F6B
:100708008C517D6F7E6B7F6B7EC07FF07DC07EF0ED
:100718007CC07DF07C6B7C5187277D5188237E517E
:1007280089237F518A2381C07CF082C07DF083C0F9
:100738007EF084C07FF0190EA7EF03F0D8907F33C6
:100748007E337D337C33E82EA2EF03F07C5187277C
:100758007D5188237E5189237F518A2383C084F069
:1007680082C083F081C082F0816B855186C07CF0A5
:100778007D6B7C27000E7D23820E7C258B6FFF0E00
:100788007D218C6FDDEF03F0D89087378837893764
:100798008A3784AFD2EF03F0D4EF03F0D5EF03F03C
:1007A8008781D89081378237833784378B07D8A0E1
:1007B8008C0789AFE2EF03F0E4EF03F0C8EF03F032
:1007C800000E856F84AFEBEF03F0EDEF03F011EF50
:1007D80004F0FF0E81157C6FFF0E82157D6FFF0EF2
:1007E80083157E6F7F0E84157F6F7C517D117E117E
:1007F8007F11D8B402EF04F004EF04F008EF04F01E
:10080800010E856F11EF04F087A10DEF04F00FEFD3
:1008180004F011EF04F004EF04F08551D8B417EF99
:1008280004F019EF04F03DEF04F0010E8727000EE5
:10083800882389238A238AA124EF04F026EF04F071
:100848003DEF04F087C07CF088C07DF089C07EF061
:100858008AC07FF07F357F337E337D337C337CC025
:1008680087F07DC088F07EC089F07FC08AF08B4B0E
:100878008C2B8CBF48EF04F08C5108E18B29D8A051
:1008880048EF04F04AEF04F054EF04F0000E876FCD
:10089800000E886F800E896F7F0E8A6F82EF04F0DA
:1008A8008CBF61EF04F08C5106E18B05D8B05FEF87
:1008B80004F061EF04F06DEF04F0000E876F000E96
:1008C800886F000E896F000E8A6F000E806F82EFAE
:1008D80004F08BC086F0FF0E8717FF0E88177F0E77
:1008E8008917000E8A1786A17CEF04F07EEF04F0CA
:1008F8007FEF04F0898FD89086318A6F80518A13F0
:1009080087C074F088C075F089C076F08AC077F027
:1009180012001250800B1B6E12501224216E11AE61
:1009280098EF04F09AEF04F09BEF04F02180215037
:10093800D8B4A1EF04F0A3EF04F0B6EF04F0212837
:10094800D8A4A9EF04F0ABEF04F0B3EF04F0000E65
:100958000F6E000E106E000E116E000E126E118ECC
:10096800BEEF04F0000E0F6E000E106E000E116E3A
:10097800000E126E1650800B1B1A16501624206E8D
:1009880015AEC9EF04F0CBEF04F0CCEF04F02080F3
:100998002050D8B4D2EF04F0D4EF04F0E7EF04F01D
:1009A8002028D8A4DAEF04F0DCEF04F0E4EF04F038
:1009B800000E136E000E146E000E156E000E166EED
:1009C800158EEFEF04F0000E136E000E146E000E7D
:1009D800156E000E166E2050D8B4F5EF04F0F7EF40
:1009E80004F0FFEF04F02150D8A4FDEF04F0FFEF6E
:1009F80004F009EF05F0000E0F6E000E106E000EE9
:100A0800116E000E126EA1EF06F015500F02F3CF13
:100A180026F0F4CF27F026501C6E1D6A1E6A1F6A46
:100A28002750226E236A246A256A14501002F3CFD5
:100A380026F0F4CF27F026501C26000E1D221E2279
:100A48001F2227502226000E23222422252213505B
:100A58001102F3CF26F0F4CF27F026501C26000E03
:100A68001D221E221F2227502226000E2322242266
:100A780025221EC01FF01DC01EF01CC01DF01C6AE0
:100A880013501002F3CF26F0F4CF27F026501C267F
:100A980027501D22000E1E22000E1F2214500F0286
:100AA800F3CF26F0F4CF27F026501C2627501D221E
:100AB800000E1E22000E1F221EC01FF01DC01EF0B9
:100AC8001CC01DF01C6A13500F02F3CF26F0F4CFA0
:100AD80027F026501C2627501D22000E1E22000E2D
:100AE8001F2215501002F3CF26F0F4CF27F026501E
:100AF800222627502322000E2422000E25221450DD
:100B08001102F3CF26F0F4CF27F0265022262750E3
:100B18002322000E2422000E252215501102F3CFA5
:100B280026F0F4CF27F02650176E2750186E196A52
:100B38001A6A19C01AF018C019F017C018F0176A05
:100B48001750222618502322195024221A502522E1
:100B58001CC017F01DC018F01EC019F01FC01AF0F5
:100B6800190EBCEF05F0D8901A3219321832173224
:100B7800E82EB7EF05F017502226185023221950F7
:100B880024221A5025221EC01FF01DC01EF01CC0B2
:100B98001DF01C6A205021C017F0186A1726000E95
:100BA8001822820E1724266EFF0E1820276EF2EFE9
:100BB80005F0D89022362336243625361FAEE7EFC7
:100BC80005F0E9EF05F0EAEF05F02280D8901C3631
:100BD8001D361E361F362606D8A0270624AEF7EF88
:100BE80005F0F9EF05F0DDEF05F0000E206E1FAE01
:100BF80000EF06F002EF06F026EF06F0FF0E1C14D9
:100C0800176EFF0E1D14186EFF0E1E14196E7F0E40
:100C18001F141A6E1750181019101A10D8B417EF9D
:100C280006F019EF06F01DEF06F0010E206E26EF14
:100C380006F022A022EF06F024EF06F026EF06F0D9
:100C480019EF06F02050D8B42CEF06F02EEF06F07E
:100C580052EF06F0010E2226000E2322242225221E
:100C680025A039EF06F03BEF06F052EF06F022C060
:100C780017F023C018F024C019F025C01AF01A3450
:100C88001A3219321832173217C022F018C023F05E
:100C980019C024F01AC025F0264A272A27BE5DEF7E
:100CA80006F0275008E12628D8A05DEF06F05FEF90
:100CB80006F069EF06F0000E226E000E236E800E1D
:100CC800246E7F0E256E97EF06F027BE76EF06F0AE
:100CD800275006E12604D8B074EF06F076EF06F048
:100CE80082EF06F0000E226E000E236E000E246EB8
:100CF800000E256E000E1B6E97EF06F026C021F041
:100D0800FF0E2216FF0E23167F0E2416000E251640
:100D180021A091EF06F093EF06F094EF06F0248EF1
:100D2800D8902130256E1B50251222C00FF023C009
:100D380010F024C011F025C012F0120082EC16F059
:100D480025EC16F0FBEC15F0DAEC15F0000EACEC27
:100D580011F0000E0AEC12F097EC16F090EC16F079
:100D68003FEC16F018EC16F09EEC16F0AFEC16F00F
:100D7800ADEC16F089EC16F0ABEC16F0000E0001A5
:100D8800C66FC20EC06F000EC16FEBEC15F0600E9F
:100D98000001636F7B0E646F8DEC14F00001F705A2
:100DA800D8A4D9EF06F0DBEF06F0ECEF06F0480E1A
:100DB800636F7F0E646F8DEC14F0000E0001B06F4E
:100DC800050EB16F000EC3EC10F0000E0001F76FB6
:100DD800C0C063F0C1C064F0040EBE6FBEC065F051
:100DE8005BEC15F04D0E0001C219D8B4FEEF06F009
:100DF80000EF07F009EF07F06D0EC219D8A407EF4E
:100E080007F009EF07F038EF08F0650EC319D8A40A
:100E180010EF07F012EF07F038EF08F06E0EC41964
:100E2800D8A419EF07F01BEF07F038EF08F0750E9C
:100E3800C519D8A422EF07F024EF07F038EF08F01F
:100E48002B0E636F780E646F8DEC14F0EBEC15F0DD
:100E58000001CA6F38EF07F0FA0E636F7D0E646FFA
:100E68008DEC14F02AEF07F03A0ECA613EEF07F056
:100E780040EF07F030EF07F02F0ECA6546EF07F096
:100E880048EF07F030EF07F0300ECA19D8A44FEF3B
:100E980007F051EF07F057EF07F0FF0E636F7E0E74
:100EA800646F8DEC14F0310E0001CA19D8A45FEFFD
:100EB80007F061EF07F063EF07F042EC08F0320E3D
:100EC8000001CA19D8A46BEF07F06DEF07F075EFB2
:100ED80007F0260E636F7D0E646F8DEC14F0A5ECA1
:100EE8000DF0330E0001CA19D8A47DEF07F07FEF8B
:100EF80007F081EF07F03FEC11F0340E0001CA193A
:100F0800D8A489EF07F08BEF07F0A8EF07F0EC0EF5
:100F1800636F7A0E646F8DEC14F01BEC14F0000113
:100F2800C76F310EC719D8A49CEF07F09EEF07F0E2
:100F3800A2EF07F0CAEC0FF0A8EF07F05C0E636FA2
:100F48007F0E646F8DEC14F0350E0001CA19D8A419
:100F5800B0EF07F0B2EF07F0CFEF07F0990E636F2D
:100F68007B0E646F8DEC14F01BEC14F00001C86F5D
:100F7800310EC819D8A4C3EF07F0C5EF07F0C9EFC1
:100F880007F068EC12F0CFEF07F05C0E636F7F0E8E
:100F9800646F8DEC14F0360E0001CA19D8A4D7EF8F
:100FA80007F0D9EF07F0DBEF07F0CFEC09F0370EC9
:100FB8000001CA19D8A4E3EF07F0E5EF07F0EDEF59
:100FC80007F0C30E636F7E0E646F8DEC14F0CCECEB
:100FD80013F0380E0001CA19D8A4F5EF07F0F7EF9F
:100FE80007F024EF08F0A90E636F7F0E646F8DEC95
:100FF80014F0E10E0001636F7E0E646F8DEC14F047
:101008001BEC14F00001C96F310EC919D8A40FEFF9
:1010180008F011EF08F017EF08F07AEC16F072EC10
:1010280016F024EF08F0300EC919D8A41EEF08F006
:1010380020EF08F024EF08F054EC16F04AEC16F014
:10104800390E0001CA19D8A42CEF08F02EEF08F0C9
:10105800D2EF06F0760E636F790E646F8DEC14F0A4
:101068004AEC0FF0D2EF06F0DD0E636F790E646F75
:101078008DEC14F0D2EF06F014EF00F0000E000132
:10108800716F000E706F090EFA654DEF08F04FEFA3
:1010980008F057EF08F0F905D8A455EF08F057EF16
:1010A80008F0C8EF09F0050E0001636F790E646F50
:1010B8008DEC14F0DF0E0001FA25D96EDA6A000E05
:1010C800DA221BEC14F0DF6ED50E0001FA25D96E7A
:1010D800DA6A000EDA221BEC14F0DF6ECB0E000188
:1010E800FA25D96EDA6A000EDA221BEC14F0DF6EEC
:1010F8008D0E0001636F7F0E646F8DEC14F04C0E43
:101108000001FA25D96EDA6A000EDA221BEC14F017
:10111800DF6E420E0001FA25D96EDA6A000EDA2275
:101128001BEC14F0DF6E1E0E0001FA25D96EDA6A88
:10113800010EDA221BEC14F0DF6E9B0E0001636FC8
:101148007F0E646F8DEC14F0140E0001FA25D96E31
:10115800DA6A010EDA221BEC14F0DF6E0A0E0001C7
:10116800FA25D96EDA6A010EDA221BEC14F0DF6E6A
:10117800000E0001FA25D96EDA6A010EDA221BEC9C
:1011880014F0DF6E420E0001636F7E0E646F8DEC0B
:1011980014F0DF0E0001FA25D96EDA6A000EDA22A1
:1011A800DF50696F6951640DF3CF6AF0F4CF6BF0CB
:1011B800D50EFA25D96EDA6A000EDA22DF506C6F86
:1011C8006C510A0DF3506A27F4506B23CB0EFA25A5
:1011D800D96EDA6A000EDA22DF506D6F6D516A2718
:1011E800000E6B23300E6A256E6FEB0E6B216F6F4E
:1011F8004C0EFA25D96EDA6A000EDA22DF50696FD2
:101208006951640DF3CF6AF0F4CF6BF0420EFA2502
:10121800D96EDA6A000EDA22DF506C6F6C510A0D53
:10122800F3506A27F4506B231E0EFA25D96EDA6A3A
:10123800010EDA22DF506D6F6D516A27000E6B23A5
:10124800300E6A25706FEB0E6B21716F2D0E6E5D7F
:10125800010E6F59D8B033EF09F035EF09F040EFC0
:1012680009F02D0E705D010E7159D8A03EEF09F0FE
:1012780040EF09F048EF09F0630E636F7E0E646F6C
:101288008DEC14F057EF08F0520E636F7D0E646F0B
:101298008DEC14F0DF0E0001FA25D96EDA6A000E23
:1012A800DA22DF500AEC16F0D50E0001FA25D96EC5
:1012B800DA6A000EDA22DF500AEC16F0CB0E0001D3
:1012C800FA25D96EDA6A000EDA22DF500AEC16F037
:1012D8002C0E0AEC16F04C0E0001FA25D96EDA6ACB
:1012E800000EDA22DF500AEC16F0420E0001FA2551
:1012F800D96EDA6A000EDA22DF500AEC16F01E0EFA
:101308000001FA25D96EDA6A010EDA22DF500AECFA
:1013180016F02C0E0AEC16F0140E0001FA25D96E00
:10132800DA6A010EDA22DF500AEC16F00A0E000122
:10133800FA25D96EDA6A010EDA22DF500AEC16F0C5
:10134800000E0001FA25D96EDA6A010EDA22DF50A2
:101358000AEC16F02E0E0AEC16F00001F951D8A48A
:10136800B8EF09F0BAEF09F0CEEF09F0D10E636FCC
:101378007D0E646F8DEC14F00001FA2BFA51300FDA
:101388000AEC16F0CEEF09F0260E636F7B0E646F41
:101398008DEC14F012003A0E0001636F7C0E646F3E
:1013A8008DEC14F0000E0001916F000E926F400E4C
:1013B800936F420E946F0A0E786FD70E796F230ED3
:1013C8007A6F3C0E7B6FF3C066F0F4C067F0686B11
:1013D800696B000E21EC0BF066C074F067C075F005
:1013E80068C076F069C077F077EC02F074C08DF0D1
:1013F80075C08EF076C08FF077C090F016EC00F0D4
:101408008DC09DF08EC09EF08FC09FF090C0A0F060
:1014180043EC0EF000019D510AEC16F0000E00019D
:10142800916F000E926F400E936F420E946FCD0E27
:10143800786FCC0E796FCC0E7A6F3D0E7B6F000EF5
:10144800646F640E636FF3C061F0F4C062F0C1ECC6
:1014580014F0000161C066F062C067F0686B696BE8
:10146800000E21EC0BF066C074F067C075F068C020
:1014780076F069C077F077EC02F074C08DF075C033
:101488008EF076C08FF077C090F016EC00F08DC02B
:101498009DF08EC09EF08FC09FF090C0A0F043ECEE
:1014A8000EF000019D510AEC16F0000E0001646F69
:1014B800640E636FF3C061F0F4C062F0C1EC14F025
:1014C80061C0A7F062C0A8F0A7C061F0A8C062F030
:1014D800000E0001646F0A0E636FC1EC14F0000186
:1014E8006151300F0AEC16F02C0E0AEC16F0000EC3
:1014F8000001916F000E926F400E936F420E946F31
:101508000A0E786FD70E796F230E7A6F3C0E7B6FB9
:10151800EFC066F0F0C067F0686B696B000E21ECF5
:101528000BF066C074F067C075F068C076F069C0EB
:1015380077F077EC02F074C08DF075C08EF076C04D
:101548008FF077C090F016EC00F08DC09DF08EC043
:101558009EF08FC09FF090C0A0F043EC0EF0000109
:101568009D510AEC16F0000E0001916F000E926F6B
:10157800400E936F420E946FCD0E786FCC0E796F3C
:10158800CC0E7A6F3D0E7B6F000E646F640E636F36
:10159800EFC061F0F0C062F0C1EC14F0000161C06E
:1015A80066F062C067F0686B696B000E21EC0BF0A7
:1015B80066C074F067C075F068C076F069C077F0EF
:1015C80077EC02F074C08DF075C08EF076C08FF0A5
:1015D80077C090F016EC00F08DC09DF08EC09EF0A4
:1015E8008FC09FF090C0A0F043EC0EF000019D5119
:1015F8000AEC16F0000E0001646F640E636FEFC012
:1016080061F0F0C062F0C1EC14F061C0A7F062C0F4
:10161800A8F0A7C061F0A8C062F0000E0001646FD6
:101628000A0E636FC1EC14F000016151300F0AEC2F
:1016380016F02E0E0AEC16F0120000016E6F000173
:101648006E51D8B42AEF0BF02CEF0BF04EEF0BF0E5
:1016580069BF33EF0BF031EF0BF04EEF0BF066C0C4
:101668006AF067C06BF068C06CF069C06DF06A1F03
:101678006B1F6C1F6D1F6A2B000E6B236C236D2371
:101688006AC070F06BC071F06CC072F06DC073F01E
:1016980056EF0BF066C070F067C071F068C072F06A
:1016A80069C073F06651671168116911D8A45FEFBA
:1016B8000BF061EF0BF06BEF0BF0000E666F000E96
:1016C800676F000E686F000E696FFCEF0BF0960EE7
:1016D8006F6F75EF0BF06F2BD890733372337133D4
:1016E8007033000E70156A6F000E71156B6F000E67
:1016F80072156C6FFE0E73156D6F6A516B116C115C
:101708006D11D8A48AEF0BF08CEF0BF06FEF0BF094
:101718009AEF0BF06F2B010E7027000E71237223C6
:101728007323D8907333723371337033000E70158E
:101738006A6F000E71156B6F000E72156C6FFF0EDD
:1017480073156D6F6A516B116C116D11D8A4AFEFE1
:101758000BF0B1EF0BF08EEF0BF0B9EF0BF06F075A
:10176800D890703771377237733772BFBEEF0BF08E
:10177800C0EF0BF0C8EF0BF0020E6F61C6EF0BF075
:10178800C8EF0BF0B3EF0BF06FB1CDEF0BF0CFEF6D
:101798000BF0D0EF0BF0729FD8906F336FC06AF0E8
:1017A8006B6B6C6B6D6B6AC06DF06C6B6B6B6A6BA3
:1017B8006A5170136B5171136C5172136D5173131D
:1017C8006E51D8B4EAEF0BF0ECEF0BF0F4EF0BF03E
:1017D80069BFF3EF0BF0F1EF0BF0F4EF0BF0738F41
:1017E80070C066F071C067F072C068F073C069F0CD
:1017F8001200096E0950D8B404EF0CF006EF0CF093
:1018080028EF0CF004BE0DEF0CF00BEF0CF028EFF6
:101818000CF001C005F002C006F003C007F004C0D8
:1018280008F0051E061E071E081E052A000E0622C1
:101838000722082205C00BF006C00CF007C00DF007
:1018480008C00EF030EF0CF001C00BF002C00CF035
:1018580003C00DF004C00EF0015002100310041074
:10186800D8A439EF0CF03BEF0CF045EF0CF0000E6C
:10187800016E000E026E000E036E000E046ED6EFAF
:101888000CF0960E0A6E4FEF0CF00A2AD8900E3222
:101898000D320C320B32000E0B14056E000E0C14B8
:1018A800066E000E0D14076EFE0E0E14086E05501F
:1018B800061007100810D8A464EF0CF066EF0CF0BF
:1018C80049EF0CF074EF0CF00A2A010E0B26000EFB
:1018D8000C220D220E22D8900E320D320C320B3211
:1018E800000E0B14056E000E0C14066E000E0D147F
:1018F800076EFF0E0E14086E05500610071008102C
:10190800D8A489EF0CF08BEF0CF068EF0CF093EF94
:101918000CF00A06D8900B360C360D360E360DBE76
:1019280098EF0CF09AEF0CF0A2EF0CF0020E0A60A0
:10193800A0EF0CF0A2EF0CF08DEF0CF00AB0A7EFBF
:101948000CF0A9EF0CF0AAEF0CF00D9ED8900A321B
:101958000AC005F0066A076A086A05C008F0076A3F
:10196800066A056A05500B1206500C1207500D1234
:1019780008500E120950D8B4C4EF0CF0C6EF0CF0A2
:10198800CEEF0CF004BECDEF0CF0CBEF0CF0CEEFA9
:101998000CF00E8E0BC001F00CC002F00DC003F06D
:1019A8000EC004F012000600F3CF3CF0F4CF3DF077
:1019B800F6CF3EF0F7CF3FF0F8CF40F0F5CF41F04B
:1019C800F2A4E9EF0CF0EBEF0CF004EF0DF0575038
:1019D800D8A4F1EF0CF0F3EF0CF0F6EF0CF0000EDA
:1019E800C5EC12F0EBC0EFF0ECC0F0F0060E036EA1
:1019F8007C0E046E57EC14F0000E0001F86FF294A0
:101A08009EA009EF0DF00BEF0DF024EF0DF05850EC
:101A1800D8A411EF0DF013EF0DF016EF0DF0000E36
:101A28001FEC13F0E9C0F3F0EAC0F4F0D20E036E35
:101A38007B0E046E57EC14F0000E0001F86F9E90B8
:101A4800F2A229EF0DF02BEF0DF045EF0DF01A0E75
:101A58003B6EF80EE82EFED73B2EFCD700D081A0B7
:101A680038EF0DF03AEF0DF040EF0DF0CA0E036EAF
:101A78007C0E046E57EC14F068EC16F05EEC16F071
:101A8800F292F0A04AEF0DF04CEF0DF06EEF0DF072
:101A98001A0E3B6EF80EE82EFED73B2EFCD700D070
:101AA80081A259EF0DF05BEF0DF061EF0DF07D0EA7
:101AB800036E7D0E046E57EC14F0000E1FEC13F04D
:101AC800000E0001F46F000EF36F000E586E000E4A
:101AD800F86FF090F0A273EF0DF075EF0DF097EF3F
:101AE8000DF01A0E3B6EF80EE82EFED73B2EFCD7F3
:101AF80000D081A482EF0DF084EF0DF08AEF0DF095
:101B0800A70E036E7D0E046E57EC14F0000EC5ECA4
:101B180012F0000E0001F06F000EEF6F000E576E0E
:101B2800000EF86FF09241C0F5FF40C0F8FF3FC0CB
:101B3800F7FF3EC0F6FF3DC0F4FF3CC0F3FF5992EB
:101B480011000001FA51300F686FB60E636F7F0EF7
:101B5800646F8DEC14F0000168510AEC16F0840EE5
:101B68000001636F7E0E646F8DEC14F0000E0001AF
:101B7800696F39EF0EF0C20E636F7F0E646F8DECE4
:101B880014F000016951300F0AEC16F0450E0001FF
:101B9800636F7F0E646F8DEC14F0DF0E0001692512
:101BA800D96EDA6A000EDA22DF500AEC16F0D50E8A
:101BB80000016925D96EDA6A000EDA22DF500AECD4
:101BC80016F0CB0E00016925D96EDA6A000EDA220A
:101BD800DF500AEC16F02C0E0AEC16F04C0E000141
:101BE8006925D96EDA6A000EDA22DF500AEC16F09F
:101BF800420E00016925D96EDA6A000EDA22DF503A
:101C08000AEC16F01E0E00016925D96EDA6A010E7B
:101C1800DA22DF500AEC16F02C0E0AEC16F0140E3D
:101C280000016925D96EDA6A010EDA22DF500AEC62
:101C380016F00A0E00016925D96EDA6A010EDA2259
:101C4800DF500AEC16F0000E00016925D96EDA6A39
:101C5800010EDA22DF500AEC16F02E0E0AEC16F00E
:101C68000A0E0AEC16F00001692BFA51695DD8A03A
:101C780040EF0EF042EF0EF0BFEF0DF01200000142
:101C88009F35A035A66FA651D8A44DEF0EF04FEFA3
:101C98000EF059EF0EF0000E9D6F000E9E6F000EB5
:101CA8009F6F000EA06FC6EF0EF09DC0A1F09EC002
:101CB800A2F09FC0A3F0A0C0A4F0200E69EF0EF020
:101CC800D890A433A333A233A133E82E64EF0EF0E7
:101CD800A151A56F9F8FFF0E9D17FF0E9E17FF0E38
:101CE8009F17000EA017960EA65FA6BF80EF0EF0F6
:101CF8007EEF0EF096EF0EF0A651800A970FD8B03F
:101D080088EF0EF08AEF0EF08CEF0EF04FEF0EF02A
:101D1800D890A0339F339E339D33A63F8CEF0EF0AF
:101D2800AEEF0EF01F0EA6659CEF0EF09EEF0EF0C4
:101D3800A6EF0EF04FEF0EF0D8909D379E379F37E5
:101D4800A037A607A651D8A4ACEF0EF0AEEF0EF060
:101D5800A0EF0EF0A551D8B4B4EF0EF0B6EF0EF028
:101D6800BEEF0EF0A01F9F1F9E1F9D6D000E9E23AD
:101D78009F23A0239DC09DF09EC09EF09FC09FF012
:101D8800A0C0A0F012002A342B34316E3150D8A4F0
:101D9800D0EF0EF0D2EF0EF0DCEF0EF0000E286E52
:101DA800000E296E000E2A6E000E2B6E49EF0FF002
:101DB80028C02CF029C02DF02AC02EF02BC02FF0FF
:101DC800200EECEF0EF0D8902F322E322D322C321E
:101DD800E82EE7EF0EF02C50306E2A8EFF0E2816F4
:101DE800FF0E2916FF0E2A16000E2B16960E315ED0
:101DF80031BE03EF0FF001EF0FF019EF0FF0315084
:101E0800800A970FD8B00BEF0FF00DEF0FF00FEF20
:101E18000FF0D2EF0EF0D8902B322A322932283226
:101E2800313E0FEF0FF031EF0FF01F0E31641FEF4F
:101E38000FF021EF0FF029EF0FF0D2EF0EF0D8904E
:101E4800283629362A362B3631063150D8A42FEFBA
:101E58000FF031EF0FF023EF0FF03050D8B437EF19
:101E68000FF039EF0FF041EF0FF02B1E2A1E291E3D
:101E7800286C000E29222A222B2228C028F029C0EB
:101E880029F02AC02AF02BC02BF01200000E000106
:101E9800696FC0EF0FF080AA54EF0FF056EF0FF004
:101EA80072EF0FF01A0E0001686FF80EE82EFED7D9
:101EB800682FFCD700F080AA64EF0FF066EF0FF0F0
:101EC80072EF0FF0D90E0001636F7F0E646F8DEC17
:101ED80014F0A8EC16F0010E0001696F82A877EFE4
:101EE8000FF079EF0FF099EF0FF01A0E0001686FFD
:101EF800F80EE82EFED7682FFCD700F082A887EFEF
:101F08000FF089EF0FF099EF0FF0CE0E0001636F1D
:101F18007F0E646F8DEC14F0A2EC16F082B897EF88
:101F28000FF099EF0FF090EF0FF082AA9EEF0FF0ED
:101F3800A0EF0FF0C0EF0FF01A0E0001686FF80E57
:101F4800E82EFED7682FFCD700F082AAAEEF0FF07C
:101F5800B0EF0FF0C0EF0FF0E40E0001636F7F0EDB
:101F6800646F8DEC14F0A5EC16F082BABEEF0FF09A
:101F7800C0EF0FF0B7EF0FF000016951D8B4C7EF09
:101F88000FF0C9EF0FF04FEF0FF012000001FA51F8
:101F9800D8B4D1EF0FF0D3EF0FF040EF10F0000EF0
:101FA800B56F35EF10F0330E636F7F0E646F8DECF5
:101FB80014F00001B551300F0AEC16F00A0E0AECC5
:101FC80016F0D50E0001B525D96EDA6A000EDA22B0
:101FD800DF50B06FCB0EB525D96EDA6A000EDA2263
:101FE800DF50B16FDF0EB525D96EDA6A000EDA223E
:101FF800DF50C3EC10F0420E0001B525D96EDA6A45
:10200800000EDA22DF50B06F1E0EB525D96EDA6ADF
:10201800010EDA22DF50B16F4C0EB525D96EDA6A9F
:10202800000EDA22DF5047EC10F00A0E0001B52549
:10203800D96EDA6A010EDA22DF50616F000EB5251B
:10204800D96EDA6A010EDA22DF50626F140EB525F6
:10205800D96EDA6A010EDA22DF5079EC13F000014A
:10206800B52BFA51B55DD8A03CEF10F03EEF10F05B
:10207800D7EF0FF046EF10F01F0E636F7E0E646F00
:102088008DEC14F012000001B46F0001F805D8B40B
:1020980050EF10F052EF10F049EF10F0B451640D0A
:1020A800F3CFB2F0F4CFB3F0B0510A0DF350B2272A
:1020B800F450B323B151B227000EB323300EB2252A
:1020C800EB6FEB0EB321EC6FEF51EB5D616FF051ED
:1020D800EC59626F3AEC15F061C065F062C066F0C9
:1020E800000E0001686F050E676FC6EC15F065C03D
:1020F800F1F066C0F2F07E0E0001636F7F0E646F30
:102108008DEC14F00001F1510AEC16F00A0E0AECFD
:1021180016F00001EB51EF5DEC51F059D8B097EF94
:1021280010F099EF10F09CEF10F08C92A8EF10F0DF
:10213800EF51EB5DF051EC59D8B0A5EF10F0A7EFD7
:1021480010F0A8EF10F08C82EF51EB1909E1F05173
:10215800EC19D8B4B2EF10F0B4EF10F0C2EF10F0F1
:10216800010EF86FF1C061F0F2C062F077EC15F083
:10217800000E0AEC12F0320EACEC11F01200000165
:10218800B46F0001F805D8B4CCEF10F0CEEF10F022
:10219800C5EF10F0B451640DF3CFB2F0F4CFB3F043
:1021A800B0510A0DF350B227F450B323B151B227FE
:1021B800000EB323300EB225E96FEB0EB321EA6FA0
:1021C800F351E95D616FF451EA59626F3AEC15F029
:1021D80061C065F062C066F0000E0001686F050E10
:1021E800676FC6EC15F065C0F5F066C0F6F06F0EC7
:1021F8000001636F7F0E646F8DEC14F00001F551E0
:102208000AEC16F00A0E0AEC16F00001E951F35D2B
:10221800EA51F459D8B013EF11F015EF11F018EF97
:1022280011F08C9624EF11F0F351E95DF451EA595D
:10223800D8B021EF11F023EF11F024EF11F08C86C4
:10224800F351E91909E1F451EA19D8B42EEF11F064
:1022580030EF11F03EEF11F0010EF86FF5C061F0AC
:10226800F6C062F092EC15F0000EACEC11F0320EF4
:102278000AEC12F012000001FA51D8B446EF11F03E
:1022880048EF11F0A5EF11F0010EF96FA5EC0DF074
:10229800F80E0001636F7C0E646F8DEC14F01BEC7C
:1022A80014F000017A6F6AEF11F06D0E636F7A0E09
:1022B800646F8DEC14F0B10E0001636F7A0E646FD9
:1022C8008DEC14F01BEC14F000017A6FFA51726F68
:1022D800736BD00E746FFF0E756F7A51766F776BD4
:1022E80074517627755177237251765D7751800A3C
:1022F800786F7351800A7859D8B085EF11F087EF5D
:1023080011F059EF11F0A40E636F7E0E646F8DEC1F
:1023180014F000017A510AEC16F00A0E0AEC16F0D5
:1023280000017A51D00F7A6FFAC079F07AC0FAF0CA
:1023380042EC08F079C0FAF0000E0001F96FABEF3B
:1023480011F0280E636F7A0E646F8DEC14F0120092
:102358000001AD6F0A0E0001786FD70E796F230E5A
:102368007A6F3C0E7B6FAD51666F676B686B696BFC
:10237800010E21EC0BF066C074F067C075F068C000
:1023880076F069C077F077EC02F074C0A9F075C0F8
:10239800AAF076C0ABF077C0ACF0000E0001786F01
:1023A800000E796F7A0E7A6F440E7B6FA9C074F0B5
:1023B800AAC075F0ABC076F0ACC077F077EC02F04D
:1023C80074C09DF075C09EF076C09FF077C0A0F0F5
:1023D80043EC0EF09DC0AEF09EC0AFF0AEC0A7F0CB
:1023E800030E0001A717A73BBA50A719CF0BA719CF
:1023F800BA6EAEC0A7F0AFC0A8F0D890A833A73384
:10240800D890A833A733A751BB6E12000001AD6F57
:102418000A0E0001786FD70E796F230E7A6F3C0E83
:102428007B6FAD51666F676B686B696B010E21EC52
:102438000BF066C074F067C075F068C076F069C0CC
:1024480077F077EC02F074C0A9F075C0AAF076C0F6
:10245800ABF077C0ACF0000E0001786F000E796F1A
:102468007A0E7A6F440E7B6FA9C074F0AAC075F01B
:10247800ABC076F0ACC077F077EC02F074C09DF09A
:1024880075C09EF076C09FF077C0A0F043EC0EF0C8
:102498009DC0AEF09EC0AFF0AEC0A7F0030E000125
:1024A800A717A73BBD50A719CF0BA719BD6EAEC084
:1024B800A7F0AFC0A8F0D890A833A733D890A83316
:1024C800A733A751BE6E1200000E0001686FDF0E21
:1024D8006825D96EDA6A000EDA22000EDF6ED50E94
:1024E8006825D96EDA6A000EDA22000EDF6ECB0E8E
:1024F8006825D96EDA6A000EDA22000EDF6E4C0EFD
:102508006825D96EDA6A000EDA22000EDF6E420EF6
:102518006825D96EDA6A000EDA22000EDF6E1E0E0A
:102528006825D96EDA6A010EDA22000EDF6E140E03
:102538006825D96EDA6A010EDA22000EDF6E0A0EFD
:102548006825D96EDA6A010EDA22000EDF6E000EF7
:102558006825D96EDA6A010EDA22000EDF6E682B62
:10256800090E6865BAEF12F0BCEF12F06BEF12F0CB
:10257800000EFA6F6A0E636F7C0E646F8DEC14F0B8
:102588001200386E0A0E136ED70E146E230E156ED7
:102598003C0E166E3850016E026A036A046A010E18
:1025A800FDEC0BF001C00FF002C010F003C011F0F9
:1025B80004C012F08DEC04F00FC034F010C035F0F8
:1025C80011C036F012C037F0000E136E000E146EF4
:1025D8007A0E156E440E166E34C00FF035C010F02A
:1025E80036C011F037C012F08DEC04F00FC028F09F
:1025F80010C029F011C02AF012C02BF0C7EC0EF061
:1026080028C039F029C03AF039C032F0030E32162A
:10261800323ABA503218CF0B3218BA6E39C032F08B
:102628003AC033F0D89033323232D8903332323223
:102638003250BB6E1200386E0A0E136ED70E146E2F
:10264800230E156E3C0E166E3850016E026A036A30
:10265800046A010EFDEC0BF001C00FF002C010F08F
:1026680003C011F004C012F08DEC04F00FC034F078
:1026780010C035F011C036F012C037F0000E136EDE
:10268800000E146E7A0E156E440E166E34C00FF0DE
:1026980035C010F036C011F037C012F08DEC04F0E0
:1026A8000FC028F010C029F011C02AF012C02BF07A
:1026B800C7EC0EF028C039F029C03AF039C032F022
:1026C800030E3216323ABD503218CF0B3218BD6E97
:1026D80039C032F03AC033F0D89033323232D89021
:1026E800333232323250BE6E12000001656F000183
:1026F8006551640DF3CF63F0F4CF64F061510A0DB6
:10270800F3506327F450642362516327000E642357
:10271800300E6325ED6FEB0E6421EE6FED51EE1177
:10272800D8B499EF13F09BEF13F0CBEF13F0000E32
:10273800666FBDEF13F08D80020E0001646F040E0A
:10274800636FBA0EE82EFED7632FFCD7642FFAD733
:1027580000F08D90020E0001646F040E636FBA0ED4
:10276800E82EFED7632FFCD7642FFAD700F00001BC
:10277800662B6651636F646BED51635DEE5164596E
:10278800D8A0C9EF13F0CBEF13F09FEF13F01200AE
:10279800EE0E0001636F7F0E646F8DEC14F01BEC7E
:1027A80014F00001B56F1BEC14F00001B66F1BECC0
:1027B80014F00001B76FF60E636F7F0E646F8DEC37
:1027C80014F01BEC14F00001B86F1BEC14F00001BE
:1027D800B96F1BEC14F00001BA6F190E636F7F0E0E
:1027E800646F8DEC14F01BEC14F00001BB6F1BEC54
:1027F80014F00001BC6F1BEC14F00001BD6FB6C0F3
:10280800B0F0B7C0B1F0B551C3EC10F0B9C0B0F03A
:10281800BAC0B1F00001B85147EC10F0BCC061F08B
:10282800BDC062F00001BB5179EC13F01200F4EC6A
:1028380014F0000E0001686F44EF14F09EAA27EF11
:1028480014F029EF14F022EF14F0AECF68F0000E68
:10285800AE6E3A0E0001686134EF14F036EF14F0F2
:102868003EEF14F0300E68613CEF14F03EEF14F0C8
:1028780044EF14F09A0E636F7C0E646F8DEC14F0C5
:102888003A0E000168614BEF14F04DEF14F022EF9F
:1028980014F02F0E686553EF14F055EF14F022EF83
:1028A80014F06851120017EC15F0000E076E072897
:1028B800D8A461EF14F063EF14F065EF14F08CEF17
:1028C80014F007500324056E000E0420066E05C0A0
:1028D800F6FF06C0F7FF0800F5500009D8A477EF07
:1028E80014F079EF14F07BEF14F08CEF14F007502C
:1028F8000324056E000E0420066E05C0F6FF06C010
:10290800F7FF0800F55032EC16F0072A5BEF14F0D9
:102918001200F4EC14F0000E0001676F6751632594
:10292800656F000E6421666F65C0F6FF66C0F7FF2D
:102938000800F5500009D8A4A4EF14F0A6EF14F08D
:10294800A8EF14F0C0EF14F067516325656F000E0F
:102958006421666F65C0F6FF66C0F7FF0800F55092
:102968000AEC16F00001672B6729D8A4BEEF14F013
:10297800C0EF14F092EF14F01200000163516411DB
:10298800D8B4C9EF14F0CBEF14F0EFEF14F0010E48
:10299800656FD3EF14F0D89063376437652B64AF55
:1029A800D8EF14F0DAEF14F0CFEF14F06351615D53
:1029B80064516259D8A0E3EF14F0E5EF14F0E9EFA1
:1029C80014F06351615F6451625BD8906433633380
:1029D800652FDAEF14F061C061F062C062F0120096
:1029E800ABA2F9EF14F0FBEF14F00CEF15F0AECF3B
:1029F80061F0AECF61F0AECF61F0AECF61F0AB98D1
:102A0800AB88ABB20AEF15F00CEF15F0FBEF14F042
:102A1800ABA411EF15F013EF15F016EF15F0AE504B
:102A2800AC9AAC8A1200ABA21CEF15F01EEF15F0A1
:102A38002FEF15F0AECF01F0AECF01F0AECF01F021
:102A4800AECF01F0AB98AB88ABB22DEF15F02FEFFE
:102A580015F01EEF15F0ABA434EF15F036EF15F0B6
:102A680039EF15F0AE50AC9AAC8A1200000162BF83
:102A780048EF15F0625106E16105D8B046EF15F050
:102A880048EF15F056EF15F061C063F062C064F0CE
:102A9800631F641F634B642B63C061F064C062F002
:102AA8005AEF15F061C061F062C062F01200F4ECF8
:102AB80014F0000E0001666F6DEF15F06651632586
:102AC800D96E000E6421DA6EEBEC15F0DF6E0001B2
:102AD800662B6551665DD8A074EF15F076EF15F09A
:102AE80062EF15F01200000161516211D8B47FEF56
:102AF80015F081EF15F08FEF15F061510008636F45
:102B08006251D8A0E82A0008646F6451D76E63C088
:102B1800D6FF91EF15F0D768D66812000001615111
:102B28006211D8B49AEF15F09CEF15F0AAEF15F0E2
:102B380061510108636F6251D8A0E82A0008646FE8
:102B48006451CF6E63C0CEFFACEF15F0CF68CE688E
:102B5800120001EE00F0280EEE6AE806FDE100EE34
:102B6800CBF0300EEE6AE806FDE100EE42F0170EFB
:102B7800EE6AE806FDE159905992000EF86E0001E0
:102B8800A2EF06F0000165516703F3CF69F0F4CFB7
:102B98006AF065516803F3506A2766516703F3507A
:102BA8006A2769C065F06AC066F012009494BD5047
:102BB800F00B0C09BD6EF90ECB6E030ECA12CF0EC8
:102BC800BD16000EBE6E000ECC6ECA841200F4EC68
:102BD80014F09EAAF2EF15F0F4EF15F0EDEF15F0F2
:102BE800AECF62F0000EAE6E0001625112009492F8
:102BF8000F0EBA12F90ECB6E030ECA12CF0EBA160A
:102C0800000EBB6E000ECC6ECA8412000001626F0B
:102C1800F4EC14F0ACA213EF16F015EF16F00EEF6B
:102C280016F062C0ADFF1200CD90CD8ECD96CD8C42
:102C3800CD82CD849480000ECF6E000ECE6ECD80F6
:102C48001200948C948E100EAF6EAC84B886AC9C37
:102C5800AC8AAC98AB8EAB9CAB881200026E17ECBA
:102C680015F0ACA23AEF16F03CEF16F035EF16F07F
:102C780002C0ADFF1200D59ED59CD58AD598928802
:102C8800000ED76E000ED66ED58E1200010E576E4E
:102C98008C92010E0001F86F320EACEC11F01200AC
:102CA800010E586E8C96010E0001F86F320E0AEC78
:102CB80012F01200010E576E8C92010E0001F86F8F
:102CC800320EC5EC12F01200010E586E8C96010EF1
:102CD8000001F86F320E1FEC13F012008C82010E07
:102CE8000001F86F320EACEC11F012008C86010E68
:102CF8000001F86F320E0AEC12F012000F0EC1122A
:102D0800700ED36E6D966F861200959A959C928A76
:102D18008C9A8C9A8C9A12009590959294928C9099
:102D28008C928B9212009594959694948C948C9690
:102D38008B941200D09EF28CF28E12008C8A8C9C9E
:102D480012008C9A8C8C12008C9A8C9C1200969093
:0A2D580012009D801200F28A1200A2
:10782A00000A283029436F6D6F2066756E63696F91
:10783A006E61202028312941677265676172206371
:10784A006F6F7264656E6164612020202832294955
:10785A006D7072696D697220636F6F7264656E61B3
:10786A006461730A28332945646974617220636FFD
:10787A006F7264656E616461202020283429496E24
:10788A0069636961722050726F6772616D6120204D
:10789A002020202835295265696E69636961722042
:1078AA00746F646173206C617320636F6F726465B7
:1078BA006E616461730A283629436F6F7264656E5C
:1078CA006164612061637475616C20202028372906
:1078DA004D6F76696D69656E746F4C696272652069
:1078EA00283829486F6D652F496E66202839294D39
:1078FA006F76657242617365200A00496E74726F11
:10790A006475636520656E20656C207369677569A7
:10791A00656E7465206F7264656E206C6173207683
:10792A0061726961626C657320612075736172208E
:10793A00286E6F2075736573206C617320636F6D99
:10794A006173293A20636F6F7264582C636F6F7288
:10795A0064592C2320646520766563657320612051
:10796A0070726573696F6E6172205A00506172613C
:10797A00206D6F766572206C61206261736520707C
:10798A00726573696F6E6120756E6F206465206C15
:10799A006F7320626F746F6E657320646520617205
:1079AA0072696261206F206162616A6F2C2063755F
:1079BA00616E646F207465726D696E657320707292
:1079CA006573696F6E6120656C20626F746F6E20DB
:1079DA004F4B005475766973746520756E20657215
:1079EA00726F722C2065736372696265206C612004
:1079FA0070616C6162726120274D656E7527206F18
:107A0A0020276D656E75272070617261206163633E
:107A1A006564657220616C206D656E750A004E6F33
:107A2A0020707565646573206D6F6469666963614A
:107A3A007220636F6F7264656E6164617320706F28
:107A4A0072207175652061756E206E6F2068617392
:107A5A0020616772656761646F206E696E67756E13
:107A6A00610A004572726F722C206573746173200B
:107A7A007175657269656E646F206D6F6469666998
:107A8A0063617220756E6120636F6F7264656E61E7
:107A9A006461207175652061756E206E6F20616763
:107AAA0072656761730A004375616C20636F6F7258
:107ABA0064656E6164612071756965726573206DB4
:107ACA006F646966696361722C20656C69676520F9
:107ADA0076616C6F7265732076616C69646F733F4F
:107AEA000A00457374617320706F7220696E69634E
:107AFA00617220656C2070726F6772616D612C20F3
:107B0A0065737461732073656775726F3F202831DE
:107B1A002920536920285829204E6F005961206571
:107B2A007374616E206C617320313020636F6F72E1
:107B3A0064656E61646173206C6C656E61732C2080
:107B4A006E6F207075656465732061677265676121
:107B5A0072206D61730045736372696265206C619E
:107B6A002070616C6162726120274D656E752720F5
:107B7A006F20276D656E75272070617261206163C1
:107B8A00636564657220616C206D656E750A0056C6
:107B9A006173206120626F7272617220746F646116
:107BAA0073206C617320636F6F7264656E616461C8
:107BBA00732C2073656775726F3F20283129205313
:107BCA0069202858294E6F00496E74657272757063
:107BDA0063696F6E20544D52312C206C6C6567615D
:107BEA00737465206120636F6F7264656E6164618E
:107BFA00206465736561646120580A00496E746582
:107C0A007272757063696F6E20544D52302C206CFD
:107C1A006C656761737465206120636F6F72646558
:107C2A006E616461206465736561646120590A004C
:107C3A004C617320636F6F7264656E616461732057
:107C4A0061637475616C657320736F6E2028582C9C
:107C5A0020592C20546F71756573205A29200A0007
:107C6A004C6973746F2C20746F646173206C617338
:107C7A0020636F6F7264656E616461732068616E00
:107C8A00207369646F20626F7272616461730A00A3
:107C9A00536F6C6F2070756564657320696E7472BA
:107CAA006F6475636972206E756D65726F732C20CF
:107CBA00707275656261206465206E7565766F0005
:107CCA004F63757272696F206C6120696E74657298
:107CDA0072757063696F6E206C696D697453776928
:107CEA007463683345737175696E61730A0043750D
:107CFA00616C20646520657374617320636F6F72B1
:107D0A0064656E616461732071756965726573205B
:107D1A006D6F646966696361723F0A00456C6567E5
:107D2A0069737465206C61206F7063696F6E20647B
:107D3A006520696D7072696D697220636F6F726414
:107D4A00656E616461730A00436F6F7264656E6188
:107D5A0064612072656369626964612C206C6F20BA
:107D6A00717565207265636962696D6F73206675E6
:107D7A00653A004F63757272696F206C6120696E93
:107D8A0074657272757063696F6E206C696D69745F
:107D9A00537769746368486F6D65580A004F637555
:107DAA007272696F206C6120696E74657272757087
:107DBA0063696F6E206C696D69745377697463685F
:107DCA00486F6D65590A004861732061677265677B
:107DDA0061646F2065737465206E756D65726F20BE
:107DEA00646520636F6F7264656E616461733A00E3
:107DFA00456C656363696F6E206E6F2076616C698E
:107E0A006461207675656C7661206120696E74659F
:107E1A006E746172004E6F206861732061677265CB
:107E2A006761646F206E696E67756E6120636F6F3C
:107E3A007264656E616461005265636962692023D8
:107E4A0020646520766563657320612070726573AE
:107E5A00696F6E6172205A0A004D657469737465A0
:107E6A0020756E6120636F6F7264656E6164612054
:107E7A00696E76616C6964610A0020636F6F72646F
:107E8A00656E616461732C206C6173206375616C2B
:107E9A00657320736F6E3A200A0056617320612061
:107EAA006D6F64696669636172206C6120636F6FCC
:107EBA007264656E616461200048617320656C6557
:107ECA006769646F206D6F76696D69656E746F207E
:107EDA006C696272650A00456C69676520283129F8
:107EEA0020696E66696E69746F206F203020286879
:107EFA006F6D65290046756E63696F6E616D6965A0
:107F0A006E746F2064656C2053504152433A0044AA
:107F1A00616D652076656365732061207072657393
:107F2A00696F6E6172205A0A0059656E646F20612A
:107F3A0020636F6F7264656E6164613A20005369F1
:107F4A0020206C6C65677565206120686F6D6520FF
:107F5A005800526567726573616E646F20616C20A8
:107F6A006D656E750078546F416476616E63652045
:107F7A0069733A0079546F416476616E636520696A
:107F8A00733A0052656369626920636F6F7264585D
:107F9A000052656369626920636F6F7264590045B4
:107FAA006E747261736520616C2038004167726576
:107FBA0067617374653A2000436F6F7264656E611E
:107FCA00646120004D6F764172726962610A000A2B
:107FDA0053616C69656E646F0A004D6F7641426148
:107FEA006A6F0A0044616D6520580A0044616D6534
:057FFA0020590A0000FF
:020000040020DA
:08000000FFFFFFFFFFFFFFFF00
:020000040030CA
:0E00000000091F1EFF8381FF0FC00FE00F409D
:00000001FF
