:020000040000FA
:0400000014EF00F009
:060008000B82D6ED04F0AE
:100018000B80E0CF01F000F001C0E0FF0B90100072
:04002800C7EF04F02A
:10080000002C0000000E076E07500324056E000E3A
:100810000420066E05C0F6FF06C0F7FF0800F5507D
:100820000009D8A416EF04F018EF04F01AEF04F052
:1008300031EF04F007500324056E000E0420066E0D
:1008400005C0F6FF06C0F7FF0800F550A6EC04F05F
:10085000072A0728D8A42FEF04F031EF04F004EFA3
:1008600004F01200D0EC04F099EC04F0B1EC04F0C8
:10087000BCEC04F05EEC04F08CEC04F0086E310E7D
:100880000818D8A446EF04F048EF04F03CEF04F059
:1008900076EC04F002C009F003C00AF00A50A6EC9E
:1008A00004F0010E036E080E046E02EC04F0095011
:1008B000A6EC04F03CEF04F014EF00F0C30EC216F7
:1008C000CF0EC116C150F00B0E09C16EC08EC050C4
:1008D000C70B2009C06EC050F80B0409C06E000E93
:1008E000C46E000EC36E9280C2801200C282C2B279
:1008F0007CEF04F07EEF04F077EF04F0C450056E57
:10090000046AC3500424066E000E0520076E06C05C
:1009100002F007C003F012009EAA91EF04F093EFDB
:1009200004F08CEF04F0AECF02F0000EAE6E025079
:100930001200948C948E100EAF6EAC84B886AC9C72
:10094000AC8AAC98AB8EAB9CAB881200026EACA2AA
:10095000ACEF04F0AEEF04F0A7EF04F002C0ADFF7F
:10096000120094920F0EBA127C0ECB6E030ECA12B6
:10097000000ECC6ECA84120094940F0EBD127C0E31
:10098000CB6E030ECA12000ECC6ECA8412000B90FE
:100990000B92000EF86E080EF76E000132EF04F0B5
:1009A0000F0EC112700ED36E93901200060000F06D
:0409B0000B92110095
:020000040020DA
:08000000FFFFFFFFFFFFFFFF00
:020000040030CA
:0E00000000091F1FFF0381FF0FC00FE00F401C
:00000001FF
