:020000040000FA
:0400000014EF00F009
:06000800128244ED01F03C
:100018001280E0CF01F000F001C0E0FF1290100064
:1000280037EF01F03EEC01F01FEC01F0000E106E0E
:100038000C0E0A6E000E0B6E12EC01F06C0E036EC5
:100048007F0E046ECAEC00F00AC003F00BC004F087
:10005800040E086E08C005F0FAEC00F04D0E0C18FE
:10006800D8B439EF00F03BEF00F044EF00F06D0E2C
:100078000C18D8A442EF00F044EF00F0C0EF00F0F5
:10008800650E0D18D8A44BEF00F04DEF00F0C0EF4F
:1000980000F06E0E0E18D8A454EF00F056EF00F0E2
:1000A800C0EF00F0750E0F18D8A45DEF00F05FEFF9
:1000B80000F0C0EF00F0240E036E7F0E046ECAEC51
:1000C80000F012EC01F0116E72EF00F0A50E036E55
:1000D8007F0E046ECAEC00F065EF00F03A0E116076
:1000E80078EF00F07AEF00F06AEF00F02F0E11645D
:1000F80080EF00F082EF00F06AEF00F0310E111887
:10010800D8A489EF00F08BEF00F091EF00F0CA0E51
:10011800036E7F0E046ECAEC00F0320E1118D8A4DC
:1001280098EF00F09AEF00F0A0EF00F0D70E036E02
:100138007F0E046ECAEC00F0330E1118D8A4A7EF96
:1001480000F0A9EF00F0AFEF00F0E40E036E7F0EB1
:10015800046ECAEC00F0340E1118D8A4B6EF00F003
:10016800B8EF00F028EF00F0F10E036E7F0E046E7A
:10017800CAEC00F028EF00F0D90E036E7E0E046E74
:10018800CAEC00F028EF00F014EF00F0000E076E44
:1001980007500324056E000E0420066E05C0F6FF06
:1001A80006C0F7FF0800F5500009D8A4DEEF00F0FC
:1001B800E0EF00F0E2EF00F0F9EF00F00750032461
:1001C800056E000E0420066E05C0F6FF06C0F7FF98
:1001D8000800F5502CEC01F0072A0728D8A4F7EFFF
:1001E80000F0F9EF00F0CCEF00F01200000E066E00
:1001F80008EF01F006500324D96E000E0420DA6ED1
:1002080012EC01F0DF6E062A0550065CD8A00FEF4D
:1002180001F011EF01F0FEEF00F012009EAA17EFB7
:1002280001F019EF01F012EF01F0AECF02F0000E6D
:10023800AE6E02501200948C948E100EAF6EAC8489
:10024800B886AC9CAC8AAC98AB8EAB9CAB881200E1
:10025800026EACA232EF01F034EF01F02DEF01F0A5
:1002680002C0ADFF120012901292000EF86E00014B
:1002780016EF00F00F0EC112700ED36E939012009D
:08028800060000F012921100C3
:107ED800005475766973746520756E206572726FCB
:107EE800722C2065736372696265206C6120706111
:107EF8006C6162726120274D656E7527206F20279F
:107F08006D656E75272070617261206163636564B9
:107F1800657220616C206D656E750A002831295FD5
:107F2800496E74726F647563697220636F6F7264EF
:107F3800656E61646173202832295F496E696369DF
:107F480061722050726F6772616D61202833295FFA
:107F58004972206120686F6D65202834295F4E6161
:107F680064610A0045736372696265206C61207000
:107F7800616C6162726120274D656E7527206F20E4
:107F8800276D656E75272070617261206163636576
:107F980064657220616C206D656E750A00456C65BC
:107FA8006363696F6E206E6F2076616C696461200F
:107FB8007675656C7465206120696E74656E746190
:107FC8007200456E747261736520616C20310045E2
:107FD8006E747261736520616C203200456E747234
:107FE80061736520616C203300456E74726173653E
:077FF80020616C2034000041
:020000040020DA
:08000000FFFFFFFFFFFFFFFF00
:020000040030CA
:0E00000000091F1FFF0381FF0FC00FE00F401C
:00000001FF
