:020000040000FA
:0400000014EF00F009
:060008005A82CCED07F066
:100018005A80E0CF01F000F001C0E0FF5A901000D4
:1000280034EF07F01350800B1C6E13501324226E0C
:1000380012AE21EF00F023EF00F024EF00F0228051
:100048002250D8B42AEF00F02CEF00F03FEF00F078
:100058002228D8A432EF00F034EF00F03CEF00F093
:10006800000E106E000E116E000E126E000E136E52
:10007800128E47EF00F0000E106E000E116E000E8B
:10008800126E000E136E1750800B1C1A175017248F
:10009800216E16AE52EF00F054EF00F055EF00F06D
:1000A80021802150D8B45BEF00F05DEF00F070EFD5
:1000B80000F02128D8A463EF00F065EF00F06DEFA1
:1000C80000F0000E146E000E156E000E166E000E77
:1000D800176E168E78EF00F0000E146E000E156E77
:1000E800000E166E000E176E2150D8B47EEF00F089
:1000F80080EF00F088EF00F02250D8A486EF00F0DF
:1001080088EF00F092EF00F0000E106E000E116EF6
:10011800000E126E000E136E2AEF02F01650100237
:10012800F3CF27F0F4CF28F027501D6E1E6A1F6A00
:10013800206A2850236E246A256A266A15501102FF
:10014800F3CF27F0F4CF28F027501D26000E1E22EB
:100158001F22202228502326000E24222522262270
:1001680014501202F3CF27F0F4CF28F027501D26A1
:10017800000E1E221F22202228502326000E242291
:10018800252226221FC020F01EC01FF01DC01EF011
:100198001D6A14501102F3CF27F0F4CF28F027502E
:1001A8001D2628501E22000E1F22000E2022155048
:1001B8001002F3CF27F0F4CF28F027501D2628503F
:1001C8001E22000E1F22000E20221FC020F01EC07B
:1001D8001FF01DC01EF01D6A14501002F3CF27F047
:1001E800F4CF28F027501D2628501E22000E1F226B
:1001F800000E202216501102F3CF27F0F4CF28F07A
:100208002750232628502422000E2522000E2622BD
:1002180015501202F3CF27F0F4CF28F027502326E9
:1002280028502422000E2522000E262216501202E3
:10023800F3CF27F0F4CF28F02750186E2850196E06
:100248001A6A1B6A1AC01BF019C01AF018C019F0F4
:10025800186A18502326195024221A5025221B5098
:1002680026221DC018F01EC019F01FC01AF020C0A9
:100278001BF0190E45EF01F0D8901B321A321932D3
:100288001832E82E40EF01F0185023261950242286
:100298001A5025221B5026221FC020F01EC01FF016
:1002A8001DC01EF01D6A215022C018F0196A1826B8
:1002B800000E1922820E1824276EFF0E1920286EB0
:1002C8007BEF01F0D890233624362536263620AE2B
:1002D80070EF01F072EF01F073EF01F02380D89016
:1002E8001D361E361F3620362706D8A0280625AE0E
:1002F80080EF01F082EF01F066EF01F0000E216E51
:1003080020AE89EF01F08BEF01F0AFEF01F0FF0EA7
:100318001D14186EFF0E1E14196EFF0E1F141A6E90
:100328007F0E20141B6E185019101A101B10D8B409
:10033800A0EF01F0A2EF01F0A6EF01F0010E216E8F
:10034800AFEF01F023A0ABEF01F0ADEF01F0AFEF9D
:1003580001F0A2EF01F02150D8B4B5EF01F0B7EFEA
:1003680001F0DBEF01F0010E2326000E24222522E6
:10037800262226A0C2EF01F0C4EF01F0DBEF01F066
:1003880023C018F024C019F025C01AF026C01BF0AD
:100398001B341B321A321932183218C023F019C014
:1003A80024F01AC025F01BC026F0274A282A28BEA8
:1003B800E6EF01F0285008E12728D8A0E6EF01F081
:1003C800E8EF01F0F2EF01F0000E236E000E246E4C
:1003D800800E256E7F0E266E20EF02F028BEFFEFFE
:1003E80001F0285006E12704D8B0FDEF01F0FFEF37
:1003F80001F00BEF02F0000E236E000E246E000ECB
:10040800256E000E266E000E1C6E20EF02F027C02F
:1004180022F0FF0E2316FF0E24167F0E2516000E5F
:10042800261622A01AEF02F01CEF02F01DEF02F0D0
:10043800258ED8902230266E1C50261223C010F02C
:1004480024C011F025C012F026C013F01200000ECF
:10045800106E000E0F6EC10E036E7D0E046EECEC76
:1004680006F0460E5924D96EDA6A000EDA2274ECC8
:1004780007F0DF6EA60E5924D96EDA6A000EDA226A
:1004880074EC07F0DF6E9C0E5924D96EDA6A000E00
:10049800DA2274EC07F0DF6EBD0E036E7F0E046E79
:1004A800ECEC06F0920E5924D96EDA6A000EDA22C4
:1004B80074EC07F0DF6E880E5924D96EDA6A000EE4
:1004C800DA2274EC07F0DF6E7E0E5924D96EDA6AF0
:1004D800000EDA2274EC07F0DF6ECB0E036E7F0E8F
:1004E800046EECEC06F0740E5924D96EDA6A000E2C
:1004F800DA2274EC07F0DF6E6A0E5924D96EDA6AD4
:10050800000EDA2274EC07F0DF6E600E5924D96E03
:10051800DA6A000EDA2274EC07F0DF6E320E036E30
:100528007F0E046EECEC06F0460E5924D96EDA6A9A
:10053800000EDA22DF50086E0850640DF3CF09F080
:10054800F4CF0AF0A60E5924D96EDA6A000EDA2220
:10055800DF500B6E0B500A0DF3500926F4500A2297
:100568009C0E5924D96EDA6A000EDA22DF500C6E1E
:100578000C500926000E0A22300E09240D6EEB0ECF
:100588000A200E6E920E5924D96EDA6A000EDA220B
:10059800DF50086E0850640DF3CF09F0F4CF0AF06D
:1005A800880E5924D96EDA6A000EDA22DF500B6EF3
:1005B8000B500A0DF3500926F4500A227E0E5924D6
:1005C800D96EDA6A000EDA22DF500C6E0C5009265A
:1005D800000E0A22300E09240F6EEB0E0A20106E50
:1005E8002D0E0D5C010E0E58D8B0FDEF02F0FFEF96
:1005F80002F00AEF03F02D0E0F5C010E1058D8A080
:1006080008EF03F00AEF03F012EF03F0530E036E46
:100618007F0E046EECEC06F02FEF02F0E20E036E94
:100628007E0E046EECEC06F0460E5924D96EDA6A9A
:10063800000EDA22DF50B1EC07F0A60E5924D96E6D
:10064800DA6A000EDA22DF50B1EC07F09C0E59246A
:10065800D96EDA6A000EDA22DF50B1EC07F02C0E00
:10066800B1EC07F0920E5924D96EDA6A000EDA223C
:10067800DF50B1EC07F0880E5924D96EDA6A000E03
:10068800DA22DF50B1EC07F07E0E5924D96EDA6A0F
:10069800000EDA22DF50B1EC07F02C0EB1EC07F0B7
:1006A800740E5924D96EDA6A000EDA22DF50B1ECE2
:1006B80007F06A0E5924D96EDA6A000EDA22DF5082
:1006C800B1EC07F0600E5924D96EDA6A000EDA220E
:1006D800DF50B1EC07F02E0EB1EC07F0592A1200EA
:1006E8000A6E0A50D8B47BEF03F07DEF03F09FEF5A
:1006F80003F005BE84EF03F082EF03F09FEF03F0F1
:1007080002C006F003C007F004C008F005C009F0F5
:10071800061E071E081E091E062A000E07220822AA
:10072800092206C00CF007C00DF008C00EF009C081
:100738000FF0A7EF03F002C00CF003C00DF004C0E7
:100748000EF005C00FF00250031004100510D8A4D5
:10075800B0EF03F0B2EF03F0BCEF03F0000E026E4F
:10076800000E036E000E046E000E056E4DEF04F0D1
:10077800960E0B6EC6EF03F00B2AD8900F320E328E
:100788000D320C32000E0C14066E000E0D14076E9E
:10079800000E0E14086EFE0E0F14096E0650071098
:1007A80008100910D8A4DBEF03F0DDEF03F0C0EF69
:1007B80003F0EBEF03F00B2A010E0C26000E0D22BE
:1007C8000E220F22D8900F320E320D320C32000E4C
:1007D8000C14066E000E0D14076E000E0E14086E33
:1007E800FF0E0F14096E0650071008100910D8A440
:1007F80000EF04F002EF04F0DFEF03F00AEF04F07B
:100808000B06D8900C360D360E360F360EBE0FEF8F
:1008180004F011EF04F019EF04F0020E0B6017EF6B
:1008280004F019EF04F004EF04F00BB01EEF04F02D
:1008380020EF04F021EF04F00E9ED8900B320BC08D
:1008480006F0076A086A096A06C009F0086A076AB2
:10085800066A06500C1207500D1208500E12095065
:100868000F120A50D8B43BEF04F03DEF04F045EF07
:1008780004F005BE44EF04F042EF04F045EF04F045
:100888000F8E0CC002F00DC003F00EC004F00FC0B4
:1008980005F01200C3EC07F08EEC07F058EC07F0F7
:1008A80047EC07F0000E38EC06F0000E92EC06F06C
:1008B800A6EC07F0BCEC07F09BEC07F067EC07F040
:1008C800C8EC07F0D2EC07F0D0EC07F081EC07F0A9
:1008D800000E446E400E3E6E000E3F6E74EC07F044
:1008E8007D0E036E7E0E046EECEC06F03EC003F047
:1008F8003FC004F0040E3C6E3CC005F01CEC07F051
:100908004D0E4018D8B48BEF04F08DEF04F096EF3D
:1009180004F06D0E4018D8A494EF04F096EF04F09C
:100928000AEF05F0650E4118D8A49DEF04F09FEF7B
:1009380004F00AEF05F06E0E4218D8A4A6EF04F0F2
:10094800A8EF04F00AEF05F0750E4318D8A4AFEF2E
:1009580004F0B1EF04F00AEF05F0ED0E036E7C0E23
:10096800046EECEC06F074EC07F0456EC4EF04F08E
:100978000D0E036E7F0E046EECEC06F0B7EF04F07C
:100988003A0E4560CAEF04F0CCEF04F0BCEF04F077
:100998002F0E4564D2EF04F0D4EF04F0BCEF04F05E
:1009A800310E4518D8A4DBEF04F0DDEF04F0DFEFDB
:1009B80004F02BEC02F0320E4518D8A4E6EF04F050
:1009C800E8EF04F0EAEF04F014EC05F0330E4518F4
:1009D800D8A4F1EF04F0F3EF04F0F9EF04F0D90E26
:1009E800036E7F0E046EECEC06F0340E4518D8A4A6
:1009F80000EF05F002EF05F07AEF04F0E60E036E63
:100A08007F0E046EECEC06F07AEF04F0320E036E03
:100A18007E0E046EECEC06F07AEF04F014EF00F0B2
:100A2800B60E036E7E0E046EECEC06F0F30E036E4B
:100A38007F0E046EECEC06F0090E596426EF05F003
:100A480028EF05F030EF05F0310EB1EC07F0300E6D
:100A5800B1EC07F033EF05F0730EB1EC07F0740E4C
:100A6800036E7F0E046EECEC06F0000E096EABEF21
:100A780005F0AE0E036E7F0E046EECEC06F0095026
:100A8800300FB1EC07F0930E036E7F0E046EECECA2
:100A980006F0460E0924D96EDA6A000EDA22DF5013
:100AA800B1EC07F0A60E0924D96EDA6A000EDA2234
:100AB800DF50B1EC07F09C0E0924D96EDA6A000EFB
:100AC800DA22DF50B1EC07F02C0EB1EC07F0920EF1
:100AD8000924D96EDA6A000EDA22DF50B1EC07F089
:100AE800880E0924D96EDA6A000EDA22DF50B1ECDA
:100AF80007F07E0E0924D96EDA6A000EDA22DF507A
:100B0800B1EC07F02C0EB1EC07F0740E0924D96E85
:100B1800DA6A000EDA22DF50B1EC07F06A0E092417
:100B2800D96EDA6A000EDA22DF50B1EC07F0600EF7
:100B38000924D96EDA6A000EDA22DF50B1EC07F028
:100B48002E0EB1EC07F00A0EB1EC07F0092A595045
:100B5800095CD8A0B2EF05F0B4EF05F03DEF05F061
:100B680012002B342C34326E3250D8A4BEEF05F06C
:100B7800C0EF05F0CAEF05F0000E296E000E2A6ED0
:100B8800000E2B6E000E2C6E37EF06F029C02DF0EC
:100B98002AC02EF02BC02FF02CC030F0200EDAEF38
:100BA80005F0D89030322F322E322D32E82ED5EF84
:100BB80005F02D50316E2B8EFF0E2916FF0E2A16CA
:100BC800FF0E2B16000E2C16960E325E32BEF1EF7B
:100BD80005F0EFEF05F007EF06F03250800A970FA7
:100BE800D8B0F9EF05F0FBEF05F0FDEF05F0C0EF29
:100BF80005F0D8902C322B322A322932323EFDEFC2
:100C080005F01FEF06F01F0E32640DEF06F00FEF30
:100C180006F017EF06F0C0EF05F0D89029362A360F
:100C28002B362C3632063250D8A41DEF06F01FEFB3
:100C380006F011EF06F03150D8B425EF06F027EF93
:100C480006F02FEF06F02C1E2B1E2A1E296C000E14
:100C58002A222B222C2229C029F02AC02AF02BC0B4
:100C68002BF02CC02CF01200396E0A0E146ED70E21
:100C7800156E230E166E3C0E176E3950026E036AFF
:100C8800046A056A010E74EC03F002C010F003C098
:100C980011F004C012F005C013F016EC00F010C0FB
:100CA80035F011C036F012C037F013C038F0000E1E
:100CB800146E000E156E7A0E166E440E176E35C041
:100CC80010F036C011F037C012F038C013F016EC2F
:100CD80000F010C029F011C02AF012C02BF013C088
:100CE8002CF0B5EC05F029C03AF02AC03BF03AC028
:100CF80033F0030E3316333ABA503318CF0B331888
:100D0800BA6E3AC033F03BC034F0D8903432333244
:100D1800D890343233323350BB6E1200396E0A0E1B
:100D2800146ED70E156E230E166E3C0E176E3950C4
:100D3800026E036A046A056A010E74EC03F002C0CD
:100D480010F003C011F004C012F005C013F016EC47
:100D580000F010C035F011C036F012C037F013C0E3
:100D680038F0000E146E000E156E7A0E166E440ED4
:100D7800176E35C010F036C011F037C012F038C009
:100D880013F016EC00F010C029F011C02AF012C0C0
:100D98002BF013C02CF0B5EC05F029C03AF02AC0AE
:100DA8003BF03AC033F0030E3316333ABD503318D4
:100DB800CF0B3318BD6E3AC033F03BC034F0D89037
:100DC80034323332D890343233323350BE6E12005C
:100DD800000E076E07500324056E000E0420066EF1
:100DE80005C0F6FF06C0F7FF0800F5500009D8A4B3
:100DF80000EF07F002EF07F004EF07F01BEF07F032
:100E080007500324056E000E0420066E05C0F6FF89
:100E180006C0F7FF0800F550B1EC07F0072A0728CD
:100E2800D8A419EF07F01BEF07F0EEEF06F0120059
:100E3800000E066E2AEF07F006500324D96E000E46
:100E48000420DA6E74EC07F0DF6E062A0550065CA3
:100E5800D8A031EF07F033EF07F020EF07F01200CA
:100E680000EE60F0580EEE6AE806FDE100EE46F08E
:100E7800140EEE6AE806FDE15A905A92000EF86EDA
:100E880000014EEF04F09494BD50F00B0C09BD6EB8
:100E9800F90ECB6E030ECA12CF0EBD16000EBE6E33
:100EA800000ECC6ECA84120094920F0EBA12F90E7C
:100EB800CB6E030ECA12CF0EBA16000EBB6E000E12
:100EC800CC6ECA841200CD90CD8ECD96CD8CCD82BD
:100ED800CD849480000ECF6E000ECE6ECD801200B1
:100EE8009EAA79EF07F07BEF07F074EF07F0AECF1B
:100EF80002F0000EAE6E02501200F292F288F18CEF
:100F08009380F090F086F18A9382F092F088F188CD
:100F180093841200948C948E100EAF6EAC84B886B5
:100F2800AC9CAC8AAC98AB8EAB9CAB881200D59EBF
:100F3800D59CD58AD5989288000ED76E000ED66EAD
:100F4800D58E12009294929689948996959095924E
:100F580094928C908C928B921200026EACA2B7EF96
:100F680007F0B9EF07F0B2EF07F002C0ADFF1200CB
:100F78009594959694948C948C968B9412000F0E5D
:100F8800C112700ED36E1200D09EF28CF28E120037
:100F9800060000F05A9211009D801200F28A120099
:107CEC0000283029417975646120736F62726520B8
:107CFC00636F6D6F2066756E63696F6E6120656C66
:107D0C002070726F6772616D6120283129496E7421
:107D1C00726F647563697220636F6F7264656E61F4
:107D2C006461206E7565766120283229496D707208
:107D3C00696D6972206C617320636F6F7264656E1C
:107D4C006164617320726563696269646173202880
:107D5C0033294972206120686F6D650A2834294DDA
:107D6C006F6469666963617220636F6F7264656EBC
:107D7C0061646120283529496E69636961722050FC
:107D8C00726F6772616D6120283629426F72726161
:107D9C007220656C2076616C6F7220646520746F44
:107DAC00646173206C617320636F6F7264656E61C4
:107DBC006461730A00496E74726F64756365206543
:107DCC006E20656C207369677569656E7465206FCC
:107DDC007264656E206C6173207661726961626C8D
:107DEC0065732061207573617220286E6F20757326
:107DFC006573206C617320636F6D6173293A206326
:107E0C006F6F7264582C636F6F7264592C232064EB
:107E1C006520766563657320612070726573696F88
:107E2C006E6172205A005475766973746520756E94
:107E3C00206572726F722C206573637269626520A3
:107E4C006C612070616C6162726120274D656E758A
:107E5C0027206F20276D656E752720706172612059
:107E6C006163636564657220616C206D656E750A73
:107E7C000045736372696265206C612070616C618E
:107E8C0062726120274D656E7527206F20276D6506
:107E9C006E75272070617261206163636564657221
:107EAC0020616C206D656E750A00456C65676973A1
:107EBC007465206C61206F7063696F6E206465203F
:107ECC00696D7072696D697220636F6F7264656E33
:107EDC00616461730A00436F6F7264656E61646103
:107EEC002072656369626964612C206C6F20717506
:107EFC0065207265636962696D6F73206675653A9A
:107F0C0000456C656363696F6E206E6F2076616CE3
:107F1C00696461207675656C7661206120696E7488
:107F2C00656E746172005265636962692023206416
:107F3C006520766563657320612070726573696F67
:107F4C006E6172205A0A004D6574697374652075F0
:107F5C006E6120636F6F7264656E61646120696E1F
:107F6C0076616C6964610A00636F6F7264656E613F
:107F7C006461732C206C6173206375616C65732074
:107F8C00736F6E3A200A0020636F6E7469656E65BC
:107F9C00206C6F732076616C6F7265732064653A28
:107FAC0020004C6120636F6F7264656E61646120A8
:107FBC000052656369626920636F6F726458005286
:107FCC00656369626920636F6F72645900456E74F2
:107FDC007261736520616C203300456E747261733D
:107FEC006520616C2034004167726567617374654C
:037FFC003A000048
:020000040020DA
:08000000FFFFFFFFFFFFFFFF00
:020000040030CA
:0E00000000091F1FFF0381FF0FC00FE00F401C
:00000001FF
